:020000040000FA
:10000000FC0F0020D500000029190000E9140000B1
:10001000DD000000DF000000E10000000000000043
:10002000000000000000000000000000271A00008F
:10003000E5000000000000001D1A00006D00002017
:10004000EB000000EB000000851C0000C11C00005C
:1000500077000020351B00003D1B0000EB00000076
:10006000EB000000EB000000591D0000EB00000059
:10007000EB0000005109000059090000EB000000EE
:100080001F1A0000852B0000EB000000EF0A0000A3
:10009000EB000000EB000000EB000000EB000000B4
:1000A000EB000000EB000000EB000000EB000000A4
:1000B000F10A0000EB00000049090000190A0000E5
:1000C0000348854600F016FC00480047D92B000085
:1000D000FC0F002005480047FEE7FEE7FEE7FEE7CD
:1000E000FEE7FEE7FEE7FEE7FEE7FEE7C1000000F1
:1000F00030B50B46014600202022012409E00D46C0
:10010000D5409D4205D31D469540491B2546954047
:1001100040191546521E002DF1DC30BD70B500248B
:100120002546002801DA01244042002901DA012590
:100130004942FFF7DDFFAC4200D04042002C00D026
:10014000494270BD0321001D401E037812021A436C
:10015000491EF9D510467047F8B502464A40D40FFB
:1001600042004B0052085B089A4202D202460846FF
:1001700011464A0023D0C30D4A00DDB2120EAD1A5B
:10018000202D35DA49020126490AF6058A19002C84
:1001900000D0524220214F1B1146B9402A4110186D
:1001A000C20D9A4221D0002C17D0012D08DCDA05AF
:1001B000801AD20F8019D207DBB200F0CFFAF8BD57
:1001C000DA05801A012340001B06C01880185A4225
:1001D0008018CA0F1043490007E04908C2071143BD
:1001E000DA05801A80194008801800F0AFFAF8BDCF
:1001F00061000122511A001BF7E70122D20751408A
:10020000AAE70122D2075040A6E7024670B54A404D
:10021000D30FDB0740002DD04A002AD0010E140E68
:10022000000212020919400A520A8418E501044624
:100230005443000A120A2E045043A4194219200CF8
:10024000C543AA18120C0125AD03521C5219120401
:100250007F39240400D0521C104301D44000491EB1
:10026000C2B20C06C0092018401C4008802A02D0E7
:1002700003E0002070BD40084000002900DA0020A3
:10028000184370BDF0B507460846584087B0C00F08
:10029000049048000E46590040084908BC1A88419D
:1002A00005D2384631461E4617460B4602465800D0
:1002B000400810434CD0300D039040055900400DCC
:1002C000490D0590401A0290402872DA1803012166
:1002D000000B09050843019004980092002805D0FE
:1002E00001995242002088410092019002984021D9
:1002F0000A1A0199009800F0F5F905460C466B467C
:1003000007CB00F010FAC0197141039A0E0D0023BB
:10031000D71756401A467A40164344D0049A002A0A
:100320002DD0029A012A039A15DC1205C01A9141B8
:1003300001263605001C7141D20F059ED20700939D
:10034000019202962A46234600F04EFA07B0F0BD0D
:1003500038463146FAE71605224A0F46B218C01A47
:10036000B74101210905001C4F4100187F4111468A
:1003700018187941E20F10436D19644113E0E20748
:100380006D0815436408C2071443039A0126120539
:10039000C01A91413605001C7141CE074008304318
:1003A0004908C01851412A46234600F010FACDE70B
:1003B000FFE7049801224000C117121A00238B4165
:1003C00004983146C417381AA141EEE730B401242D
:1003D000E407634030BC55E730B40124E4076140D2
:1003E00030BC4FE70000E0FFF0B51FB488B00B99B8
:1003F0000998002448400999C00F4900490809910B
:10040000C0070B990090490049080B910999089879
:10041000A64608431CD00B990A98084318D009989F
:1004200001244000420D4800410D099824050003B5
:10043000000B204309900B980003000B20430B9006
:1004400050181C494018002201901446104605E03F
:10045000002001460DB0F0BD032801DA034600E09C
:1004600003239C46C11A0AAE0AE05F0008ADED5BAB
:100470004F00F75B7D430027AA187C41491C5B1E97
:100480006145F2DD410004AB5A522104120C0A43CB
:10049000240C401C0828DFDB01980290009970466C
:1004A00001910090059B049A0799069800F09CF929
:1004B000D0E700000DFCFFFFF0B50C465C4085B0B6
:1004C000E40FE40703944C000026640859009446A6
:1004D000490802460296224321D062460A431ED0B2
:1004E0006200570D4A000E032303550D01240246F6
:1004F0002C492405781B1B0B360B4018234326433D
:10050000614600901C46501AB44103D30098401C29
:10051000009002E0921800985B41002803DA002066
:10052000014605B0F0BD00200121090507468646B9
:1005300011E064461D46141BB54106D36546521BA7
:10054000B341744607430C43A646CD07400849080B
:10055000284392185B4105460D43EAD110461843E3
:1005600013D06046194650407140084306D060469B
:10057000101AB34106D20122002306E00022012313
:10058000DB0702E00122D2435310009874460105B4
:10059000381C6141029C039D0019694100F017F964
:1005A000BFE70000FD03000010B5002296231146AE
:1005B00000F0D4F810BD00000EB5C217C10F5040B6
:1005C000CA0740180021054B0293019200910A4688
:1005D0000B4600F009F903B000BD00003304000031
:1005E000C20F410040020123400ADB05D207090E79
:1005F000C0187F2901DA00207047962903DC962372
:10060000591AC84001E096398840002AF4D0404287
:100610007047000070B5CD0F4A0009030123090B94
:100620001B0519430B4BED070024520D9A4201DACA
:10063000002070BD074B34339A4203DC9A1A00F055
:1006400061F802E00449511888402C43F1D040423F
:1006500070BD0000FF030000CDFBFFFF0122D207A9
:10066000002800DB101A002900DB511A8142704774
:100670000122D207002800DB101A002900DB511AE2
:1006800088427047F0B51FB40646002082B0054688
:100690004024019100901BE0019922460F4630460C
:1006A00000F030F8049A059B801A994110D3104647
:1006B0001946224600F016F8361A8F410197224655
:1006C00001200021009F00F00DF838184D410090E6
:1006D0002046641E0028DFDC019B00982946324634
:1006E00007B0F0BD10B5202A04DB0146203A914046
:1006F000002010BD914020239C1A0346E34019437B
:10070000904010BD10B5202A04DB0846203AD040A6
:10071000002110BD0B46D340D0402024A21A9140A6
:100720000843194610BD10B5202A06DBCB17084632
:10073000203A1041C1170B4306E00B461341D0404D
:100740002024A21A91400843194610BD002904DA5A
:10075000401C490001D140084000704770B400249B
:10076000050C05D11024000402D1002921D0112448
:10077000050E01D100020834050F01D10001241D2E
:10078000850F01D18000A41C002801DB4000641CFF
:10079000002908D020252E1B0D46F540A14000D091
:1007A00001212943084301061B1B000ADB1D02D55A
:1007B000002070BC7047DB05181880180029F8DA93
:1007C000401C4900F5D170BC40084000704710B58E
:1007D000002B08DA0024401C614192185B411A4347
:1007E00001D14008400010BDF0B51FB482B00546ED
:1007F0000C0003D0084601F0CFFA02E001F0CCFA79
:1008000020300246009021462846FFF76BFF049BEC
:10081000059A04460F4618431143084314D018465E
:1008200010431BD0009840210A1A18460599FFF77B
:1008300069FF05460E46009A05990498FFF752FF96
:10084000084305D0012004E02046394607B0F0BD3A
:100850000020C11705430E432C43374300990E98DF
:100860006305401A7905E40A00220C43FD0A0A30A8
:1008700002D500200146E9E70105101969410C9CE9
:100880000D9D00196941FFF7A2FFDFE74A00090348
:100890000123090B1B0519430A4B10B5520D9A424F
:1008A00002DA0020014610BD064B34339A4203DCC5
:1008B0009A1AFFF727FF10BD034BD218FFF712FF5C
:1008C00010BD0000FF030000CDFBFFFF10B50029A5
:1008D00004DB0124E40740428C412146002B04DB69
:1008E0001C460123DB075242A341994200D19042AA
:1008F00010BD0000064C0125064E05E0E36807CC5C
:100900002B430C3C98471034B442F7D3FFF7DCFB81
:10091000F4A5030024A6030003B40148019001BD1F
:10092000C900002003B40148019001BDCD000020A2
:1009300003B40148019001BD8500002003B40148C3
:10094000019001BDE500002010B501F0BDFF10BD14
:1009500010B500F045FD10BD7047000070B51B4E8E
:100960003046FFF7D9FF01252843044602F0E4F89A
:1009700021463046FFF7D6FF144E083E3046FFF7BB
:10098000CBFF2843044602F0D7F821463046FFF754
:10099000C9FF0E4E361D3046FFF7BEFFAD0228439D
:1009A000044602F0C9F821463046FFF7BBFF074E68
:1009B0000C363046FFF7B0FF2843044602F0BCF87F
:1009C00021463046FFF7AEFF70BD00000C0002402C
:1009D00010B51921102001F089FF04480168102288
:1009E0009143016002480068C0B210BD009401400C
:1009F0004090014010B51B21112001F077FF044801
:100A0000016820229143016002480068C0B210BD15
:100A100000940140809001407047000008B50D48E7
:100A200001684022114300910160416912031143A2
:100A300000914161009952101143009141610420DD
:100A400002F093F80021042002F097F8042000F04F
:100A500079FF08BD00600040F8B584461046069F47
:100A6000079E18433ED0002A01DA554200E01546A1
:100A7000002B01DA584200E01846002A03DB002B65
:100A800005DD01240AE0002B05DB022406E0002A34
:100A900003DC002B01DA032400E00424002D03D042
:100AA000A84203DD2D2002E0002000E05A20012CA6
:100AB00006D0022C17D0032C17D0FF246934201A3B
:100AC000B84201DBB04205DDB7420BDDB84201DAC6
:100AD000B04207DCC81881B26046801880B2089A1C
:100AE00000F062FBF8BDB424E9E7B430E8E77047F2
:100AF000704700007CB50026434C054601960096E1
:100B000020680121C903084320600120A840012278
:100B1000014612041043206021602060082D02D09D
:100B2000092D02D004E0394801E081204002206014
:100B30000A2001F0BBFD60683549009012E0019881
:100B4000421C019288420DD920680090014631A0D4
:100B500001F012F960680090014638A001F00CF92C
:100B6000FF207CBD6068C002E9D50120000301962A
:100B70002B0001F028F90A060B151A1F242F34390F
:100B80004111A0680090014637A003E0A0680090E2
:100B9000014640A001F0F0F82660009880B27CBDCC
:100BA000A0680090014646A0F4E7A06800900146C6
:100BB0004EA0EFE7A0680090014657A0EAE7216841
:100BC00001432160142001F071FDA06800900146EE
:100BD0005CA0DFE7A0680090014665A0DAE7A068A6
:100BE000009001466DA0D5E7216801432160A0680F
:100BF0000090014673A0CDE7216801432160A06801
:100C0000009001467AA0C5E70060014000010100A4
:100C1000B80B00000D0A2068775F67706164632D70
:100C20003E6374726C204144435F454E2D2D2D2050
:100C30006269743132203D20256400000D0A20686D
:100C4000775F67706164632D3E73746174757320A0
:100C500047504144435F454F432D2D2D2062697419
:100C60003136203D202564000D0A204144432047B1
:100C7000504144435F4348414E5F30202D2D2D208D
:100C8000646174615F6368302064617461203D2039
:100C9000256400000D0A204144432047504144434D
:100CA0005F4348414E5F31202D2D2D2064617461DA
:100CB0005F6368312064617461203D202564000019
:100CC0000D0A204144432047504144435F4348417B
:100CD0004E5F32202D2D2D20646174615F63683278
:100CE0002064617461203D20256400000D0A2041CC
:100CF00044432047504144435F4348414E5F3320C3
:100D00002D2D2D20646174615F63683320646174EC
:100D100061203D20256400000D0A20414443204706
:100D2000504144435F4348414E5F34202D2D2D20D8
:100D3000646174615F6368342064617461203D2084
:100D4000256400000D0A204144432047504144439C
:100D50005F4348414E5F35202D2D2D206461746125
:100D60005F6368352064617461203D202564000064
:100D70000D0A204144432047504144435F434841CA
:100D80004E5F36202D2D2D20646174615F636836BF
:100D90002064617461203D20256400000D0A20411B
:100DA00044432047504144435F4348414E5F37200E
:100DB0002D2D2D20646174615F636837203D2025EF
:100DC000640000000D0A2041444320475041444341
:100DD0005F4348414E5F38202D2D2D2064617461A2
:100DE0005F6368382064617461203D2025640000E1
:100DF0000D0A204144432047504144435F4348414A
:100E00004E5F39202D2D2D20646174615F63683938
:100E10002064617461203D2025640000F8B51C4603
:100E200015460E46074601F0DFFF014606480269F7
:100E30004269009246608760C560069A1443046068
:100E4000084601F0D4FFF8BD00600040F8B5064642
:100E50000F463048FFF74CF94407C508640F394680
:100E60002D48FFF745F90A21FFF742F900278022B4
:100E70000123002E18D0012E2BD0022E48D1274856
:100E80004760C6681643C660EEB206602D042D0E9C
:100E90004560E6076508F60F3419E4002C19113493
:100EA00084621E4C403428E01D484760C6681643E3
:100EB000C660EEB206602D042D0E4560E60765089B
:100EC000F60F3419E4002C1911348462144C4034A8
:100ED00013E014484760C6681643C660EEB2066069
:100EE0002D042D0E4560E6076508F60F3419E40061
:100EF0002C19113484620B4C4034E5682D092D0106
:100F00000D43E560C1689143C16007218160436082
:100F1000F8BD00008096980000E1F5050040004013
:100F20000010004000300040024908604869400657
:100F3000FCD57047001000400148806970470000F0
:100F400000E000E038B500221E491D48009208600C
:100F500008688B14184308601B4B06E00098441C7B
:100F60000094984201D9002038BD4868C002F5D5E8
:100F7000009288680A6080B27D21C9004843134905
:100F8000FFF7B6F8FFF718FB114A124BFFF72CFAE0
:100F9000FFF740FB044601460FA000F0EDFE1948A4
:100FA000844202DD18A000F0E7FE1E48844205DD01
:100FB0001D49012008701DA000F0DEFEA0B238BD62
:100FC0002080010000600140B80B0000FF0F00000E
:100FD0006666666666661A400D0A6E4765745F56F9
:100FE0006261745F566F6C74616765206164635FF2
:100FF000636F6E766572745F5F5F32203D2025649B
:1010000000000000ED0E00004261747465727920EA
:101010005061636B20566F6C74616765203E2033AE
:101020002E385600941100000C0000205553422029
:10103000355620686173206265656E20706C756737
:1010400067656420696E0000FFB589B00025500017
:101050000321139E081A1C46129F049206905DE01D
:10106000034600942A46019702960A990998FFF7C9
:10107000F3FC029600946A420197049B07920A9936
:101080000998FFF7E9FC04980094434205930197FF
:1010900002962A460A990998FFF7DEFC0094029608
:1010A0000197059B079A0A990998FFF7D5FC0094C8
:1010B0002B4601970296049A0A990998FFF7CCFCEF
:1010C00000942B4601970296059A0A990998FFF712
:1010D000C3FC029600940197079B049A0A99099809
:1010E000FFF7BAFC009402960197079B059A0A99AC
:1010F0000998FFF7B1FC0698002804DAA90008183F
:10110000801D069009E00498281A810006980818A6
:101110000A3006900498401E04906D1C0498854285
:101120009EDD0DB0F0BDF8B50746002A13D0002BA8
:1011300011D0B81886B2C81885B20C4609E00698D6
:101140002346009032461946384600F005F8641CE4
:10115000A4B2AC42F3D9F8BDF8B51E4617460D4609
:101160000446B1420ED1BC4209D91446074606E0F6
:1011700029462046069A00F017F8641CA4B2BC4227
:10118000F6D9F8BD9442FCD1B54209D91D460E46A8
:1011900006E029462046069A00F006F86D1CADB21E
:1011A000B542F6D9F8BD000010B514464A1C93B2FA
:1011B000421C92B200F065FB01221146104601F07C
:1011C000A9FC034801494160046010BD9B0F010068
:1011D00000B00140FFB5064681B0801885B2029884
:1011E0000A9CC018029B87B200942A4619463046D2
:1011F000FFF7B2FF3B462A46194630460094FFF7F8
:10120000ABFF32463B46009410460299FFF7A4FF1D
:101210002A463B46009410460299FFF79DFF05B011
:10122000F0BDFFB500255000032183B01F461446D2
:101230000E1A41E003990498491900198AB20291E3
:1012400083B281B203980097401B019080B2FFF7F0
:1012500083FF04980299001B8AB283B281B201987D
:10126000009780B2FFF778FF039904980919401995
:101270008AB2029183B281B203980097001B019059
:1012800080B2FFF769FF04980299401B8AB283B2CB
:1012900081B20198009780B2FFF75EFF002E03DA5B
:1012A000A8008619B61D05E0281B8000641E86195B
:1012B000A4B20A366D1CADB2A542BBD907B0F0BDD1
:1012C000FFB583B00C9C0F981D461646642C00D9C0
:1012D00064240090681E83B2771E0190BAB204990C
:1012E0000398FFF720FF2046361F70436421FEF766
:1012F00015FF0204120C0BD00E98009004986D1F7D
:10130000801C81B20398ABB2801C80B2FFF70BFF48
:101310000D9800900198BAB283B204990398FFF730
:1013200059FF07B0F0BD000010B5002101220028D0
:101330000DD001280AD10D480161C2600F21416022
:101340000B49416041680BA000F016FD10BD164826
:1013500001610161C260C260054A103A4260044AFC
:10136000303A4260C160416810A0EDE700D0014012
:10137000BB0F010048575F5350495F315F496E69A9
:101380007469616C697365205852375F5350495FC7
:1013900043544C206877705F737069312D3E43541D
:1013A000524F4C3D2025780000B0014048575F5314
:1013B00050495F305F496E697469616C697365207B
:1013C0005852375F5350495F43544C206877705FE1
:1013D000737069302D3E4354524F4C3D20257800A8
:1013E00010B50021084A094806E0146843681C70DB
:1013F0005B1C491C89B2436093685B0502D5038876
:101400009942F2D310BD000000B001401800002046
:1014100038B5144601220D461146104601F07AFBFC
:1014200008480749416002210091002322462946CD
:10143000FFF7F4FC7D20C000FFF77AFA38BD00000A
:101440008B0F010000B0014038B5144601220D4653
:101450001146104601F05EFB064805494160032134
:101460000091042322462946FFF7D8FC38BD00002E
:101470009B0F010000B0014038B5144601220D4613
:101480001146104601F046FB084807494160022119
:101490000091082322462946FFF7C0FC7D20C000AA
:1014A000FFF746FA38BD0000AB0F010000B0014065
:1014B00038B5144601220D461146104601F02AFBAC
:1014C000084807494160022100910023224629462D
:1014D000FFF7A4FC7D20C000FFF72AFA38BD00000A
:1014E0008B0F010000B00140FEE710B515210E2062
:1014F00001F0FCF913210D2001F0F8F911210C2065
:1015000001F0F4F90221012001F0E6FA0121084678
:1015100001F0E2FA0021012001F0DEFA10BD000026
:1015200010B5012204461146104601F0F3FA0348B3
:1015300001494160046010BD9B0F010000B00140F3
:1015400010B5044C2046FFF7E7F900212046FFF7CD
:10155000E9F910BD2800024010B5074C2046FFF7FE
:10156000DBF903210902884309218901014320464F
:10157000FFF7D8F910BD00002800024031B5012462
:101580007F230021A4031A46084600F07AF9224678
:1015900069460020FFF758FF38BD10B5FFF7A5FFDB
:1015A00000F054F9782001F06CF9FF2000F094F974
:1015B000A52000F081F93E2000F08EF9082000F00F
:1015C0007BF93A2000F088F9652000F075F9822057
:1015D00000F082F9002000F06FF9982000F07CF90B
:1015E000002000F069F9632000F076F90F2000F088
:1015F00063F9642000F070F90F2000F05DF9B42069
:1016000000F06AF9342000F057F9B52000F064F9D1
:10161000302000F051F9832000F05EF9032000F043
:101620004BF9862000F058F9042000F045F9872096
:1016300000F052F9162000F03FF9882000F04CF934
:10164000282000F039F9892000F046F92F2000F019
:1016500033F9932000F040F9632000F02DF9962033
:1016600000F03AF9812000F027F9C32000F034F9A6
:10167000112000F021F9E62000F02EF9002000F002
:101680001BF9992000F028F9012000F015F94420F9
:1016900000F022F9002000F00FF9702000F01CF992
:1016A000022000F009F9712000F016F90E2000F078
:1016B00003F9722000F010F90A2000F0FDF8732001
:1016C00000F00AF9122000F0F7F8742000F004F995
:1016D000192000F0F1F8752000F0FEF81D2000F050
:1016E000EBF8762000F0F8F8462000F0E5F87720D7
:1016F00000F0F2F80B2000F0DFF8782000F0ECF8B2
:101700000E2000F0D9F8792000F0E6F83D2000F036
:10171000D3F87A2000F0E0F8052000F0CDF87B2027
:1017200000F0DAF8072000F0C7F87C2000F0D4F8C9
:10173000122000F0C1F87D2000F0CEF80B2000F060
:10174000BBF87E2000F0C8F80B2000F0B5F87F2031
:1017500000F0C2F8082000F0AFF8A02000F0BCF8BC
:101760001E2000F0A9F8A12000F0B6F83F2000F0FC
:10177000A3F8A22000F0B0F80A2000F09DF8A32002
:1017800000F0AAF80D2000F097F8A42000F0A4F8CB
:10179000082000F091F8A52000F09EF8232000F02A
:1017A0008BF8A62000F098F83D2000F085F8A720DF
:1017B00000F092F8042000F07FF8A82000F08CF8E8
:1017C000092000F079F8A92000F086F8302000F018
:1017D00073F8AA2000F080F80A2000F06DF8AB2022
:1017E00000F07AF80E2000F067F8AC2000F074F8F2
:1017F0000E2000F061F8AD2000F06EF8072000F038
:101800005BF8AE2000F068F82D2000F055F8AF200E
:1018100000F062F8102000F04FF8FF2000F05CF8B4
:10182000002000F049F8112000F056F8962001F051
:1018300028F8362000F050F8082000F03DF8292064
:1018400000F04AF80A2001F01CF810BD10B5012183
:101850000022084601F05EF9642001F012F800222F
:101860001146012001F056F9FF20F53001F009F88A
:1018700001210022084601F04DF9322001F001F863
:1018800010BDF8B504461D4616460F462A2000F046
:1018900023F82046FFF744FE3046FFF741FE2B2099
:1018A00000F01AF83846FFF73BFE2846FFF738FEEF
:1018B0002C2000F011F8F8BD10B5012204461146A5
:1018C000104601F027F9034801494160046010BD4A
:1018D0008B0F010000B0014010B504460122002129
:1018E000104601F017F9034801494160046010BD3A
:1018F0008B0F010000B0014038B501220C460546AF
:101900001146104601F006F90648054941600221DA
:101910000091002322462946FFF780FA38BD0000D7
:101920008B0F010000B0014070470000002805DB6C
:10193000C106C90E012088400149086070470000B7
:1019400080E200E0002805DBC106C90E01208840C6
:10195000014908607047000000E100E08307FF22B2
:10196000DB0E9A400907090E994000280BDA0007A0
:10197000000F0838830808489B001818C369934370
:101980000B43C3617047830804489B001B18186809
:10199000904308431860704700ED00E000E400E069
:1019A00070B50020FEF7B8FF0420FEF7B5FF082051
:1019B000FEF7B2FF0C20FEF7AFFF1020FEF7ACFFE2
:1019C0002020FEF7A9FF2420FEF7A6FF2820FEF71F
:1019D000A3FF2C20FEF7A0FF3020FEF79DFF0C4E4A
:1019E0003046FEF799FF0B4D10206C6804432146EA
:1019F0003046FEF797FF361F30466C60FEF78CFFCF
:101A0000054C30462146FEF78DFF2C6070BD00006E
:101A100024000240000000209D78869D704710B58C
:101A200000F040FF10BD7047F0B5002490218DB04C
:101A30004843164D0C9061000C9A6118002056180E
:101A40008021C208B218AB5C47077F0F0A46FA40F4
:101A5000134207D0072743006A46D754E0279A1855
:101A6000577005E0002247006B46DA55FB185A70A4
:101A7000401CC0B21828E4D330216846FFF73CFF71
:101A8000641CE4B2302CD6D30DB0F0BD145201006A
:101A9000F0B5002585B080272E466C460F49002002
:101AA000495D3A46C240114206D007234200A35482
:101AB000E0231219537003E04200A6541219567025
:101AC000401CC0B20828ECD310216846FFF714FF71
:101AD0006D1CEDB2202DE1D305B0F0BDB45701006F
:101AE000094910B5401E884201D9012010BD074C9C
:101AF00060610021481EFFF731FF0020A061072030
:101B00002061002010BD0000FFFFFF0000E000E0AA
:101B100010B5FFF745FF00F0DFFE1F2001F025F8AC
:101B200000211F2001F029F81F2001F022F8FEF704
:101B300005FF10BD10B500F09DF810BD10B500F008
:101B4000B9FF10BD10B5024800F016FE10BD000030
:101B50002C00002070B5FEF73BFF1021084215D184
:101B60007F2300211A460846FFF78BFE174C0125FC
:101B70002078ED0300281FD015A000F0FDF82A46BC
:101B80001B490020FFF794FC00202070FEF732FF75
:101B90002021084207D1FFF7D3FC00F09FFDFEF79C
:101BA000DDFE01F067F901F00DF90146402802D190
:101BB00010A000F0E1F870BD1DA000F0DDF82A468D
:101BC00022490020FFF774FC0120DEE724000020FA
:101BD0000D0A204B3237204B4559205072657373E4
:101BE00020446F776E20416761696E200D0A2000E6
:101BF000D4D701000D0A20212121216D695F746F66
:101C0000755F6465746563742D2D2D6770696F5FF2
:101C10006136204849474820212121206770696F9B
:101C20005F737461747573203D2025780000000097
:101C30000D0A204B3237204B455920507265737383
:101C400020446F776E200D0A20000000D457020058
:101C50001CB55A2001F03EF90549FF20963001914C
:101C600000907821872332220846FFF7EDF91CBD4A
:101C7000FFFF000008B50248C068009008BD0000E2
:101C80000010014010B500F001F810BD08B50B4878
:101C900081680907090FCA070FD102290CD004294E
:101CA00007D0062908D14169C9B20A0701D58907B9
:101CB00002D401786A461170806808BD00100040A7
:101CC00010B500F001F810BD08B50B488168090790
:101CD000090FCA070FD102290CD0042907D0062901
:101CE00008D14169C9B20A0701D5890702D4017830
:101CF0006A461170806808BD00300040F8B5FF23C7
:101D0000013300261A43104F0125002818D001285E
:101D100018D0022813D10D4C666065606660E260E1
:101D20006762226926612361FF23033323619206E0
:101D300002D5FF2223322261FFF788F86560F8BDE3
:101D4000034CE9E7034CE7E70102000000400040D4
:101D50000010004000300040054804490160054A79
:101D60000121D160002101607047000051E5CC1ACB
:101D7000004C0140004001400FB410B503A9044BD2
:101D8000044A029800F0F6F810BC08BC04B01847EA
:101D900097280000280000202021020C01D01021EB
:101DA0001046020A01D010460839020901D0104637
:101DB000091F820801D01046891E420801D0881EE2
:101DC0007047081A704730B47446641E2578641C46
:101DD000AB4200D21D46635D5B00E31830BC184780
:101DE00002E008C8121F08C1002AFAD170477047E4
:101DF000002001E001C1121F002AFBD17047000042
:101E0000F0B51FB486B00998089A030D002102436B
:101E100014D05148514A18185043051411980128FC
:101E200010981AD0281A401C00264D4F4D49009694
:101E300001910490002812DA444211E01198012423
:101E400049A3012801D11098C1430698119A8460D2
:101E50000360C26041600BB0F0BD4042E4E704465D
:101E6000210500203F4A001C51410391029012E0DD
:101E7000E00707D032463B4601990098FEF7B4FAD6
:101E80000191009032463B4610461946FEF7ACFAE7
:101E900006460F466410002CEAD10498039B0028E4
:101EA000029A0999089806DAFEF79EFA019B009AB1
:101EB000FEF79AFA05E0FEF7FFFA019B009AFEF79B
:101EC000FBFA04460E460022284BFEF7FFFC03D81F
:101ED0000020C043014607E00022254B2046314642
:101EE000FEF7D0F9FEF7D2FC102409E0002C0ADB43
:101EF0000A220023FEF7C6FB079B30321A55641EE8
:101F000002460A43F2D11122641C079B121B1C19C2
:101F1000119B012B03D0012308430ED10AE0084393
:101F200004D0112010900020119077E71098151A16
:101F30006D1E0BE01098824202DD00236D1C03E051
:101F4000824201DA00236D1E002BEED00698119913
:101F50008260C16030C07EE701FCFFFF104D0000D1
:101F6000000014400000F03F300000000000F0438B
:101F70000000E03FFFB597B00646002518E225288F
:101F800077D100242746FD49049400E00443761CE1
:101F900032780120203A90400842F7D130782A2840
:101FA0000ED00222307801463039092916D804991A
:101FB0000A235943303940181443761C0490F1E742
:101FC000189802C804911890002904DA01204003EF
:101FD00004434842049002200443761C30782E28A3
:101FE00014D1042004437078761C2A2809D118984B
:101FF000761C80C8189009E00A214F43303FC7196A
:10200000761C3078014630390929F5D930786C28AA
:1020100010D006DC4C281AD068280ED06A2817D1B8
:1020200004E0742813D07A2812D110E00120400572
:1020300004430CE00121090501E0032109050C43DB
:102040007178814203D1012000052418761C761C8A
:102050003078119066280BD013DC58287DD009DC2D
:1020600000287BD04528F6D04628F4D047281AD13E
:10207000A5E118E0632835D0642870D0652812D116
:102080009DE170286CD008DC6728F1D069287BD0EE
:102090006E280DD06F2806D1BAE073282ED075288F
:1020A00071D0782859D01A9A199990476D1C7EE101
:1020B0006002400F022809D003280DD00428189888
:1020C00001680DD00D60001D189070E11898EA1796
:1020D00001680D604A60F6E7189801680D80F2E724
:1020E0000D70F0E718986A4601781172001D18907B
:1020F0000020507202A80090012005E0189802C844
:10210000189000200091C04361070DD5002101E027
:102110000199491C0191B94212DA8142F8DB009A17
:10212000515C0029F4D10BE0002101E00199491C28
:1021300001918142FADB019A0099895C0029F5D16D
:10214000019904981A9B471A21463846199A00F0BB
:1021500097FA0199401945180BE04FE02CE113E084
:102160004EE0009800990078491C00911A9A19993C
:1021700090470198401E0190401CF2D121463846FC
:102180001A9B199A10E137E00A2000210090019172
:102190006002410F022907D0189A01CA1892C2178B
:1021A0009446032908D00AE01898C01DC108C90048
:1021B00005C91891944607E000B2C2179446042955
:1021C00002D140B2C1178C4600226146944506DA1E
:1021D0000A460021404291418C462D2102E0210512
:1021E00004D52B216A461173012103E0E10701D0D8
:1021F0002021F7E7029155E00A200AE0102008E0CC
:10220000102000900021042004430191082703E0DE
:1022100008200021019100906002410F022907D09F
:10222000189A01CA189200229446032908D008E09F
:102230001898C01DC108C90005C91891944603E04B
:1022400080B2042900D1C0B200210291210729D512
:102250001199702906D0009A1021019B4A401A4317
:1022600005D00EE040216A461173012108E0614665
:10227000014306D030216A4611731199517302212E
:102280000291009A0821019B4A401A430AD16146F3
:10229000014301D1610705D530216A46117301213F
:1022A0007F1E02911199582904D035A10E910DA9D4
:1022B0000D910DE037A1F9E76146019B009AFEF709
:1022C000E1F90E9B8C469B5C0D9A521E0D92137089
:1022D00061460143F0D10D9805A9081A20300190FC
:1022E000600703D501200004844300E00127019822
:1022F000874201DD381A00E0002001990090411862
:10230000029809180498401A0490E00306D4214664
:102310001A9B199A049800F0B3F94519002706E0B2
:1023200003A81A9AC05D199990476D1C7F1C0298EA
:102330008742F5DBE0030CD521461A9B199A0498D5
:1023400000F09EF9451904E01A9A30201999904737
:102350006D1C0099481E00900029F5DC08E00D98DE
:102360000D990078491C0D911A9A199990476D1C86
:102370000199481E01900029F1DC63E10928010060
:1023800030313233343536373839616263646566EB
:1023900000000000303132333435363738394142AD
:1023A000434445460000000000F05AF94519761CE8
:1023B0003078002800D0E2E528461BB0F0BD600769
:1023C00000D406271898C01DC108C90048680A68CB
:1023D0000831C30FDB071891190001D09CA108E058
:1023E000210501D59BA104E0E10701D09AA100E0FD
:1023F0009AA1430011985B08109165280CD006DC67
:10240000452809D046281DD0472841D141E06628FB
:1024100018D067283CD13CE00021112F01DB1120AE
:1024200000E0781C0191009008A911A8FFF7E8FCD2
:10243000139905910021119A15927F1C129801970A
:10244000009150E00120C00703900120019008A9ED
:10245000009711A8FFF7D4FC139A14990592002253
:10246000119B009212981593059A0192002901D0B0
:10247000104602E0791C40180190381A01D50198E5
:1024800004E04042401E0090781C0190C01B029066
:1024900043E0012F00DA01270021112F01DD112077
:1024A00000E038460191009008A911A8FFF7A8FCA8
:1024B00013990591119A0021129815920091019794
:1024C00021070CD40599B94201DB019900E0019183
:1024D000012904DD159A491E515C302906D0B84205
:1024E00001DA011D05DA0121029115E00199491E69
:1024F000EDE7002805DC0099411800910199091ABF
:1025000003E0019A411C914200DD01910099401ABB
:10251000401C02900120C0070390200706D40299B6
:102520000198814202DB0020C043029000206946EE
:10253000C87707AF012103980337C907884224D021
:10254000022011902B201290039800280CDA4042B0
:1025500003902D20129007E00A210398FDF7C8FD93
:1025600030317F1E039039701199481E1190002957
:10257000F2DC03980028EFD1791E129808703078A9
:10258000202108404530BF1E387006A8C01BC01D62
:10259000039010980078002800D00120019941187C
:1025A0000298C0170918039809180498401A401E89
:1025B0000490E00306D421461A9B199A049800F06F
:1025C0005FF8451910980078002803D01A9A1999D5
:1025D00090476D1CE00324D521461A9B199A049854
:1025E00000F04EF845191CE00098002807DB009920
:1025F0000598884203DD1598405C199901E0199906
:1026000030201A9A904700986D1C401C0090029848
:10261000401E0290002804D11A9A2E201999904742
:102620006D1C0199481E01900029DDDC05E0387819
:102630001A9A7F1C199990476D1C0399481E0390A4
:102640000029F4DC21461A9B199A0498ACE6000094
:102650002D0000002B000000200000000000000002
:10266000F8B5044600251E461746880404D405E044
:1026700039462020B0476D1C641EF9D52846F8BDA8
:10268000FFB50446002581B01E46C80301D530279A
:1026900000E02027880404D505E038460399B047B8
:1026A0006D1C641EF9D5284605B0F0BD08B50021A3
:1026B000009102E0009A521C0092401EFAD2009152
:1026C00008BD10B51E2000F050FA00211E2000F0B9
:1026D00054FA1E2000F04DFA10BD000070B51449E8
:1026E0001448FEF71FF913480021001DFEF71AF9E0
:1026F000134C114D11492046FEF714F92946251DAA
:102700002846FEF70FF9261F01213046FEF70AF989
:1027100030BF0A4920461031FEF704F9002128464F
:10272000FEF700F901213046FEF7FCF830BF70BD1E
:1027300085788E60200002400102000040200040A9
:10274000200001400021017041807D228180D20063
:10275000C2803F2212068260044AC2608161044A3C
:10276000C16102610162034941627047CDCCCC3D39
:102770000AD7233C00007A44F8B50446FEF7E2FB92
:10278000608000F0EDF9A080227827467D250026A4
:1027900002210837ED001300FFF715FB0504151E95
:1027A000395153006088284A904201D2012044E008
:1027B000264A904202D22170254802E00320207070
:1027C00024486061F8BD2448E08062881E48824247
:1027D000F8D321701E4817E0FDF7E6FE01463846A3
:1027E00000F007FBFDF7FCFE281AA84201DD284691
:1027F00002E0002800DA0020E0806188134881426E
:10280000E0D3032020701348A6616061F8BD6088A2
:10281000FDF7CAFE0146384600F0EBFAFDF7E0FE90
:10282000281AA84201DD284602E0002800DA00202C
:10283000E080A0883228E9D204202070F8BDE5802D
:10284000F8BD2670F8BD0000B80B0000681000004D
:102850000000FA4300408345B60300000220002137
:10286000401EFDD20220491C6E2901D2801EF7E7CE
:1028700070470101002001E000BF401C8842FBD3EB
:10288000704710B50446002302E0FFF7E7FF5B1C2A
:10289000A342FAD310BD00B50246C0B2FEF744FB16
:1028A000104600BD10B5074C2046FEF735F8102144
:1028B00002460A400843102A03D101462046FEF78B
:1028C00031F810BD3C20004010B501210148FEF751
:1028D00029F810BD0800024008B50348016920220C
:1028E00011430091016108BD0000014010B50124B1
:1028F0006B4AE4050300FFF766FA190E202B2B2B19
:102900002B33393F464D545B626970777E858C93DB
:102910009AA9BBCB2B000123002907D0012917D18D
:10292000506818435060106888438BE01068184363
:10293000106050684008400086E00220022908D05C
:10294000032905D151680143516011688143116029
:1029500010BD11680143116051688143516010BD81
:1029600040200429F5D00529ECD010BD802006298F
:10297000EFD00729E6D010BDFF2001300829E8D0AC
:102980000929DFD010BD012040020A29E1D00B291E
:10299000D8D010BD012080020C29DAD00D29D1D069
:1029A00010BD0120C0020E29D3D00F29CAD010BDFE
:1029B000012000031029CCD01129C3D010BD012063
:1029C00040031229C5D01329BCD010BD01208003BB
:1029D0001429BED01529B5D010BD0120C003162979
:1029E000B7D01729AED010BD012000041829B0D0EF
:1029F0001929A7D010BD012040041A29A9D01B29EC
:102A0000A0D010BD012080041C29A2D01D2999D07E
:102A100010BD0120C0041E299BD01F2992D010BDDB
:102A200001200005202994D021298BD010BD222916
:102A300028D02329FAD15068012149050843506064
:102A400010688843106010BD506010BD01239B05C5
:102A5000242907D02529F8D1506818435060106800
:102A60009843EFE710681843106050689843EBE70D
:102A7000262907D02729E8D15068204350601068E4
:102A8000A043DFE71068204310605068A043DBE7F5
:102A900001200006282987D0292987D010BD0000F1
:102AA00000030440024800210160416081607047DA
:102AB0000003044008B5064801684A1C0260C829A2
:102AC00001DD002101600348C068009008BD0000DE
:102AD000200000200020014030B50C4B0C4C002899
:102AE00002D0012802D003E01A6800E02268D2B2C6
:102AF00001258D40E9B20A43002802D0012802D006
:102B000002E01A6000E02260002030BD0084014035
:102B10000094014091400123921C9340002805D06D
:102B2000012802D102481818016070470148FAE7ED
:102B3000009001400080014038B50024074D00940A
:102B400004E00098401C0090642804D82846FDF753
:102B5000E3FEC003F5D4009438BD00000800024035
:102B600010B50720FDF7C6FF10BD00B5FEF7DEFE6D
:102B700000BD00B5FEF7E6FE00BD00B5FEF7EEFEB7
:102B800000BD000010B5FEF7D7F90249886000F0DB
:102B900003F810BD0C0000200548044981610121A3
:102BA000C16101694908490001617047A55A0000E7
:102BB0000020024070B514465C43CB1882185B1E9F
:102BC000521E9BB292B2049DFEF75BFEA2B2294652
:102BD0000020FEF739FC70BD86B0FEF799FFFFF7C5
:102BE00070FDFFF75FFF25211620FFF77FFE2721ED
:102BF0001720FFF77BFE21211420FFF777FE22210B
:102C00001520FFF773FE06210720FFF76FFEFEF782
:102C1000A3FC0020FEF788FBFEF7BFFC7F2300210A
:102C20001A460846FEF72DFEFDF7F8FE5448FEF75B
:102C3000A5FC1F25ED0240212B4614220846FEF775
:102C4000F0FA7D27BF013846FFF713FE0124640325
:102C500022464C490020FEF70FFC4B48FFF709FEC7
:102C600022464A490020FEF707FC3846FFF701FEDE
:102C7000224647490020FEF7FFFB3846FFF7F9FDE3
:102C800000246846048204A8802300901A46214646
:102C90002046FFF78FFF3846FFF7EBFD57236D22E5
:102CA00027211420FEF7EDFD3A4A3B490020FEF7AC
:102CB000AFFB6D230A211A460846FEF7E2FD374EA8
:102CC000374932460020FEF7F3FB3846FFF7D1FDC7
:102CD00000F056F93846FFF7CCFDE1277F020322CA
:102CE00039460020FFF70AF8032239460120FFF792
:102CF00005F809210820FFF7F9FD0B210920FFF74E
:102D0000F5FD0D210A20FFF7F1FD0A213C23642285
:102D100008460095FEF75EFA3F21224849013C2211
:102D200014230092029103900194642219461846DC
:102D3000FEF7C6FA3046FEF7D3FE1B48FFF702FD4A
:102D40001A4E322135682846FDF7D2F9002901D103
:102D5000FEF700FF64212846FDF7CAF90C0001D1F7
:102D6000FEF7F0F8002C01D1FEF7ECFEC821284652
:102D7000FDF7BEF90029E4D1FEF76AFFE1E70000A4
:102D8000FFFF0000D4D702001027000014D200007B
:102D9000D457010074220000A02F0000204E000034
:102DA000D4570300108400002C00002010000020E5
:102DB0000348016904221143016130BF70470000DC
:102DC00000ED00E010B50D210A20FFF78FFD04484B
:102DD000016840229143016002480068C0B210BD02
:102DE000008401400081014072B60020704762B645
:102DF0007047F8B50446C068FDF7FFF90546294657
:102E00002069FDF7A9F92061E169FDF731FC01D2E4
:102E1000E0692061A1692069FDF720FC01D2A06969
:102E2000206128466169FDF7E8F9A268014610466D
:102E3000FDF7EBF9074621696068FDF7E6F90646FC
:102E400029462068FDF7E1F93146FDF785F9394655
:102E5000FDF782F965610646E169FDF709FC00D2DC
:102E6000E669A1693046FDF7F9FB00D2A669304654
:102E7000F8BD0000154C2046FDF74EFD80210143B2
:102E80002046FDF74FFD114D8C3D2846FDF744FDD2
:102E9000012108430446FFF74FFE21462846FDF76F
:102EA00041FD2C1F2046FDF737FDFFF745FE34217D
:102EB0002046FDF737FDFFF73FFE04480449303850
:102EC000FDF730FDFFF774FFFEE7000090000240C1
:102ED00010270000F8B5274F0446642819D3522361
:102EE0002D2223211620FEF7CCFC0120FEF79CFDAD
:102EF0005223452223212E20FEF7C3FC0020FEF79B
:102F000093FD52235D2223214620FEF7BAFC0020C8
:102F10002BE03878642809D152235D222321162022
:102F2000FEF7AFFC14491548FEF7E6FC0A212046DF
:102F3000FDF7DEF80D00064610D15223372223217B
:102F40002020FEF79EFC3046FEF76EFD47235722F9
:102F500028215020FEF795FCFEF79AFD52234F22C0
:102F600023213820FEF78DFC2846FEF75DFD3C70DE
:102F7000F8BD000025000020701A00001452000067
:102F800010B56D230A211A460846FEF77AFC02495D
:102F90000248FEF7B1FC10BD204E0000D4570300DC
:102FA00000C500E700E700E700E700E700E700E70B
:102FB00000E700E700E700E700E700E700E700E7D9
:102FC00000E700E700E700E700E700E700E700E7C9
:102FD00000E700E700E700E700E700E700E700E7B9
:102FE00000E700E700E700E700E700E700E700E7A9
:102FF00000E700E700E700E700E700E700E700E799
:1030000000E700E700E700E700E700E700E700E788
:1030100000E700E700E700E700E700E700E700E778
:1030200000E700E700E700E700E700E700E700E768
:1030300000E700E700E700E700E700E700E700E758
:1030400000E700E700E700E70000000000000000E4
:10305000000000001CD9051D051D051D051D051DD1
:10306000051D051D051D051D051D051D051D051D50
:10307000051D051D051D051D051D051D051D051D40
:10308000051D051D051D051D051D051D051D051D30
:10309000051D051D051D051D051D051D051D051D20
:1030A000051D051D051D051D051D051D051D051D10
:1030B000051D051D051D051D051D051D051D051D00
:1030C000051D051D051D051D051D051D051D051DF0
:1030D000051D051D051D051D051D051D051D051DE0
:1030E000051D051D051D051D051D051D051D051DD0
:1030F000051D051D053D051D051D051D00000000E4
:1031000000000000000000001CD9051D126E124DC9
:10311000124D124D124D124D124D124D124D124DB7
:10312000124D124D124D124D124D124D124D124DA7
:10313000124D124D124D124D124D124D124D124D97
:10314000124D124D124D124D124D124D124D124D87
:10315000124D124D124D124D124D124D124D124D77
:10316000124D124D124D124D124D124D124D124D67
:10317000124D124D124D124D124D124D124D124D57
:10318000124D124D124D124D124D124D124D124D47
:10319000124D124D124D124D124D124D124D124D37
:1031A000124D124D124D124D124D124D051C051DA2
:1031B0000000000000000000000000001CD9051DF8
:1031C00000220000000000000000000000000000DD
:1031D00000000000000000000000000000000000EF
:1031E00000000000000000000000000000000000DF
:1031F00000000000000000000000000000000000CF
:1032000000000000000000000000000000000000BE
:1032100000000000000000000000000000000000AE
:10322000000000000000000000000000000000009E
:10323000000000000000000000000000000000008E
:10324000000000000000000000000000000000007E
:10325000000000000000000000000000000000006E
:10326000051C051D0000000000000000000000001B
:103270001CD9051D00220000000000000000000015
:10328000000000000000000000000000000000003E
:10329000000000000000000000000000000000002E
:1032A000000000000000000000000000000000001E
:1032B000000000000000000000000000000000000E
:1032C00000000000000000000000000000000000FE
:1032D00000000000000000000000000000000000EE
:1032E00000000000000000000000000000000000DE
:1032F00000000000000000000000000000000000CE
:1033000000000000000000000000000000000000BD
:1033100000000000051C051D00000000000000006A
:10332000000000001CD9051D002200000000000064
:10333000000000000000000000000000000000008D
:10334000000000000000000000000000000000007D
:10335000000000000000000000000000000000006D
:10336000000000000000000000000000000000005D
:10337000000000000000000000000000000000004D
:10338000000000000000000000000000000000003D
:10339000000000000000000000000000000000002D
:1033A000000000000000000000000000000000001D
:1033B000000000000000000000000000000000000D
:1033C0000000000000000000051C051D00000000BA
:1033D00000000000000000001CD9051D00220000B4
:1033E00000000000000000000000000000000000DD
:1033F00000000000000000000000000000000000CD
:1034000000000000000000000000000000000000BC
:1034100000000000000000000000000000000000AC
:10342000000000000000000000000000000000009C
:10343000000000000000000000000000000000008C
:10344000000000000000000000000000000000007C
:10345000000000000000000000000000000000006C
:10346000000000000000000000000000000000005C
:10347000000000000000000000000000051C051D09
:103480000000000000000000000000001CD9051D25
:10349000002200000000000000000000000000000A
:1034A000000000000000000000000000000000001C
:1034B000000000000000000000000000000000000C
:1034C00000000000000000000000000000000000FC
:1034D00000000000000000000000000000000000EC
:1034E00000000000000000000000000000000000DC
:1034F00000000000000000000000000000000000CC
:1035000000000000000000000000000000000000BB
:1035100000000000000000000000000000000000AB
:10352000000000000000000000000000000000009B
:10353000051C051D00000000000000000000000048
:103540001CD9051D00220000000000000000000042
:10355000000000000000000000000000000000006B
:10356000000000000000000000000000000000005B
:10357000000000000000000000000000000000004B
:10358000000000000000000000000000000000003B
:10359000000000000000000000000000000000002B
:1035A000000000000000000000000000000000001B
:1035B000000000000000000000000000000000000B
:1035C00000000000000000000000000000000000FB
:1035D00000000000000000000000000000000000EB
:1035E00000000000051C051D000000000000000098
:1035F000000000001CD9051D002200000000000092
:1036000000000000000000000000000000000000BA
:1036100000000000000000000000000000000000AA
:10362000000000000000000000000000000000009A
:10363000000000000000000000000000000000008A
:10364000000000000000000000000000000000007A
:10365000000000000000000000000000000000006A
:10366000000000000000000000000000000000005A
:10367000000000000000000000000000000000004A
:10368000000000000000000000000000000000003A
:103690000000000000000000051C051D00000000E7
:1036A00000000000000000001CD9051D00220000E1
:1036B000000000000000000000000000000000000A
:1036C00000000000000000000000000000000000FA
:1036D00000000000000000000000000000000000EA
:1036E00000000000000000000000000000000000DA
:1036F00000000000000000000000000000000000CA
:1037000000000000000000000000000000000000B9
:1037100000000000000000000000000000000000A9
:103720000000000000000000000000000000000099
:103730000000000000000000000000000000000089
:10374000000000000000000000000000051C051D36
:103750000000000000000000000000001CD9051D52
:103760000022000000000000000000000000000037
:103770000000000000000000000000000000000049
:103780000000000000000000000000000000000039
:103790000000000000000000000000000000000029
:1037A0000000000000000000000000000000000019
:1037B0000000000000000000000000000000000009
:1037C00000000000000000000000000000000000F9
:1037D00000000000000000000000000000000000E9
:1037E00000000000000000000000000000000000D9
:1037F00000000000000000000000000000000000C9
:10380000051C051D00000000000000000000000075
:103810001CD9051D0022000000000000000000006F
:103820000000000000000000000000000000000098
:103830000000000000000000000000000000000088
:103840000000000000000000000000000000000078
:103850000000000000000000000000000000000068
:103860000000000000000000000000000000000058
:103870000000000000000000000000000000000048
:103880000000000000000000000000000000000038
:103890000000000000000000000000000000000028
:1038A0000000000000000000000000000000000018
:1038B00000000000051C051D0000000000000000C5
:1038C000000000001CD9051D0022000000000000BF
:1038D00000000000000000000000000000000000E8
:1038E00000000000000000000000000000000000D8
:1038F00000000000000000000000000000000000C8
:1039000000000000000000000000000000000000B7
:1039100000000000000000000000000000000000A7
:103920000000000000000000000000000000000097
:103930000000000000000000000000000000000087
:103940000000000000000000000000000000000077
:103950000000000000000000000000000000000067
:103960000000000000000000051C051D1CD91CD92A
:103970001CD91CD91CD900001CD9051D002200002F
:103980000000000000000000000000000000000037
:103990000000000000000000000000000000000027
:1039A0000000000000000000000000000000000017
:1039B0000000000000000000000000000000000007
:1039C00000000000000000000000000000000000F7
:1039D00000000000000000000000000000000000E7
:1039E00000000000000000000000000000000000D7
:1039F00000000000000000000000000000000000C7
:103A000000000000000000000000000000000000B6
:103A1000000000000000000000000000051C051D63
:103A2000053D051D051D051C051D00001CD9051DB6
:103A30000022000000000000000000000000000064
:103A40000000000000000000000000000000000076
:103A50000000000000000000000000000000000066
:103A60000000000000000000000000000000000056
:103A70000000000000000000000000000000000046
:103A80000000000000000000000000000000000036
:103A90000000000000000000000000000000000026
:103AA0000000000000000000000000000000000016
:103AB0000000000000000000000000000000000006
:103AC00000000000000000000000000000000000F6
:103AD000051C051D051D051D051D051D051D0000F9
:103AE0001CD9051D0022000000000000000000009D
:103AF00000000000000000000000000000000000C6
:103B000000000000000000000000000000000000B5
:103B100000000000000000000000000000000000A5
:103B20000000000000000000000000000000000095
:103B30000000000000000000000000000000000085
:103B40000000000000000000000000000000000075
:103B50000000000000000000000000000000000065
:103B60000000000000000000000000000000000055
:103B70000000000000000000000000000000000045
:103B800000000000051C051D051D051D051D051D6A
:103B9000051D00001CD9051D0022000000000000CA
:103BA0000000000000000000000000000000000015
:103BB0000000000000000000000000000000000005
:103BC00000000000000000000000000000000000F5
:103BD00000000000000000000000000000000000E5
:103BE00000000000000000000000000000000000D5
:103BF00000000000000000000000000000000000C5
:103C000000000000000000000000000000000000B4
:103C100000000000000000000000000000000000A4
:103C20000000000000000000000000000000000094
:103C30000000000000000000051C051D051D051DFD
:103C4000051D051D051D00001CD9051D00220000D5
:103C50000000000000000000000000000000000064
:103C60000000000000000000000000000000000054
:103C70000000000000000000000000000000000044
:103C80000000000000000000000000000000000034
:103C90000000000000000000000000000000000024
:103CA0000000000000000000000000000000000014
:103CB0000000000000000000000000000000000004
:103CC00000000000000000000000000000000000F4
:103CD00000000000000000000000000000000000E4
:103CE000000000000000000000000000051C051D91
:103CF000051D051D051D051D051D00001CD9051D03
:103D00000022000000000000000000000000000091
:103D100000000000000000000000000000000000A3
:103D20000000000000000000000000000000000093
:103D30000000000000000000000000000000000083
:103D40000000000000000000000000000000000073
:103D50000000000000000000000000000000000063
:103D60000000000000000000000000000000000053
:103D70000000000000000000000000000000000043
:103D80000000000000000000000000000000000033
:103D90000000000000000000000000000000000023
:103DA000051C051D051D051D051D051D051D000026
:103DB0001CD9051D002200000000000000000000CA
:103DC00000000000000000000000000000000000F3
:103DD00000000000000000000000000000000000E3
:103DE00000000000000000000000000000000000D3
:103DF00000000000000000000000000000000000C3
:103E000000000000000000000000000000000000B2
:103E100000000000000000000000000000000000A2
:103E20000000000000000000000000000000000092
:103E30000000000000000000000000000000000082
:103E40000000000000000000000000000000000072
:103E500000000000051C051D051D051D051D051D97
:103E6000051D00001CD9051D0022000000000000F7
:103E70000000000000000000000000000000000042
:103E80000000000000000000000000000000000032
:103E90000000000000000000000000000000000022
:103EA0000000000000000000000000000000000012
:103EB0000000000000000000000000000000000002
:103EC00000000000000000000000000000000000F2
:103ED00000000000000000000000000000000000E2
:103EE00000000000000000000000000000000000D2
:103EF00000000000000000000000000000000000C2
:103F00000000000000000000051C051D051D051D2A
:103F1000051D051D051D00001CD9051D0022000002
:103F20000000000000000000000000000000000091
:103F30000000000000000000000000000000000081
:103F40000000000000000000000000000000000071
:103F50000000000000000000000000000000000061
:103F60000000000000000000000000000000000051
:103F70000000000000000000000000000000000041
:103F80000000000000000000000000000000000031
:103F90000000000000000000000000000000000021
:103FA0000000000000000000000000000000000011
:103FB000000000000000000000000000051C051DBE
:103FC000051D051D051D051D051D00001CD9051D30
:103FD00000220000000000000000000000000000BF
:103FE00000000000000000000000000000000000D1
:103FF00000000000000000000000000000000000C1
:1040000000000000000000000000000000000000B0
:1040100000000000000000000000000000000000A0
:104020000000000000000000000000000000000090
:104030000000000000000000000000000000000080
:104040000000000000000000000000000000000070
:104050000000000000000000000000000000000060
:104060000000000000000000000000000000000050
:10407000051C051D051D051D051D051D051D000053
:104080001CD9051D002200000000000000000000F7
:104090000000000000000000000000000000000020
:1040A0000000000000000000000000000000000010
:1040B0000000000000000000000000000000000000
:1040C00000000000000000000000000000000000F0
:1040D00000000000000000000000000000000000E0
:1040E00000000000000000000000000000000000D0
:1040F00000000000000000000000000000000000C0
:1041000000000000000000000000000000000000AF
:10411000000000000000000000000000000000009F
:1041200000000000051C051D051D051D051D051DC4
:10413000051D00001CD9051D002200000000000024
:10414000000000000000000000000000000000006F
:10415000000000000000000000000000000000005F
:10416000000000000000000000000000000000004F
:10417000000000000000000000000000000000003F
:10418000000000000000000000000000000000002F
:10419000000000000000000000000000000000001F
:1041A000000000000000000000000000000000000F
:1041B00000000000000000000000000000000000FF
:1041C00000000000000000000000000000000000EF
:1041D0000000000000000000051C051D051D051D58
:1041E000051D051D051D00001CD9051D0022000030
:1041F00000000000000000000000000000000000BF
:1042000000000000000000000000000000000000AE
:10421000000000000000000000000000000000009E
:10422000000000000000000000000000000000008E
:10423000000000000000000000000000000000007E
:10424000000000000000000000000000000000006E
:10425000000000000000000000000000000000005E
:10426000000000000000000000000000000000004E
:10427000000000000000000000000000000000003E
:10428000000000000000000000000000051C051DEB
:10429000051D051D051D051D051D00001CD9051D5D
:1042A00000220000000000000000000000000000EC
:1042B00000000000000000000000000000000000FE
:1042C00000000000000000000000000000000000EE
:1042D00000000000000000000000000000000000DE
:1042E00000000000000000000000000000000000CE
:1042F00000000000000000000000000000000000BE
:1043000000000000000000000000000000000000AD
:10431000000000000000000000000000000000009D
:10432000000000000000000000000000000000008D
:10433000000000000000000000000000000000007D
:10434000051C051D051D051D051D051D051D000080
:104350001CD9051D00220000000000000000000024
:10436000000000000000000000000000000000004D
:10437000000000000000000000000000000000003D
:10438000000000000000000000000000000000002D
:10439000000000000000000000000000000000001D
:1043A000000000000000000000000000000000000D
:1043B00000000000000000000000000000000000FD
:1043C00000000000000000000000000000000000ED
:1043D00000000000000000000000000000000000DD
:1043E00000000000000000000000000000000000CD
:1043F00000000000051C051D051D051D051D051DF2
:10440000051D00001CD9051D002200000000000051
:10441000000000000000000000000000000000009C
:10442000000000000000000000000000000000008C
:10443000000000000000000000000000000000007C
:10444000000000000000000000000000000000006C
:10445000000000000000000000000000000000005C
:10446000000000000000000000000000000000004C
:10447000000000000000000000000000000000003C
:10448000000000000000000000000000000000002C
:10449000000000000000000000000000000000001C
:1044A0000000000000000000051C051D051D051D85
:1044B000051D051D051D00001CD9051D002200005D
:1044C00000000000000000000000000000000000EC
:1044D00000000000000000000000000000000000DC
:1044E00000000000000000000000000000000000CC
:1044F00000000000000000000000000000000000BC
:1045000000000000000000000000000000000000AB
:10451000000000000000000000000000000000009B
:10452000000000000000000000000000000000008B
:10453000000000000000000000000000000000007B
:10454000000000000000000000000000000000006B
:10455000000000000000000000000000051C051D18
:10456000051D051D051D051D051D00001CD9051D8A
:104570000022000000000000000000000000000019
:10458000000000000000000000000000000000002B
:10459000000000000000000000000000000000001B
:1045A000000000000000000000000000000000000B
:1045B00000000000000000000000000000000000FB
:1045C00000000000000000000000000000000000EB
:1045D00000000000000000000000000000000000DB
:1045E00000000000000000000000000000000000CB
:1045F00000000000000000000000000000000000BB
:1046000000000000000000000000000000000000AA
:10461000051C051D051D051D051D051D051D0000AD
:104620001CD9051D00220000000000000000000051
:10463000000000000000000000000000000000007A
:10464000000000000000000000000000000000006A
:10465000000000000000000000000000000000005A
:10466000000000000000000000000000000000004A
:10467000000000000000000000000000000000003A
:10468000000000000000000000000000000000002A
:10469000000000000000000000000000000000001A
:1046A000000000000000000000000000000000000A
:1046B00000000000000000000000000000000000FA
:1046C00000000000051C051D051D051D051D051D1F
:1046D000051D00001CD9051D00220000000000007F
:1046E00000000000000000000000000000000000CA
:1046F00000000000000000000000000000000000BA
:1047000000000000000000000000000000000000A9
:104710000000000000000000000000000000000099
:104720000000000000000000000000000000000089
:104730000000000000000000000000000000000079
:104740000000000000000000000000000000000069
:104750000000000000000000000000000000000059
:104760000000000000000000000000000000000049
:104770000000000000000000051C051D14FB14FBD8
:1047800014FB14FB14FB00001CD9051D00220000C3
:104790000000000000000000000000000000000019
:1047A0000000000000000000000000000000000009
:1047B00000000000000000000000000000000000F9
:1047C00000000000000000000000000000000000E9
:1047D00000000000000000000000000000000000D9
:1047E00000000000000000000000000000000000C9
:1047F00000000000000000000000000000000000B9
:1048000000000000000000000000000000000000A8
:104810000000000000000000000000000000000098
:10482000000000000000000000000000051C051D45
:104830000000000000000000000000001CD9051D61
:104840000022000000000000000000000000000046
:104850000000000000000000000000000000000058
:104860000000000000000000000000000000000048
:104870000000000000000000000000000000000038
:104880000000000000000000000000000000000028
:104890000000000000000000000000000000000018
:1048A0000000000000000000000000000000000008
:1048B00000000000000000000000000000000000F8
:1048C00000000000000000000000000000000000E8
:1048D00000000000000000000000000000000000D8
:1048E000051C051D00000000000000000000000085
:1048F0001CD9051D0022000000000000000000007F
:1049000000000000000000000000000000000000A7
:104910000000000000000000000000000000000097
:104920000000000000000000000000000000000087
:104930000000000000000000000000000000000077
:104940000000000000000000000000000000000067
:104950000000000000000000000000000000000057
:104960000000000000000000000000000000000047
:104970000000000000000000000000000000000037
:104980000000000000000000000000000000000027
:1049900000000000051C051D0000000000000000D4
:1049A000000000001CD9051D0022000000000000CE
:1049B00000000000000000000000000000000000F7
:1049C00000000000000000000000000000000000E7
:1049D00000000000000000000000000000000000D7
:1049E00000000000000000000000000000000000C7
:1049F00000000000000000000000000000000000B7
:104A000000000000000000000000000000000000A6
:104A10000000000000000000000000000000000096
:104A20000000000000000000000000000000000086
:104A30000000000000000000000000000000000076
:104A40000000000000000000051C051D0000000023
:104A500000000000000000001CD9051D002200001D
:104A60000000000000000000000000000000000046
:104A70000000000000000000000000000000000036
:104A80000000000000000000000000000000000026
:104A90000000000000000000000000000000000016
:104AA0000000000000000000000000000000000006
:104AB00000000000000000000000000000000000F6
:104AC00000000000000000000000000000000000E6
:104AD00000000000000000000000000000000000D6
:104AE00000000000000000000000000000000000C6
:104AF000000000000000000000000000051C051D73
:104B00000000000000000000000000001CD9051D8E
:104B10000022000000000000000000000000000073
:104B20000000000000000000000000000000000085
:104B30000000000000000000000000000000000075
:104B40000000000000000000000000000000000065
:104B50000000000000000000000000000000000055
:104B60000000000000000000000000000000000045
:104B70000000000000000000000000000000000035
:104B80000000000000000000000000000000000025
:104B90000000000000000000000000000000000015
:104BA0000000000000000000000000000000000005
:104BB000051C051D000000000000000000000000B2
:104BC0001CD9051D002200000000000000000000AC
:104BD00000000000000000000000000000000000D5
:104BE00000000000000000000000000000000000C5
:104BF00000000000000000000000000000000000B5
:104C000000000000000000000000000000000000A4
:104C10000000000000000000000000000000000094
:104C20000000000000000000000000000000000084
:104C30000000000000000000000000000000000074
:104C40000000000000000000000000000000000064
:104C50000000000000000000000000000000000054
:104C600000000000051C051D000000000000000001
:104C7000000000001CD9051D0022000000000000FB
:104C80000000000000000000000000000000000024
:104C90000000000000000000000000000000000014
:104CA0000000000000000000000000000000000004
:104CB00000000000000000000000000000000000F4
:104CC00000000000000000000000000000000000E4
:104CD00000000000000000000000000000000000D4
:104CE00000000000000000000000000000000000C4
:104CF00000000000000000000000000000000000B4
:104D000000000000000000000000000000000000A3
:104D10000000000000000000051C051D0000000050
:104D200000000000000000001CD9051D002200004A
:104D30000000000000000000000000000000000073
:104D40000000000000000000000000000000000063
:104D50000000000000000000000000000000000053
:104D60000000000000000000000000000000000043
:104D70000000000000000000000000000000000033
:104D80000000000000000000000000000000000023
:104D90000000000000000000000000000000000013
:104DA0000000000000000000000000000000000003
:104DB00000000000000000000000000000000000F3
:104DC000000000000000000000000000051C051DA0
:104DD0000000000000000000000000001CD9051DBC
:104DE00000220000000000000000000000000000A1
:104DF00000000000000000000000000000000000B3
:104E000000000000000000000000000000000000A2
:104E10000000000000000000000000000000000092
:104E20000000000000000000000000000000000082
:104E30000000000000000000000000000000000072
:104E40000000000000000000000000000000000062
:104E50000000000000000000000000000000000052
:104E60000000000000000000000000000000000042
:104E70000000000000000000000000000000000032
:104E8000051C051D000000000000000000000000DF
:104E90001CD9051D002200000000000000000000D9
:104EA0000000000000000000000000000000000002
:104EB00000000000000000000000000000000000F2
:104EC00000000000000000000000000000000000E2
:104ED00000000000000000000000000000000000D2
:104EE00000000000000000000000000000000000C2
:104EF00000000000000000000000000000000000B2
:104F000000000000000000000000000000000000A1
:104F10000000000000000000000000000000000091
:104F20000000000000000000000000000000000081
:104F300000000000051C051D00000000000000002E
:104F4000000000001CD9051D002200000000000028
:104F50000000000000000000000000000000000051
:104F60000000000000000000000000000000000041
:104F70000000000000000000000000000000000031
:104F80000000000000000000000000000000000021
:104F90000000000000000000000000000000000011
:104FA0000000000000000000000000000000000001
:104FB00000000000000000000000000000000000F1
:104FC00000000000000000000000000000000000E1
:104FD00000000000000000000000000000000000D1
:104FE0000000000000000000051C051D000000007E
:104FF00000000000000000001CD9051D051C0D1C50
:105000000D1C0D1C0D1C0D1C0D1C0D1C0D1C0D1C58
:105010000D1C0D1C0D1C0D1C0D1C0D1C0D1C0D1C48
:105020000D1C0D1C0D1C0D1C0D1C0D1C0D1C0D1C38
:105030000D1C0D1C0D1C0D1C0D1C0D1C0D1C0D1C28
:105040000D1C0D1C0D1C0D1C0D1C0D1C0D1C0D1C18
:105050000D1C0D1C0D1C0D1C0D1C0D1C0D1C0D1C08
:105060000D1C0D1C0D1C0D1C0D1C0D1C0D1C0D1CF8
:105070000D1C0D1C0D1C0D1C0D1C0D1C0D1C0D1CE8
:105080000D1C0D1C0D1C0D1C0D1C0D1C0D1C0D1CD8
:105090000D1C0D1C0D1C0D1C0D1C0D1C051D051DD6
:1050A0000000000000000000000000001CD9051DE9
:1050B000051D051D051D051D051D051D051D051DE0
:1050C000051D051D051D051D051D051D051D051DD0
:1050D000051D051D051D051D051D051D051D051DC0
:1050E000051D051D051D051D051D051D051D051DB0
:1050F000051D051D051D051D051D051D051D051DA0
:10510000051D051D051D051D051D051D051D051D8F
:10511000051D051D051D051D051D051D051D051D7F
:10512000051D051D051D051D051D051D051D051D6F
:10513000051D051D051D051D051D051D051D051D5F
:10514000051D051D051D051D051D051D051D051D4F
:10515000051D051D0000000000000000000000000B
:10516000000000000000000000000000000000003F
:10517000000000000000000000000000000000002F
:10518000000000000000000000000000000000001F
:10519000000000000000000000000000000000000F
:10D2100000000000BEF7BEF7BEF7BEF7BEF7BEF7D0
:10D22000BEF7BEF7BEF7BEF7BEF7BEF7BEF7BEF756
:10D23000BEF7BEF7BEF7BEF7BEF7BEF7BEF7BEF746
:10D24000BEF7BEF7BEF7BEF7BEF7BEF7BEF7BEF736
:10D25000BEF7BEF7BEF7BEF7BEF7BEF7BEF7BEF726
:10D26000DEF7DEF7BEF7BEF7BEF7BEF7BEF7BEF7D6
:10D27000BEF7BEF7BEF7BEF7BEF7BEF7BEF7BEF706
:10D280009EEFBEF79EEF9EEF9EEF9EEF9EEF9EEF0E
:10D29000BEF79EEF9EEFBEEF9EEFBEEFBEF7BEF76E
:10D2A000BEF7BEF7BEF7BFF7BEF7BEF7BEF7BEF7D5
:10D2B000BEF7BEF7BEF7BEF7BEF7BEF7BEF7BEF7C6
:10D2C000BEF7BEF7BEF7BEF7BEF7BEF7BEF7BEF7B6
:10D2D000BEF7BEF7BEF7BEF7BEF7BEF7BEF7BEF7A6
:10D2E000BEF7BEF7BEF7BEF7BEF7BEF7BEF7BEF796
:10D2F000BEF7BEF7BEF7BEF7BEF7BEF7BEF7BEF786
:10D30000BEF7BEF7BEF7BEF7BEF7BEF7BEF7BEF775
:10D31000BEF7BEF7BEF7BEF7BEF7BEF7BEF7BEF765
:10D32000BEF7BEF7BEF7BEF7BEF7BEF7BEF7BEF755
:10D33000BEF7BEF7BEF7BEF7BEF7BEF7BEF7BEF745
:10D34000BEF7BEF7BEF7BEF7BEF7BEF7BEF7BEF735
:10D35000BEF7BEF7BEF7BEF7BEF7BEF7BEF7BEF725
:10D36000BEF7BEF7BEF7BEF7BEF7BEF7BEF7BEF715
:10D37000BEF7BEF7BFF7BEF79EEFBEEF9EEFBEEF64
:10D380009EEF9EEF9EEF9EE77FE79EE79FE79FE77A
:10D390009FE79EE79FE77FE79EEF9FE79EEF9EEF69
:10D3A0009EEF9EEFBEF79EEFBFF79EF7BEF7BFF76B
:10D3B000BEF7BEF7BEF7BEF7BEF7BEF7BEF7BEF7C5
:10D3C000BEF7BEF7BEF7BEF7BEF7BEF7BEF7BEF7B5
:10D3D000BEF7BEF7BEF7BEF7BEF7BEF7BEF7BEF7A5
:10D3E000BEF7BEF7BEF7BEF7BEF7BEF7BEF7BEF795
:10D3F000BEF7BEF7BEF7BEF7BEF7BEF7BEF7BEF785
:10D40000BEF7BEF7BEF7BEF7BEF7BEF7BEF7BEF774
:10D41000BEF7BEF7BEF7BEF7BEF7BEF7BEF7BEF764
:10D42000BEF7BEF7BEF7BEF7BEF7BEF7BEF7BEF754
:10D43000BEF7BEF7BEF7BEF7BEF7BEF7BEF7BEF744
:10D44000BEF7BEF7BEF7BEF7BEF7BFF7BEF7BEF733
:10D45000BEF7BEF7BEF7BEF7BEF7BEF7BEF7BEF724
:10D46000BEF7BEF7BEF7BFF7BEF7BEF7BFF7BEF712
:10D470009EEF9EF79EEF9EEF9EE79EE77FDF7EE7A3
:10D480007FDF7FDF5FD77FDF5FD75FD75ED75ED776
:10D490005ED75FD75EDF5FD75EDF5EDF7EDF7EDF7A
:10D4A0009EE77EE79EEF9EE7BEEF9EEFBFF7BEEFE3
:10D4B000BEF7BFF7BEF7BEF7BEF7BEF7BEF7BEF7C3
:10D4C000BEF7BEF7BEF7BEF7BEF7BEF7BEF7BEF7B4
:10D4D000BEF7BEF7BEF7BEF7BEF7BEF7BEF7BEF7A4
:10D4E000BEF7BEF7BEF7BEF7BEF7BEF7BEF7BEF794
:10D4F000BEF7BEF7BEF7BEF7BEF7BEF7BEF7BEF784
:10D50000BEF7BEF7BEF7BEF7BEF7BEF7BEF7BEF773
:10D51000BEF7BEF7BEF7BEF7BEF7BEF7BEF7BEF763
:10D52000BEF7BEF7BEF7BEF7BEF7BEF7BEF7BEF753
:10D53000BEF7BEF7BEF7BEF7BEF7BEF7BEF7BEF743
:10D54000BEF7BEF7BEF7BEF7BEF7BEF7BEF7BEF733
:10D55000BEF7BEF7BEF7BEF7BEF7BEF7BEF7BEF723
:10D56000BEF7BEF7BEF7BEF7BEF7BEF7BEEF9EEF43
:10D570007FE79FEF7EDF7FDF5ED77EDF5FCF3ED727
:10D580003ECF5FCF3FC73FC73FC73FC73FC73FBF44
:10D590003FBF3FC73FC71FC73ECF3EC75FCF3FCF4D
:10D5A0005ED75ED77EDF7EDF9EE77EE79EEF9EEF53
:10D5B000BEF7BEF7BFF7BEF7BEF7BEF7BEF7BEF7C2
:10D5C000BEF7BEF7BEF7BEF7BEF7BEF7BEF7BEF7B3
:10D5D000BEF7BEF7BEF7BEF7BEF7BEF7BEF7BEF7A3
:10D5E000BEF7BEF7BEF7BEF7BEF7BEF7BEF7BEF793
:10D5F000BEF7BEF7BEF7BEF7BEF7BEF7BEF7BEF783
:10D60000BEF7BEF7BEF7BEF7BEF7BEF7BEF7BEF772
:10D61000BEF7BEF7BEF7BEF7BEF7BEF7BEF7BEF762
:10D62000BEF7BEF7BEF7BEF7BEF7BEF7BEF7BEF752
:10D63000BEF7BEF7BEF7BEF7BEF7BEF7BEF7BEF742
:10D64000BEF7BEF7BEF7BEF7BEF7DEF7BEF7BEF712
:10D65000BEF7BEF7BEF7BEF7BEF7BEF7BEF7BEF722
:10D66000BEF7BEF79EEFBEF79EEF9FEF7FDF9FE70F
:10D670005FD75FDF3FCF5ECF3FC73FC79F8E3FB7CC
:10D680009E5DFE6DBF4DBE55BF45BF4DBF4DBF4DED
:10D69000DF45BF45BF4DDF459E55BE55DF961E6E2B
:10D6A0003FBF3FB75FCF3FCF7ED75ECF9FDF7FDFEC
:10D6B0009EEF9FE7BEEF9EEFBEF7BEF7BEF7BEF749
:10D6C000BEF7BEF7BEF7BEF7BEF7BEF7BEF7BEF7B2
:10D6D000BEF7BEF7BEF7BEF7BEF7BEF7BEF7BEF7A2
:10D6E000BEF7BEF7BEF7BEF7BEF7BEF7BEF7BEF792
:10D6F000BEF7BEF7BEF7BEF7BEF7BEF7BEF7BEF782
:10D70000BEF7DEF7BEF7BFF7BEF7BEF7BEF7BEF750
:10D71000BEF7BEF7BEF7BEF7BEF7BEF7BEF7BEF761
:10D72000BEF7BEF7BEF7BEF7BEF7BEF7BEF7BEF751
:10D73000BEF7BEF7BEF7BEF7BEF7BEF7BEF7BEF741
:10D74000BEF7BEF7BEF7BEF7BEF7BEF7BEF7BEF731
:10D75000BEF7BEF7BEF7BEF7BEF7BEF7BFF7BEF720
:10D760009EEFBEF79EE79EEF7EDF7EE75FD75EDF30
:10D770003FC75FCFBD65FFA6BF4D9E4DBF4D9F4DBF
:10D780009F4DBF45BF45BF4DBF45BF45BF45BF4589
:10D79000BF45BF45BF45BF45BF45BF45BF45BF4569
:10D7A000BF45BF455F76BE553EC73FAF5FCF5FCF3A
:10D7B0007EDF5FDF9FE77FE7BFF79EEFBEF7BEF735
:10D7C000BFF7BEF7BEF7BEF7BEF7BEF7BEF7BEF7B0
:10D7D000BEF7BEF7BEF7BEF7BEF7BEF7BEF7BEF7A1
:10D7E000BEF7BEF7BEF7BEF7BEF7BEF7BEF7BEF791
:10D7F000BEF7BEF7BEF7BEF7BEF7BEF7BEF7BEF781
:10D80000BEF7DEF7BEF7BEF7BEF7BEF7BEF7BEF750
:10D81000BEF7BEF7BEF7BEF7BEF7BEF7BEF7BEF760
:10D82000BEF7BEF7BEF7BEF7BEF7BEF7BEF7BEF750
:10D83000BEF7BEF7BEF7BEF7BEF7BEF7BEF7BEF740
:10D84000BEF7BEF7BEF7BEF7BEF7BEF7BEF7BEF730
:10D85000BEF7BEF7BEF7BEF7BEF7BEF79EEFBFF747
:10D860009EE79EEF5ED77EDF3ECF5FD7DF9E3FBF56
:10D87000BF4D9E5DBF4DBF45BF4DBF4DBF459F4D89
:10D88000BF45BF45BF45BF45BF45BF45BF45BF4578
:10D89000BF45BF45BF45BF45BF45BF45BF45BF4568
:10D8A000DF3DDF45DF45DF45DF45DF453FAFFD5D60
:10D8B0005FCF3FC77EDF5FD79FE79FE7BEF79EEF53
:10D8C000BEF7BEF7BEF7BEF7BEF7BEF7BEF7BEF7B0
:10D8D000BEF7BEF7BEF7BEF7BEF7BEF7DEF7BEF780
:10D8E000BEF7BEF7DEF7BEF7BEF7DEF7BEF7BEF750
:10D8F000BEF7BEF7BEF7BEF7BFF7BEF7BEF7BEF77F
:10D90000BEF7BEF7BEF7BEF7BEF7BEF7BEF7BEF76F
:10D91000BEF7BEF7BEF7BEF7BEF7BEF7BEF7BEF75F
:10D92000BEF7BEF7BEF7BEF7BEF7BEF7BEF7BEF74F
:10D93000BEF7BEF7BEF7BEF7BEF7BEF7BEF7BEF73F
:10D94000BEF7BEF7BEF7BEF7BEF7BEF7BEF7BEF72F
:10D95000BEF7BEF7BEF7BEF79EEFBEF79FE79EEF9E
:10D960005FD79FE73FCF5ECFDE6D3FB79F4D9F559F
:10D970009F459F4D9F4D9F459F4DBF45BF45BF450F
:10D98000BF4DBF4DBF45BF4DBF45BF4DDF45BF4537
:10D99000BF45DF45BF45BF45BF45BF45BF45BF4547
:10D9A000BF45BF45DF45BF45DF45DF45DF45DF45B7
:10D9B0005E76DF4D5FCF7FB79FDF7FD79EEF9FDF24
:10D9C000BEF7BEEFBEF7BFF7BEF7BEF7BEF7BEF7B6
:10D9D000BEF7BEF7BEF7BEF7BEF7BEF7BEF7BEF79F
:10D9E000BEF7BEF7BEF7BEF7BEF7BEF7BEF7BEF78F
:10D9F000BEF7BEF7BEF7BEF7BEF7BEF7BEF7BEF77F
:10DA0000BEF7BEF7BEF7BEF7BEF7BEF7BEF7BEF76E
:10DA1000BEF7BEF7BEF7BEF7BEF7BEF7BEF7BEF75E
:10DA2000BEF7BEF7BEF7BEF7BEF7BEF7BEF7BEF74E
:10DA3000BEF7BEF7BEF7BEF7BEF7BEF7BEF7BEF73E
:10DA4000BEF7BEF7BEF7BEF7BEF7BEF7BEF7BEF72E
:10DA5000BEF7BEF79EF7BEF79EE79EEF7FD77FDF4C
:10DA60005FCF5FCF9E551FAFBF4DBF559F4D9F4DA1
:10DA70009F4D9F4D9F4D9F4DBF459F4DBF4DBF4DEE
:10DA8000BE5D9E4D5F7EDE65DF969F8EDF96DF9EDC
:10DA9000BF8EDF963F6E7F7EBE4DFE5DDF45BF4D84
:10DAA000BF45DF45DF45DF45DF3DDF45DF3DDF3D8E
:10DAB000DF3DDF3D1D5EFF455ECF5FBF7EDF7FCF79
:10DAC0009FEF9EE7BFF7BFF7BEF7DFF7BEF7BEF7E2
:10DAD000BEF7BEF7BEF7BEF7BEF7BEF7BEF7BEF79E
:10DAE000BEF7BEF7BEF7BEF7BEF7BEF7BEF7BEF78E
:10DAF000BEF7BEF7BEF7BEF7BEF7BEF7BEF7BEF77E
:10DB0000BEF7BEF7BEF7BEF7BEF7BEF7BEF7BEF76D
:10DB1000BEF7BEF7BEF7BEF7BEF7BEF7BEF7BEF75D
:10DB2000BEF7BEF7BEF7BEF7BEF7BEF7BEF7BEF74D
:10DB3000BEF7BEF7BEF7BEF7BEF7BEF7BEF7BEF73D
:10DB4000BEF7BEF7BEF7BEF7BEF7BEF7BEF7BEF72D
