:020000040000FA
:10000000FC0F0020D5000000A5110000410D0000EC
:10001000DD000000DF000000E10000000000000043
:10002000000000000000000000000000A31200001B
:10003000E5000000000000009912000055010020BA
:10004000EB000000EB00000025140000611400002C
:100050005F010020F912000001130000EB00000016
:10006000EB000000EB000000F9140000EB000000C2
:10007000EB000000190900001B090000EB00000064
:100080009B120000BD230000EB000000050A0000E9
:10009000EB000000EB000000EB000000EB000000B4
:1000A000EB000000EB000000EB000000EB000000A4
:1000B000070A0000EB000000110900009109000090
:1000C0000348854600F0FAFB00480047352400004D
:1000D000FC0F002005480047FEE7FEE7FEE7FEE7CD
:1000E000FEE7FEE7FEE7FEE7FEE7FEE7C1000000F1
:1000F00030B50B46014600202022012409E00D46C0
:10010000D5409D4205D31D469540491B2546954047
:1001100040191546521E002DF1DC30BD0321001D93
:10012000401E037812021A43491EF9D51046704743
:10013000F8B502464A40D40F42004B0052085B0813
:100140009A4202D20246084611464A0023D0C30D05
:100150004A00DDB2120EAD1A202D35DA4902012611
:10016000490AF6058A19002C00D0524220214F1B63
:100170001146B9402A411018C20D9A4221D0002CD4
:1001800017D0012D08DCDA05801AD20F8019D207AA
:10019000DBB200F0C7FAF8BDDA05801A012340008F
:1001A0001B06C01880185A428018CA0F1043490015
:1001B00007E04908C2071143DA05801A8019400890
:1001C000801800F0A7FAF8BD61000122511A001B47
:1001D000F7E70122D2075140AAE70122D207504097
:1001E000A6E7024670B54A40D30FDB0740002DD08A
:1001F0004A002AD0010E140E000212020919400A08
:10020000520A8418E50104465443000A120A2E04D7
:100210005043A4194219200CC543AA18120C0125F9
:10022000AD03521C521912047F39240400D0521C11
:10023000104301D44000491EC2B20C06C009201868
:10024000401C4008802A02D003E0002070BD400816
:100250004000002900DA0020184370BDF0B50746C1
:100260000846584087B0C00F049048000E46590019
:1002700040084908BC1A884105D2384631461E4616
:1002800017460B4602465800400810434CD0300D2C
:10029000039040055900400D490D0590401A029009
:1002A000402872DA18030121000B09050843019068
:1002B00004980092002805D00199524200208841FC
:1002C00000920190029840210A1A0199009800F0CA
:1002D000EDF905460C466B4607CB00F008FAC0194D
:1002E0007141039A0E0D0023D71756401A467A40E3
:1002F000164344D0049A002A2DD0029A012A039A68
:1003000015DC1205C01A914101263605001C714109
:10031000D20F059ED2070093019202962A462346E9
:1003200000F046FA07B0F0BD38463146FAE7160548
:10033000224A0F46B218C01AB74101210905001C14
:100340004F4100187F41114618187941E20F1043C0
:100350006D19644113E0E2076D0815436408C20794
:100360001443039A01261205C01A91413605001C58
:100370007141CE07400830434908C01851412A4610
:10038000234600F008FACDE7FFE704980122400079
:10039000C117121A00238B4104983146C417381A2A
:1003A000A141EEE730B40124E407634030BC55E7D7
:1003B00030B40124E407614030BC4FE70000E0FFA7
:1003C000F0B51FB488B00B990998002448400999EA
:1003D000C00F490049080991C0070B9900904900D6
:1003E00049080B9109990898A64608431CD00B9917
:1003F0000A98084318D0099801244000420D48008B
:10040000410D099824050003000B204309900B9827
:100410000003000B20430B9050181C494018002289
:1004200001901446104605E0002001460DB0F0BDD5
:10043000032801DA034600E003239C46C11A0AAEF2
:100440000AE05F0008ADED5B4F00F75B7D430027DE
:10045000AA187C41491C5B1E6145F2DD410004ABDA
:100460005A522104120C0A43240C401C0828DFDBDA
:10047000019802900099704601910090059B049AA2
:100480000799069800F094F9D0E700000DFCFFFFF3
:10049000F0B50C465C4085B0E40FE40703944C00D3
:1004A00000266408590094464908024602962243F1
:1004B00021D062460A431ED06200570D4A000E0347
:1004C0002303550D012402462C492405781B1B0BE0
:1004D000360B401823432643614600901C46501AB1
:1004E000B44103D30098401C009002E09218009899
:1004F0005B41002803DA0020014605B0F0BD002072
:10050000012109050746864611E064461D46141B75
:10051000B54106D36546521BB341744607430C43AD
:10052000A646CD0740084908284392185B41054676
:100530000D43EAD11046184313D060461946504087
:100540007140084306D06046101AB34106D201221A
:10055000002306E000220123DB0702E00122D24350
:100560005310009874460105381C6141029C039D9C
:100570000019694100F00FF9BFE70000FD0300001A
:100580000EB5C217C10F5040CA0740180021054BD5
:100590000293019200910A460B4600F009F903B05C
:1005A00000BD000033040000C20F410040020123DF
:1005B000400ADB05D207090EC0187F2901DA0020A6
:1005C0007047962903DC9623591AC84001E09639F2
:1005D0008840002AF4D040427047000070B5CD0F2B
:1005E0004A0009030123090B1B0519430B4BED07B7
:1005F0000024520D9A4201DA002070BD074B3433BB
:100600009A4203DC9A1A00F061F802E0044951189A
:1006100088402C43F1D0404270BD0000FF03000031
:10062000CDFBFFFF0122D207002800DB101A0029B2
:1006300000DB511A814270470122D207002800DBFB
:10064000101A002900DB511A88427047F0B51FB418
:100650000646002082B005464024019100901BE030
:10066000019922460F46304600F030F8049A059B67
:10067000801A994110D310461946224600F016F808
:10068000361A8F410197224601200021009F00F079
:100690000DF838184D4100902046641E0028DFDC1C
:1006A000019B00982946324607B0F0BD10B5202ABC
:1006B00004DB0146203A9140002010BD91402023E8
:1006C0009C1A0346E3401943904010BD10B5202A00
:1006D00004DB0846203AD040002110BD0B46D34031
:1006E000D0402024A21A91400843194610BD10B5ED
:1006F000202A06DBCB170846203A1041C1170B43CE
:1007000006E00B461341D0402024A21A9140084332
:10071000194610BD002904DA401C490001D14008E7
:100720004000704770B40024050C05D1102400046B
:1007300002D1002921D01124050E01D10002083474
:10074000050F01D10001241D850F01D18000A41CDB
:10075000002801DB4000641C002908D020252E1B46
:100760000D46F540A14000D0012129430843010670
:100770001B1B000ADB1D02D5002070BC7047DB0587
:10078000181880180029F8DA401C4900F5D170BC0F
:1007900040084000704710B5002B08DA0024401CC8
:1007A000614192185B411A4301D14008400010BDDD
:1007B000F0B51FB482B005460C0003D0084600F027
:1007C000BBFE02E000F0B8FE203002460090214659
:1007D0002846FFF76BFF049B059A04460F46184313
:1007E0001143084314D0184610431BD000984021F1
:1007F0000A1A18460599FFF769FF05460E46009A42
:1008000005990498FFF752FF084305D0012004E042
:100810002046394607B0F0BD0020C11705430E43FE
:100820002C43374300990E986305401A7905E40A72
:1008300000220C43FD0A0A3002D500200146E9E7F8
:100840000105101969410C9C0D9D00196941FFF7C4
:10085000A2FFDFE74A0009030123090B1B05194327
:100860000A4B10B5520D9A4202DA0020014610BD23
:10087000064B34339A4203DC9A1AFFF727FF10BD68
:10088000034BD218FFF712FF10BD0000FF0300005A
:10089000CDFBFFFF10B5002904DB0124E407404233
:1008A0008C412146002B04DB1C460123DB0752420E
:1008B000A341994200D1904210BD0000064C012591
:1008C000064E05E0E36807CC2B430C3C98471034F8
:1008D000B442F7D3FFF7F8FB3C2703006C27030073
:1008E00003B40148019001BDD501002003B40148C3
:1008F000019001BDD901002003B40148019001BD60
:100900006D01002003B40148019001BDF1010020F8
:1009100010B501F0FBFB10BD7047704770B51B4E62
:100920003046FFF7DDFF01252843044601F026FD90
:1009300021463046FFF7DAFF144E083E3046FFF7F7
:10094000CFFF2843044601F019FD21463046FFF74A
:10095000CDFF0E4E361D3046FFF7C2FFAD022843D5
:10096000044601F00BFD21463046FFF7BFFF074E5E
:100970000C363046FFF7B4FF2843044601F0FEFC76
:1009800021463046FFF7B2FF70BD00000C00024068
:100990007047000008B50D480168402211430091DE
:1009A00001604169120311430091416100995210A5
:1009B000114300914161042001F0F4FC0021042066
:1009C00001F0F8FC042000F0FBFB08BD00600040D3
:1009D00010B50B490A78002A10D04A780C235A43E4
:1009E0005218121D1CCA1CC04878401C8007800F7A
:1009F00048700878401E0870012010BD002010BD0E
:100A0000E000002070477047F8B51C4615460E46BA
:100A1000074601F0F9FD0146064802694269009265
:100A200046608760C560069A14430460084601F07A
:100A3000EEFDF8BD00600040F8B506460F463048B0
:100A4000FFF756FB4407C508640F39462D48FFF7EA
:100A50004FFB0A21FFF74CFB002780220123002EC9
:100A600018D0012E2BD0022E48D127484760C668E7
:100A70001643C660EEB206602D042D0E4560E607F3
:100A80006508F60F3419E4002C19113484621E4CE9
:100A9000403428E01D484760C6681643C660EEB281
:100AA00006602D042D0E4560E6076508F60F341923
:100AB000E4002C1911348462144C403413E01448BF
:100AC0004760C6681643C660EEB206602D042D0E60
:100AD0004560E6076508F60F3419E4002C19113457
:100AE00084620B4C4034E5682D092D010D43E5600F
:100AF000C1689143C160072181604360F8BD000077
:100B00008096980000E1F50500400040001000408C
:100B1000003000400249086048694006FCD5704733
:100B200000100040014880697047000000E000E0CC
:100B300038B50025174C1648009520602068A11490
:100B4000084320600A2001F0D5F9134906E0009817
:100B5000421C0092884201D9002038BD6068C00262
:100B6000F5D51420009501F0C5F9206A256080B202
:100B70007D21C90048430949FFF7BAFAFFF700FD94
:100B8000074A084BFFF71CFCFFF728FD80B238BD71
:100B90002080010000600140B80B0000FF0F000042
:100BA0006666666666661A4010B500210122002856
:100BB0000DD001280AD10D480161C2600F214160AA
:100BC0000B49416041680BA000F0A6FC10BD16481F
:100BD00001610161C260C260054A103A4260044A84
:100BE000303A4260C160416810A0EDE700D001409A
:100BF000BB0F010048575F5350495F315F496E6931
:100C00007469616C697365205852375F5350495F4E
:100C100043544C206877705F737069312D3E4354A4
:100C2000524F4C3D2025780000B0014048575F539B
:100C300050495F305F496E697469616C6973652002
:100C40005852375F5350495F43544C206877705F68
:100C5000737069302D3E4354524F4C3D202578002F
:100C600038B5144601220D461146104601F074FBBA
:100C70000848074941600221009100232246294685
:100C8000FFF7C2FE7D20C000FFF736FE38BD000032
:100C90008B0F010000B0014038B5144601220D460B
:100CA0001146104601F058FB0848074941600321EE
:100CB0000091042322462946FFF7A6FE7D20C000AE
:100CC000FFF71AFE38BD00009B0F010000B0014085
:100CD00038B5144601220D461146104601F03CFB82
:100CE000084807494160022100910823224629460D
:100CF000FFF78AFE7D20C000FFF7FEFD38BD000033
:100D0000AB0F010000B0014038B5144601220D467A
:100D10001146104601F020FB0848074941600221B6
:100D20000091002322462946FFF76EFE7D20C00079
:100D3000FFF7E2FD38BD00008B0F010000B001405D
:100D4000FEE7000010B50F210B2001F0F1F9044877
:100D5000016880229143016002480068C0B210BD62
:100D6000008401400082014010B51D21122001F0D5
:100D7000DFF904480168402291430160024800689D
:100D8000C0B210BD008401400091014010B5152192
:100D90000E2001F0CDF913210D2001F0C9F9112128
:100DA0000C2001F0C5F90221012001F0B7FA012160
:100DB000084601F0B3FA0021012001F0AFFA10BD9E
:100DC00010B5012204461146104601F0C5FA034849
:100DD00001494160046010BD9B0F010000B001405B
:100DE00010B5044C2046FFF77BFD00212046FFF79D
:100DF0007DFD10BD2800024010B5054C2046FFF7D0
:100E00006FFD0D21890101432046FFF76FFD10BDE5
:100E10002800024010B5FFF7B9FF00F054F9782020
:100E200001F051F9FF2000F095F9A52000F082F9BA
:100E30003E2000F08FF9082000F07CF93A2000F005
:100E400089F9652000F076F9822000F083F900200E
:100E500000F070F9982000F07DF9002000F06AF9A8
:100E6000632000F077F90F2000F064F9642000F0AF
:100E700071F90F2000F05EF9B42000F06BF9342016
:100E800000F058F9B52000F065F9302000F052F973
:100E9000832000F05FF9032000F04CF9862000F079
:100EA00059F9042000F046F9872000F053F9162084
:100EB00000F040F9882000F04DF9282000F03AF9C0
:100EC000892000F047F92F2000F034F9932000F03A
:100ED00041F9632000F02EF9962000F03BF98120C3
:100EE00000F028F9C32000F035F9112000F022F9B4
:100EF000E62000F02FF9002000F01CF9992000F006
:100F000029F9012000F016F9442000F023F900200F
:100F100000F010F9702000F01DF9022000F00AF92D
:100F2000712000F017F90E2000F004F9722000F093
:100F300011F90A2000F0FEF8732000F00BF91220DE
:100F400000F0F8F8742000F005F9192000F0F2F82C
:100F5000752000F0FFF81D2000F0ECF8762000F07E
:100F6000F9F8462000F0E6F8772000F0F3F80B20BF
:100F700000F0E0F8782000F0EDF80E2000F0DAF84C
:100F8000792000F0E7F83D2000F0D4F87A2000F056
:100F9000E1F8052000F0CEF87B2000F0DBF8072018
:100FA00000F0C8F87C2000F0D5F8122000F0C2F85C
:100FB0007D2000F0CFF80B2000F0BCF87E2000F080
:100FC000C9F80B2000F0B6F87F2000F0C3F8082025
:100FD00000F0B0F8A02000F0BDF81E2000F0AAF844
:100FE000A12000F0B7F83F2000F0A4F8A22000F004
:100FF000B1F80A2000F09EF8A32000F0ABF80D2015
:1010000000F098F8A42000F0A5F8082000F092F86D
:10101000A52000F09FF8232000F08CF8A62000F017
:1010200099F83D2000F086F8A72000F093F80420FE
:1010300000F080F8A82000F08DF8092000F07AF880
:10104000A92000F087F8302000F074F8AA2000F002
:1010500081F80A2000F06EF8AB2000F07BF80E203B
:1010600000F068F8AC2000F075F80E2000F062F88F
:10107000AD2000F06FF8072000F05CF8AE2000F023
:1010800069F82D2000F056F8AF2000F063F810202A
:1010900000F050F8FF2000F05DF8002000F04AF862
:1010A000112000F057F8962001F00DF8362000F0DE
:1010B00051F8082000F03EF8292000F04BF80A20F3
:1010C00001F001F810BD10B501210022084601F021
:1010D00043F9642000F0F7FF00221146012001F0DF
:1010E0003BF9FF20F53000F0EEFF01210022084619
:1010F00001F032F9322000F0E6FF10BDF8B50446E9
:101100001D4616460F462A2000F024F82046FFF719
:1011100057FE3046FFF754FE2B2000F01BF83846F0
:10112000FFF74EFE2846FFF74BFE2C2000F012F88A
:10113000F8BD000010B5012204461146104601F02A
:101140000BF9034801494160046010BD8B0F010099
:1011500000B0014010B5044601220021104601F004
:10116000FBF8034801494160046010BD8B0F01008A
:1011700000B0014038B501220C4605461146104624
:1011800001F0EAF806480549416002210091002378
:1011900022462946FFF738FC38BD00008B0F0100BE
:1011A00000B0014070470000002805DBC106C90EF1
:1011B00001208840014908607047000080E200E09B
:1011C000002805DBC106C90E0120884001490860DE
:1011D0007047000000E100E08307FF22DB0E9A4029
:1011E0000907090E994000280BDA0007000F08389C
:1011F000830808489B001818C36993430B43C361D5
:101200007047830804489B001B18186890430843E4
:101210001860704700ED00E000E400E070B50020C9
:10122000FFF75EFB0420FFF75BFB0820FFF758FB8E
:101230000C20FFF755FB1020FFF752FB2020FFF793
:101240004FFB2420FFF74CFB2820FFF749FB2C2005
:10125000FFF746FB3020FFF743FB0C4E3046FFF70D
:101260003FFB0B4D10206C68044321463046FFF7CE
:101270003DFB361F30466C60FFF732FB054C3046B5
:101280002146FFF733FB2C6070BD000024000240B4
:10129000000000209D78869D704710B500F024FF67
:1012A00010BD7047094910B5401E884201D9012080
:1012B00010BD074C60610021481EFFF78DFF002024
:1012C000A06107202061002010BD0000FFFFFF008B
:1012D00000E000E010B5FFF7A1FF00F01FFF1F20A6
:1012E00001F060F800211F2001F064F81F2001F0D8
:1012F0005DF8FFF707FB10BD10B500F08BF810BDCF
:1013000010B500F0F9FF10BD10B5024800F06CFEFA
:1013100010BD00006800002070B5FFF713FDC00984
:10132000C00115D17F2300211A460846FFF7E6FECB
:10133000174C01252078ED0300281FD015A000F0E0
:10134000EBF82A461B490020FFF7DEFC0020207046
:10135000FFF70AFD4021084207D1FFF741FD00F0E9
:10136000F5FDFFF7DBFA01F011FA01F03BF9014658
:10137000402802D110A000F0CFF870BD1DA000F0F1
:10138000CBF82A4622490020FFF7BEFC0120DEE709
:10139000600000200D0A204B3237204B4559205069
:1013A0007265737320446F776E20416761696E20A8
:1013B0000D0A2000A8B600000D0A20212121216D70
:1013C000695F746F755F6465746563742D2D2D6737
:1013D00070696F5F613620484947482021212120EC
:1013E0006770696F5F737461747573203D20257831
:1013F000000000000D0A204B3237204B4559205089
:101400007265737320446F776E200D0A2000000010
:10141000A836010008B50248C068009008BD000069
:101420000010014010B500F001F810BD08B50B48E0
:1014300081680907090FCA070FD102290CD00429B6
:1014400007D0062908D14169C9B20A0701D5890721
:1014500002D401786A461170806808BD001000400F
:1014600010B500F001F810BD08B50B4881680907F8
:10147000090FCA070FD102290CD0042907D0062969
:1014800008D14169C9B20A0701D5890702D4017898
:101490006A461170806808BD00300040F8B5FF232F
:1014A000013300261A43104F0125002818D00128C7
:1014B00018D0022813D10D4C666065606660E2604A
:1014C0006762226926612361FF2303332361920649
:1014D00002D5FF2223322261FFF7AEFA6560F8BD24
:1014E000034CE9E7034CE7E701020000004000403D
:1014F0000010004000300040054804490160054AE2
:101500000121D160002101607047000051E5CC1A33
:10151000004C0140004001400FB410B503A9044B3A
:10152000044A029800F04AF910BC08BC04B01847FD
:10153000DB200000640000202021020C01D01021DB
:101540001046020A01D010460839020901D010469F
:10155000091F820801D01046891E420801D0881E4A
:101560007047081A704730B47446641E2578641CAE
:10157000AB4200D21D46635D5B00E31830BC1847E8
:1015800002E008C8121F08C1002AFAD1704770474C
:10159000002001E001C1121F002AFBD1704770B585
:1015A00004690D46A0680168A94219D88188A9423A
:1015B00016D36169A94201D1A06904E0018AAAB2E7
:1015C000806800F0AEFC411C0AD06168C200656111
:1015D0008918A061096820680903090B401870BDCB
:1015E000002070BD70B504690D46A06816460168FC
:1015F000B14226D88188B14223D36169B14201D179
:10160000A06904E0018AB2B2806800F08AFC411C43
:1016100017D06168C20066618918A0610868000D72
:1016200028804879A8800879688006200856E880D4
:10163000072008562881608A8004000FA8720120C4
:1016400070BD002070BD0000F0B51FB486B00998D1
:10165000089A030D0021024314D05148514A18182A
:10166000504305141198012810981AD0281A401CCC
:1016700000264D4F4D49009601910490002812DA42
:10168000444211E01198012449A3012801D1109886
:10169000C1430698119A84600360C26041600BB038
:1016A000F0BD4042E4E70446210500203F4A001C0B
:1016B00051410391029012E0E00707D032463B46C9
:1016C00001990098FEF77CFE0191009032463B465E
:1016D00010461946FEF774FE06460F466410002CAD
:1016E000EAD10498039B0028029A0999089806DA1F
:1016F000FEF766FE019B009AFEF762FE05E0FEF72C
:10170000C7FE019B009AFEF7C3FE04460E46002268
:10171000284BFFF7BFF803D80020C043014607E07D
:101720000022254B20463146FEF798FDFFF792F840
:10173000102409E0002C0ADB0A220023FEF786FFB2
:10174000079B30321A55641E02460A43F2D1112219
:10175000641C079B121B1C19119B012B03D0012336
:1017600008430ED10AE0084304D011201090002055
:10177000119077E71098151A6D1E0BE010988242B1
:1017800002DD00236D1C03E0824201DA00236D1E9E
:10179000002BEED0069811998260C16030C07EE7C0
:1017A00001FCFFFF104D0000000014400000F03F5E
:1017B000300000000000F0430000E03FFFB597B0AC
:1017C0000646002518E2252877D100242746FD4942
:1017D000049400E00443761C32780120203A9040C3
:1017E0000842F7D130782A280ED0022230780146FC
:1017F0003039092916D804990A2359433039401839
:101800001443761C0490F1E7189802C804911890CC
:10181000002904DA012040030443484204900220D6
:101820000443761C30782E2814D1042004437078A9
:10183000761C2A2809D11898761C80C8189009E0CF
:101840000A214F43303FC719761C307801463039A2
:101850000929F5D930786C2810D006DC4C281AD02C
:1018600068280ED06A2817D104E0742813D07A288B
:1018700012D110E00120400504430CE001210905CC
:1018800001E0032109050C437178814203D1012055
:1018900000052418761C761C3078119066280BD031
:1018A00013DC58287DD009DC00287BD04528F6D0F1
:1018B0004628F4D047281AD1A5E118E0632835D08E
:1018C000642870D0652812D19DE170286CD008DCA6
:1018D0006728F1D069287BD06E280DD06F2806D1FB
:1018E000BAE073282ED0752871D0782859D01A9A6A
:1018F000199990476D1C7EE16002400F022809D0C3
:1019000003280DD00428189801680DD00D60001D23
:10191000189070E11898EA1701680D604A60F6E7C0
:10192000189801680D80F2E70D70F0E718986A4684
:1019300001781172001D18900020507202A80090CA
:10194000012005E0189802C8189000200091C043BB
:1019500061070DD5002101E00199491C0191B942AF
:1019600012DA8142F8DB009A515C0029F4D10BE0D5
:10197000002101E00199491C01918142FADB019AA1
:101980000099895C0029F5D1019904981A9B471A9E
:1019900021463846199A00F097FA019940194518DE
:1019A0000BE04FE02CE113E04EE000980099007846
:1019B000491C00911A9A199990470198401E01906C
:1019C000401CF2D1214638461A9B199A10E137E0A3
:1019D0000A200021009001916002410F022907D0E6
:1019E000189A01CA1892C2179446032908D00AE02F
:1019F0001898C01DC108C90005C91891944607E090
:101A000000B2C2179446042902D140B2C1178C46D5
:101A100000226146944506DA0A460021404291417F
:101A20008C462D2102E0210504D52B216A46117335
:101A3000012103E0E10701D02021F7E7029155E001
:101A40000A200AE0102008E0102000900021042065
:101A500004430191082703E0082000210191009030
:101A60006002410F022907D0189A01CA1892002279
:101A70009446032908D008E01898C01DC108C90081
:101A800005C91891944603E080B2042900D1C0B280
:101A900000210291210729D51199702906D0009AB9
:101AA0001021019B4A401A4305D00EE040216A46AE
:101AB0001173012108E06146014306D030216A46D6
:101AC00011731199517302210291009A0821019B0F
:101AD0004A401A430AD16146014301D1610705D545
:101AE00030216A46117301217F1E029111995829F4
:101AF00004D035A10E910DA90D910DE037A1F9E7A4
:101B00006146019B009AFEF7A1FD0E9B8C469B5CF3
:101B10000D9A521E0D92137061460143F0D10D983B
:101B200005A9081A20300190600703D501200004A0
:101B3000844300E001270198874201DD381A00E064
:101B40000020019900904118029809180498401A41
:101B50000490E00306D421461A9B199A049800F0D9
:101B6000B3F94519002706E003A81A9AC05D199930
:101B700090476D1C7F1C02988742F5DBE0030CD573
:101B800021461A9B199A049800F09EF9451904E021
:101B90001A9A3020199990476D1C0099481E0090A0
:101BA0000029F5DC08E00D980D990078491C0D918D
:101BB0001A9A199990476D1C0199481E01900029A5
:101BC000F1DC63E109280100303132333435363736
:101BD0003839616263646566000000003031323379
:101BE0003435363738394142434445460000000019
:101BF00000F05AF94519761C3078002800D0E2E54B
:101C000028461BB0F0BD600700D406271898C01DF9
:101C1000C108C90048680A680831C30FDB0718917A
:101C2000190001D09CA108E0210501D59BA104E089
:101C3000E10701D09AA100E09AA1430011985B0846
:101C4000109165280CD006DC452809D046281DD007
:101C5000472841D141E0662818D067283CD13CE0B4
:101C60000021112F01DB112000E0781C0191009070
:101C700008A911A8FFF7E8FC139905910021119A12
:101C800015927F1C12980197009150E00120C00727
:101C900003900120019008A9009711A8FFF7D4FC38
:101CA000139A149905920022119B00921298159391
:101CB000059A0192002901D0104602E0791C4018D3
:101CC0000190381A01D5019804E04042401E00906E
:101CD000781C0190C01B029043E0012F00DA01271D
:101CE0000021112F01DD112000E038460191009004
:101CF00008A911A8FFF7A8FC13990591119A0021D2
:101D0000129815920091019721070CD40599B942B8
:101D100001DB019900E00191012904DD159A491EBA
:101D2000515C302906D0B84201DA011D05DA0121E3
:101D3000029115E00199491EEDE7002805DC0099A4
:101D4000411800910199091A03E0019A411C91423E
:101D500000DD01910099401A401C02900120C0074B
:101D60000390200706D402990198814202DB0020EB
:101D7000C043029000206946C87707AF012103984D
:101D80000337C907884224D0022011902B201290DB
:101D9000039800280CDA404203902D20129007E0AF
:101DA0000A210398FEF7A4F930317F1E03903970A1
:101DB0001199481E11900029F2DC03980028EFD1F8
:101DC000791E129808703078202108404530BF1ED7
:101DD000387006A8C01BC01D03901098007800281A
:101DE00000D00120019941180298C01709180398E2
:101DF00009180498401A401E0490E00306D42146B6
:101E00001A9B199A049800F05FF845191098007809
:101E1000002803D01A9A199990476D1CE00324D525
:101E200021461A9B199A049800F04EF845191CE0B7
:101E30000098002807DB00990598884203DD159873
:101E4000405C199901E0199930201A9A904700983E
:101E50006D1C401C00900298401E0290002804D186
:101E60001A9A2E20199990476D1C0199481E0190CD
:101E70000029DDDC05E038781A9A7F1C1999904713
:101E80006D1C0399481E03900029F4DC21461A9B1F
:101E9000199A0498ACE600002D0000002B00000009
:101EA0002000000000000000F8B5044600251E4692
:101EB0001746880404D405E039462020B0476D1C3D
:101EC000641EF9D52846F8BDFFB50446002581B04B
:101ED0001E46C80301D5302700E02027880404D51A
:101EE00005E038460399B0476D1C641EF9D52846B5
:101EF00005B0F0BD08B50021009102E0009A521C27
:101F00000092401EFAD2009108BD10B51E2000F0CC
:101F100049FA00211E2000F04DFA1E2000F046FA7A
:101F200010BD30B500230446491E0AE05818401081
:101F30004500655B954201D9411E02E0954204D2FD
:101F4000431C8B42F2DD0020C04330BD70B5144904
:101F50001448FEF7CBFC13480021001DFEF7C6FC19
:101F6000134C114D11492046FEF7C0FC2946251D92
:101F70002846FEF7BBFC261F01213046FEF7B6FCC3
:101F800030BF0A4920461031FEF7B0FC0021284638
:101F9000FEF7ACFC01213046FEF7A8FC30BF70BD57
:101FA00085788E6020000240010200004020004041
:101FB000200001400021017041807D228180D200FB
:101FC000C2803F2212068260044AC2608161044AD4
:101FD000C16102610162034941627047CDCCCC3DD1
:101FE0000AD7233C00007A44F8B5044625486080AF
:101FF000FF209130A080277820467D2500260221F1
:10200000214A0830ED003B00FFF7ADFA0504070C4C
:1020100024383A0021706261F8BD1C48E0802170CC
:10202000626115E01A4900F0F4FAFEF7BDFA281AC9
:10203000A84201DD284602E0002800DA0020E08006
:10204000608814498842E7D30320207012486061F9
:10205000A661F8BD114900F0DCFAFEF7A5FA281ACE
:10206000A84201DD284602E0002800DA0020E080D6
:10207000A0883228EDD204202070F8BDE580F8BD9C
:102080002670F8BDAC0D00000000FA43B603000056
:102090000000C843681000000040834500C05A4556
:1020A00002200021401EFDD20220491C6E2901D2CF
:1020B000801EF7E770470101002001E000BF401CCF
:1020C0008842FBD3704710B50446002302E0FFF7B7
:1020D000E7FF5B1CA342FAD310BD00B50246C0B2B5
:1020E000FEF718FD104600BD10B5074C2046FEF760
:1020F000F7FB102102460A400843102A03D101468B
:102100002046FEF7F3FB10BD3C20004010B5012136
:102110000148FEF7EBFB10BD0800024008B503487C
:102120000169202211430091016108BD00000140B6
:1021300010B501246B4AE4050300FFF714FA190EE9
:10214000202B2B2B2B33393F464D545B6269707724
:102150007E858C939AA9BBCB2B000123002907D045
:10216000012917D1506818435060106888438BE0EC
:1021700010681843106050684008400086E0022054
:10218000022908D0032905D1516801435160116823
:102190008143116010BD1168014311605168814392
:1021A000516010BD40200429F5D00529ECD010BDA8
:1021B00080200629EFD00729E6D010BDFF2001308E
:1021C0000829E8D00929DFD010BD012040020A29E2
:1021D000E1D00B29D8D010BD012080020C29DAD023
:1021E0000D29D1D010BD0120C0020E29D3D00F2956
:1021F000CAD010BD012000031029CCD01129C3D0B2
:1022000010BD012040031229C5D01329BCD010BD38
:10221000012080031429BED01529B5D010BD01209E
:10222000C0031629B7D01729AED010BD0120000475
:102230001829B0D01929A7D010BD012040041A29AF
:10224000A9D01B29A0D010BD012080041C29A2D038
:102250001D2999D010BD0120C0041E299BD01F2923
:1022600092D010BD01200005202994D021298BD0C7
:1022700010BD222928D02329FAD15068012149050F
:102280000843506010688843106010BD506010BD56
:1022900001239B05242907D02529F8D1506818432C
:1022A000506010689843EFE710681843106050685A
:1022B0009843EBE7262907D02729E8D15068204327
:1022C00050601068A043DFE710682043106050683A
:1022D000A043DBE701200006282987D0292987D0E1
:1022E00010BD00000003044002480021016041606D
:1022F000816070470003044008B5064801684A1C25
:102300000260C82901DD002101600348C068009017
:1023100008BD0000180000200020014030B50C4B23
:102320000C4C002802D0012802D003E01A6800E01B
:102330002268D2B201258D40E9B20A43002802D0BA
:10234000012802D002E01A6000E02260002030BDC7
:10235000008401400094014091400123921C93406D
:10236000002805D0012802D10248181801607047E2
:102370000148FAE7009001400080014038B5002490
:10238000074D009404E00098401C0090642804D895
:102390002846FEF7A5FAC003F5D4009438BD000026
:1023A0000800024000B5FEF7FFFE00BD00B5FEF7D5
:1023B00007FF00BD00B5FEF70FFF00BD10B5FEF72B
:1023C000B1FB0249886000F003F810BD0C0000204A
:1023D0000548044981610121C16101694908490039
:1023E00001617047A55A00000020024070B51446F4
:1023F0005C43CB1882185B1E521E9BB292B2049DA6
:10240000FEF77CFEA2B229460020FEF77DFC70BDDF
:1024100070B514465C43CB1882185B1E521E9BB2EB
:1024200092B2049DFEF76AFEA2B229460020FEF792
:1024300033FC70BD1CB5FEF74DFFFFF766FDFEF7E0
:10244000DBFCFFF751FF21211420FFF771FE25214E
:102450001620FFF76DFE27211720FFF769FE2221C6
:102460001520FFF765FE06210720FFF761FE00201B
:10247000FEF79AFBFEF7CEFC7F2300211A460846A2
:10248000FEF73CFEFEF786FA012464032246424929
:102490000020FEF71DFC4148FFF70DFE2246404993
:1024A0000020FEF715FC7D25AD012846FFF703FE51
:1024B00022463C490020FEF70BFC2846FFF7FBFDB7
:1024C00000206946888001A88023002100901A46D8
:1024D0000846FFF79DFF2846FFF7EDFD57236D22C5
:1024E00027211420FEF70AFE2F4A30490020FEF76C
:1024F000B7FB6D230A211A460846FEF7FFFD2C4C58
:102500002C4922460020FEF7FFFB2846FFF7D3FDAB
:1025100000F06CF9E1256D02032229460020FEF748
:10252000BDFF032229460120FEF7B8FF092108203C
:10253000FFF7FEFD0B210920FFF7FAFD0D210A2010
:10254000FFF7F6FD1C4800901F231C4A00211C4881
:1025500000F0A0F82046FEF7A5FE1A48FFF72AFD76
:10256000194D1A4E002000F0ADF82C68322120469B
:102570003460FDF7BDFD002901D1FEF7CDFE6421D9
:102580002046FDF7B5FD0C0001D1FEF7D1FA002C75
:10259000E8D1FEF7B9FEE5E7A836000010270000F5
:1025A000A8B60100A836020074220000C804030087
:1025B000204E0000A8B602004C0000205B43000043
:1025C000ED230000680000201000002024000020FF
:1025D0000348016904221143016130BF70470000C4
:1025E00000ED00E010B50D210A20FFF7A1FD044821
:1025F000016840229143016002480068C0B210BDEA
:10260000008401400081014072B60020704762B62C
:102610007047F8B50446C068FDF7DBFD054629465E
:102620002069FDF785FD2061E169FEF705F801D21B
:10263000E0692061A1692069FDF7F4FF01D2A0697A
:10264000206128466169FDF7C4FDA2680146104675
:10265000FDF7C7FD074621696068FDF7C2FD064624
:1026600029462068FDF7BDFD3146FDF761FD39467D
:10267000FDF75EFD65610646E169FDF7DDFF00D20D
:10268000E669A1693046FDF7CDFF00D2A669304664
:10269000F8BD0000F0B50A4D084C059F2C600025E0
:1026A00025806580F026A680E6802761A560E06031
:1026B000A182E2822383FF206083F0BD1401002009
:1026C0002C000020FEB500262E4C009601960296A6
:1026D0000746A1686068814253D0A0602A4D2670E9
:1026E00022781420424350190169002906D0AA58C3
:1026F000A368D21A002A01DC0661884720781421D9
:10270000484340198168002912D04168A268891A9B
:1027100000290DDC01216A469170C168684688472E
:1027200020781421484342199068A16840185060ED
:102730002078401CC0B220700428D1D31CE0267041
:102740002078142148434019C168002905D0684603
:102750000088C00701D0684688476846008841085D
:10276000684601802078401CC0B220700428E7D35E
:10277000002F01D06846B8476846FEF729F90028BF
:10278000DDD1FEBD2000002090000020154C204629
:10279000FEF7A6F8802101432046FEF7A7F8114D69
:1027A0008C3D2846FEF79CF8012108430446FFF7BC
:1027B000E5FD21462846FEF799F82C1F2046FEF736
:1027C0008FF8FFF7DBFD34212046FEF78FF8FFF787
:1027D000D5FD044804493038FEF788F8FFF7F8FEC5
:1027E000FEE70000900002401027000010B56D23A6
:1027F0000A211A460846FEF781FC02490248FEF704
:10280000B9FC10BD204E0000A8B60200A6A6A695F1
:1028100095950042A6A7E096D084C0001B0A200030
:10282000570C003BDBCDB300B1570000C074007BF8
:10283000DAEB900570C0000832900000A0001BEC9D
:1028400030B6A270E3A000ABB00008E80000AAC058
:1028500000A0E3A2A3E15DEB4000A00008BB2008BC
:1028600050004904903B00006602A0C200003B07F4
:102870007860000006A73B3BC6000000B2C10C0018
:10288000000770D00B20002C00C10C0000B3004CDE
:10289000B400006DD900000001E10B50000001E020
:1028A0000B40C300008CC700C30004C8CA00E0008E
:1028B0001E2008B790003E0000AE10000E6005DD3F
:1028C000510003BEEA23CD200F100E000C0000784B
:1028D00002D008600C200E001D000E000D200960C3
:1028E00002C0007777000C20069002D000E000D1F3
:1028F00000E001D006900C20770000A2005AB8B08A
:1029000003CA00092820000D0000000D0000000D82
:1029100000006DDEDD60000D0000000D00002D00E8
:10292000580093001DDD4005002D1000001E100012
:102930000069000000C3000003C00000096000003F
:102940000E10000069000000C3000003C000000872
:102950007000000D10000002BEC3000C706D003E40
:10296000000D405B000B606A000A705B000A603D6E
:10297000000D400D706C0003CEB20015B7A9A70082
:102980009700970097009700970097009705CEB3A0
:10299000000A206D0000000F1000004D000004D45C
:1029A00000007D300009A000001E0000004FFFFF66
:1029B0006003CEA1000810AA0000005B000002B571
:1029C0000003EF900000018C0000001F1028007C25
:1029D0000008EDA1000001E6000008E600003CA6AA
:1029E0000000C39600097096006B009600CEEEEED4
:1029F000B000009600000096008FFFA0960000A493
:102A00000000CEEA20001AC00001F10001F0101908
:102A1000A0DED910005CED0005C301000D30000000
:102A20002E7DD6004E703E303E000A701E000A60B9
:102A30000B803E1001BEC4005FFFFF5000002D0060
:102A4000000096000002D00000097000001E100077
:102A5000005B000000A6000000D3000003BEC3001E
:102A60000D605D000E100E000670780005EEE600A9
:102A70002E403E305B000A602E303D3004CEC50053
:102A800003BEC2000D506C004C000D305C000C50B9
:102A90001E505E5004CE9C4000001E000101A700A5
:102AA0000CED70002D1005000000000005002D1039
:102AB0002D1005000000000001002D0068009300AB
:102AC00000005B20049D93004FA10000049EA40021
:102AD00000005B206DDDDD600000000000000000F4
:102AE0006DDDDD604A500000049D93000001BF30A1
:102AF00004AD93004A50000008ED503604E1000098
:102B0000E10007A0008A0000E00000000000510082
:102B100000D400003ABBB9100006B20003C3003B6A
:102B200003BBA52C00A40D20B40B30D04900A30991
:102B300040D05800C20B20A32C16C44B004B06B645
:102B40003A800007B4000200000028BBB800000073
:102B500009E10000000EB60000005B6C000000B64A
:102B60001E200002E20B800007C006D0000DFFFF10
:102B7000F5004E2000AA00A900003E10CFFD70C550
:102B800003E4C500C6C504D1CFFE70C502B9C500B7
:102B90005CC502B9CFFD90002ADEA004E821750DC6
:102BA0006000004E0000005C0000004E0000001EAF
:102BB00050000007E62175005CED80CFFEA400C543
:102BC000026D70C50003E2C50000C6C50000A8C5BF
:102BD0000000C6C50004E1C5026E60CFFEA300CFB1
:102BE000FFC0C50000C50000C50000CFFF80C500C4
:102BF00000C50000C50000CFFFF0CFFFC0C500003A
:102C0000C50000C50000CFFF80C50000C50000C59D
:102C10000000C50000002ADEB30003E8214A000DD1
:102C2000600000004E000000005C001FFF004E002E
:102C3000002F001E50002F0006E6215F00004BEE23
:102C4000B600C50000F1C50000F1C50000F1C500E7
:102C500000F1CFFFFFF1C50001F1C50000F1C50093
:102C600000F1C50000F1C5C5C5C5C5C5C5C5C500D0
:102C70007900790079007900790079009802D3BD54
:102C800070C5007C10C505D100C53D2000C6D4002C
:102C900000CDB00000C5C80000C51D6000C503E43C
:102CA00000C5005E30C50000C50000C50000C500BD
:102CB00000C50000C50000C50000C50000CFFFE052
:102CC000CE000003F8CD600009D8C9D0001EA8C40A
:102CD000D5008898C47B01E298C41E37A098C40828
:102CE000AD4098C402EC0098C400A50098CD100037
:102CF00088CAA00088C5C50088C43D1088C408B033
:102D000088C400D688C4005EA8C4000AF8C40002C3
:102D1000E8004BEEB30006E6227E400E500008C0ED
:102D20004E000002F15C000001F24E000002F11EB4
:102D3000500008C006E6127E30005CEEA300CFED26
:102D400080C503D7C5007BC5007BC503D5CFED602B
:102D5000C50000C50000C50000004BEEB30006E64C
:102D6000227E400E500008C04E000002F15C0000C0
:102D700001F24E000002F11E500008C006E6127E6D
:102D800030005CEDDB1000000009D4CFFD9000C5E1
:102D900002C800C5007A00C502D600CFFE5000C5AB
:102DA0001A9000C501E400C5006C00C5000C70025B
:102DB000AED6000D712A003F0000001E7000000416
:102DC000DC40000017D90000001E3039204E2008DA
:102DD000DEC500BFFFFF90002F1000002F00000095
:102DE0002F0000002F0000002F0000002F00000027
:102DF0002F0000002F0000E30004D0E30004D0E324
:102E00000004D0E30004D0E30004D0D30004D0B623
:102E10000006B06D414D5007CEC600A800006C0002
:102E20005D0000B6000E3001E100098007A000033C
:102E3000D00C500000D42E00000089790000002D35
:102E4000C30000000CC00000A80007D0004D006CBB
:102E5000000BE20089001E100DA600C5000C404AC0
:102E60005A00E1000780861D04B00003C0C10C2792
:102E7000700000D2C0086B300000998004AD0000E3
:102E8000005E4000D900004E2002E30AA00A800143
:102E9000E34D00006CD400000EC000007AD50002A3
:102EA000E25D100C700B907C0002E3A90004D03EA0
:102EB000100B600B702D0004D0970000C6D10000ED
:102EC0005E8000000E3000000E2000000E20005F2B
:102ED000FFFFE100001D5000008A000004D1000047
:102EE0001D40000099000005D000001D4000009F1B
:102EF000FFFFF0AD80A400A400A400A400A400A4DF
:102F000000A400A400A400AD800D10000008700013
:102F10000002D0000000B4000000590000000D10B5
:102F200000000960000003C0000000C3000000684A
:102F30000000001D008CB004B004B004B004B00464
:102F4000B004B004B004B004B08CB0002C00000099
:102F5000AB600003B0D1000B3069004A000C30BBFD
:102F6000BBB42C1003A004CDB20710990279CB3D5D
:102F7000637B6C01BB1BEB7BE2000000E200000006
:102F8000E2000000E2000000E5CEB200EA109B0083
:102F9000E3002E00E2003E00E901A900E7DD910018
:102FA00000000002ADE70D70004D00005C00001E47
:102FB000602503BEB20000079000000790000007E4
:102FC000900000079003BEDC900D602C904C000731
:102FD000905C0008901E502D9005CEA89002BDC5B3
:102FE000000C302E104EDDDD405D0000001E60182C
:102FF0000004CEC300009D4004C00007900008807C
:10300000009EEE1008800008800008800008800004
:1030100008800003BEB9900D602D904C0007905CB5
:103020000008901E502D9004CEA89000000A700A4F
:10303000105E2004DEB400E20000E20000E20000C6
:10304000E20000E5CEA0E901D5E300A7E20097E2A7
:103050000097E200970C200E30040000000E200EB6
:10306000200E200E200E200E20000C20000E30001E
:103070000400000000000E20000E20000E20000EB4
:1030800020000E20000E20000E10005C002DC3005A
:10309000E20000E20000E20000E20000E209B0E22B
:1030A0009B00EAB000E8D100E27D10E207D2E2E244
:1030B000E2E2E2E2E2E2E2E2E6CE74CE80E903EAB4
:1030C00002E3E300D400C5E200D400C5E200D4006E
:1030D000C5E200D400C5E5CE90E901D5E300A7E242
:1030E0000097E20097E2009702ADD9101D601A9098
:1030F0004C0003E04C0003E01D601A8003BED800C2
:10310000E5CEB200EA109B00E3002E00E3003E0093
:10311000E901A900E7DD9100E2000000E200000003
:10312000E200000003BEDC900D602C904C00079084
:103130005C0008901E502D9004CEB89000000790BF
:103140000000079000000790E6D7EA11E300E200D4
:10315000E200E20000000008DEA03E10001DA40016
:10316000006CA00003E05EDC500000000670000967
:103170008000AEEE200980000980000980000890E0
:103180000003DD101F000B501F000B501F000B50E1
:103190001F000C500E604E5005DE8B50A7002E1005
:1031A0004D0089000D30D2000795B00001EA4000C3
:1031B00000AD0000A700D700D25B02BC03C01E1701
:1031C0005C17700A5C086B2005BA03BC0001E600BE
:1031D000E8006D00980A74C001DC2001CD200A6669
:1031E000C07B00B8A8001E104D007A000D40C3003F
:1031F00006A3C00001EA6000009E000000880000F5
:1032000003E200009D5000006EEEF60007A0004CA7
:103210000002D2000C40009EEEE800A705A0068048
:10322000068009605D1008700680068005A000A772
:10323000D1D1D1D1D1D1D1D1D1D1D1D1D17B000A6C
:10324000500860086005A001D50780086008600A82
:10325000507A002CD817708507CA10DFFFFFFFE4F3
:10326000FFFFFFFFF6688888888200860000FC0068
:1032700000FC0000FC0000FC0000FC0000FC000062
:10328000FC0000FC007FFFF408FF6000970000973F
:103290000009FF607FFFE400FC0000FC0000FC0070
:1032A00000FC0000FC0000FC0000FC0000FC000032
:1032B000870000000000400004000004000030000F
:1032C00002090104090040000403010A0F00800004
:1032D000080800052F007000060B01035000B00025
:1032E0000C0900048600B0000C090004BC0030008A
:1032F0000403000AC2004000040B0002D800400092
:10330000040B0002EE00500006040009FA008000E1
:1033100008060105120130000403000218015000E4
:10332000060100071B013000040200041F016000B9
:10333000080BFF024B017000080900046F015000E8
:10334000040901048101700008090004A50170004E
:1033500008090004C901700008090004ED017000AB
:103360000609010408027000080900042C0270001C
:10337000080900045002700008090004740270007B
:10338000080900049802300004060004A40230007A
:1033900004080002B402800008050105C80280008C
:1033A00008040106D802800008050105EC0260004F
:1033B000060900040703C0000C0A01034303900040
:1033C0000A09000470037000060901048B038000E1
:1033D00008090004AF03900008090104D30370003A
:1033E00006090104EE0360000609010409049000C7
:1033F0000A09000436049000080901045A04300048
:1034000002090104630440000409000475048000FB
:10341000080901049904600006090104B404B0001D
:103420000A090104E1049000080901040505A0004F
:103430000A09000432057000060901044D05A000C8
:103440000A0A00037F05800008090104A305700033
:1034500008090004C705700008090004EB05800096
:10346000080901040F0690000A0900043C06D00078
:103470000E0900047B068000080900049F068000F6
:1034800008090004C306800008090004E70640009C
:10349000040B0102FD066000080BFF022907300043
:1034A000040B00023F078000080501085307600075
:1034B00006010001560740000402000C5A07600094
:1034C000060600046C078000080A010494076000E7
:1034D00006070004A9077000080A0004D10770005D
:1034E00008060004E9075000060A000407087000F7
:1034F000080900012B087000060A01044908300081
:10350000040A00045D083000060DFE018408700006
:10351000060A0104A2083000020A0104AC08B00047
:103520000A060104CA08700006060104DC088000CF
:1035300008060004F4088000080901011809700059
:10354000080900013C095000040601044809600014
:10355000060800036009500006080004780970009E
:10356000080600049009700008060004A809A000DD
:103570000A060004C609600006060004D8097000A7
:1035800008090001FC096000060600040E0A40005C
:10359000040B0002240A3000020D0101310A400030
:1035A000040B0002470A8000080201074F0A40008E
:1035B000040000044F0AA0000A0300065E0A60002F
:1035C000060C0002820A6000060C000220002100A6
:1035D00022002300240025002600270028002900BF
:1035E0002A002B002C002D002E002F00300031006F
:1035F000320033003400350036003700380039001F
:103600003A003B003C003D003E003F0040004100CE
:10361000420043004400450046004700480049007E
:103620004A004B004C004D004E004F00500051002E
:1036300052005300540055005600570058005900DE
:103640005A005B005C005D005E005F00600061008E
:10365000620063006400650066006700680069003E
:103660006A006B006C006D006E006F0070007100EE
:10367000720073007400750076007700780079009E
:103680007A007B007C007D007E007F0068F075F191
:1036900076F100002000000076F10000CC3500003B
:1036A000000000006300020002E002E002E002E02D
:1036B00002E002E002E002E002E002E002E002E0FA
:1036C00002E002E002E002E002E002E002E002E0EA
:1036D00002E002E002E002E002E002E002E002E0DA
:1036E00002E002E002E002E002E002E002E002E0CA
:1039300002E002E802E002E002E001E002E802E068
:1039400002E002E002E002E002E002E002E002E067
:1039500002E002E002E002E002E002E002E002E057
:1039600002E002E002E002E002E002E002E002E047
:1039700002E002E002E002E002E002E002E002E037
:1039800002E002E002E002E002E002E002E002E027
:1039900002E002E002E002E002E002E002E002E017
:1039A00002E002E002E002E002E002E002E002E007
:1039B00002E002E002E002E002E002E002E002E0F7
:1039C00002E002E002E002E002E002E002E002E0E7
:1039D00002E002E002E002E002E002E002E002E0D7
:1039E00002E002E002E002E002E002E002E002E0C7
:1039F00002E002E002E002E002E002E002E002E0B7
:103A000002E002E002E002E002E002E002E002E0A6
:103A100002E002E002E002E002E002E002E002E096
:103A200002E002E022E802E002E002E002E002E856
:103A300002E001E021E802E022E042E002E002E0F0
:103A400002E002E002E002E002E002E002E002E066
:103A500002E002E002E002E002E002E002E002E056
:103A600002E002E002E002E002E002E002E002E046
:103A700002E002E002E002E002E002E002E002E036
:103A800002E002E002E002E002E002E002E002E026
:103A900002E002E002E002E002E002E002E002E016
:103AA00002E002E002E002E002E002E002E002E006
:103AB00002E002E002E002E002E002E002E002E0F6
:103AC00002E002E002E002E002E002E002E002E0E6
:103AD00002E002E002E002E002E002E002E002E0D6
:103AE00002E002E002E002E002E002E002E002E0C6
:103AF00002E002E002E002E002E002E002E002E0B6
:103B000002E002E002E002E002E002E002E002E0A5
:103B100002E002E002E002E002E002E002E002E095
:103B200022E002E001E001E002E021E002E002E840
:103B300002E001E061D822E081E0A3E902E021E0B7
:103B400002E002E002E002E002E002E002E002E065
:103B500002E002E002E002E002E002E002E002E055
:103B600002E002E002E002E002E002E002E002E045
:103B700002E002E002E002E002E002E002E002E035
:103B800002E002E002E002E002E002E002E002E025
:103B900002E002E002E002E002E002E002E002E015
:103BA00002E002E002E002E002E002E002E002E005
:103BB00002E002E002E002E002E002E002E002E0F5
:103BC00002E002E002E002E002E002E002E002E0E5
:103BD00002E002E002E002E002E002E002E002E0D5
:103BE00002E002E002E002E002E002E002E002E0C5
:103BF00002E002E002E002E002E002E002E002E0B5
:103C000002E002E002E002E002E002E002E002E0A4
:103C100002E002E002E002E002E002E002E002E094
:103C200002E002E022E001E022E021E002E021E007
:103C300021E002E041DA61D801E125FC02E021E067
:103C400002E002E002E002E002E002E002E002E064
:103C500002E002E002E002E002E002E002E002E054
:103C600002E002E002E002E002E002E002E002E044
:103C700002E002E002E002E002E002E002E002E034
:103C800002E002E002E002E002E002E002E002E024
:103C900002E002E002E002E002E002E002E002E014
:103CA00002E002E002E002E002E002E002E002E004
:103CB00002E002E002E002E002E002E002E002E0F4
:103CC00002E002E002E002E002E002E002E002E0E4
:103CD00002E002E002E002E002E002E002E002E0D4
:103CE00002E002E002E002E002E002E002E002E0C4
:103CF00002E002E002E002E002E002E002E002E0B4
:103D000002E002E002E002E002E002E002E002E0A3
:103D100002E002E002E002E002E002E002E002E093
:103D200001E002E082D822E001D9A4E941D860D8BC
:103D300060D041D863FD01DAE0D824FD02E801E05B
:103D400002E002E002E002E002E002E002E002E063
:103D500002E002E002E002E002E002E002E002E053
:103D600002E002E002E002E002E002E002E002E043
:103D700002E002E002E002E002E002E002E002E033
:103D800002E002E002E002E002E002E002E002E023
:103D900002E002E002E002E002E002E002E002E013
:103DA00002E002E002E002E002E002E002E002E003
:103DB00002E002E002E002E002E002E002E002E0F3
:103DC00002E002E002E002E002E002E002E002E0E3
:103DD00002E002E002E002E002E002E002E002E0D3
:103DE00002E002E002E002E002E002E002E002E0C3
:103DF00002E002E002E002E002E002E002E002E0B3
:103E000002E002E002E002E002E002E002E002E0A2
:103E100002E002E002E002E002E002E002E002E092
:103E200002E002E0A1D823E8E5F464F3C1D982EB13
:103E3000C0D1E0D0C2FE03F5C0D842FD02E802E0E6
:103E400002E002E002E002E802E002E002E002E05A
:103E500002E002E002E002E002E002E002E002E052
:103E600002E002E002E002E002E002E002E002E042
:103E700002E002E002E002E002E002E002E002E032
:103E800002E002E002E002E002E002E002E002E022
:103E900002E002E002E002E002E002E002E002E012
:103EA00002E002E002E002E002E002E002E002E002
:103EB00002E002E002E002E002E002E002E002E0F2
:103EC00002E002E002E002E002E002E002E002E0E2
:103ED00002E002E002E002E002E002E002E002E0D2
:103EE00002E002E002E002E002E002E002E002E0C2
:103EF00002E002E002E002E002E002E002E002E0B2
:103F000002E002E002E002E002E002E002E002E0A1
:103F100002E002E002E002E002E002E002E002E091
:103F200002E002E041E002E084FDC1D9E3FD83FE4E
:103F300042F5A2ECC1FEC2FEC0D802F502E021E0CB
:103F400002E002E002E001E002E002E002E002E062
:103F500002E002E002E002E002E002E002E002E051
:103F600002E002E002E002E002E002E002E002E041
:103F700002E002E002E002E002E002E002E002E031
:103F800002E002E002E002E002E002E002E002E021
:103F900002E002E002E002E002E002E002E002E011
:103FA00002E002E002E002E002E002E002E002E001
:103FB00002E002E002E002E002E002E002E002E0F1
:103FC00002E002E002E002E002E002E002E002E0E1
:103FD00002E002E002E002E002E002E002E001E0D2
:103FE00002E002E002E001E002E002E002E002E0C2
:103FF00002E002E002E002E002E002E002E002E0B1
:1040000002E002E002E002E002E002E002E002E0A0
:1040100002E002E002E002E002E002E002E002E090
:1040200001E002E001E021E042E381D801FF83FEEC
:10403000C1FEE1FEE1FE00FF20D122F522D841D0F1
:1040400002E002E002E002E002E002E002E002E060
:1040500002E002E002E002E002E002E002E002E050
:1040600002E002E002E002E002E002E002E002E040
:1040700002E002E002E002E002E002E002E002E030
:1040800002E002E002E002E002E002E002E002E020
:1040900002E002E002E002E002E002E002E002E010
:1040A00002E002E002E002E002E002E002E002E000
:1040B00002E002E002E002E002E002E002E002E0F0
:1040C00002E002E002E002E002E002E002E002E0E0
:1040D00002E002E002E002E001E002E001E001E0D3
:1040E00002E002E002E001E002E002E002E002E0C1
:1040F00002E002E002E002E002E002E002E002E0B0
:1041000002E002E002E002E002E002E002E002E09F
:1041100002E002E002E002E002E002E002E002E08F
:1041200002E802E022E001E020D101E0C1FEE2F479
:1041300000FF00F700FF00FFA3EC82FE00D1A1DA30
:1041400021E061D802E002E002E002E002E002E0E9
:1041500002E002E002E002E002E002E002E002E04F
:1041600002E002E002E002E002E002E002E002E03F
:1041700002E002E002E002E002E002E002E002E02F
:1041800002E002E002E002E002E002E002E002E01F
:1041900002E002E002E002E002E002E002E002E00F
:1041A00002E002E002E002E002E002E002E002E0FF
:1041B00002E002E002E002E002E002E002E002E0EF
:1041C00002E002E002E002E002E002E002E002E0DF
:1041D00002E002E002E002E021D802E082D8C2E080
:1041E00002E802E002E022E002E002E002E002E097
:1041F00002E002E002E002E002E002E002E002E0AF
:1042000002E002E002E002E002E002E002E002E09E
:1042100002E002E002E002E002E002E002E002E08E
:1042200002E002E001E002E0A1D021E0C1FE01E4F1
:10423000E0FE00FF00FF01FFC2FE01FF03FD43FEA1
:1042400022D903EB02E042E002E002E002E002E0F9
:1042500002E002E002E002E002E002E002E002E04E
:1042600002E002E002E002E002E002E002E002E03E
:1042700002E002E002E002E002E002E002E002E02E
:1042800002E002E002E002E002E002E002E002E01E
:1042900002E002E002E002E002E002E002E002E00E
:1042A00002E002E002E002E002E002E002E002E0FE
:1042B00002E002E002E002E002E002E002E002E0EE
:1042C00002E002E002E002E002E002E002E002E0DE
:1042D00002E002E002E002E081D802E0A2D9C4EAF2
:1042E00002E842E002E002E002E002E002E002E076
:1042F00002E002E002E002E002E002E002E002E0AE
:1043000002E002E002E002E002E002E002E002E09D
:1043100002E002E002E002E002E002E002E002E08D
:1043200001E002E021E021E021DA61D8E1FEA2F51E
:1043300000FF00FFE0FE00FFC2FEC1FE44FD43FEA1
:10434000C3E1C5EB02E062E002E002E002E002E06D
:1043500002E002E002E002E002E002E002E002E04D
:1043600002E002E002E002E002E002E002E002E03D
:1043700002E002E002E002E002E002E002E002E02D
:1043800002E002E002E002E002E002E002E002E01D
:1043900002E002E002E002E002E002E002E002E00D
:1043A00002E002E002E002E002E002E002E002E0FD
:1043B00002E002E002E002E002E002E002E002E0ED
:1043C00002E002E002E002E002E002E002E002E0DD
:1043D00002E002E002E002E040D901E062EBE4F436
:1043E00022E081D802E002E002E002E002E002E026
:1043F00002E002E002E002E002E002E002E002E0AD
:1044000002E002E002E002E002E002E002E002E09C
:1044100002E002E002E002E002E002E002E002E08C
:1044200001E002E041D822E0E3F481D9E2FEC2FEDD
:10443000E0FEE1FEE2FEE0FE61E362F540D920DA53
:1044400021D8A1D802E022E002E002E002E002E08E
:1044500002E002E002E002E002E002E002E002E04C
:1044600002E002E002E002E002E002E002E002E03C
:1044700002E002E002E002E002E002E002E002E02C
:1044800002E002E002E002E002E002E002E002E01C
:1044900002E002E002E002E002E002E002E002E00C
:1044A00002E002E002E002E002E002E002E002E0FC
:1044B00002E002E002E002E002E002E002E002E0EC
:1044C00002E002E002E002E002E002E002E002E0DC
:1044D00002E002E001E002E861DA41D802FD44FEB8
:1044E00002E001D902E002E002E002E002E002E0C4
:1044F00002E002E002E002E002E002E002E002E0AC
:1045000002E002E002E002E002E002E002E002E09B
:1045100002E002E002E002E002E002E002E002E08B
:1045200021E002E001D922E044FE24F4A2F522FEBB
:1045300081FE61F5C2FEE1FEA0D841DB21E041E051
:1045400002E022E002E002E002E002E002E002E03B
:1045500002E002E002E002E002E002E002E002E04B
:1045600002E002E002E002E002E002E002E002E03B
:1045700002E002E002E002E002E002E002E002E02B
:1045800002E002E002E002E002E002E002E002E01B
:1045900002E002E002E002E002E002E002E002E00B
:1045A00002E002E002E002E002E002E002E002E0FB
:1045B00002E002E002E002E002E002E002E002E0EB
:1045C00002E002E002E002E002E002E002E002E0DB
:1045D00002E001E002E002E0E2EB80D022FEE3FE36
:1045E00021D821DA02E002E802E002E002E002E083
:1045F00002E002E002E002E002E002E002E002E0AB
:1046000002E002E002E002E002E002E002E002E09A
:1046100002E002E002E002E002E002E002E002E08A
:1046200021E002E0E3E941D862E3A4F360D941DA92
:1046300062E460D183FEC3FE41E081E202E002E079
:1046400002E002E002E002E002E002E002E002E05A
:1046500002E002E002E002E002E002E002E002E04A
:1046600002E002E002E002E002E002E002E002E03A
:1046700002E002E002E002E002E002E002E002E02A
:1046800002E002E002E002E002E002E002E002E01A
:1046900002E002E002E002E002E002E002E002E00A
:1046A00002E002E002E002E002E002E002E002E0FA
:1046B00002E002E002E002E002E002E002E002E0EA
:1046C00002E002E002E002E002E002E002E002E0DA
:1046D00002E002E022E002E062FD40D9A1FEE1FE3C
:1046E00061D8C2EB02E002E002E002E002E002E098
:1046F00002E001E002E002E002E002E002E002E0AB
:1047000002E002E002E002E002E002E002E002E099
:1047100002E002E002E002E002E002E002E002E089
:1047200002E002E082D822E061D8A1D821E041D89D
:10473000E0D141D864FE84FD21E021DA02E002E00C
:1047400002E002E002E002E002E002E002E002E059
:1047500002E002E002E002E002E002E002E002E049
:1047600002E002E002E002E002E002E002E002E039
:1047700002E002E002E002E002E002E002E002E029
:1047800002E002E002E002E002E002E002E002E019
:1047900002E002E002E002E002E002E002E002E009
:1047A00002E002E002E002E002E002E002E002E0F9
:1047B00002E002E002E002E002E002E002E002E0E9
:1047C00002E002E002E002E002E002E002E002E0D9
:1047D00002E002E021D802E062FE80E2C1FE01FFB9
:1047E00001D943F502E002E002E002E002E002E06B
:1047F00002E002E002E002E002E002E002E002E0A9
:1048000002E002E002E002E002E002E002E002E098
:1048100002E002E002E002E002E002E002E002E088
:1048200002E002E021E001E022E022E022E002E0FA
:1048300080D002E084FD02E321E0C1D902E002E081
:1048400002E002E002E002E002E002E002E002E058
:1048500002E002E002E002E002E002E002E002E048
:1048600002E002E002E002E002E002E002E002E038
:1048700002E002E002E002E002E002E002E002E028
:1048800002E002E002E002E002E002E002E002E018
:1048900002E002E002E002E002E002E002E002E008
:1048A00002E002E002E002E002E002E002E002E0F8
:1048B00002E002E002E002E002E002E002E002E0E8
:1048C00002E002E002E002E002E002E002E002E0D8
:1048D00002E802E080D822E0C1FE22F401FF00FFDE
:1048E00041E223FE02E021D802E002E002E002E021
:1048F00002E002E002E002E002E002E002E002E0A8
:1049000002E002E002E002E002E002E002E002E097
:1049100002E002E002E002E002E002E002E002E087
:1049200002E802E002E001E002E002E002E822E048
:1049300021D802E065F3E1D822E042E102E002E0A2
:1049400002E002E002E002E002E002E002E002E057
:1049500002E002E002E002E002E002E002E002E047
:1049600002E002E002E002E002E002E002E002E037
:1049700002E002E002E002E002E002E002E002E027
:1049800002E002E002E002E002E002E002E002E017
:1049900002E002E002E002E002E002E002E002E007
:1049A00002E002E002E002E002E002E002E002E0F7
:1049B00002E002E002E002E002E002E002E002E0E7
:1049C00002E002E002E002E002E002E002E002E0D7
:1049D00002E001E060D921D8E1FE62FDE0FE00FFC7
:1049E000C2EBA2FE22E0A1D802E002E002E802E06F
:1049F00002E002E002E002E002E002E002E002E0A7
:104A000002E002E002E002E002E002E002E002E096
:104A100002E002E002E002E002E002E002E002E086
:104A200002E002E002E002E802E001E002E001E070
:104A300001E002E0C2D822E022E082D802E002E0F7
:104A400002E002E002E002E002E002E002E002E056
:104A500002E002E002E002E002E002E002E002E046
:104A600002E001E002E002E002E002E002E002E037
:104A700002E002E002E002E002E002E002E002E026
:104A800002E002E002E002E002E002E002E002E016
:104A900002E002E002E002E002E002E002E002E006
:104AA00002E002E002E002E002E002E002E002E0F6
:104AB00002E002E002E002E002E002E002E002E0E6
:104AC00002E002E002E002E002E002E002E002E0D6
:104AD00022E002E0E1E240D8E0FE42FE00F700FF03
:104AE00042F5E1FE22E061D902E801E022E002E0C5
:104AF00002E001E002E002E002E002E002E002E0A7
:104B000002E002E002E002E002E002E002E002E095
:104B100002E002E002E002E002E002E002E002E085
:104B200002E002E002E002E002E002E002E002E075
:104B300002E002E002E002E002E022E002E002E045
:104B400002E002E002E002E001E002E042E041E0D7
:104B500001E021E002E021E002E002E002E002E008
:104B600002E022E002E001E002E002E802E002E00E
:104B700002E002E002E002E002E002E002E002E025
:104B800002E002E002E002E002E002E002E002E015
:104B900002E002E002E002E002E002E002E002E005
:104BA00002E002E002E002E002E002E002E002E0F5
:104BB00002E002E002E002E002E002E002E002E0E5
:104BC00002E002E002E002E002E002E001E002E0D6
:104BD00002E002E042ECC1D8E0FEC1FE00FF00FFAF
:104BE00043FEE0FE41D861DA01E001E002E002E0CC
:104BF00002E002E002E002E002E002E002E002E0A5
:104C000002E002E002E002E002E002E002E002E094
:104C100002E002E002E002E002E002E002E002E084
:104C200002E002E002E002E002E002E002E002E074
:104C300002E002E002E002E002E002E002E002E064
:104C400002E002E001E002E001E002E0A2E161E056
:104C500041D841D901E022E022E021E002E001E078
:104C600002E022E003E822E002E002E002E002E0EB
:104C700002E002E002E002E002E002E002E002E024
:104C800002E002E002E002E002E002E002E002E014
:104C900002E002E002E002E002E002E002E002E004
:104CA00002E002E002E002E002E002E002E002E0F4
:104CB00002E002E002E002E002E002E002E002E0E4
:104CC00002E002E002E002E002E002E001E002E0D5
:104CD00021E002E0A2FD81D100FFE0FE00FFE0FE46
:104CE000C2FE00FFA0D801EC22E002E002E002E0F8
:104CF00002E002E002E002E002E002E002E002E0A4
:104D000002E002E002E002E002E002E002E002E093
:104D100002E002E002E002E002E002E002E002E083
:104D200002E002E002E002E002E002E002E002E073
:104D300002E002E002E002E002E002E002E002E063
:104D400002E002E001E001E022E002E043EB61D892
:104D500060D103F402E041D822E022E021D981D8D9
:104D600022E002E102E802E002E002E002E002E00A
:104D700002E002E002E002E002E002E002E002E023
:104D800002E002E002E002E002E002E002E002E013
:104D900002E002E002E002E002E002E002E002E003
:104DA00002E002E002E002E002E002E002E002E0F3
:104DB00002E002E002E002E002E002E002E002E0E3
:104DC00002E002E002E002E002E002E002E002E0D3
:104DD00041D802E082FEE1E200FF00FF00FFE0FEBA
:104DE000E1FE00FF60D983FD01E002E002E002E0A5
:104DF00002E002E002E002E002E002E002E002E0A3
:104E000002E002E002E002E002E002E002E002E092
:104E100002E002E002E002E002E002E002E002E082
:104E200002E002E002E002E002E002E002E002E072
:104E300002E002E002E002E002E002E002E002E062
:104E400002E002E002E002E001D802E0E2E261D822
:104E5000A2F424FE61D880D160D981D865FC21E319
:104E600041E003EA01E022E002E002E002E002E0C9
:104E700002E002E002E002E002E002E002E002E022
:104E800002E002E002E002E002E002E002E002E012
:104E900002E002E002E002E002E002E002E002E002
:104EA00002E002E002E002E002E002E002E002E0F2
:104EB00002E002E002E002E002E002E002E002E0E2
:104EC00002E002E002E002E002E002E002E002E0D2
:104ED000C0D802E0E2FE82F400FF00FF00FF01FF05
:104EE00000FF00FFC1E262FE01E021D802E002E023
:104EF00002E002E002E002E002E002E002E002E0A2
:104F000002E002E002E002E002E002E002E002E091
:104F100002E002E002E002E002E002E002E002E081
:104F200002E002E002E002E002E002E002E002E071
:104F300002E002E002E002E002E002E002E002E061
:104F400002E002E002E002E022E002E062E221D8B8
:104F5000A2FE42FE80D203F522F542EBC4F463FECA
:104F600021D8E0D002E022E802E002E002E002E024
:104F700002E002E002E002E002E002E002E002E021
:104F800002E002E002E002E002E002E002E002E011
:104F900002E002E002E002E002E002E002E002E001
:104FA00002E002E002E002E002E002E002E002E0F1
:104FB00002E002E002E002E002E002E002E002E0E1
:104FC00002E002E002E002E002E002E002E002E0D1
:104FD00080D921D8E1FEC2FD00FF00FF00FFE0FE06
:104FE00000FFE0FE63ECA1FE01E0A0D002E002E0E1
:104FF00002E002E002E002E002E002E002E002E0A1
:1050000002E002E002E002E002E002E002E002E090
:1050100002E002E002E002E002E002E002E002E080
:1050200002E002E002E002E002E002E002E002E070
:1050300002E002E002E002E002E002E002E002E060
:1050400002E002E002E002E002E002E0A1D901E0B9
:10505000E1FEE2FD22F6C2FEC2FE82FEA1E243FEB6
:1050600022E041D802E002E002E002E002E002E0D9
:1050700002E002E002E002E002E002E002E002E020
:1050800002E002E002E002E002E002E002E002E010
:1050900002E002E002E002E002E002E002E002E000
:1050A00002E002E002E002E002E002E002E002E0F0
:1050B00002E002E001E002E002E002E002E002E0E1
:1050C00002E002E002E002E002E002E002E002E0D0
:1050D00022E361D001FF62FE00FFE0FE00FF00FF5F
:1050E00000FF00FF82F5E1FE21E080D902E002E04E
:1050F00002E002E002E002E002E002E002E002E0A0
:1051000002E002E002E002E002E001E002E002E090
:1051100002E001E002E002E002E002E002E002E080
:1051200002E002E002E002E002E002E002E002E06F
:1051300002E002E002E002E002E002E002E002E05F
:1051400002E002E002E002E021E001E000D261D8EA
:10515000E0FEC2F501F701FFE2FEC1FE20D9E2F454
:1051600002E021D801E002E802E002E002E002E011
:1051700002E002E002E002E002E002E002E002E01F
:1051800002E002E002E002E002E002E002E002E00F
:1051900002E002E002E002E002E002E002E002E0FF
:1051A00002E002E002E002E002E002E001E022E0D0
:1051B00021E001D802E022E002E002E021E021E06B
:1051C00021E021E021E021E021D821E040D821D8D0
:1051D000C3F4E0D0E0FEC1FE00FF00FF00FF00FFCF
:1051E00000FF00FF82FE00FF81D801E322E021D80A
:1051F00021E002E001E021E022E001E001D822E02C
:1052000022E021E022E002E021E022D822E021D8C1
:1052100022E802E002E001E002E002E002E002E057
:1052200002E002E002E002E002E002E002E002E06E
:1052300002E002E002E002E002E002E002E002E05E
:1052400002E002E022E002E001D941D802EDA1DA59
:10525000E0FEA1FEE0FE00FFC1FE01FF80D880DB82
:1052600023E822D801E002E002E001E002E002E0EF
:1052700002E002E002E002E002E002E002E002E01E
:1052800002E002E002E002E002E002E002E002E00E
:1052900002E002E002E002E002E002E002E002E0FE
:1052A00002E002E002E002E002E002E081D041D848
:1052B00020D100D120D120D140D120D180D960D9B6
:1052C000C0D980D9E0D9E0D900DA00DA60DA20DA92
:1052D00002FE40DBE0FEE1FE00FF00FF00FF00FFFA
:1052E00000FF00FFC1FE00FFA1DA01ED20DA40E27D
:1052F000E0E100DAC0D9E0D9A0D9A0D960D980D93D
:1053000040D160D100D120D1C0D0E0C822E081D00E
:1053100002E002E002E002E002E002E002E002E07D
:1053200002E002E002E002E002E002E002E002E06D
:1053300002E002E002E002E002E002E002E002E05D
:1053400002E002E0A1D822E083F421DAE2FE23FEAB
:10535000E0FEE1FE00FF00FF01FF00FFE1D922F5C2
:1053600021E041D802E022E002E002E002E002E0B7
:1053700002E002E002E002E002E002E002E002E01D
:1053800002E002E002E002E002E002E002E002E00D
:1053900002E002E002E002E002E002E002E002E0FD
:1053A00002E002E002E002E021E002E045F3C2E0B8
:1053B000A4FD25FDC4FDC4FDE3FDE3FD03FEE3FD07
:1053C00002FE02FE22FE02FE42FE42FE62FE42FE9D
:1053D000C1FEA2FEE0FEE1FE00FFE0FE00FF00FFD6
:1053E00000FF00FFE0FE00FF62FEE1FE61FE42FE04
:1053F00042FE42FE22FE42FE02FE02FEE3FD02FEED
:10540000C4FDE3FDC4FDC3FD86FC84FD42D844EA2F
:1054100002E002E002E001E802E002E002E002E075
:1054200002E002E002E002E002E002E002E002E06C
:1054300002E002E002E002E002E002E002E002E05C
:1054400002E002E0E4E942E064FD65F4A2FE03FE4E
:10545000E1FEC2FE00FF01FF01FF01FF03F5C2FEF6
:1054600061D8C1D902E022E002E001E002E002E0FE
:1054700002E002E002E002E002E002E002E002E01C
:1054800002E002E002E002E002E002E002E002E00C
:1054900002E002E002E002E002E002E002E002E0FC
:1054A00002E002E002E002E001E002E020D921D8BF
:1054B00043FEC2EBE1FEC2FEE1FEE1FEE0FEE0FEE5
:1054C000E0FEE0FE00FFE0FE00FF00FFE1FE00FF67
:1054D000E0FE01FF00FF00FF00FF20FF00FF00FFD4
:1054E00000FF00FF00FF00FF00FF00FF00FF01FFC3
:1054F000E0FEE0FEE0FE00FFE0FEE0FEE0FEE0FE9B
:10550000E1FEE1FEA3FEE1FEA2E263FD22E0A0D007
:1055100002E002E002E002E802E002E002E002E073
:1055200002E002E002E002E002E002E002E002E06B
:1055300002E002E002E002E002E002E002E002E05B
:1055400002E002E060D822E0A1D9E1D801DB61E20B
:10555000A2FE82E4E1FEE1FE83FEA2FE83FEC3FE24
:1055600081E1C4F422E842E002E002E002E002E06D
:1055700002E002E002E002E002E002E002E002E01B
:1055800002E002E002E002E002E002E002E002E00B
:1055900002E002E002E002E002E002E002E002E0FB
:1055A00002E002E002E002E022E002E021D802E0B4
:1055B000E1E2C1D8C1FEA3FD00FF00FF00FF00FF34
:1055C00000FF00FF00FF00FF00FF00FF00FF00FFE3
:1055D00001FFE0FE00FF00FF00FF00FF00FF00FFF3
:1055E00000FF00FF00FF00FF00FF00FFE0FE00FFE4
:1055F00000FF00FF00FF00FF00FF00FF00FF00FFB3
:10560000E1FE00FFA3FC82FE61D8E0D902E022E0C7
:1056100002E002E802E002E002E002E002E002E072
:1056200002E002E002E002E002E002E002E002E06A
:1056300002E002E002E002E002E002E002E002E05A
:1056400002E002E002E002E021D801E081D822E09D
:1056500003FEC0D162FE01FF61DAA1E382EBE1E269
:10566000E4F203F422E0C2E002E002E002E002E041
:1056700002E002E002E002E002E002E002E002E01A
:1056800002E002E002E002E002E002E002E002E00A
:1056900002E002E002E002E002E002E002E002E0FA
:1056A00002E002E002E002E002E002E002E002E0EA
:1056B00080D822E0E3F401DAE1FE82FE00FF01FF80
:1056C000E0FEE0FEE0FEE0FE00FF00FF00FF00FF66
:1056D00000FF00FF00FF00FF00FF00FF00FF00FFD2
:1056E00000FF00FFE0FE00FF00FF00FF00FF00FFE3
:1056F00000FF00FF00FF00FFE0FEE0FEE0FE01FF14
:1057000022FEE1FE21D9E3EB02E041D802E002E013
:1057100002E002E002E002E002E002E002E002E079
:1057200002E002E002E002E002E002E002E002E069
:1057300002E002E002E002E002E002E002E002E059
:1057400002E002E002E002E002E001E022E002E02A
:1057500043FDE0D002F5C2FE61D820D180D861D8E7
:1057600081D880D802E021E002E002E002E002E01D
:1057700002E002E002E002E002E002E002E002E019
:1057800002E002E002E002E002E002E002E002E009
:1057900002E002E002E002E002E002E002E002E0F9
:1057A00002E002E002E002E002E002E002E002E0E9
:1057B00001E002E860D961D843FE02EC00FFE1FE9F
:1057C00000FF00FF00FF00FFE0FEE0FE00FF00FF23
:1057D00000FF00FF00FF00FF00FF00FF00FF00FFD1
:1057E00000FF00FF00FF00FF00FF00FF00FF00FFC1
:1057F00000FF00FFE0FE00FF00FF00FFC2FEE1FE31
:10580000E1DAA2F521E0C0D802E002E002E002E025
:1058100002E002E002E002E002E002E002E002E078
:1058200002E002E002E002E002E002E002E002E068
:1058300002E002E002E002E002E002E002E002E058
:1058400002E002E002E002E002E001E002E002E049
:1058500062F4A0D881DA24FE02E061D821E021E0E0
:1058600001E001E002E002E002E002E002E002E02A
:1058700002E002E002E002E002E002E002E002E018
:1058800002E002E002E002E002E002E002E002E008
:1058900002E002E002E002E002E002E002E002E0F8
:1058A00002E002E002E002E002E002E002E002E0E8
:1058B00002E802E821D802E0E1E2E0D0C1FEC3FD47
:1058C000E0FEE0FE00FFE0FE00FF00FFE0FEE0FE85
:1058D00000FF00FF00FF00FF00FF00FF00FF00FFD0
:1058E00000FF00FF00FF00FF00FF00FF00FF00FFC0
:1058F00000FF00FF00FF00FFC1FE00FFC2F482FEB8
:1059000081D8E0D102E021E002E001E002E002E023
:1059100002E002E002E002E002E002E002E002E077
:1059200002E002E002E002E002E002E002E002E067
:1059300002E002E002E002E002E002E002E002E057
:1059400002E002E002E002E002E001E002E002E048
:1059500042EB61D801D964F402E022E002E022E0E7
:1059600002E002E002E002E002E002E002E002E027
:1059700002E002E002E002E002E002E002E002E017
:1059800002E002E002E002E002E002E002E002E007
:1059900002E002E002E002E002E002E002E002E0F7
:1059A00002E002E002E002E002E802E002E002E0DF
:1059B00002E001E002E002E081D802E023F520DA13
:1059C00000FFA2FEE0FEE0FE00FF00FF00FF00FF80
:1059D00000FF00FF00FF00FF00FF00FF00FF00FFCF
:1059E00000FF00FF00FF00FF00FF00FF00FF00FFBF
:1059F00000FF00FF00FFE0FE23FEE1FE41D1C2EB0D
:105A000001E061D802E002E002E001E002E002E031
:105A100002E002E002E002E002E002E002E002E076
:105A200002E002E002E002E002E002E002E002E066
:105A300002E002E002E002E002E002E002E002E056
:105A400002E002E002E002E001E001E002E802E040
:105A5000C2E141E041D803E202E022E002E002E0DC
:105A600002E002E002E002E002E002E002E002E026
:105A700002E002E002E002E002E002E002E002E016
:105A800002E002E002E002E002E002E002E002E006
:105A900002E002E002E002E002E002E002E002E0F6
:105AA00002E002E002E002E002E002E002E001E0E7
:105AB00002E002E002E002E021E002E081D161D8F0
:105AC00043FE02ECE0FEE1FEE0FE00FF00FF00FF0F
:105AD00000FF00FF00FF00FF00FF00FF00FF00FFCE
:105AE00000FF00FF00FF00FF00FF00FFE0FE00FFDF
:105AF00000FFE0FEC2FEE0FEE2DAA3FD41D8E1D005
:105B000002E822E002E002E002E002E002E002E05D
:105B100002E002E002E002E002E002E002E002E075
:105B200002E002E002E002E002E002E002E002E065
:105B300002E002E002E002E002E002E002E002E055
:105B400002E002E002E002E002E002E002E802E03D
:105B500062E022E001D882E002E822E002E002E80E
:105B600002E002E002E002E002E002E002E002E025
:105B700002E002E002E002E002E002E002E002E015
:105B800002E002E002E002E002E002E002E002E005
:105B900002E002E002E002E002E002E002E002E0F5
:105BA00002E002E002E002E001E002E002E802E0DE
:105BB00002E002E002E002E002E002E021D822E09E
:105BC00001E300D9E1FEC3FDE1FE01FF00FF00FF9C
:105BD00000FF00FF00FF00FF00FF00FF00FF00FFCD
:105BE00000FF00FFE0FE00FF00FF00FFE0FEE0FE20
:105BF000E1FEE0FEE3F4A2FE81D800DA02E021E05B
:105C000002E002E002E022E002E002E002E002E064
:105C100002E002E002E002E002E002E002E002E074
:105C200002E002E002E002E002E002E002E002E064
:105C300002E002E002E002E002E002E002E002E054
:105C400002E002E002E002E001E002E002E002E045
:105C500002E002E002E021E001E002E002E002E016
:105C600002E002E002E002E002E002E002E002E024
:105C700002E002E002E002E002E002E002E002E014
:105C800002E002E002E002E002E002E002E002E004
:105C900002E002E002E002E002E002E002E002E0F4
:105CA00002E002E002E002E002E002E002E002E0E4
:105CB00002E002E002E002E002E002E002E002E0D4
:105CC00080D021E003F562DA01FFA2FE00FF00FFB1
:105CD00000FF00FF00FF00FF00FF00FF00FF00FFCC
:105CE00000FF00FFE0FE00FF00FF00FF00FF00FFDD
:105CF00022FEE1FE61D922EC22E041D802E002E07E
:105D000002E002E002E002E002E002E002E002E083
:105D100002E002E002E002E002E002E002E002E073
