:020000040000FA
:10000000FC0F0020D50000001D0D000019090000A4
:10001000DD000000DF000000E10000000000000043
:100020000000000000000000000000001B0E0000A7
:10003000E500000000000000110E00004D0100204E
:10004000EB000000EB000000A50E0000E10E000038
:1000500057010020710E0000790E0000EB00000037
:10006000EB000000EB000000790F0000EB00000047
:10007000EB000000D9050000DB050000EB000000EC
:10008000130E0000E1140000EB0000005106000018
:10009000EB000000EB000000EB000000EB000000B4
:1000A000EB000000EB000000EB000000EB000000A4
:1000B00053060000EB000000D1050000DD05000044
:1000C0000348854600F05AFA0048004759150000D9
:1000D000FC0F002005480047FEE7FEE7FEE7FEE7CD
:1000E000FEE7FEE7FEE7FEE7FEE7FEE7C1000000F1
:1000F00030B50B46014600202022012409E00D46C0
:10010000D5409D4205D31D469540491B2546954047
:1001100040191546521E002DF1DC30BD0321001D93
:10012000401E037812021A43491EF9D51046704743
:10013000F8B502464A40D40F42004B0052085B0813
:100140009A4202D20246084611464A0023D0C30D05
:100150004A00DDB2120EAD1A202D35DA4902012611
:10016000490AF6058A19002C00D0524220214F1B63
:100170001146B9402A411018C20D9A4221D0002CD4
:1001800017D0012D08DCDA05801AD20F8019D207AA
:10019000DBB200F05AF9F8BDDA05801A01234000FD
:1001A0001B06C01880185A428018CA0F1043490015
:1001B00007E04908C2071143DA05801A8019400890
:1001C000801800F03AF9F8BD61000122511A001BB5
:1001D000F7E70122D2075140AAE70122D207504097
:1001E000A6E7024670B54A40D30FDB0740002DD08A
:1001F0004A002AD0010E140E000212020919400A08
:10020000520A8418E50104465443000A120A2E04D7
:100210005043A4194219200CC543AA18120C0125F9
:10022000AD03521C521912047F39240400D0521C11
:10023000104301D44000491EC2B20C06C009201868
:10024000401C4008802A02D003E0002070BD400816
:100250004000002900DA0020184370BDF0B51FB43B
:1002600088B00B990998002448400999C00F4900AB
:1002700049080991C0070B990090490049080B9162
:1002800009990898A64608431CD00B990A98084378
:1002900018D0099801244000420D4800410D0998EA
:1002A00024050003000B204309900B980003000B6A
:1002B00020430B9050181C4940180022019014460E
:1002C000104605E0002001460DB0F0BD032801DA1C
:1002D000034600E003239C46C11A0AAE0AE05F0011
:1002E00008ADED5B4F00F75B7D430027AA187C410A
:1002F000491C5B1E6145F2DD410004AB5A522104EA
:10030000120C0A43240C401C0828DFDB01980290E1
:100310000099704601910090059B049A07990698F0
:1003200000F0D9F8D0E700000DFCFFFF0EB5C217B2
:10033000C10F5040CA0740180021054B029301929B
:1003400000910A460B4600F0C6F803B000BD00005D
:1003500033040000C20F410040020123400ADB05C4
:10036000D207090EC0187F2901DA002070479629AC
:1003700003DC9623591AC84001E096398840002AC8
:10038000F4D040427047000070B5CD0F4A00090319
:100390000123090B1B0519430B4BED070024520DDC
:1003A0009A4201DA002070BD074B34339A4203DCD5
:1003B0009A1A00F031F802E00449511888402C43A1
:1003C000F1D0404270BD0000FF030000CDFBFFFFF5
:1003D0000122D207002800DB101A002900DB511A85
:1003E000814270470122D207002800DB101A002941
:1003F00000DB511A8842704710B5202A04DB014601
:10040000203A9140002010BD914020239C1A0346C1
:10041000E3401943904010BD10B5202A04DB084684
:10042000203AD040002110BD0B46D340D0402024BC
:10043000A21A91400843194610BD002904DA401C55
:10044000490001D140084000704770B40024050CF9
:1004500005D11024000402D1002921D01124050E59
:1004600001D100020834050F01D10001241D850FC0
:1004700001D18000A41C002801DB4000641C00297D
:1004800008D020252E1B0D46F540A14000D00121AB
:100490002943084301061B1B000ADB1D02D500206F
:1004A00070BC7047DB05181880180029F8DA401C6A
:1004B0004900F5D170BC40084000704710B5002BD2
:1004C00008DA0024401C614192185B411A4301D1B3
:1004D0004008400010BDF0B51FB482B005460C00C6
:1004E00003D0084600F058FD02E000F055FD203032
:1004F0000246009021462846FFF77EFF049B059A9E
:1005000004460F4618431143084314D018461043BD
:100510001BD0009840210A1A18460599FFF77CFF66
:1005200005460E46009A05990498FFF765FF0843B3
:1005300005D0012004E02046394607B0F0BD002078
:10054000C11705430E432C43374300990E986305AA
:10055000401A7905E40A00220C43FD0A0A3002D54C
:1005600000200146E9E70105101969410C9C0D9D29
:1005700000196941FFF7A2FFDFE70000064C0125E3
:10058000064E05E0E36807CC2B430C3C984710343B
:10059000B442F7D3FFF798FDC8170200F81702001E
:1005A00003B40148019001BD6501002003B4014876
:1005B000019001BDCD01002003B40148019001BDAF
:1005C000D101002003B40148019001BDE9010020E0
:1005D00010B500F041FE10BD704770477047000035
:1005E00008B50D480168402211430091016041693E
:1005F000120311430091416100995210114300917F
:100600004161042000F060FF0021042000F064FF3D
:10061000042000F091FB08BD0060004010B50B49BC
:100620000A78002A10D04A780C235A435218121D17
:100630001CCA1CC04878401C8007800F487008788E
:10064000401E0870012010BD002010BDD800002001
:1006500070477047F8B51C4615460E46074601F030
:1006600049F801460648026942690092466087607F
:10067000C560069A14430460084601F03EF8F8BDD0
:1006800000600040F8B506460F463048FFF730FDE1
:100690004407C508640F39462D48FFF729FD0A2194
:1006A000FFF726FD002780220123002E18D0012EFF
:1006B0002BD0022E48D127484760C6681643C66033
:1006C000EEB206602D042D0E4560E6076508F60FB4
:1006D0003419E4002C19113484621E4C403428E093
:1006E0001D484760C6681643C660EEB206602D041A
:1006F0002D0E4560E6076508F60F3419E4002C1945
:1007000011348462144C403413E014484760C668C6
:100710001643C660EEB206602D042D0E4560E60756
:100720006508F60F3419E4002C19113484620B4C5F
:100730004034E5682D092D010D43E560C168914302
:10074000C160072181604360F8BD00008096980079
:1007500000E1F5050040004000100040003000407E
:10076000014880697047000000E000E038B50025CE
:10077000174C1648009520602068A114084320609B
:10078000144800F090FC144906E00098421C0092C6
:10079000884201D9002038BD6068C002F5D50F48F5
:1007A000009500F080FC206A256080B27D21C900A0
:1007B00048430B49FFF79CFCFFF7B8FD094A0A4B79
:1007C000FFF74CFDFFF7E0FD80B238BD208001004F
:1007D0000060014000002041B80B00000000A04173
:1007E000FF0F00006666666666661A4010B5002157
:1007F00001220F230D4C002807D0012804D10C48FA
:100800000161C2604360446010BD0A48016101613A
:10081000C260C26043604360044A103A4260446070
:100820004260024A303A4260C16010BDBB0F010015
:1008300000D0014000B0014038B5144601220D46F9
:100840001146104600F02EFE08480749416002217B
:100850000091002322462946FFF7FCFE7D20C000C0
:10086000FFF79EFE38BD00008B0F010000B0014075
:1008700038B5144601220D461146104600F012FE0E
:100880000848074941600321009104232246294674
:10089000FFF7E0FE7D20C000FFF782FE38BD0000BC
:1008A0009B0F010000B0014038B5144601220D46EF
:1008B0001146104600F0F6FD084807494160022144
:1008C0000091082322462946FFF7C4FE7D20C00080
:1008D000FFF766FE38BD0000AB0F010000B001401D
:1008E00038B5144601220D461146104600F0DAFDD7
:1008F0000848074941600221009100232246294609
:10090000FFF7A8FE7D20C000FFF74AFE38BD0000BB
:100910008B0F010000B00140FEE710B515210E203D
:1009200000F0ACFC13210D2000F0A8FC11210C20DC
:1009300000F0A4FC0221012000F096FD01210846F0
:1009400000F092FD0021012000F08EFD10BD00009E
:1009500010B5012204461146104600F0A3FD0348DD
:1009600001494160046010BD9B0F010000B00140CF
:1009700010B5054C2046FFF719FE0D2189010143F2
:100980002046FFF719FE10BD2800024010B5FFF702
:10099000C4FF00F054F9782000F041FCFF2000F083
:1009A00095F9A52000F082F93E2000F08FF908208B
:1009B00000F07CF93A2000F089F9652000F076F922
:1009C000822000F083F9002000F070F9982000F0F8
:1009D0007DF9002000F06AF9632000F077F90F201C
:1009E00000F064F9642000F071F90F2000F05EF966
:1009F000B42000F06BF9342000F058F9B52000F075
:100A000065F9302000F052F9832000F05FF90320EF
:100A100000F04CF9862000F059F9042000F046F966
:100A2000872000F053F9162000F040F9882000F0EC
:100A30004DF9282000F03AF9892000F047F92F20DD
:100A400000F034F9932000F041F9632000F02EF912
:100A5000962000F03BF9812000F028F9C32000F037
:100A600035F9112000F022F9E62000F02FF90020DE
:100A700000F01CF9992000F029F9012000F016F986
:100A8000442000F023F9002000F010F9702000F05D
:100A90001DF9022000F00AF9712000F017F90E206C
:100AA00000F004F9722000F011F90A2000F0FEF8BD
:100AB000732000F00BF9122000F0F8F8742000F019
:100AC00005F9192000F0F2F8752000F0FFF81D205C
:100AD00000F0ECF8762000F0F9F8462000F0E6F897
:100AE000772000F0F3F80B2000F0E0F8782000F019
:100AF000EDF80E2000F0DAF8792000F0E7F83D205C
:100B000000F0D4F87A2000F0E1F8052000F0CEF8EB
:100B10007B2000F0DBF8072000F0C8F87C2000F014
:100B2000D5F8122000F0C2F87D2000F0CFF80B209D
:100B300000F0BCF87E2000F0C9F80B2000F0B6F8F9
:100B40007F2000F0C3F8082000F0B0F8A02000F0EB
:100B5000BDF81E2000F0AAF8A12000F0B7F83F2051
:100B600000F0A4F8A22000F0B1F80A2000F09EF8EE
:100B7000A32000F0ABF80D2000F098F8A42000F0BE
:100B8000A5F8082000F092F8A52000F09FF8232097
:100B900000F08CF8A62000F099F83D2000F086F8CF
:100BA000A72000F093F8042000F080F8A82000F0BF
:100BB0008DF8092000F07AF8A92000F087F830209D
:100BC00000F074F8AA2000F081F80A2000F06EF816
:100BD000AB2000F07BF80E2000F068F8AC2000F0AD
:100BE00075F80E2000F062F8AD2000F06FF80720D5
:100BF00000F05CF8AE2000F069F82D2000F056F807
:100C0000AF2000F063F8102000F050F8FF2000F053
:100C10005DF8002000F04AF8112000F057F8962007
:100C200000F0FDFA362000F051F8082000F03EF800
:100C3000292000F04BF80A2000F0F1FA10BD10B5A1
:100C400001210022084600F02DFC642000F0E7FAA4
:100C500000221146012000F025FCFF20F53000F0B5
:100C6000DEFA01210022084600F01CFC322000F0D0
:100C7000D6FA10BDF8B504461D4616460F462A2082
:100C800000F024F82046FFF763FE3046FFF760FED1
:100C90002B2000F01BF83846FFF75AFE2846FFF7D6
:100CA00057FE2C2000F012F8F8BD000010B501220C
:100CB00004461146104600F0F5FB03480149416027
:100CC000046010BD8B0F010000B0014010B5044658
:100CD00001220021104600F0E5FB03480149416074
:100CE000046010BD8B0F010000B0014038B5012237
:100CF0000C4605461146104600F0D4FB064805494F
:100D0000416002210091002322462946FFF7A2FC00
:100D100038BD00008B0F010000B00140704700009B
:100D2000002805DBC106C90E012088400149086082
:100D30007047000080E200E0002805DBC106C90E14
:100D400001208840014908607047000000E100E090
:100D50008307FF22DB0E9A400907090E99400028FD
:100D60000BDA0007000F0838830808489B001818A2
:100D7000C36993430B43C3617047830804489B00D6
:100D80001B181868904308431860704700ED00E096
:100D900000E400E070B50020FFF708FC0420FFF736
:100DA00005FC0820FFF702FC0C20FFF7FFFB1020DA
:100DB000FFF7FCFB2020FFF7F9FB2420FFF7F6FBF1
:100DC0002820FFF7F3FB2C20FFF7F0FB3020FFF784
:100DD000EDFB0C4E3046FFF7E9FB0B4D10206C6825
:100DE000044321463046FFF7E7FB361F30466C6070
:100DF000FFF7DCFB054C30462146FFF7DDFB2C609E
:100E000070BD000024000240000000209D78869DF7
:100E1000704710B500F00EFA10BD7047094910B5C3
:100E2000401E884201D9012010BD074C606100219D
:100E3000481EFFF78DFF0020A061072020610020E1
:100E400010BD0000FFFFFF0000E000E010B5FFF75D
:100E5000A1FF00F009FA1F2000F036FB00211F203F
:100E600000F03AFB1F2000F033FBFFF7ABFB10BD97
:100E700010B500F00FF810BD10B500F0E3FA10BD8A
:100E800010B5024800F05CF910BD000060000020C1
:100E90007047000008B50248C068009008BD000017
:100EA0000010014010B500F001F810BD08B50B4866
:100EB00081680907090FCA070FD102290CD004293C
:100EC00007D0062908D14169C9B20A0701D58907A7
:100ED00002D401786A461170806808BD0010004095
:100EE00010B500F001F810BD08B50B48816809077E
:100EF000090FCA070FD102290CD0042907D00629EF
:100F000008D14169C9B20A0701D5890702D401781D
:100F10006A461170806808BD00300040F8B5FF23B4
:100F2000013300261A43104F0125002818D001284C
:100F300018D0022813D10D4C666065606660E260CF
:100F40006762226926612361FF23033323619206CE
:100F500002D5FF2223322261FFF794FB6560F8BDC2
:100F6000034CE9E7034CE7E70102000000400040C2
:100F70000010004000300040054804490160054A67
:100F80000121D160002101607047000051E5CC1AB9
:100F9000004C0140004001402021020C01D01021F2
:100FA0001046020A01D010460839020901D0104645
:100FB000091F820801D01046891E420801D0881EF0
:100FC0007047081A704730B47446641E2578641C54
:100FD000AB4200D21D46635D5B00E31830BC18478E
:100FE00002E008C8121F08C1002AFAD170477047F2
:100FF000002001E001C1121F002AFBD1704770B52B
:1010000004690D46A0680168A94219D88188A942DF
:1010100016D36169A94201D1A06904E0018AAAB28C
:10102000806800F05EF8411C0AD06168C20065610A
:101030008918A061096820680903090B401870BD70
:10104000002070BD70B504690D46A06816460168A1
:10105000B14226D88188B14223D36169B14201D11E
:10106000A06904E0018AB2B2806800F03AF8411C3D
:1010700017D06168C20066618918A0610868000D18
:1010800028804879A8800879688006200856E8807A
:10109000072008562881608A8004000FA87201206A
:1010A00070BD002070BDF8B500247F25ED050094CB
:1010B00002E00099491C009106462946FFF789F88D
:1010C0007100090EF5D10094F8BD10B51E2000F096
:1010D000FBF900211E2000F0FFF91E2000F0F8F9B6
:1010E00010BD30B500230446491E0AE058184010D0
:1010F0004500655B954201D9411E02E0954204D24C
:10110000431C8B42F2DD0020C04330BD0021017042
:1011100041807D228180D200C2803F2212068260FF
:10112000044AC2608161044AC161026101620349EB
:1011300041627047CDCCCC3D0AD7233C00007A44B5
:10114000F8B5044625486080FF209130A0802778BC
:1011500020467D2500260221214A0830ED003B0073
:10116000FFF731FF0504070C24383A002170626153
:10117000F8BD1C48E0802170626115E01A4900F05A
:10118000BEFAFFF7E7F8281AA84201DD284602E078
:10119000002800DA0020E080608814498842E7D304
:1011A0000320207012486061A661F8BD114900F06B
:1011B000A6FAFFF7CFF8281AA84201DD284602E078
:1011C000002800DA0020E080A0883228EDD2042038
:1011D0002070F8BDE580F8BD2670F8BDAC0D0000AC
:1011E0000000FA43B60300000000C8436810000086
:1011F0000040834500C05A4502200021401EFDD218
:101200000220491C6E2901D2801EF7E770470101B8
:10121000002001E000BF401C8842FBD3704710B59E
:101220000446002302E0FFF7E7FF5B1CA342FAD36A
:1012300010BD000010B5074C2046FFF7B7F910218C
:1012400002460A400843102A03D101462046FFF710
:10125000B3F910BD3C20004010B501210148FFF753
:10126000ABF910BD0800024008B50348016920220F
:1012700011430091016108BD0000014010B5012437
:101280006B4AE4050300FFF79EFE190E202B2B2B63
:101290002B33393F464D545B626970777E858C9362
:1012A0009AA9BBCB2B000123002907D0012917D114
:1012B000506818435060106888438BE010681843EA
:1012C000106050684008400086E00220022908D0E3
:1012D000032905D1516801435160116881431160B0
:1012E00010BD11680143116051688143516010BD08
:1012F00040200429F5D00529ECD010BD8020062916
:10130000EFD00729E6D010BDFF2001300829E8D032
:101310000929DFD010BD012040020A29E1D00B29A4
:10132000D8D010BD012080020C29DAD00D29D1D0EF
:1013300010BD0120C0020E29D3D00F29CAD010BD84
:10134000012000031029CCD01129C3D010BD0120E9
:1013500040031229C5D01329BCD010BD0120800341
:101360001429BED01529B5D010BD0120C0031629FF
:10137000B7D01729AED010BD012000041829B0D075
:101380001929A7D010BD012040041A29A9D01B2972
:10139000A0D010BD012080041C29A2D01D2999D005
:1013A00010BD0120C0041E299BD01F2992D010BD62
:1013B00001200005202994D021298BD010BD22299D
:1013C00028D02329FAD150680121490508435060EB
:1013D00010688843106010BD506010BD01239B054C
:1013E000242907D02529F8D1506818435060106887
:1013F0009843EFE710681843106050689843EBE794
:10140000262907D02729E8D150682043506010686A
:10141000A043DFE71068204310605068A043DBE77B
:1014200001200006282987D0292987D010BD000077
:101430000003044002480021016041608160704760
:101440000003044008B5064801684A1C0260C82928
:1014500001DD002101600348C068009008BD000064
:10146000180000200020014030B50C4B0C4C002827
:1014700002D0012802D003E01A6800E02268D2B24C
:1014800001258D40E9B20A43002802D0012802D08C
:1014900002E01A6000E02260002030BD00840140BC
:1014A0000094014091400123921C9340002805D0F4
:1014B000012802D102481818016070470148FAE774
:1014C000009001400080014000B5FFF729FC00BDFD
:1014D00000B5FFF731FC00BD00B5FFF739FC00BDDA
:1014E00010B5FFF73DF90249886000F003F810BD20
:1014F0000C0000200548044981610121C161016996
:101500004908490001617047A55A000000200240C7
:1015100070B514465C43CB1882185B1E521E9BB2FA
:1015200092B2049DFFF7A6FBA2B229460020FFF766
:10153000D7F970BD70B514465C43CB1882185B1E9A
:10154000521E9BB292B2049DFFF794FBA2B22946B1
:101550000020FFF78DF970BD1CB5FFF777FCFFF792
:10156000B4FDFFF705FAFFF765FF21211420FFF70F
:1015700085FE25211620FFF781FE27211720FFF782
:101580007DFE22211520FFF779FE06210720FFF7B7
:1015900075FE0020FFF72AF9FFF7F8F97F230021F5
:1015A0001A460846FFF766FBFFF71AF801246403A2
:1015B000224642490020FFF777F94148FFF727FE0E
:1015C000224640490020FFF76FF97D25AD012846EE
:1015D000FFF71DFE22463C490020FFF765F928462B
:1015E000FFF715FE00206946888001A880230021AE
:1015F00000901A460846FFF79DFF2846FFF707FEB2
:1016000057236D2227211420FFF734FB2F4A30493E
:101610000020FFF711F96D230A211A460846FFF74B
:1016200029FB2C4C2C4922460020FFF759F928466B
:10163000FFF7EDFD00F020F9E1256D0203222946B8
:101640000020FFF76BFC032229460120FFF766FC10
:1016500009210820FFF712FE0B210920FFF70EFEDB
:101660000D210A20FFF70AFE1C4800901F231C4A88
:1016700000211C4800F084F82046FFF7CFFB1A48F1
:10168000FFF744FD194D1A4E002000F091F82C6828
:10169000322120463460FEF72BFD002901D1FFF7EF
:1016A000F7FB64212046FEF723FD0C0001D1FFF774
:1016B0005DF8002CE8D1FFF7E3FBE5E734270000F5
:1016C0001027000034A70000342701007422000016
:1016D00054F50100204E000034A701004C0000200A
:1016E0005B43000011150000600000201000002086
:1016F0002400002072B60020704762B67047F8B52B
:101700000446C068FEF765FD054629462069FEF7D8
:101710000FFD2061E169FEF765FE01D2E0692061FD
:10172000A1692069FEF754FE01D2A0692061284614
:101730006169FEF74EFDA26801461046FEF751FDB5
:10174000074621696068FEF74CFD06462946206879
:10175000FEF747FD3146FEF7EBFC3946FEF7E8FCA5
:1017600065610646E169FEF73DFE00D2E669A169C2
:101770003046FEF72DFE00D2A6693046F8BD0000C7
:10178000F0B50A4D084C059F2C600025258065802A
:10179000F026A680E6802761A560E060A182E28253
:1017A0002383FF206083F0BD0C0100202C0000206B
:1017B000FEB500262E4C0096019602960746A168BB
:1017C0006068814253D0A0602A4D26702278142090
:1017D000424350190169002906D0AA58A368D21AB9
:1017E000002A01DC0661884720781421484340190B
:1017F0008168002912D04168A268891A00290DDC8D
:1018000001216A469170C168684688472078142192
:10181000484342199068A168401850602078401CE5
:10182000C0B220700428D1D31CE026702078142187
:1018300048434019C168002905D068460088C007A0
:1018400001D068468847684600884108684601809C
:101850002078401CC0B220700428E7D3002F01D0AC
:101860006846B8476846FEF7D9FE0028DDD1FEBDC0
:10187000200000208800002010B56D230A211A46A0
:101880000846FFF7F7F902490248FFF72FFA10BDA3
:10189000204E000034A70100A6A6A695959500420B
:1018A000A6A7E096D084C0001B0A2000570C003B7E
:1018B000DBCDB300B1570000C074007BDAEB9005BC
:1018C00070C0000832900000A0001BEC30B6A2707F
:1018D000E3A000ABB00008E80000AAC000A0E3A2AB
:1018E000A3E15DEB4000A00008BB200850004904C4
:1018F000903B00006602A0C200003B077860000039
:1019000006A73B3BC6000000B2C10C00000770D028
:101910000B20002C00C10C0000B3004CB400006D83
:10192000D900000001E10B50000001E00B40C300B2
:10193000008CC700C30004C8CA00E0001E2008B71E
:1019400090003E0000AE10000E6005DD510003BEA9
:10195000EA23CD200F100E000C00007802D00860A2
:101960000C200E001D000E000D20096002C0007743
:1019700077000C20069002D000E000D100E001D0FA
:1019800006900C20770000A2005AB8B003CA0009E4
:101990002820000D0000000D0000000D00006DDE8D
:1019A000DD60000D0000000D00002D0058009300C8
:1019B0001DDD4005002D1000001E10000069000014
:1019C00000C3000003C00000096000000E1000000A
:1019D00069000000C3000003C00000087000000D93
:1019E00010000002BEC3000C706D003E000D405B95
:1019F000000B606A000A705B000A603D000D400D3C
:101A0000706C0003CEB20015B7A9A700970097002D
:101A100097009700970097009705CEB3000A206DB6
:101A20000000000F1000004D000004D400007D30C5
:101A30000009A000001E0000004FFFFF6003CEA1C0
:101A4000000810AA0000005B000002B50003EF9040
:101A50000000018C0000001F1028007C0008EDA190
:101A6000000001E6000008E600003CA60000C39666
:101A700000097096006B009600CEEEEEB000009666
:101A800000000096008FFFA0960000A40000CEEAA0
:101A900020001AC00001F10001F01019A0DED910D9
:101AA000005CED0005C301000D3000002E7DD60066
:101AB0004E703E303E000A701E000A600B803E10E1
:101AC00001BEC4005FFFFF5000002D000000960023
:101AD0000002D00000097000001E1000005B000032
:101AE00000A6000000D3000003BEC3000D605D002F
:101AF0000E100E000670780005EEE6002E403E3017
:101B00005B000A602E303D3004CEC50003BEC2002B
:101B10000D506C004C000D305C000C501E505E509F
:101B200004CE9C4000001E000101A7000CED7000D7
:101B30002D1005000000000005002D102D100500DF
:101B40000000000001002D006800930000005B20F1
:101B5000049D93004FA10000049EA40000005B20A0
:101B60006DDDDD6000000000000000006DDDDD6067
:101B70004A500000049D93000001BF3004AD930063
:101B80004A50000008ED503604E10000E10007A0D3
:101B9000008A0000E00000000000510000D40000B6
:101BA0003ABBB9100006B20003C3003B03BBA52C2F
:101BB00000A40D20B40B30D04900A30940D0580038
:101BC000C20B20A32C16C44B004B06B63A8000076C
:101BD000B4000200000028BBB800000009E10000CA
:101BE000000EB60000005B6C000000B61E20000274
:101BF000E20B800007C006D0000DFFFFF5004E206D
:101C000000AA00A900003E10CFFD70C503E4C50086
:101C1000C6C504D1CFFE70C502B9C5005CC502B906
:101C2000CFFD90002ADEA004E821750D6000004E73
:101C30000000005C0000004E0000001E5000000785
:101C4000E62175005CED80CFFEA400C5026D70C575
:101C50000003E2C50000C6C50000A8C50000C6C557
:101C60000004E1C5026E60CFFEA300CFFFC0C50037
:101C700000C50000C50000CFFF80C50000C5000002
:101C8000C50000CFFFF0CFFFC0C50000C50000C5F4
:101C90000000CFFF80C50000C50000C50000C500E2
:101CA00000002ADEB30003E8214A000D60000000B6
:101CB0004E000000005C001FFF004E00002F001EC1
:101CC00050002F0006E6215F00004BEEB600C50075
:101CD00000F1C50000F1C50000F1C50000F1CFFF23
:101CE000FFF1C50001F1C50000F1C50000F1C5001C
:101CF00000F1C5C5C5C5C5C5C5C5C5007900790014
:101D000079007900790079009802D3BD70C5007C14
:101D100010C505D100C53D2000C6D40000CDB000DF
:101D200000C5C80000C51D6000C503E400C5005E15
:101D300030C50000C50000C50000C50000C500009A
:101D4000C50000C50000C50000CFFFE0CE000003C5
:101D5000F8CD600009D8C9D0001EA8C4D500889865
:101D6000C47B01E298C41E37A098C408AD4098C453
:101D700002EC0098C400A50098CD100088CAA0000D
:101D800088C5C50088C43D1088C408B088C400D682
:101D900088C4005EA8C4000AF8C40002E8004BEE44
:101DA000B30006E6227E400E500008C04E0000023E
:101DB000F15C000001F24E000002F11E500008C06C
:101DC00006E6127E30005CEEA300CFED80C503D79F
:101DD000C5007BC5007BC503D5CFED60C50000C540
:101DE0000000C50000004BEEB30006E6227E400E68
:101DF000500008C04E000002F15C000001F24E00ED
:101E00000002F11E500008C006E6127E30005CEDB4
:101E1000DB1000000009D4CFFD9000C502C800C54A
:101E2000007A00C502D600CFFE5000C51A9000C54A
:101E300001E400C5006C00C5000C7002AED6000DB8
:101E4000712A003F0000001E70000004DC4000000A
:101E500017D90000001E3039204E2008DEC500BF13
:101E6000FFFF90002F1000002F0000002F00000047
:101E70002F0000002F0000002F0000002F000000A6
:101E80002F0000E30004D0E30004D0E30004D0E31B
:101E90000004D0E30004D0D30004D0B60006B06D37
:101EA000414D5007CEC600A800006C005D0000B692
:101EB000000E3001E100098007A00003D00C5000A3
:101EC00000D42E00000089790000002DC30000001E
:101ED0000CC00000A80007D0004D006C000BE20011
:101EE00089001E100DA600C5000C404A5A00E100F2
:101EF0000780861D04B00003C0C10C27700000D20B
:101F0000C0086B300000998004AD0000005E400006
:101F1000D900004E2002E30AA00A8001E34D000030
:101F20006CD400000EC000007AD50002E25D100CF7
:101F3000700B907C0002E3A90004D03E100B600BF4
:101F4000702D0004D0970000C6D100005E80000014
:101F50000E3000000E2000000E20005FFFFFE100A9
:101F6000001D5000008A000004D100001D40000048
:101F700099000005D000001D4000009FFFFFF0AD5C
:101F800080A400A400A400A400A400A400A400A4B1
:101F900000A400AD800D1000000870000002D00009
:101FA0000000B4000000590000000D10000009609E
:101FB000000003C0000000C3000000680000001D16
:101FC000008CB004B004B004B004B004B004B00499
:101FD000B004B004B08CB0002C000000AB60000373
:101FE000B0D1000B3069004A000C30BBBBB42C10E0
:101FF00003A004CDB20710990279CB3D637B6C013D
:10200000BB1BEB7BE2000000E2000000E2000000EE
:10201000E2000000E5CEB200EA109B00E3002E00D3
:10202000E2003E00E901A900E7DD910000000002A6
:10203000ADE70D70004D00005C00001E602503BE82
:10204000B200000790000007900000079000000712
:102050009003BEDC900D602C904C0007905C000853
:10206000901E502D9005CEA89002BDC5000C302EBC
:10207000104EDDDD405D0000001E60180004CEC380
:1020800000009D4004C0000790000880009EEE10F4
:102090000880000880000880000880000880000395
:1020A000BEB9900D602D904C0007905C0008901E0A
:1020B000502D9004CEA89000000A700A105E2004F3
:1020C000DEB400E20000E20000E20000E20000E511
:1020D000CEA0E901D5E300A7E20097E20097E20075
:1020E000970C200E30040000000E200E200E200E53
:1020F000200E200E20000C20000E300004000000F6
:1021000000000E20000E20000E20000E20000E20E9
:10211000000E20000E10005C002DC300E20000E263
:102120000000E20000E20000E209B0E29B00EAB039
:1021300000E8D100E27D10E207D2E2E2E2E2E2E270
:10214000E2E2E2E2E6CE74CE80E903EA02E3E300F3
:10215000D400C5E200D400C5E200D400C5E200D43A
:1021600000C5E5CE90E901D5E300A7E20097E200C3
:1021700097E2009702ADD9101D601A904C0003E061
:102180004C0003E01D601A8003BED800E5CEB2000B
:10219000EA109B00E3002E00E3003E00E901A900E5
:1021A000E7DD9100E2000000E2000000E200000034
:1021B00003BEDC900D602C904C0007905C000890F2
:1021C0001E502D9004CEB89000000790000007909C
:1021D00000000790E6D7EA11E300E200E200E20027
:1021E00000000008DEA03E10001DA400006CA0004E
:1021F00003E05EDC50000000067000098000AEEED7
:102200002009800009800009800008900003DD108B
:102210001F000B501F000B501F000B501F000C50D5
:102220000E604E5005DE8B50A7002E104D00890029
:102230000D30D2000795B00001EA400000AD00006B
:10224000A700D700D25B02BC03C01E175C17700A40
:102250005C086B2005BA03BC0001E600E8006D00D5
:10226000980A74C001DC2001CD200A66C07B00B84A
:10227000A8001E104D007A000D40C30006A3C00048
:1022800001EA6000009E00000088000003E20000F8
:102290009D5000006EEEF60007A0004C0002D20038
:1022A0000C40009EEEE800A705A0068006800960AD
:1022B0005D1008700680068005A000A7D1D1D1D19D
:1022C000D1D1D1D1D1D1D1D1D17B000A5008600870
:1022D0006005A001D50780086008600A507A002CCC
:1022E000D817708507CA10DFFFFFFFE4FFFFFFFF6D
:1022F000F6688888888200860000FC0000FC0000E8
:10230000FC0000FC0000FC0000FC0000FC0000FCE5
:10231000007FFFF408FF6000970000970009FF604E
:102320007FFFE400FC0000FC0000FC0000FC00005B
:10233000FC0000FC0000FC0000FC00008700000026
:102340000000400004000004000030000209010405
:10235000090040000403010A0F008000080800057E
:102360002F007000060B01035000B0000C090004A0
:102370008600B0000C090004BC0030000403000A11
:10238000C2004000040B0002D8004000040B000211
:10239000EE00500006040009FA008000080601055E
:1023A000120130000403000218015000060100076A
:1023B0001B013000040200041F016000080BFF0233
:1023C0004B017000080900046F015000040901046A
:1023D0008101700008090004A501700008090004CB
:1023E000C901700008090004ED017000060901042C
:1023F00008027000080900042C027000080900049B
:1024000050027000080900047402700008090004FA
:102410009802300004060004A40230000408000200
:10242000B402800008050105C80280000804010606
:10243000D802800008050105EC02600006090004CE
:102440000703C0000C0A0103430390000A090004BB
:1024500070037000060901048B0380000809000462
:10246000AF03900008090104D303700006090104BA
:10247000EE03600006090104090490000A09000443
:1024800036049000080901045A04300002090104CE
:102490006304400004090004750480000809010475
:1024A0009904600006090104B404B0000A0901049B
:1024B000E1049000080901040505A0000A090004D0
:1024C00032057000060901044D05A0000A0A000348
:1024D0007F05800008090104A305700008090004B5
:1024E000C705700008090004EB0580000809010415
:1024F0000F0690000A0900043C06D0000E090004F3
:102500007B068000080900049F068000080900047B
:10251000C306800008090004E7064000040B01021E
:10252000FD066000080BFF0229073000040B0002C3
:102530003F078000080501085307600006010001FD
:10254000560740000402000C5A076000060600040B
:102550006C078000080A0104940760000607000465
:10256000A9077000080A0004D107700008060004DB
:10257000E9075000060A0004070870000809000176
:102580002B087000060A010449083000040A000400
:102590005D083000060DFE0184087000060A010483
:1025A000A2083000020A0104AC08B0000A060104C7
:1025B000CA08700006060104DC0880000806000452
:1025C000F4088000080901011809700008090001D9
:1025D0003C09500004060104480960000608000395
:1025E000600950000608000478097000080600041D
:1025F0009009700008060004A809A0000A0600045B
:10260000C609600006060004D80970000809000128
:10261000FC096000060600040E0A4000040B0002DC
:10262000240A3000020D0101310A4000040B0002AF
:10263000470A8000080201074F0A40000400000416
:102640004F0AA0000A0300065E0A6000060C0002A2
:10265000820A6000060C00022000210022002300F4
:102660002400250026002700280029002A002B002E
:102670002C002D002E002F003000310032003300DE
:102680003400350036003700380039003A003B008E
:102690003C003D003E003F0040004100420043003E
:1026A0004400450046004700480049004A004B00EE
:1026B0004C004D004E004F0050005100520053009E
:1026C0005400550056005700580059005A005B004E
:1026D0005C005D005E005F006000610062006300FE
:1026E0006400650066006700680069006A006B00AE
:1026F0006C006D006E006F0070007100720073005E
:102700007400750076007700780079007A007B000D
:102710007C007D007E007F0068F075F176F100009E
:102720002000000076F100005826000000000000A4
:102730006300020002E002E002E002E002E002E0E8
:1027400002E002E002E002E002E002E002E002E079
:1027500002E002E002E002E002E002E002E002E069
:1027600002E002E002E002E002E002E002E002E059
:1027700002E002E002E002E002E002E002E002E049
:1029B00002E002E002E002E002E002E002E002E8FF
:1029C00002E002E002E001E002E802E002E002E0F0
:1029D00002E002E002E002E002E002E002E002E0E7
:1029E00002E002E002E002E002E002E002E002E0D7
:1029F00002E002E002E002E002E002E002E002E0C7
:102A000002E002E002E002E002E002E002E002E0B6
:102A100002E002E002E002E002E002E002E002E0A6
:102A200002E002E002E002E002E002E002E002E096
:102A300002E002E002E002E002E002E002E002E086
:102A400002E002E002E002E002E002E002E002E076
:102A500002E002E002E002E002E002E002E002E066
:102A600002E002E002E002E002E002E002E002E056
:102A700002E002E002E002E002E002E002E002E046
:102A800002E002E002E002E002E002E002E002E036
:102A900002E002E002E002E002E002E002E002E026
:102AA00002E002E002E002E002E002E002E002E016
:102AB00022E802E002E002E002E002E802E001E0D7
:102AC00021E802E022E042E002E002E002E002E06F
:102AD00002E002E002E002E002E002E002E002E0E6
:102AE00002E002E002E002E002E002E002E002E0D6
:102AF00002E002E002E002E002E002E002E002E0C6
:102B000002E002E002E002E002E002E002E002E0B5
:102B100002E002E002E002E002E002E002E002E0A5
:102B200002E002E002E002E002E002E002E002E095
:102B300002E002E002E002E002E002E002E002E085
:102B400002E002E002E002E002E002E002E002E075
:102B500002E002E002E002E002E002E002E002E065
:102B600002E002E002E002E002E002E002E002E055
:102B700002E002E002E002E002E002E002E002E045
:102B800002E002E002E002E002E002E002E002E035
:102B900002E002E002E002E002E002E002E002E025
:102BA00002E002E002E002E002E002E022E002E0F5
:102BB00001E001E002E021E002E002E802E001E0E1
:102BC00061D822E081E0A3E902E021E002E002E036
:102BD00002E002E002E002E002E002E002E002E0E5
:102BE00002E002E002E002E002E002E002E002E0D5
:102BF00002E002E002E002E002E002E002E002E0C5
:102C000002E002E002E002E002E002E002E002E0B4
:102C100002E002E002E002E002E002E002E002E0A4
:102C200002E002E002E002E002E002E002E002E094
:102C300002E002E002E002E002E002E002E002E084
:102C400002E002E002E002E002E002E002E002E074
:102C500002E002E002E002E002E002E002E002E064
:102C600002E002E002E002E002E002E002E002E054
:102C700002E002E002E002E002E002E002E002E044
:102C800002E002E002E002E002E002E002E002E034
:102C900002E002E002E002E002E002E002E002E024
:102CA00002E002E002E002E002E002E002E002E014
:102CB00022E001E022E021E002E021E021E002E068
:102CC00041DA61D801E125FC02E021E002E002E006
:102CD00002E002E002E002E002E002E002E002E0E4
:102CE00002E002E002E002E002E002E002E002E0D4
:102CF00002E002E002E002E002E002E002E002E0C4
:102D000002E002E002E002E002E002E002E002E0B3
:102D100002E002E002E002E002E002E002E002E0A3
:102D200002E002E002E002E002E002E002E002E093
:102D300002E002E002E002E002E002E002E002E083
:102D400002E002E002E002E002E002E002E002E073
:102D500002E002E002E002E002E002E002E002E063
:102D600002E002E002E002E002E002E002E002E053
:102D700002E002E002E002E002E002E002E002E043
:102D800002E002E002E002E002E002E002E002E033
:102D900002E002E002E002E002E002E002E002E023
:102DA00002E002E002E002E002E002E001E002E014
:102DB00082D822E001D9A4E941D860D860D041D8B6
:102DC00063FD01DAE0D824FD02E801E002E002E060
:102DD00002E002E002E002E002E002E002E002E0E3
:102DE00002E002E002E002E002E002E002E002E0D3
:102DF00002E002E002E002E002E002E002E002E0C3
:102E000002E002E002E002E002E002E002E002E0B2
:102E100002E002E002E002E002E002E002E002E0A2
:102E200002E002E002E002E002E002E002E002E092
:102E300002E002E002E002E002E002E002E002E082
:102E400002E002E002E002E002E002E002E002E072
:102E500002E002E002E002E002E002E002E002E062
:102E600002E002E002E002E002E002E002E002E052
:102E700002E002E002E002E002E002E002E002E042
:102E800002E002E002E002E002E002E002E002E032
:102E900002E002E002E002E002E002E002E002E022
:102EA00002E002E002E002E002E002E002E002E012
:102EB000A1D823E8E5F464F3C1D982EBC0D1E0D016
:102EC000C2FE03F5C0D842FD02E802E002E002E0E3
:102ED00002E002E802E002E002E002E002E002E0DA
:102EE00002E002E002E002E002E002E002E002E0D2
:102EF00002E002E002E002E002E002E002E002E0C2
:102F000002E002E002E002E002E002E002E002E0B1
:102F100002E002E002E002E002E002E002E002E0A1
:102F200002E002E002E002E002E002E002E002E091
:102F300002E002E002E002E002E002E002E002E081
:102F400002E002E002E002E002E002E002E002E071
:102F500002E002E002E002E002E002E002E002E061
:102F600002E002E002E002E002E002E002E002E051
:102F700002E002E002E002E002E002E002E002E041
:102F800002E002E002E002E002E002E002E002E031
:102F900002E002E002E002E002E002E002E002E021
:102FA00002E002E002E002E002E002E002E002E011
:102FB00041E002E084FDC1D9E3FD83FE42F5A2ECCD
:102FC000C1FEC2FEC0D802F502E021E002E002E04C
:102FD00002E001E002E002E002E002E002E002E0E2
:102FE00002E002E002E002E002E002E002E002E0D1
:102FF00002E002E002E002E002E002E002E002E0C1
:1030000002E002E002E002E002E002E002E002E0B0
:1030100002E002E002E002E002E002E002E002E0A0
:1030200002E002E002E002E002E002E002E002E090
:1030300002E002E002E002E002E002E002E002E080
:1030400002E002E002E002E002E002E002E002E070
:1030500002E002E002E002E002E002E002E002E060
:1030600002E002E002E002E002E001E002E002E051
:1030700002E001E002E002E002E002E002E002E041
:1030800002E002E002E002E002E002E002E002E030
:1030900002E002E002E002E002E002E002E002E020
:1030A00002E002E002E002E002E002E001E002E011
:1030B00001E021E042E381D801FF83FEC1FEE1FE91
:1030C000E1FE00FF20D122F522D841D002E002E04B
:1030D00002E002E002E002E002E002E002E002E0E0
:1030E00002E002E002E002E002E002E002E002E0D0
:1030F00002E002E002E002E002E002E002E002E0C0
:1031000002E002E002E002E002E002E002E002E0AF
:1031100002E002E002E002E002E002E002E002E09F
:1031200002E002E002E002E002E002E002E002E08F
:1031300002E002E002E002E002E002E002E002E07F
:1031400002E002E002E002E002E002E002E002E06F
:1031500002E002E002E002E002E002E002E002E05F
:1031600002E002E001E002E001E001E002E002E052
:1031700002E001E002E002E002E002E002E002E040
:1031800002E002E002E002E002E002E002E002E02F
:1031900002E002E002E002E002E002E002E002E01F
:1031A00002E002E002E002E002E002E002E802E007
:1031B00022E001E020D101E0C1FEE2F400FF00F7CF
:1031C00000FF00FFA3EC82FE00D1A1DA21E061D86C
:1031D00002E002E002E002E002E002E002E002E0DF
:1031E00002E002E002E002E002E002E002E002E0CF
:1031F00002E002E002E002E002E002E002E002E0BF
:1032000002E002E002E002E002E002E002E002E0AE
:1032100002E002E002E002E002E002E002E002E09E
:1032200002E002E002E002E002E002E002E002E08E
:1032300002E002E002E002E002E002E002E002E07E
:1032400002E002E002E002E002E002E002E002E06E
:1032500002E002E002E002E002E002E002E002E05E
:1032600002E002E021D802E082D8C2E002E802E0F7
:1032700002E022E002E002E002E002E002E002E01E
:1032800002E002E002E002E002E002E002E002E02E
:1032900002E002E002E002E002E002E002E002E01E
:1032A00002E002E002E002E002E002E002E002E00E
:1032B00001E002E0A1D021E0C1FE01E4E0FE00FF58
:1032C00000FF01FFC2FE01FF03FD43FE22D903EB15
:1032D00002E042E002E002E002E002E002E002E09E
:1032E00002E002E002E002E002E002E002E002E0CE
:1032F00002E002E002E002E002E002E002E002E0BE
:1033000002E002E002E002E002E002E002E002E0AD
:1033100002E002E002E002E002E002E002E002E09D
:1033200002E002E002E002E002E002E002E002E08D
:1033300002E002E002E002E002E002E002E002E07D
:1033400002E002E002E002E002E002E002E002E06D
:1033500002E002E002E002E002E002E002E002E05D
:1033600002E002E081D802E0A2D9C4EA02E842E029
:1033700002E002E002E002E002E002E002E002E03D
:1033800002E002E002E002E002E002E002E002E02D
:1033900002E002E002E002E002E002E002E002E01D
:1033A00002E002E002E002E002E002E001E002E00E
:1033B00021E021E021DA61D8E1FEA2F500FF00FF63
:1033C000E0FE00FFC2FEC1FE44FD43FEC3E1C5EBCB
:1033D00002E062E002E002E002E002E002E002E07D
:1033E00002E002E002E002E002E002E002E002E0CD
:1033F00002E002E002E002E002E002E002E002E0BD
:1034000002E002E002E002E002E002E002E002E0AC
:1034100002E002E002E002E002E002E002E002E09C
:1034200002E002E002E002E002E002E002E002E08C
:1034300002E002E002E002E002E002E002E002E07C
:1034400002E002E002E002E002E002E002E002E06C
:1034500002E002E002E002E002E002E002E002E05C
:1034600002E002E040D901E062EBE4F422E081D81E
:1034700002E002E002E002E002E002E002E002E03C
:1034800002E002E002E002E002E002E002E002E02C
:1034900002E002E002E002E002E002E002E002E01C
:1034A00002E002E002E002E002E002E001E002E00D
:1034B00041D822E0E3F481D9E2FEC2FEE0FEE1FE63
:1034C000E2FEE0FE61E362F540D920DA21D8A1D81E
:1034D00002E022E002E002E002E002E002E002E0BC
:1034E00002E002E002E002E002E002E002E002E0CC
:1034F00002E002E002E002E002E002E002E002E0BC
:1035000002E002E002E002E002E002E002E002E0AB
:1035100002E002E002E002E002E002E002E002E09B
:1035200002E002E002E002E002E002E002E002E08B
:1035300002E002E002E002E002E002E002E002E07B
:1035400002E002E002E002E002E002E002E002E06B
:1035500002E002E002E002E002E002E002E002E05B
:1035600001E002E861DA41D802FD44FE02E001D93F
:1035700002E002E002E002E002E002E002E002E03B
:1035800002E002E002E002E002E002E002E002E02B
:1035900002E002E002E002E002E002E002E002E01B
:1035A00002E002E002E002E002E002E021E002E0EC
:1035B00001D922E044FE24F4A2F522FE81FE61F549
:1035C000C2FEE1FEA0D841DB21E041E002E022E0C2
:1035D00002E002E002E002E002E002E002E002E0DB
:1035E00002E002E002E002E002E002E002E002E0CB
:1035F00002E002E002E002E002E002E002E002E0BB
:1036000002E002E002E002E002E002E002E002E0AA
:1036100002E002E002E002E002E002E002E002E09A
:1036200002E002E002E002E002E002E002E002E08A
:1036300002E002E002E002E002E002E002E002E07A
:1036400002E002E002E002E002E002E002E002E06A
:1036500002E002E002E002E002E002E002E001E05B
:1036600002E002E0E2EB80D022FEE3FE21D821DA84
:1036700002E002E802E002E002E002E002E002E032
:1036800002E002E002E002E002E002E002E002E02A
:1036900002E002E002E002E002E002E002E002E01A
:1036A00002E002E002E002E002E002E021E002E0EB
:1036B000E3E941D862E3A4F360D941DA62E460D17E
:1036C00083FEC3FE41E081E202E002E002E002E0AC
:1036D00002E002E002E002E002E002E002E002E0DA
:1036E00002E002E002E002E002E002E002E002E0CA
:1036F00002E002E002E002E002E002E002E002E0BA
:1037000002E002E002E002E002E002E002E002E0A9
:1037100002E002E002E002E002E002E002E002E099
:1037200002E002E002E002E002E002E002E002E089
:1037300002E002E002E002E002E002E002E002E079
:1037400002E002E002E002E002E002E002E002E069
:1037500002E002E002E002E002E002E002E002E059
:1037600022E002E062FD40D9A1FEE1FE61D8C2EB99
:1037700002E002E002E002E002E002E002E001E03A
:1037800002E002E002E002E002E002E002E002E029
:1037900002E002E002E002E002E002E002E002E019
:1037A00002E002E002E002E002E002E002E002E009
:1037B00082D822E061D8A1D821E041D8E0D141D817
:1037C00064FE84FD21E021DA02E002E002E002E092
:1037D00002E002E002E002E002E002E002E002E0D9
:1037E00002E002E002E002E002E002E002E002E0C9
:1037F00002E002E002E002E002E002E002E002E0B9
:1038000002E002E002E002E002E002E002E002E0A8
:1038100002E002E002E002E002E002E002E002E098
:1038200002E002E002E002E002E002E002E002E088
:1038300002E002E002E002E002E002E002E002E078
:1038400002E002E002E002E002E002E002E002E068
:1038500002E002E002E002E002E002E002E002E058
:1038600021D802E062FE80E2C1FE01FF01D943F5EA
:1038700002E002E002E002E002E002E002E002E038
:1038800002E002E002E002E002E002E002E002E028
:1038900002E002E002E002E002E002E002E002E018
:1038A00002E002E002E002E002E002E002E002E008
:1038B00021E001E022E022E022E002E080D002E00C
:1038C00084FD02E321E0C1D902E002E002E002E06F
:1038D00002E002E002E002E002E002E002E002E0D8
:1038E00002E002E002E002E002E002E002E002E0C8
:1038F00002E002E002E002E002E002E002E002E0B8
:1039000002E002E002E002E002E002E002E002E0A7
:1039100002E002E002E002E002E002E002E002E097
:1039200002E002E002E002E002E002E002E002E087
:1039300002E002E002E002E002E002E002E002E077
:1039400002E002E002E002E002E002E002E002E067
:1039500002E002E002E002E002E002E002E802E04F
:1039600080D822E0C1FE22F401FF00FF41E223FEE5
:1039700002E021D802E002E002E002E002E002E020
:1039800002E002E002E002E002E002E002E002E027
:1039900002E002E002E002E002E002E002E002E017
:1039A00002E002E002E002E002E002E002E802E0FF
:1039B00002E001E002E002E002E822E021D802E0B9
:1039C00065F3E1D822E042E102E002E002E002E039
:1039D00002E002E002E002E002E002E002E002E0D7
:1039E00002E002E002E002E002E002E002E002E0C7
:1039F00002E002E002E002E002E002E002E002E0B7
:103A000002E002E002E002E002E002E002E002E0A6
:103A100002E002E002E002E002E002E002E002E096
:103A200002E002E002E002E002E002E002E002E086
:103A300002E002E002E002E002E002E002E002E076
:103A400002E002E002E002E002E002E002E002E066
:103A500002E002E002E002E002E002E002E001E057
:103A600060D921D8E1FE62FDE0FE00FFC2EBA2FEBC
:103A700022E0A1D802E002E002E802E002E002E077
:103A800002E002E002E002E002E002E002E002E026
:103A900002E002E002E002E002E002E002E002E016
:103AA00002E002E002E002E002E002E002E002E006
:103AB00002E002E802E001E002E001E001E002E0F1
:103AC000C2D822E022E082D802E002E002E002E076
:103AD00002E002E002E002E002E002E002E002E0D6
:103AE00002E002E002E002E002E002E002E001E0C7
:103AF00002E002E002E002E002E002E002E002E0B6
:103B000002E002E002E002E002E002E002E002E0A5
:103B100002E002E002E002E002E002E002E002E095
:103B200002E002E002E002E002E002E002E002E085
:103B300002E002E002E002E002E002E002E002E075
:103B400002E002E002E002E002E002E002E002E065
:103B500002E002E002E002E002E002E022E002E035
:103B6000E1E240D8E0FE42FE00F700FF42F5E1FE50
:103B700022E061D902E801E022E002E002E001E097
:103B800002E002E002E002E002E002E002E002E025
:103B900002E002E002E002E002E002E002E002E015
:103BA00002E002E002E002E002E002E002E002E005
:103BB00002E002E002E002E002E002E002E002E0F5
:103BC00002E002E002E022E002E002E002E002E0C5
:103BD00002E002E001E002E042E041E001E021E039
:103BE00002E021E002E002E002E002E002E022E086
:103BF00002E001E002E002E802E002E002E002E0AE
:103C000002E002E002E002E002E002E002E002E0A4
:103C100002E002E002E002E002E002E002E002E094
:103C200002E002E002E002E002E002E002E002E084
:103C300002E002E002E002E002E002E002E002E074
:103C400002E002E002E002E002E002E002E002E064
:103C500002E002E002E002E001E002E002E002E055
:103C600042ECC1D8E0FEC1FE00FF00FF43FEE0FED3
:103C700041D861DA01E001E002E002E002E002E0A6
:103C800002E002E002E002E002E002E002E002E024
:103C900002E002E002E002E002E002E002E002E014
:103CA00002E002E002E002E002E002E002E002E004
:103CB00002E002E002E002E002E002E002E002E0F4
:103CC00002E002E002E002E002E002E002E002E0E4
:103CD00001E002E001E002E0A2E161E041D841D967
:103CE00001E022E022E021E002E001E002E022E047
:103CF00003E822E002E002E002E002E002E002E08B
:103D000002E002E002E002E002E002E002E002E0A3
:103D100002E002E002E002E002E002E002E002E093
:103D200002E002E002E002E002E002E002E002E083
:103D300002E002E002E002E002E002E002E002E073
:103D400002E002E002E002E002E002E002E002E063
:103D500002E002E002E002E001E002E021E002E035
:103D6000A2FD81D100FFE0FE00FFE0FEC2FE00FFE9
:103D7000A0D801EC22E002E002E002E002E002E072
:103D800002E002E002E002E002E002E002E002E023
:103D900002E002E002E002E002E002E002E002E013
:103DA00002E002E002E002E002E002E002E002E003
:103DB00002E002E002E002E002E002E002E002E0F3
:103DC00002E002E002E002E002E002E002E002E0E3
:103DD00001E001E022E002E043EB61D860D103F4AE
:103DE00002E041D822E022E021D981D822E002E19C
:103DF00002E802E002E002E002E002E002E002E0AB
:103E000002E002E002E002E002E002E002E002E0A2
:103E100002E002E002E002E002E002E002E002E092
:103E200002E002E002E002E002E002E002E002E082
:103E300002E002E002E002E002E002E002E002E072
:103E400002E002E002E002E002E002E002E002E062
:103E500002E002E002E002E002E002E041D802E01B
:103E600082FEE1E200FF00FF00FFE0FEE1FE00FF56
:103E700060D983FD01E002E002E002E002E002E03E
:103E800002E002E002E002E002E002E002E002E022
:103E900002E002E002E002E002E002E002E002E012
:103EA00002E002E002E002E002E002E002E002E002
:103EB00002E002E002E002E002E002E002E002E0F2
:103EC00002E002E002E002E002E002E002E002E0E2
:103ED00002E002E001D802E0E2E261D8A2F424FEAE
:103EE00061D880D160D981D865FC21E341E003EA43
:103EF00001E022E002E002E002E002E002E002E093
:103F000002E002E002E002E002E002E002E002E0A1
:103F100002E002E002E002E002E002E002E002E091
:103F200002E002E002E002E002E002E002E002E081
:103F300002E002E002E002E002E002E002E002E071
:103F400002E002E002E002E002E002E002E002E061
:103F500002E002E002E002E002E002E0C0D802E09B
:103F6000E2FE82F400FF00FF00FF01FF00FF00FF00
:103F7000C1E262FE01E021D802E002E002E002E0DC
:103F800002E002E002E002E002E002E002E002E021
:103F900002E002E002E002E002E002E002E002E011
:103FA00002E002E002E002E002E002E002E002E001
:103FB00002E002E002E002E002E002E002E002E0F1
:103FC00002E002E002E002E002E002E002E002E0E1
:103FD00002E002E022E002E062E221D8A2FE42FE1C
:103FE00080D203F522F542EBC4F463FE21D8E0D081
:103FF00002E022E802E002E002E002E002E002E089
:1040000002E002E002E002E002E002E002E002E0A0
:1040100002E002E002E002E002E002E002E002E090
:1040200002E002E002E002E002E002E002E002E080
:1040300002E002E002E002E002E002E002E002E070
:1040400002E002E002E002E002E002E002E002E060
:1040500002E002E002E002E002E002E080D921D8C2
:10406000E1FEC2FD00FF00FF00FFE0FE00FFE0FEFA
:1040700063ECA1FE01E0A0D002E002E002E002E079
:1040800002E002E002E002E002E002E002E002E020
:1040900002E002E002E002E002E002E002E002E010
:1040A00002E002E002E002E002E002E002E002E000
:1040B00002E002E002E002E002E002E002E002E0F0
:1040C00002E002E002E002E002E002E002E002E0E0
:1040D00002E002E002E002E0A1D901E0E1FEE2FD3F
:1040E00022F6C2FEC2FE82FEA1E243FE22E041D8D9
:1040F00002E002E002E002E002E002E002E002E0B0
:1041000002E002E002E002E002E002E002E002E09F
:1041100002E002E002E002E002E002E002E002E08F
:1041200002E002E002E002E002E002E002E002E07F
:1041300002E002E002E002E002E002E002E002E06F
:1041400001E002E002E002E002E002E002E002E060
:1041500002E002E002E002E002E002E022E361D0DD
:1041600001FF62FE00FFE0FE00FF00FF00FF00FF16
:1041700082F5E1FE21E080D902E002E002E002E007
:1041800002E002E002E002E002E002E002E002E01F
:1041900002E002E002E001E002E002E002E001E011
:1041A00002E002E002E002E002E002E002E002E0FF
:1041B00002E002E002E002E002E002E002E002E0EF
:1041C00002E002E002E002E002E002E002E002E0DF
:1041D00002E002E021E001E000D261D8E0FEC2F599
:1041E00001F701FFE2FEC1FE20D9E2F402E021D88E
:1041F00001E002E802E002E002E002E002E002E0A8
:1042000002E002E002E002E002E002E002E002E09E
:1042100002E002E002E002E002E002E002E002E08E
:1042200002E002E002E002E002E002E002E002E07E
:1042300002E002E002E002E001E022E021E001D839
:1042400002E022E002E002E021E021E021E021E0C2
:1042500021E021E021D821E040D821D8C3F4E0D0EA
:10426000E0FEC1FE00FF00FF00FF00FF00FF00FFB7
:1042700082FE00FF81D801E322E021D821E002E0A4
:1042800001E021E022E001E001D822E022E021E08B
:1042900022E002E021E022D822E021D822E802E058
:1042A00002E001E002E002E002E002E002E002E0FF
:1042B00002E002E002E002E002E002E002E002E0EE
:1042C00002E002E002E002E002E002E002E002E0DE
:1042D00022E002E001D941D802EDA1DAE0FEA1FE20
:1042E000E0FE00FFC1FE01FF80D880DB23E822D87A
:1042F00001E002E002E001E002E002E002E002E0B0
:1043000002E002E002E002E002E002E002E002E09D
:1043100002E002E002E002E002E002E002E002E08D
:1043200002E002E002E002E002E002E002E002E07D
:1043300002E002E002E002E081D041D820D100D1C9
:1043400020D120D140D120D180D960D9C0D980D905
:10435000E0D9E0D900DA00DA60DA20DA02FE40DBE8
:10436000E0FEE1FE00FF00FF00FF00FF00FF00FF96
:10437000C1FE00FFA1DA01ED20DA40E2E0E100DA5F
:10438000C0D9E0D9A0D9A0D960D980D940D160D115
:1043900000D120D1C0D0E0C822E081D002E002E00C
:1043A00002E002E002E002E002E002E002E002E0FD
:1043B00002E002E002E002E002E002E002E002E0ED
:1043C00002E002E002E002E002E002E002E002E0DD
:1043D000A1D822E083F421DAE2FE23FEE0FEE1FE32
:1043E00000FF00FF01FF00FFE1D922F521E041D8E5
:1043F00002E022E002E002E002E002E002E002E08D
:1044000002E002E002E002E002E002E002E002E09C
:1044100002E002E002E002E002E002E002E002E08C
:1044200002E002E002E002E002E002E002E002E07C
:1044300002E002E021E002E045F3C2E0A4FD25FD38
:10444000C4FDC4FDE3FDE3FD03FEE3FD02FE02FE49
:1044500022FE02FE42FE42FE62FE42FEC1FEA2FEBD
:10446000E0FEE1FE00FFE0FE00FF00FF00FF00FFB6
:10447000E0FE00FF62FEE1FE61FE42FE42FE42FE01
:1044800022FE42FE02FE02FEE3FD02FEC4FDE3FD4B
:10449000C4FDC3FD86FC84FD42D844EA02E002E08C
:1044A00002E001E802E002E002E002E002E002E0F5
:1044B00002E002E002E002E002E002E002E002E0EC
:1044C00002E002E002E002E002E002E002E002E0DC
:1044D000E4E942E064FD65F4A2FE03FEE1FEC2FEF3
:1044E00000FF01FF01FF01FF03F5C2FE61D8C1D942
:1044F00002E022E002E001E002E002E002E002E08D
:1045000002E002E002E002E002E002E002E002E09B
:1045100002E002E002E002E002E002E002E002E08B
:1045200002E002E002E002E002E002E002E002E07B
:1045300002E002E001E002E020D921D843FEC2EB14
:10454000E1FEC2FEE1FEE1FEE0FEE0FEE0FEE0FE96
:1045500000FFE0FE00FF00FFE1FE00FFE0FE01FFC4
:1045600000FF00FF00FF20FF00FF00FF00FF00FF33
:1045700000FF00FF00FF00FF00FF01FFE0FEE0FE84
:10458000E0FE00FFE0FEE0FEE0FEE0FEE1FEE1FE18
:10459000A3FEE1FEA2E263FD22E0A0D002E002E081
:1045A00002E002E802E002E002E002E002E002E0F3
:1045B00002E002E002E002E002E002E002E002E0EB
:1045C00002E002E002E002E002E002E002E002E0DB
:1045D00060D822E0A1D9E1D801DB61E2A2FE82E449
:1045E000E1FEE1FE83FEA2FE83FEC3FE81E1C4F490
:1045F00022E842E002E002E002E002E002E002E043
:1046000002E002E002E002E002E002E002E002E09A
:1046100002E002E002E002E002E002E002E002E08A
:1046200002E002E002E002E002E002E002E002E07A
:1046300002E002E022E002E021D802E0E1E2C1D89B
:10464000C1FEA3FD00FF00FF00FF00FF00FF00FF11
:1046500000FF00FF00FF00FF00FF00FF01FFE0FE82
:1046600000FF00FF00FF00FF00FF00FF00FF00FF52
:1046700000FF00FF00FF00FFE0FE00FF00FF00FF63
:1046800000FF00FF00FF00FF00FF00FFE1FE00FF52
:10469000A3FC82FE61D8E0D902E022E002E002E859
:1046A00002E002E002E002E002E002E002E002E0FA
:1046B00002E002E002E002E002E002E002E002E0EA
:1046C00002E002E002E002E002E002E002E002E0DA
:1046D00002E002E021D801E081D822E003FEC0D14F
:1046E00062FE01FF61DAA1E382EBE1E2E4F203F4AE
:1046F00022E0C2E002E002E002E002E002E002E0CA
:1047000002E002E002E002E002E002E002E002E099
:1047100002E002E002E002E002E002E002E002E089
:1047200002E002E002E002E002E002E002E002E079
:1047300002E002E002E002E002E002E080D822E0D3
:10474000E3F401DAE1FE82FE00FF01FFE0FEE0FE9D
:10475000E0FEE0FE00FF00FF00FF00FF00FF00FFA3
:1047600000FF00FF00FF00FF00FF00FF00FF00FF51
:10477000E0FE00FF00FF00FF00FF00FF00FF00FF62
:1047800000FF00FFE0FEE0FEE0FE01FF22FEE1FE92
:1047900021D9E3EB02E041D802E002E002E002E0CE
:1047A00002E002E002E002E002E002E002E002E0F9
:1047B00002E002E002E002E002E002E002E002E0E9
:1047C00002E002E002E002E002E002E002E002E0D9
:1047D00002E002E002E001E022E002E043FDE0D07E
:1047E00002F5C2FE61D820D180D861D881D880D8A6
:1047F00002E021E002E002E002E002E002E002E08A
:1048000002E002E002E002E002E002E002E002E098
:1048100002E002E002E002E002E002E002E002E088
:1048200002E002E002E002E002E002E002E002E078
:1048300002E002E002E002E002E002E001E002E861
:1048400060D961D843FE02EC00FFE1FE00FF00FFEB
:1048500000FF00FFE0FEE0FE00FF00FF00FF00FFA2
:1048600000FF00FF00FF00FF00FF00FF00FF00FF50
:1048700000FF00FF00FF00FF00FF00FF00FF00FF40
:10488000E0FE00FF00FF00FFC2FEE1FEE1DAA2F55C
:1048900021E0C0D802E002E002E002E002E002E033
:1048A00002E002E002E002E002E002E002E002E0F8
:1048B00002E002E002E002E002E002E002E002E0E8
:1048C00002E002E002E002E002E002E002E002E0D8
:1048D00002E002E002E001E002E002E062F4A0D8BF
:1048E00081DA24FE02E061D821E021E001E001E06C
:1048F00002E002E002E002E002E002E002E002E0A8
:1049000002E002E002E002E002E002E002E002E097
:1049100002E002E002E002E002E002E002E002E087
:1049200002E002E002E002E002E002E002E002E077
:1049300002E002E002E002E002E002E002E802E857
:1049400021D802E0E1E2E0D0C1FEC3FDE0FEE0FEDE
:1049500000FFE0FE00FF00FFE0FEE0FE00FF00FFC2
:1049600000FF00FF00FF00FF00FF00FF00FF00FF4F
:1049700000FF00FF00FF00FF00FF00FF00FF00FF3F
:1049800000FF00FFC1FE00FFC2F482FE81D8E0D12B
:1049900002E021E002E001E002E002E002E002E0E9
:1049A00002E002E002E002E002E002E002E002E0F7
:1049B00002E002E002E002E002E002E002E002E0E7
:1049C00002E002E002E002E002E002E002E002E0D7
:1049D00002E002E002E001E002E002E042EB61D826
:1049E00001D964F402E022E002E022E002E002E009
:1049F00002E002E002E002E002E002E002E002E0A7
:104A000002E002E002E002E002E002E002E002E096
:104A100002E002E002E002E002E002E002E002E086
:104A200002E002E002E002E002E002E002E002E076
:104A300002E002E002E802E002E002E002E001E05F
:104A400002E002E081D802E023F520DA00FFA2FEB6
:104A5000E0FEE0FE00FF00FF00FF00FF00FF00FFA0
:104A600000FF00FF00FF00FF00FF00FF00FF00FF4E
:104A700000FF00FF00FF00FF00FF00FF00FF00FF3E
:104A800000FFE0FE23FEE1FE41D1C2EB01E061D870
:104A900002E002E002E001E002E002E002E002E007
:104AA00002E002E002E002E002E002E002E002E0F6
:104AB00002E002E002E002E002E002E002E002E0E6
:104AC00002E002E002E002E002E002E002E002E0D6
:104AD00002E002E001E001E002E802E0C2E141E0C0
:104AE00041D803E202E022E002E002E002E002E05C
:104AF00002E002E002E002E002E002E002E002E0A6
:104B000002E002E002E002E002E002E002E002E095
:104B100002E002E002E002E002E002E002E002E085
:104B200002E002E002E002E002E002E002E002E075
:104B300002E002E002E002E002E001E002E002E066
:104B400002E002E021E002E081D161D843FE02EC04
:104B5000E0FEE1FEE0FE00FF00FF00FF00FF00FFBF
:104B600000FF00FF00FF00FF00FF00FF00FF00FF4D
:104B700000FF00FF00FF00FFE0FE00FF00FFE0FE7F
:104B8000C2FEE0FEE2DAA3FD41D8E1D002E822E075
:104B900002E002E002E002E002E002E002E002E005
:104BA00002E002E002E002E002E002E002E002E0F5
:104BB00002E002E002E002E002E002E002E002E0E5
:104BC00002E002E002E002E002E002E002E002E0D5
:104BD00002E002E002E002E002E802E062E022E03D
:104BE00001D882E002E822E002E002E802E002E00E
:104BF00002E002E002E002E002E002E002E002E0A5
:104C000002E002E002E002E002E002E002E002E094
:104C100002E002E002E002E002E002E002E002E084
:104C200002E002E002E002E002E002E002E002E074
:104C300002E002E001E002E002E802E002E002E05D
:104C400002E002E002E002E021D822E001E300D924
:104C5000E1FEC3FDE1FE01FF00FF00FF00FF00FFDA
:104C600000FF00FF00FF00FF00FF00FF00FF00FF4C
:104C7000E0FE00FF00FF00FFE0FEE0FEE1FEE0FEE0
:104C8000E3F4A2FE81D800DA02E021E002E002E0D3
:104C900002E022E002E002E002E002E002E002E0E4
:104CA00002E002E002E002E002E002E002E002E0F4
:104CB00002E002E002E002E002E002E002E002E0E4
:104CC00002E002E002E002E002E002E002E002E0D4
:104CD00002E002E001E002E002E002E002E002E0C5
:104CE00002E021E001E002E002E002E002E002E096
:104CF00002E002E002E002E002E002E002E002E0A4
:104D000002E002E002E002E002E002E002E002E093
:104D100002E002E002E002E002E002E002E002E083
:104D200002E002E002E002E002E002E002E002E073
:104D300002E002E002E002E002E002E002E002E063
:104D400002E002E002E002E002E002E080D021E0C6
:104D500003F562DA01FFA2FE00FF00FF00FF00FF83
:104D600000FF00FF00FF00FF00FF00FF00FF00FF4B
:104D7000E0FE00FF00FF00FF00FF00FF22FEE1FE5B
:104D800061D922EC22E041D802E002E002E002E038
:104D900002E002E002E002E002E002E002E002E003
:104DA00002E002E002E002E002E002E002E002E0F3
:104DB00002E002E002E002E002E002E002E002E0E3
:104DC00002E002E002E002E002E002E002E002E0D3
:104DD00002E002E002E002E002E002E002E002E0C3
:104DE00002E002E002E002E002E002E002E002E0B3
:104DF00002E002E002E002E002E002E002E002E0A3
:104E000002E002E002E002E002E002E002E002E092
:104E100002E002E002E002E002E002E002E002E082
:104E200002E002E002E002E002E002E002E002E072
:104E300002E002E002E002E002E002E002E002E062
:104E400002E002E002E002E002E002E022E022E012
:104E500080D141D8A2F662EC00FFE1FE00FF00FF26
:104E600000FF00FF00FF00FF00FF00FF00FF00FF4A
:104E700000FF00FFE0FE00FFE0FE00FF02E3E2FDB6
:104E800022D8E0D802E802E002E021E002E002E0FD
:104E900002E002E002E002E002E002E002E002E002
:104EA00002E002E002E002E002E002E002E002E0F2
:104EB00002E002E002E002E002E002E002E002E0E2
:104EC00002E002E002E002E002E002E002E002E0D2
:104ED00002E002E002E002E002E002E002E002E0C2
:104EE00002E002E002E002E002E002E002E002E0B2
:104EF00002E002E002E002E002E002E002E002E0A2
:104F000002E002E002E002E002E002E002E002E091
:104F100002E002E002E002E002E002E002E002E081
:104F200002E002E002E002E002E002E002E002E071
:104F300002E002E002E002E002E002E002E002E061
:104F400002E002E002E002E002E002E002E002E051
:104F500060D822E802FEE0D100FFE1FE00FF00FF82
:104F600000FF00FF00FF00FF00FF00FF00FF00FF49
:104F7000E0FEE0FEE0FE00FFC0FE00FFE0D0C1EC7E
:104F800002E042E002E802E802E001E002E002E0C2
:104F900002E002E002E002E002E002E002E002E001
:104FA00002E002E002E002E002E002E002E002E0F1
:104FB00002E002E002E002E002E002E002E002E0E1
:104FC00002E002E002E002E002E002E002E002E0D1
:104FD00002E002E002E002E002E002E002E002E0C1
:104FE00002E002E002E002E002E002E002E002E0B1
:104FF00002E002E002E002E002E002E002E002E0A1
:1050000002E002E002E002E002E002E002E002E090
:1050100002E002E002E002E002E002E002E002E080
:1050200002E002E002E002E002E002E002E002E070
:1050300002E002E002E002E002E002E002E002E060
:1050400002E002E002E002E002E002E002E002E050
:1050500061D801E062FE61DA00FF00FF00FF00FF9F
:1050600000FFE0FE00FF00FF00FF00FF00FF00FF69
:1050700000FF00FFE0FE00FF01FF00FF00D143FD45
:1050800002E001E002E001E002E022E002E002E0F2
:1050900002E002E002E002E002E002E002E002E000
:1050A00002E002E002E002E002E002E002E002E0F0
:1050B00002E002E002E002E002E002E002E002E0E0
:1050C00002E002E002E002E002E002E002E002E0D0
:1050D00002E002E002E002E002E002E002E002E0C0
:1050E00002E002E002E002E002E002E002E002E0B0
:1050F00002E002E002E002E002E002E002E002E0A0
:1051000002E002E002E002E002E002E002E002E08F
:1051100002E002E002E002E002E002E002E002E07F
:1051200002E002E002E002E002E002E002E002E06F
:1051300002E002E002E002E002E002E002E002E05F
:1051400002E002E002E002E002E002E002E002E04F
:10515000A1D802E0E2FE02EC00FF00FF00FF00FF2A
:1051600000FF00FF00FF00FF00FF00FF00FF00FF47
:1051700000FF00FF00FF00FFE0F600FF01E223FE5A
:1051800002E022E002E022E802E002E002E002E0C7
:1051900002E002E002E002E002E002E002E002E0FF
:1051A00002E002E002E002E002E002E002E002E0EF
:1051B00002E002E002E002E002E002E002E002E0DF
:1051C00002E002E002E002E002E002E002E002E0CF
:1051D00002E002E002E002E002E002E002E002E0BF
:1051E00002E002E002E002E002E002E002E002E0AF
:1051F00002E002E002E002E002E002E002E002E09F
:1052000002E002E002E002E002E002E002E002E08E
:1052100002E002E002E002E002E002E002E002E07E
:1052200002E002E002E002E002E002E002E002E06E
:1052300002E002E002E002E002E002E002E002E05E
:1052400002E002E002E002E002E002E002E002E04E
:1052500020D921E0E1FE63FD00FF00FFE0FE00FF3A
:1052600000FF00FF00FF00FF00FF00FF00FF00FF46
:1052700000FF00FFE0FE00FF00FFE0FEC2EBA2FE29
:1052800002E061D802E002E002E002E002E002E0B7
:1052900002E002E002E002E002E002E002E002E0FE
:1052A00002E002E002E002E002E002E002E002E0EE
:1052B00002E002E002E002E002E002E002E002E0DE
:1052C00002E002E002E002E002E002E002E002E0CE
:1052D00002E002E002E002E002E002E002E002E0BE
:1052E00002E001E002E002E002E002E002E002E0AF
:1052F00002E002E002E002E002E002E002E002E09E
:1053000002E002E002E002E002E002E002E002E08D
:1053100002E002E002E002E002E002E002E002E07D
:1053200002E002E002E002E002E002E002E002E06D
:1053300002E002E002E002E002E002E002E002E05D
:1053400002E002E002E002E002E002E002E002E04D
:1053500021E241D8E1FE42FE00FF00FFE0FEE0FE58
:10536000E0FEE0FEE0FEE0FE00FF00FF00FF00FFC9
:1053700000FFE0FEE0FE00FF00FF00FF02F5E1FE9F
:1053800022E0E0D002E002E002E002E002E002E01F
:1053900002E002E002E002E002E002E002E002E0FD
:1053A00002E002E002E002E002E002E002E002E0ED
:1053B00002E002E002E002E002E002E002E002E0DD
:1053C00002E002E002E002E002E002E002E002E0CD
:1053D00002E002E002E002E002E002E002E002E0BD
:1053E00002E002E002E802E002E002E002E002E0A5
:1053F00002E002E002E002E002E002E002E002E09D
:1054000002E002E002E002E002E002E002E002E08C
:1054100002E002E002E002E002E002E002E002E07C
:1054200002E002E002E002E002E002E002E002E06C
:1054300002E002E002E002E002E002E002E002E05C
:1054400002E002E002E002E002E002E002E002E04C
:10545000A2EB61D000FFA2FEE0FE00FF00FF00FF14
:1054600000FF00FFE1FE00FF01FFE0F600FF01FF8B
:1054700000FF00FF00FF00FF00FF00FFE2FDE0FE75
:1054800022E0E1D902E002E002E002E002E002E014
:1054900002E002E002E002E002E002E002E002E0FC
:1054A00002E002E002E002E002E002E002E002E0EC
:1054B00002E002E002E002E002E002E002E002E0DC
:1054C00002E002E002E002E002E002E002E002E0CC
:1054D00002E002E002E002E002E002E022E002E09C
:1054E00041E002E001E022E002E002E002E002E04E
:1054F00002E002E002E002E002E002E002E002E09C
:1055000002E002E002E002E002E002E002E002E08B
:1055100002E002E002E002E002E002E002E002E07B
:1055200002E002E002E002E002E002E002E002E06B
:1055300002E002E002E002E002E002E002E002E05B
:1055400002E002E002E002E002E002E002E002E04B
:1055500002F5E0D000FFC1FE00FF00FFE0FE00FF0B
:10556000E0FE00FFE1FEE1FEC1FEC1FE00FFC1FE64
:1055700000FF00FF00FF00FF00FF00FF81FE00FFB3
:1055800061D821EB02E002E002E001E002E002E08B
:1055900002E002E002E002E002E002E002E002E0FB
:1055A00002E002E002E002E002E002E002E002E0EB
:1055B00002E002E002E002E002E002E002E002E0DB
:1055C00002E002E002E002E002E002E002E002E0CB
:1055D00001E002E002E002E002E002E002E002E0BC
:1055E00042E142D801E062E002E802E002E002E0CB
:1055F00002E002E002E002E802E002E002E002E093
:1056000002E002E002E002E002E002E002E002E08A
:1056100002E002E002E002E002E002E002E002E07A
:1056200002E002E002E002E002E002E002E002E06A
:1056300002E002E002E002E002E002E002E002E05A
:1056400002E002E002E002E002E002E021D802E033
:1056500002FEE0D900FFE1FE00FF00FFE0FEE0FEF9
:10566000E0FE00FFC2FDC2FE62ECE1E3E1FE43FEAC
:1056700000FF00FF00FF00FF00FF00FFE1FE00FF52
:10568000C1D862F402E822E002E002E002E002E0B7
:1056900002E002E002E002E002E002E002E002E0FA
:1056A00002E002E002E002E002E002E002E002E0EA
:1056B00002E002E002E002E002E002E002E002E0DA
:1056C00002E002E002E002E002E002E002E002E0CA
:1056D00002E002E002E002E002E002E022E002E09A
:1056E00084F362E121E0C1D802E802E002E002E0D6
:1056F00002E002E002E002E802E002E002E002E092
:1057000002E002E002E002E002E002E002E002E089
:1057100002E002E002E002E002E002E002E002E079
:1057200002E002E002E002E002E002E002E002E069
:1057300002E002E002E002E002E002E002E002E059
:1057400002E002E002E002E002E002E040D802E013
:1057500082FE21E300FFE0FE00FF00FF00FFE0FE0D
:1057600083FEE1FE01DAA2ECE1D080D0A3F502E3F2
:1057700001FFC2FE00FF00FF00FF00FFE1FE00FF8F
:1057800080D9A2FD02E822E002E002E002E002E0AD
:1057900002E002E002E002E002E002E002E002E0F9
:1057A00002E002E002E002E002E002E002E002E0E9
:1057B00002E002E002E002E002E002E002E002E0D9
:1057C00002E002E002E002E002E002E002E002E0C9
:1057D00002E002E802E002E002E002E040D802E07B
:1057E00085FDE2E221E0E0D902E002E002E002E031
:1057F00002E002E002E002E002E002E002E002E099
:1058000002E002E002E002E002E002E002E002E088
:1058100002E002E002E002E002E002E002E002E078
:1058200002E002E002E002E002E002E002E002E068
:1058300002E002E002E002E002E002E002E002E058
:1058400002E002E002E002E002E002E0C0D802E092
:10585000C1FE61EC00FF00FF00FF00FFC1FE00FF82
:1058600062E3E3FD42D841D121E021D8E1D981D8DA
:1058700062FE82F400FFE1FE00FF00FFE0FE00FF99
:1058800081E283FE01E041E002E022E002E002E08A
:1058900002E002E002E002E002E002E002E002E0F8
:1058A00002E002E002E002E002E002E002E002E0E8
:1058B00002E002E002E002E002E002E002E002E0D8
:1058C00002E002E002E002E002E002E002E002E0C8
:1058D00002E002E002E002E002E002E0E0D021E0CB
:1058E00083FE62EC61D8A2EB02E001E002E002E09C
:1058F00002E002E002E002E002E002E002E002E098
:1059000002E002E002E002E002E002E002E002E087
:1059100002E002E002E002E002E002E002E002E077
:1059200002E002E002E002E002E002E002E002E067
:1059300002E002E002E002E002E002E002E002E057
:1059400002E002E001E002E002E002E081D922E0B0
:10595000E1FEA2FD00FF00FFE1FE01FF03F5A2FE54
:10596000A1D841DA02E041E002E002E041D822E0C1
:1059700061EB00D1E1FEC2FDE0FEE0FE01FF01FFB0
:1059800002ECE2FE02E080D801E022E002E002E068
:1059900002E002E002E002E002E002E002E002E0F7
:1059A00002E002E002E002E002E002E002E002E0E7
:1059B00002E002E002E002E002E002E002E002E0D7
:1059C00002E002E002E002E002E002E002E002E0C7
:1059D00001E002E021D821E021D821D8C1D941D865
:1059E000E2FEA3FD01D1E3F421D821D821E021E09A
:1059F00002E002E002E002E802E002E002E002E08F
:105A000002E002E002E002E002E002E002E002E086
:105A100002E002E002E002E002E002E002E002E076
:105A200002E002E002E002E002E002E002E002E066
:105A300002E002E002E002E002E002E002E002E056
:105A400002E002E001E002E002E002E081E241D88F
:105A500001FF83FEE0FE01FF23FEC1FE61D9E2EB00
:105A600022E041D802E002E002E002E002E002E0CF
:105A700081D021D8E2F441DAE1FEA3FE01FF01FF6B
:105A800083F5E1F622E000D102E002E002E001E06D
:105A900002E002E002E002E002E002E002E002E0F6
:105AA00002E002E002E002E002E002E002E002E0E6
:105AB00002E002E002E002E002E002E002E002E0D6
:105AC00002E002E002E002E002E002E002E002E0C6
:105AD00061E002E001E282E121DA01E2E1E341DAA0
:105AE000E1FEA3FE21E302F6C1D901DA81D9C1D9D1
:105AF00041E022E102E001E002E002E002E002E037
:105B000002E002E002E002E002E002E002E002E085
:105B100002E002E002E002E002E002E002E002E075
:105B200002E002E002E002E002E002E002E002E065
:105B300002E002E002E002E002E002E002E002E055
:105B400001E002E002E002E002E022E002EC81D8A3
:105B5000E0FEC1FE83FE01FF81DA43FD22E0C0D8F2
:105B600002E002E002E002E002E002E002E002E025
:105B700022E002E040D941D803FEA2EBE0FEE1FEC4
:105B800062FE00FF21D841DA01E002E002E002E01B
:105B900002E002E002E002E002E002E002E002E0F5
:105BA00002E002E002E002E002E002E002E002E0E5
:105BB00002E002E002E002E002E002E002E002E0D5
:105BC00002E002E002E002E002E002E002E002E0C5
:105BD00081D802E005FD84EA03FEE3FD81F622FEA2
:105BE000E1FEE1FE41FE01FF02FE02FEA5FCA3FD77
:105BF00041D823E202E022E002E002E002E002E01B
:105C000002E002E002E002E002E002E002E002E084
:105C100002E002E002E002E002E002E002E002E074
:105C200002E002E002E002E002E002E002E002E064
:105C300002E002E002E002E002E002E002E002E054
:105C400002E002E002E003E002E002E083FD40D176
:105C5000C1FEE1FE22EC22FE61D880D102E002E02A
:105C600002E022E002E001E002E002E002E002E005
:105C700001E002E021D801E081DAA1D8A2FE23F5FB
:105C8000A1FE01FF60D802EC02E002E002E002E0C7
:105C900002E002E002E002E002E002E002E002E0F4
:105CA00002E002E002E002E002E002E002E002E0E4
:105CB00002E002E002E002E002E002E002E002E0D4
:105CC00002E002E002E002E002E002E002E002E0C4
:105CD00022E002E0C2E2A1D8C2FE84FD00FFE1FEA4
:105CE000E0FE00FF01FF00FF83FEE2FE42E224F53A
:105CF00022E082D802E002E802E002E002E002E0F4
:105D000002E002E002E002E002E002E002E002E083
