:020000040000FA
:10000000FC0F0020D50000008919000049150000F0
:10001000DD000000DF000000E10000000000000043
:10002000000000000000000000000000871A00002F
:10003000E5000000000000007D1A0000A100002083
:10004000EB000000EB000000611D00009D1D0000A2
:10005000AB000020951B00009D1B0000EB00000082
:10006000EB000000EB000000351E0000EB0000007C
:10007000EB0000005109000059090000EB000000EE
:100080007F1A000095310000EB0000001F0B0000FC
:10009000EB000000EB000000EB000000EB000000B4
:1000A000EB000000EB000000EB000000EB000000A4
:1000B000210B0000EB00000049090000190A0000B4
:1000C0000348854600F016FC00480047FD3100005B
:1000D000FC0F002005480047FEE7FEE7FEE7FEE7CD
:1000E000FEE7FEE7FEE7FEE7FEE7FEE7C1000000F1
:1000F00030B50B46014600202022012409E00D46C0
:10010000D5409D4205D31D469540491B2546954047
:1001100040191546521E002DF1DC30BD70B500248B
:100120002546002801DA01244042002901DA012590
:100130004942FFF7DDFFAC4200D04042002C00D026
:10014000494270BD0321001D401E037812021A436C
:10015000491EF9D510467047F8B502464A40D40FFB
:1001600042004B0052085B089A4202D202460846FF
:1001700011464A0023D0C30D4A00DDB2120EAD1A5B
:10018000202D35DA49020126490AF6058A19002C84
:1001900000D0524220214F1B1146B9402A4110186D
:1001A000C20D9A4221D0002C17D0012D08DCDA05AF
:1001B000801AD20F8019D207DBB200F0CFFAF8BD57
:1001C000DA05801A012340001B06C01880185A4225
:1001D0008018CA0F1043490007E04908C2071143BD
:1001E000DA05801A80194008801800F0AFFAF8BDCF
:1001F00061000122511A001BF7E70122D20751408A
:10020000AAE70122D2075040A6E7024670B54A404D
:10021000D30FDB0740002DD04A002AD0010E140E68
:10022000000212020919400A520A8418E501044624
:100230005443000A120A2E045043A4194219200CF8
:10024000C543AA18120C0125AD03521C5219120401
:100250007F39240400D0521C104301D44000491EB1
:10026000C2B20C06C0092018401C4008802A02D0E7
:1002700003E0002070BD40084000002900DA0020A3
:10028000184370BDF0B507460846584087B0C00F08
:10029000049048000E46590040084908BC1A88419D
:1002A00005D2384631461E4617460B4602465800D0
:1002B000400810434CD0300D039040055900400DCC
:1002C000490D0590401A0290402872DA1803012166
:1002D000000B09050843019004980092002805D0FE
:1002E00001995242002088410092019002984021D9
:1002F0000A1A0199009800F0F5F905460C466B467C
:1003000007CB00F010FAC0197141039A0E0D0023BB
:10031000D71756401A467A40164344D0049A002A0A
:100320002DD0029A012A039A15DC1205C01A9141B8
:1003300001263605001C7141D20F059ED20700939D
:10034000019202962A46234600F04EFA07B0F0BD0D
:1003500038463146FAE71605224A0F46B218C01A47
:10036000B74101210905001C4F4100187F4111468A
:1003700018187941E20F10436D19644113E0E20748
:100380006D0815436408C2071443039A0126120539
:10039000C01A91413605001C7141CE074008304318
:1003A0004908C01851412A46234600F010FACDE70B
:1003B000FFE7049801224000C117121A00238B4165
:1003C00004983146C417381AA141EEE730B401242D
:1003D000E407634030BC55E730B40124E4076140D2
:1003E00030BC4FE70000E0FFF0B51FB488B00B99B8
:1003F0000998002448400999C00F4900490809910B
:10040000C0070B990090490049080B910999089879
:10041000A64608431CD00B990A98084318D009989F
:1004200001244000420D4800410D099824050003B5
:10043000000B204309900B980003000B20430B9006
:1004400050181C494018002201901446104605E03F
:10045000002001460DB0F0BD032801DA034600E09C
:1004600003239C46C11A0AAE0AE05F0008ADED5BAB
:100470004F00F75B7D430027AA187C41491C5B1E97
:100480006145F2DD410004AB5A522104120C0A43CB
:10049000240C401C0828DFDB01980290009970466C
:1004A00001910090059B049A0799069800F09CF929
:1004B000D0E700000DFCFFFFF0B50C465C4085B0B6
:1004C000E40FE40703944C000026640859009446A6
:1004D000490802460296224321D062460A431ED0B2
:1004E0006200570D4A000E032303550D01240246F6
:1004F0002C492405781B1B0B360B4018234326433D
:10050000614600901C46501AB44103D30098401C29
:10051000009002E0921800985B41002803DA002066
:10052000014605B0F0BD00200121090507468646B9
:1005300011E064461D46141BB54106D36546521BA7
:10054000B341744607430C43A646CD07400849080B
:10055000284392185B4105460D43EAD110461843E3
:1005600013D06046194650407140084306D060469B
:10057000101AB34106D20122002306E00022012313
:10058000DB0702E00122D2435310009874460105B4
:10059000381C6141029C039D0019694100F017F964
:1005A000BFE70000FD03000010B5002296231146AE
:1005B00000F0D4F810BD00000EB5C217C10F5040B6
:1005C000CA0740180021054B0293019200910A4688
:1005D0000B4600F009F903B000BD00003304000031
:1005E000C20F410040020123400ADB05D207090E79
:1005F000C0187F2901DA00207047962903DC962372
:10060000591AC84001E096398840002AF4D0404287
:100610007047000070B5CD0F4A0009030123090B94
:100620001B0519430B4BED070024520D9A4201DACA
:10063000002070BD074B34339A4203DC9A1A00F055
:1006400061F802E00449511888402C43F1D040423F
:1006500070BD0000FF030000CDFBFFFF0122D207A9
:10066000002800DB101A002900DB511A8142704774
:100670000122D207002800DB101A002900DB511AE2
:1006800088427047F0B51FB40646002082B0054688
:100690004024019100901BE0019922460F4630460C
:1006A00000F030F8049A059B801A994110D3104647
:1006B0001946224600F016F8361A8F410197224655
:1006C00001200021009F00F00DF838184D410090E6
:1006D0002046641E0028DFDC019B00982946324634
:1006E00007B0F0BD10B5202A04DB0146203A914046
:1006F000002010BD914020239C1A0346E34019437B
:10070000904010BD10B5202A04DB0846203AD040A6
:10071000002110BD0B46D340D0402024A21A9140A6
:100720000843194610BD10B5202A06DBCB17084632
:10073000203A1041C1170B4306E00B461341D0404D
:100740002024A21A91400843194610BD002904DA5A
:10075000401C490001D140084000704770B400249B
:10076000050C05D11024000402D1002921D0112448
:10077000050E01D100020834050F01D10001241D2E
:10078000850F01D18000A41C002801DB4000641CFF
:10079000002908D020252E1B0D46F540A14000D091
:1007A00001212943084301061B1B000ADB1D02D55A
:1007B000002070BC7047DB05181880180029F8DA93
:1007C000401C4900F5D170BC40084000704710B58E
:1007D000002B08DA0024401C614192185B411A4347
:1007E00001D14008400010BDF0B51FB482B00546ED
:1007F0000C0003D0084601F03DFB02E001F03AFB9B
:1008000020300246009021462846FFF76BFF049BEC
:10081000059A04460F4618431143084314D018465E
:1008200010431BD0009840210A1A18460599FFF77B
:1008300069FF05460E46009A05990498FFF752FF96
:10084000084305D0012004E02046394607B0F0BD3A
:100850000020C11705430E432C43374300990E98DF
:100860006305401A7905E40A00220C43FD0A0A30A8
:1008700002D500200146E9E70105101969410C9CE9
:100880000D9D00196941FFF7A2FFDFE74A00090348
:100890000123090B1B0519430A4B10B5520D9A424F
:1008A00002DA0020014610BD064B34339A4203DCC5
:1008B0009A1AFFF727FF10BD034BD218FFF712FF5C
:1008C00010BD0000FF030000CDFBFFFF10B50029A5
:1008D00004DB0124E40740428C412146002B04DB69
:1008E0001C460123DB075242A341994200D19042AA
:1008F00010BD0000064C0125064E05E0E36807CC5C
:100900002B430C3C98471034B442F7D3FFF7DCFB81
:10091000A4AC0400D4AC040003B40148019001BDB0
:10092000FD00002003B40148019001BD0101002039
:1009300003B40148019001BDB900002003B401488F
:10094000019001BD1901002010B502F02BF810BD77
:1009500010B500F075FD10BD7047000070B51B4E5E
:100960003046FFF7D9FF01252843044602F080FBFB
:1009700021463046FFF7D6FF144E083E3046FFF7BB
:10098000CBFF2843044602F073FB21463046FFF7B5
:10099000C9FF0E4E361D3046FFF7BEFFAD0228439D
:1009A000044602F065FB21463046FFF7BBFF074EC9
:1009B0000C363046FFF7B0FF2843044602F058FBE0
:1009C00021463046FFF7AEFF70BD00000C0002402C
:1009D00010B51921102001F0F7FF0448016810221A
:1009E0009143016002480068C0B210BD009401400C
:1009F0004090014010B51B21112001F0E5FF044893
:100A0000016820229143016002480068C0B210BD15
:100A100000940140809001407047000008B50D48E7
:100A200001684022114300910160416912031143A2
:100A300000914161009952101143009141610420DD
:100A400002F09BFB0021042002F09FFB042000F039
:100A5000A9FF08BD0060004000B50A4602F034FB63
:100A6000107000BD00B5012902D002F05DFB00BD91
:100A700002F06CFB00BD00B5012902D002F00CFBB6
:100A800000BD02F039FB00BDF8B584461046069F54
:100A9000079E18433ED0002A01DA554200E0154671
:100AA000002B01DA584200E01846002A03DB002B35
:100AB00005DD01240AE0002B05DB022406E0002A04
:100AC00003DC002B01DA032400E00424002D03D012
:100AD000A84203DD2D2002E0002000E05A20012C76
:100AE00006D0022C17D0032C17D0FF246934201A0B
:100AF000B84201DBB04205DDB7420BDDB84201DA96
:100B0000B04207DCC81881B26046801880B2089AEB
:100B100000F07AFBF8BDB424E9E7B430E8E77047A9
:100B200070470A4600B501461046FFF79BFF00BD1F
:100B300000B50349FFF790FF0148007800BD0000B1
:100B4000180000200A4600B501461046FFF793FF43
:100B500000BD00007CB50026434C0546019600967A
:100B600020680121C903084320600120A840012218
:100B7000014612041043206021602060082D02D03D
:100B8000092D02D004E0394801E0812040022060B4
:100B90000A2001F0F9FD60683549009012E00198E3
:100BA000421C019288420DD920680090014631A074
:100BB00001F050F960680090014638A001F04AF950
:100BC000FF207CBD6068C002E9D5012000030196CA
:100BD0002B0001F066F90A060B151A1F242F343971
:100BE0004111A0680090014637A003E0A068009082
:100BF000014640A001F02EF92660009880B27CBD2D
:100C0000A0680090014646A0F4E7A0680090014665
:100C10004EA0EFE7A0680090014657A0EAE72168E0
:100C200001432160142001F0AFFDA068009001464F
:100C30005CA0DFE7A0680090014665A0DAE7A06845
:100C4000009001466DA0D5E7216801432160A068AE
:100C50000090014673A0CDE7216801432160A068A0
:100C6000009001467AA0C5E7006001400001010044
:100C7000B80B00000D0A2068775F67706164632D10
:100C80003E6374726C204144435F454E2D2D2D20F0
:100C90006269743132203D20256400000D0A20680D
:100CA000775F67706164632D3E7374617475732040
:100CB00047504144435F454F432D2D2D20626974B9
:100CC0003136203D202564000D0A20414443204751
:100CD000504144435F4348414E5F30202D2D2D202D
:100CE000646174615F6368302064617461203D20D9
:100CF000256400000D0A20414443204750414443ED
:100D00005F4348414E5F31202D2D2D206461746179
:100D10005F6368312064617461203D2025640000B8
:100D20000D0A204144432047504144435F4348411A
:100D30004E5F32202D2D2D20646174615F63683217
:100D40002064617461203D20256400000D0A20416B
:100D500044432047504144435F4348414E5F332062
:100D60002D2D2D20646174615F636833206461748C
:100D700061203D20256400000D0A204144432047A6
:100D8000504144435F4348414E5F34202D2D2D2078
:100D9000646174615F6368342064617461203D2024
:100DA000256400000D0A204144432047504144433C
:100DB0005F4348414E5F35202D2D2D2064617461C5
:100DC0005F6368352064617461203D202564000004
:100DD0000D0A204144432047504144435F4348416A
:100DE0004E5F36202D2D2D20646174615F6368365F
:100DF0002064617461203D20256400000D0A2041BB
:100E000044432047504144435F4348414E5F3720AD
:100E10002D2D2D20646174615F636837203D20258E
:100E2000640000000D0A20414443204750414443E0
:100E30005F4348414E5F38202D2D2D206461746141
:100E40005F6368382064617461203D202564000080
:100E50000D0A204144432047504144435F434841E9
:100E60004E5F39202D2D2D20646174615F636839D8
:100E70002064617461203D2025640000F8B51C46A3
:100E800015460E46074602F0BFFA014606480269BB
:100E90004269009246608760C560069A1443046008
:100EA000084602F0B4FAF8BD00600040F8B5064606
:100EB0000F463048FFF71CF94407C508640F394650
:100EC0002D48FFF715F90A21FFF712F900278022B4
:100ED0000123002E18D0012E2BD0022E48D12748F6
:100EE0004760C6681643C660EEB206602D042D0E3C
:100EF0004560E6076508F60F3419E4002C19113433
:100F000084621E4C403428E01D484760C668164382
:100F1000C660EEB206602D042D0E4560E60765083A
:100F2000F60F3419E4002C1911348462144C403447
:100F300013E014484760C6681643C660EEB2066008
:100F40002D042D0E4560E6076508F60F3419E40000
:100F50002C19113484620B4C4034E5682D092D01A5
:100F60000D43E560C1689143C16007218160436022
:100F7000F8BD00008096980000E1F50500400040B3
:100F800000100040003000400249086048694006F7
:100F9000FCD5704700100040014880697047000090
:100FA00000E000E038B500221E491D4800920860AC
:100FB00008688B14184308601B4B06E00098441C1B
:100FC0000094984201D9002038BD4868C002F5D588
:100FD000009288680A6080B27D21C90048431349A5
:100FE000FFF786F8FFF7E8FA114A124BFFF7FCF912
:100FF000FFF710FB044601460FA000F02BFF194835
:10100000844202DD18A000F025FF1E48844205DD61
:101010001D49012008701DA000F01CFFA0B238BDC2
:101020002080010000600140B80B0000FF0F0000AD
:101030006666666666661A400D0A6E4765745F5698
:101040006261745F566F6C74616765206164635F91
:10105000636F6E766572745F5F5F32203D2025643A
:1010600000000000ED0E000042617474657279208A
:101070005061636B20566F6C74616765203E20334E
:101080002E385600941100000C00002055534220C9
:10109000355620686173206265656E20706C7567D7
:1010A00067656420696E0000FFB589B000255000B7
:1010B0000321139E081A1C46129F049206905DE0BD
:1010C000034600942A46019702960A990998FFF769
:1010D000DBFC029600946A420197049B07920A99EE
:1010E0000998FFF7D1FC04980094434205930197B7
:1010F00002962A460A990998FFF7C6FC00940296C0
:101100000197059B079A0A990998FFF7BDFC00947F
:101110002B4601970296049A0A990998FFF7B4FCA6
:1011200000942B4601970296059A0A990998FFF7B1
:10113000ABFC029600940197079B049A0A990998C0
:10114000FFF7A2FC009402960197079B059A0A9963
:101150000998FFF799FC0698002804DAA9000818F6
:10116000801D069009E00498281A81000698081846
:101170000A3006900498401E04906D1C0498854225
:101180009EDD0DB0F0BDF8B50746002A13D0002B48
:1011900011D0B81886B2C81885B20C4609E0069876
:1011A0002346009032461946384600F005F8641C84
:1011B000A4B2AC42F3D9F8BDF8B51E4617460D46A9
:1011C0000446B1420ED1BC4209D91446074606E096
:1011D00029462046069A00F017F8641CA4B2BC42C7
:1011E000F6D9F8BD9442FCD1B54209D91D460E4648
:1011F00006E029462046069A00F006F86D1CADB2BE
:10120000B542F6D9F8BD000010B514464A1C93B299
:10121000421C92B200F064FB01221146104601F01C
:1012200015FF034801494160046010BD9B0F010098
:1012300000B00140FFB5064681B0801885B2029823
:101240000A9CC018029B87B200942A461946304671
:10125000FFF7B2FF3B462A46194630460094FFF797
:10126000ABFF32463B46009410460299FFF7A4FFBD
:101270002A463B46009410460299FFF79DFF05B0B1
:10128000F0BDFFB500255000032183B01F46144672
:101290000E1A41E003990498491900198AB2029183
:1012A00083B281B203980097401B019080B2FFF790
:1012B00083FF04980299001B8AB283B281B201981D
:1012C000009780B2FFF778FF039904980919401935
:1012D0008AB2029183B281B203980097001B0190F9
:1012E00080B2FFF769FF04980299401B8AB283B26B
:1012F00081B20198009780B2FFF75EFF002E03DAFB
:10130000A8008619B61D05E0281B8000641E8619FA
:10131000A4B20A366D1CADB2A542BBD907B0F0BD70
:10132000FFB583B00C9C0F981D461646642C00D95F
:1013300064240090681E83B2771E0190BAB20499AB
:101340000398FFF720FF2046361F70436421FEF705
:10135000E5FE0204120C0BD00E98009004986D1F4D
:10136000801C81B20398ABB2801C80B2FFF70BFFE8
:101370000D9800900198BAB283B204990398FFF7D0
:1013800059FF07B0F0BD000010B500210122002870
:101390000DD001280AD10D480161C2600F214160C2
:1013A0000B49416041680BA000F054FD10BD164888
:1013B00001610161C260C260054A103A4260044A9C
:1013C000303A4260C160416810A0EDE700D00140B2
:1013D000BB0F010048575F5350495F315F496E6949
:1013E0007469616C697365205852375F5350495F67
:1013F00043544C206877705F737069312D3E4354BD
:10140000524F4C3D2025780000B0014048575F53B3
:1014100050495F305F496E697469616C697365201A
:101420005852375F5350495F43544C206877705F80
:10143000737069302D3E4354524F4C3D2025780047
:1014400010B50021084A094806E0146843681C707A
:101450005B1C491C89B2436093685B0502D5038815
:101460009942F2D310BD000000B001401C000020E2
:1014700038B501220C4605461146104601F0E6FD3E
:10148000084807494160022100910023224629466D
:10149000FFF7F4FC7D20C000FFF74AFA38BD0000DA
:1014A0008B0F010000B0014038B501220C46054603
:1014B0001146104601F0CAFD064805494160032166
:1014C0000091042322462946FFF7D8FC38BD0000CE
:1014D0009B0F010000B0014038B501220C460546C3
:1014E0001146104601F0B2FD08480749416002214B
:1014F0000091082322462946FFF7C0FC7D20C0004A
:10150000FFF716FA38BD0000AB0F010000B0014034
:1015100038B501220C4605461146104601F096FDED
:1015200008480749416002210091002322462946CC
:10153000FFF7A4FC7D20C000FFF7FAF938BD0000DA
:101540008B0F010000B00140FEE710B515210E2001
:1015500001F03AFA13210D2001F036FA11210C2086
:1015600001F032FA0221012001F052FD012108466A
:1015700001F04EFD0021012001F04AFD10BD0000E8
:1015800010B5012204461146104601F05FFD0348E4
:1015900001494160046010BD9B0F010000B0014093
:1015A00010B5044C2046FFF7B7F900212046FFF79D
:1015B000B9F910BD2800024010B5074C2046FFF7CE
:1015C000ABF903210902884309218901014320461F
:1015D000FFF7A8F910BD00002800024031B5012432
:1015E0007F230021A4031A46084600F079F921461A
:1015F0006846FFF759FF38BD10B5FFF7A6FF00F0AA
:1016000054F9782001F0ABF9FF2000F095F9A520FE
:1016100000F082F93E2000F08FF9082000F07CF9FC
:101620003A2000F089F9652000F076F9822000F078
:1016300083F9002000F070F9982000F07DF9002077
:1016400000F06AF9632000F077F90F2000F064F9E8
:10165000642000F071F90F2000F05EF9B42000F072
:101660006BF9342000F058F9B52000F065F930200E
:1016700000F052F9832000F05FF9032000F04CF9EC
:10168000862000F059F9042000F046F9872000F088
:1016900053F9162000F040F9882000F04DF9282079
:1016A00000F03AF9892000F047F92F2000F034F9D2
:1016B000932000F041F9632000F02EF9962000F00D
:1016C0003BF9812000F028F9C32000F035F9112002
:1016D00000F022F9E62000F02FF9002000F01CF9BC
:1016E000992000F029F9012000F016F9442000F0BB
:1016F00023F9002000F010F9702000F01DF90220FD
:1017000000F00AF9712000F017F90E2000F004F93A
:10171000722000F011F90A2000F0FEF8732000F0AA
:101720000BF9122000F0F8F8742000F005F91920E8
:1017300000F0F2F8752000F0FFF81D2000F0ECF842
:10174000762000F0F9F8462000F0E6F8772000F067
:10175000F3F80B2000F0E0F8782000F0EDF80E2010
:1017600000F0DAF8792000F0E7F83D2000F0D4F836
:101770007A2000F0E1F8052000F0CEF87B2000F0A0
:10178000DBF8072000F0C8F87C2000F0D5F8122024
:1017900000F0C2F87D2000F0CFF80B2000F0BCF87C
:1017A0007E2000F0C9F80B2000F0B6F87F2000F092
:1017B000C3F8082000F0B0F8A02000F0BDF81E200B
:1017C00000F0AAF8A12000F0B7F83F2000F0A4F83C
:1017D000A22000F0B1F80A2000F09EF8A32000F04B
:1017E000ABF80D2000F098F8A42000F0A5F8082030
:1017F00000F092F8A52000F09FF8232000F08CF86C
:10180000A62000F099F83D2000F086F8A72000F00F
:1018100093F8042000F080F8A82000F08DF809204B
:1018200000F07AF8A92000F087F8302000F074F872
:10183000AA2000F081F80A2000F06EF8AB2000F03A
:101840007BF80E2000F068F8AC2000F075F80E2050
:1018500000F062F8AD2000F06FF8072000F05CF8AF
:10186000AE2000F069F82D2000F056F8AF2000F00F
:1018700063F8102000F050F8FF2000F05DF8002021
:1018800000F04AF8112000F057F8962001F067F8B0
:10189000362000F051F8082000F03EF8292000F032
:1018A0004BF80A2001F05BF810BD10B501210022B1
:1018B000084601F0CBFB642001F051F800221146EC
:1018C000012001F0C3FBFF20F53001F048F80121B1
:1018D0000022084601F0BAFB322001F040F810BDAA
:1018E000F8B504461D4616460F462A2000F024F897
:1018F0002046FFF745FE3046FFF742FE2B2000F062
:101900001BF83846FFF73CFE2846FFF739FE2C202F
:1019100000F012F8F8BD000010B50122044611468F
:10192000104601F093FB034801494160046010BD7B
:101930008B0F010000B0014010B5044601220021C8
:10194000104601F083FB034801494160046010BD6B
:101950008B0F010000B0014038B501220C4605464E
:101960001146104601F072FB06480549416002210C
:101970000091002322462946FFF780FA38BD000077
:101980008B0F010000B0014070470000002805DB0C
:10199000C106C90E01208840014908607047000057
:1019A00080E200E0002805DBC106C90E0120884066
:1019B000014908607047000000E100E08307FF2252
:1019C000DB0E9A400907090E994000280BDA000740
:1019D000000F0838830808489B001818C369934310
:1019E0000B43C3617047830804489B001B181868A9
:1019F000904308431860704700ED00E000E400E009
:101A000070B50020FEF788FF0420FEF785FF082050
:101A1000FEF782FF0C20FEF77FFF1020FEF77CFF11
:101A20002020FEF779FF2420FEF776FF2820FEF71E
:101A300073FF2C20FEF770FF3020FEF76DFF0C4E79
:101A40003046FEF769FF0B4D10206C6804432146B9
:101A50003046FEF767FF361F30466C60FEF75CFFCE
:101A6000054C30462146FEF75DFF2C6070BD00003E
:101A700024000240000000209D78869D704710B52C
:101A800000F07EFF10BD7047F0B5002490218DB0AE
:101A90004843164D0C9061000C9A611800205618AE
:101AA0008021C208B218AB5C47077F0F0A46FA4094
:101AB000134207D0072743006A46D754E0279A18F5
:101AC000577005E0002247006B46DA55FB185A7044
:101AD000401CC0B21828E4D330216846FFF73CFF11
:101AE000641CE4B2302CD6D30DB0F0BD34D8010064
:101AF000F0B5002585B080272E466C460F490020A2
:101B0000495D3A46C240114206D007234200A35421
:101B1000E0231219537003E04200A65412195670C4
:101B2000401CC0B20828ECD310216846FFF714FF10
:101B30006D1CEDB2202DE1D305B0F0BDD4DD010068
:101B4000094910B5401E884201D9012010BD074C3B
:101B500060610021481EFFF731FF0020A0610720CF
:101B60002061002010BD0000FFFFFF0000E000E04A
:101B700010B5FFF745FF00F01DFF1F2001F0FDFA33
:101B800000211F2001F001FB1F2001F0FAFAFEF7EF
:101B9000D5FE10BD10B500F0DBF810BD10B500F09B
:101BA000F7FF10BD10B50124E403202802D000285F
:101BB0000CD015E00FA000F04DF97F2300211A464C
:101BC0000846FFF78DFE2146144807E07F230021D9
:101BD0001A460846FFF784FE21461148FFF798FC95
:101BE00001F094F800F0E6FF01F0BEF801F0D4F83F
:101BF00010BD00000D0A2075736220696E73657256
:101C000074202D2D2D2D206368617267696E672009
:101C10002D2D2D2D2D20200D0A00000034D8000080
:101C2000F4DD010010B5024800F014FE10BD000004
:101C30006000002070B5FEF7CBFE1021084214D1E1
:101C40007F2300211A460846FFF74AFE164C01255D
:101C50002078ED0300281ED014A000F0FBF82946E0
:101C60001A48FFF755FC00202070FEF7C3FE202124
:101C7000084207D1FFF794FC00F09EFDFEF76EFED0
:101C800001F008FC01F0AEFB0146402802D110A093
:101C900000F0E0F870BD1DA000F0DCF829462248F5
:101CA000FFF736FC0120DFE7590000200D0A204B2A
:101CB0003237204B455920507265737320446F773B
:101CC0006E20416761696E200D0A2000F4DD02007C
:101CD0000D0A20212121216D695F746F755F646594
:101CE000746563742D2D2D6770696F5F61362048B0
:101CF00049474820212121206770696F5F73746113
:101D0000747573203D202578000000000D0A204BDB
:101D10003237204B455920507265737320446F77DA
:101D20006E200D0A20000000F45D03001CB55A204F
:101D300001F0E0FB0549FF209630019100907821E9
:101D4000872332220846FFF7AFF91CBDFFFF0000D2
:101D500008B50248C068009008BD000000100140AE
:101D600010B500F001F810BD08B50B4881680907EF
:101D7000090FCA070FD102290CD0042907D0062960
:101D800008D14169C9B20A0701D5890702D401788F
:101D90006A461170806808BD0010004010B500F060
:101DA00001F810BD08B50B4881680907090FCA077B
:101DB0000FD102290CD0042907D0062908D1416986
:101DC000C9B20A0701D5890702D401786A461170A1
:101DD000806808BD00300040F8B5FF2301330026BD
:101DE0001A43104F0125002818D0012818D00228C6
:101DF00013D10D4C666065606660E26067622269BF
:101E000026612361FF2303332361920602D5FF225B
:101E100023322261FFF74AF86560F8BD034CE9E719
:101E2000034CE7E7010200000040004000100040C2
:101E300000300040054804490160054A0121D16095
:101E4000002101607047000051E5CC1A004C0140B0
:101E5000004001400FB410B503A9044B044A029896
:101E600000F0F6F810BC08BC04B018477329000055
:101E70005C0000202021020C01D010211046020A33
:101E800001D010460839020901D01046091F820806
:101E900001D01046891E420801D0881E7047081ADA
:101EA000704730B47446641E2578641CAB4200D27F
:101EB0001D46635D5B00E31830BC184702E008C8AC
:101EC000121F08C1002AFAD170477047002001E0B4
:101ED00001C1121F002AFBD170470000F0B51FB4EA
:101EE00086B00998089A030D0021024314D0514886
:101EF000514A1818504305141198012810981AD007
:101F0000281A401C00264D4F4D490096019104901F
:101F1000002812DA444211E01198012449A3012853
:101F200001D11098C1430698119A84600360C26081
:101F300041600BB0F0BD4042E4E7044621050020BB
:101F40003F4A001C51410391029012E0E00707D084
:101F500032463B4601990098FEF746FA01910090FF
:101F600032463B4610461946FEF73EFA06460F46F5
:101F70006410002CEAD10498039B0028029A099966
:101F8000089806DAFEF730FA019B009AFEF72CFA61
:101F900005E0FEF791FA019B009AFEF78DFA0446E0
:101FA0000E460022284BFEF791FC03D80020C043C8
:101FB000014607E00022254B20463146FEF762F934
:101FC000FEF764FC102409E0002C0ADB0A2200233F
:101FD000FEF758FB079B30321A55641E02460A432F
:101FE000F2D11122641C079B121B1C19119B012B9F
:101FF00003D0012308430ED10AE0084304D0112086
:1020000010900020119077E71098151A6D1E0BE0C4
:102010001098824202DD00236D1C03E0824201DA47
:1020200000236D1E002BEED0069811998260C160CE
:1020300030C07EE701FCFFFF104D0000000014409F
:102040000000F03F300000000000F0430000E03FDF
:10205000FFB597B00646002518E2252877D1002461
:102060002746FD49049400E00443761C32780120A1
:10207000203A90400842F7D130782A280ED0022228
:10208000307801463039092916D804990A23594372
:10209000303940181443761C0490F1E7189802C8B0
:1020A00004911890002904DA0120400304434842B7
:1020B000049002200443761C30782E2814D104208A
:1020C00004437078761C2A2809D11898761C80C899
:1020D000189009E00A214F43303FC719761C307829
:1020E000014630390929F5D930786C2810D006DC42
:1020F0004C281AD068280ED06A2817D104E074281A
:1021000013D07A2812D110E00120400504430CE0DE
:102110000121090501E0032109050C437178814281
:1021200003D1012000052418761C761C307811900C
:1021300066280BD013DC58287DD009DC00287BD022
:102140004528F6D04628F4D047281AD1A5E118E052
:10215000632835D0642870D0652812D19DE170289D
:102160006CD008DC6728F1D069287BD06E280DD0B0
:102170006F2806D1BAE073282ED0752871D0782840
:1021800059D01A9A199990476D1C7EE16002400F50
:10219000022809D003280DD00428189801680DD012
:1021A0000D60001D189070E11898EA1701680D6025
:1021B0004A60F6E7189801680D80F2E70D70F0E7C5
:1021C00018986A4601781172001D1890002050720C
:1021D00002A80090012005E0189802C8189000207D
:1021E0000091C04361070DD5002101E00199491C10
:1021F0000191B94212DA8142F8DB009A515C002960
:10220000F4D10BE0002101E00199491C01918142C8
:10221000FADB019A0099895C0029F5D101990498AB
:102220001A9B471A21463846199A00F097FA0199E5
:10223000401945180BE04FE02CE113E04EE0009808
:1022400000990078491C00911A9A199990470198B1
:10225000401E0190401CF2D1214638461A9B199A23
:1022600010E137E00A200021009001916002410F47
:10227000022907D0189A01CA1892C2179446032956
:1022800008D00AE01898C01DC108C90005C91891F6
:10229000944607E000B2C2179446042902D140B226
:1022A000C1178C4600226146944506DA0A46002191
:1022B000404291418C462D2102E0210504D52B217D
:1022C0006A461173012103E0E10701D02021F7E7FD
:1022D000029155E00A200AE0102008E0102000904A
:1022E0000021042004430191082703E00820002175
:1022F000019100906002410F022907D0189A01CA8B
:10230000189200229446032908D008E01898C01DAE
:10231000C108C90005C91891944603E080B2042998
:1023200000D1C0B200210291210729D5119970294D
:1023300006D0009A1021019B4A401A4305D00EE0B6
:1023400040216A461173012108E06146014306D02D
:1023500030216A4611731199517302210291009A3A
:102360000821019B4A401A430AD16146014301D129
:10237000610705D530216A46117301217F1E029144
:102380001199582904D035A10E910DA90D910DE098
:1023900037A1F9E76146019B009AFEF773F90E9B9E
:1023A0008C469B5C0D9A521E0D9213706146014340
:1023B000F0D10D9805A9081A20300190600703D5C7
:1023C00001200004844300E001270198874201DDD9
:1023D000381A00E00020019900904118029809186D
:1023E0000498401A0490E00306D421461A9B199AD7
:1023F000049800F0B3F94519002706E003A81A9ADB
:10240000C05D199990476D1C7F1C02988742F5DBCF
:10241000E0030CD521461A9B199A049800F09EF906
:10242000451904E01A9A3020199990476D1C0099BB
:10243000481E00900029F5DC08E00D980D99007801
:10244000491C0D911A9A199990476D1C0199481EC3
:1024500001900029F1DC63E10928010030313233B9
:1024600034353637383961626364656600000000D0
:1024700030313233343536373839414243444546BA
:102480000000000000F05AF94519761C3078002849
:1024900000D0E2E528461BB0F0BD600700D4062757
:1024A0001898C01DC108C90048680A680831C30FE0
:1024B000DB071891190001D09CA108E0210501D586
:1024C0009BA104E0E10701D09AA100E09AA143009A
:1024D00011985B08109165280CD006DC452809D0BE
:1024E00046281DD0472841D141E0662818D06728EA
:1024F0003CD13CE00021112F01DB112000E0781CD1
:102500000191009008A911A8FFF7E8FC1399059123
:102510000021119A15927F1C12980197009150E0AA
:102520000120C00703900120019008A9009711A87D
:10253000FFF7D4FC139A149905920022119B009284
:1025400012981593059A0192002901D0104602E0D5
:10255000791C40180190381A01D5019804E04042D6
:10256000401E0090781C0190C01B029043E0012F98
:1025700000DA01270021112F01DD112000E038468B
:102580000191009008A911A8FFF7A8FC13990591E3
:10259000119A0021129815920091019721070CD4ED
:1025A0000599B94201DB019900E00191012904DD9F
:1025B000159A491E515C302906D0B84201DA011D36
:1025C00005DA0121029115E00199491EEDE7002885
:1025D00005DC0099411800910199091A03E0019A5C
:1025E000411C914200DD01910099401A401C02906B
:1025F0000120C0070390200706D402990198814268
:1026000002DB0020C043029000206946C87707AF74
:10261000012103980337C907884224D00220119072
:102620002B201290039800280CDA404203902D20B2
:10263000129007E00A210398FDF75AFD30317F1E02
:10264000039039701199481E11900029F2DC03980B
:102650000028EFD1791E12980870307820210840A8
:102660004530BF1E387006A8C01BC01D03901098CF
:102670000078002800D00120019941180298C01765
:102680000918039809180498401A401E0490E003A2
:1026900006D421461A9B199A049800F05FF8451950
:1026A00010980078002803D01A9A199990476D1C49
:1026B000E00324D521461A9B199A049800F04EF89D
:1026C00045191CE00098002807DB0099059888420E
:1026D00003DD1598405C199901E0199930201A9A88
:1026E000904700986D1C401C00900298401E02907C
:1026F000002804D11A9A2E20199990476D1C01992F
:10270000481E01900029DDDC05E038781A9A7F1C0C
:10271000199990476D1C0399481E03900029F4DC19
:1027200021461A9B199A0498ACE600002D0000007F
:102730002B0000002000000000000000F8B5044657
:1027400000251E461746880404D405E0394620209B
:10275000B0476D1C641EF9D52846F8BDFFB5044688
:10276000002581B01E46C80301D5302700E0202790
:10277000880404D505E038460399B0476D1C641EF3
:10278000F9D5284605B0F0BD08B50021009102E05A
:10279000009A521C0092401EFAD2009108BD10B55A
:1027A0001E2000F0EAFC00211E2000F0EEFC1E209E
:1027B00000F0E7FC10BD000070B514491448FEF7A6
:1027C000B1F813480021001DFEF7ACF8134C114D71
:1027D00011492046FEF7A6F82946251D2846FEF792
:1027E000A1F8261F01213046FEF79CF830BF0A49A8
:1027F00020461031FEF796F800212846FEF792F8A1
:1028000001213046FEF78EF830BF70BD85788E60AE
:102810002000024001020000402000402000014052
:102820000021017041807D228180D200C2803F2240
:1028300012068260044AC2608161044AC161026179
:102840000162034941627047CDCCCC3D0AD7233C9D
:1028500000007A44F8B50446FEF7A4FB608000F05F
:1028600087FCA080227827467D2500260221083794
:10287000ED001300FFF715FB0504151E3951530039
:102880006088284A904201D2012044E0264A9042C2
:1028900002D22170254802E00320207024486061A4
:1028A000F8BD2448E08062881E488242F8D3217037
:1028B0001E4817E0FDF778FE0146384600F0A9FDF6
:1028C000FDF78EFE281AA84201DD284602E0002806
:1028D00000DA0020E080618813488142E0D30320C1
:1028E00020701348A6616061F8BD6088FDF75CFE4A
:1028F0000146384600F08DFDFDF772FE281AA84209
:1029000001DD284602E0002800DA0020E080A088EF
:102910003228E9D204202070F8BDE580F8BD267089
:10292000F8BD0000B80B0000681000000000FA437A
:1029300000408345B603000002200021401EFDD266
:102940000220491C6E2901D2801EF7E77047010161
:10295000002001E000BF401C8842FBD3704710B547
:102960000446002302E0FFF7E7FF5B1CA342FAD313
:1029700010BD00B50246C0B2FEF706FB104600BD12
:1029800010B5074C2046FDF7C7FF102102460A404C
:102990000843102A03D101462046FDF7C3FF10BDAE
:1029A0003C20004010B501210148FDF7BBFF10BDE0
:1029B0000800024008B50348016920221143009134
:1029C000016108BD0000014010B501246B4AE40517
:1029D0000300FFF766FA190E202B2B2B2B33393F00
:1029E000464D545B626970777E858C939AA9BBCB08
:1029F0002B000123002907D0012917D15068184363
:102A00005060106888438BE010681843106050686D
:102A10004008400086E00220022908D0032905D1A1
:102A200051680143516011688143116010BD116804
:102A30000143116051688143516010BD4020042959
:102A4000F5D00529ECD010BD80200629EFD007294C
:102A5000E6D010BDFF2001300829E8D00929DFD0D9
:102A600010BD012040020A29E1D00B29D8D010BDA9
:102A7000012080020C29DAD00D29D1D010BD01200F
:102A8000C0020E29D3D00F29CAD010BD01200003E7
:102A90001029CCD01129C3D010BD01204003122928
:102AA000C5D01329BCD010BD012080031429BED08D
:102AB0001529B5D010BD0120C0031629B7D017299C
:102AC000AED010BD012000041829B0D01929A7D01C
:102AD00010BD012040041A29A9D01B29A0D010BD87
:102AE000012080041C29A2D01D2999D010BD0120ED
:102AF000C0041E299BD01F2992D010BD01200005C3
:102B0000202994D021298BD010BD222928D0232917
:102B1000FAD1506801214905084350601068884384
:102B2000106010BD506010BD01239B05242907D003
:102B30002529F8D150681843506010689843EFE792
:102B400010681843106050689843EBE7262907D0B7
:102B50002729E8D15068204350601068A043DFE780
:102B60001068204310605068A043DBE70120000696
:102B7000282987D0292987D010BD000000030440F0
:102B800002480021016041608160704700030440F9
:102B900008B5064801684A1C0260C82901DD002109
:102BA00001600348C068009008BD000024000020B8
:102BB0000020014010B53321EA2000F003FB044659
:102BC00001460EA0FFF746F96007400F0300FFF72C
:102BD00068F907130507090B0D0F130012A008E091
:102BE00019A006E020A004E027A002E02EA000E04B
:102BF00035A0FFF72FF910BD3BA0FAE70D0A2067BB
:102C000065745F6368675F766275735F766F6C7417
:102C100061676520207265675F69707873203D2069
:102C20002578200D0A0000000D0A206765745F6397
:102C300068675F766275735F766F6C746167652035
:102C40003576200D0A0000000D0A206765745F6369
:102C500068675F766275735F766F6C746167652015
:102C60003776200D0A0000000D0A206765745F6347
:102C700068675F766275735F766F6C7461676520F5
:102C80003976200D0A0000000D0A206765745F6325
:102C900068675F766275735F766F6C7461676520D5
:102CA000313276200D0A00000D0A206765745F63DB
:102CB00068675F766275735F766F6C7461676520B5
:102CC000313576200D0A00000D0A206765745F63B8
:102CD00068675F766275735F766F6C746167652095
:102CE000323076200D0A00000D0A206765745F639C
:102CF00068675F766275735F766F6C746167652075
:102D0000756E6B6E6F77200D0A00000010B53121D3
:102D1000EA2000F057FA13490C7901230022002C15
:102D200011D0040708D54878401CC0B24870052867
:102D300001D94A700A7110BD4A70400601D54B7323
:102D400010BD4A7310BD800608D54878401CC0B23B
:102D500048700328F6D94A700B7110BD4A70087A82
:102D600010BD00002800002010B55021EA2000F01E
:102D700029FA04465121EA2000F024FA000204490D
:102D80002043486149690348FFF764F810BD00001B
:102D90002800002060AC040010B55221EA2000F0A9
:102DA00011FA04465321EA2000F00CFA000204490B
:102DB0002043886189690348FFF74CF810BD000083
:102DC0002800002014AC0400F3B50E46002481B0A6
:102DD00004212046FDF7A5FE002301276425640099
:102DE00005210120FDF7AEFE28460095401E00900B
:102DF000FCD10420FDF79CFE002800D03C430521B7
:102E00000020FDF79FFE28460095401E0090FCD153
:102E10005B1C082BE3DB04210120FDF782FE002E62
:102E200002D00421012001E004210020FDF78AFEE8
:102E300005210120FDF786FE28460095401E0090E2
:102E4000FCD10521FDF77EFE04210120FDF77AFE6D
:102E500001980470FEBDF8B50724322706466425A4
:102E600005210020FDF76EFE28460095401E0090CB
:102E7000FCD1072C03D104210120FDF752FE284686
:102E80000095401E0090FCD13046E040C007C00FC6
:102E90000421FDF757FE38460097401E0090FCD1F4
:102EA00005210120FDF74EFE28460095401E0090AA
:102EB000FCD1641E072CD3D90521FDF743FE28461B
:102EC0000095401E0090FCD10421FDF72AFE3846F3
:102ED0000097401E0090FCD105210120FDF732FE35
:102EE00028460095401E0090FCD10420FDF720FEEE
:102EF000034605210020FDF725FE29460095491EC1
:102F00000091FCD11846F8BDFCB516460F460446A4
:102F100000F026F8E0B2FFF79EFF642528460195F1
:102F2000401E0190FCD13846FFF795FF28460195D9
:102F3000401E0190FCD100F013F8641CE0B2FFF7D2
:102F40008AFF28460195401E0190FCD10121684668
:102F5000FFF73AFF68460078307000F02FF8FCBDAC
:102F600008B504210120FDF7DCFD3023184600934D
:102F7000401E0090FCD104210120FDF7E3FD18461E
:102F80000093401E0090FCD105210120FDF7DAFDE1
:102F900018460093401E0090FCD10421FDF7D2FD9D
:102FA00018460093401E0090FCD10521FDF7CAFD94
:102FB00040200090401E0090FCD108BD08B50521BE
:102FC0000020FDF7BFFD64200090401E0090FCD162
:102FD00004210120FDF7A5FD04210020FDF7B2FD2D
:102FE00040200090401E0090FCD105210120FDF7FB
:102FF000A9FD30200090401E0090FCD1042101204A
:10300000FDF7A0FD68200090401E0090FCD108BD97
:1030100030B50C4B0C4C002802D0012802D003E044
:103020001A6800E02268D2B201258D40E9B20A4355
:10303000002802D0012802D002E01A6000E02260DD
:10304000002030BD008401400094014091400123E4
:10305000921C9340002805D0012802D1024818187C
:10306000016070470148FAE700900140008001408C
:1030700038B50024074D009404E00098401C0090EF
:10308000642804D82846FDF747FCC003F5D4009413
:1030900038BD00000800024000210122072804D8A2
:1030A0008140801C8240064806E00838072805D881
:1030B0008140801C82400348101801607047000066
:1030C00000800140009001400121072803D8801CA6
:1030D0008140074805E00838072806D8801C814051
:1030E000044808180068C0B27047FF20704700000D
:1030F000008001400090014001210A46072804D8C1
:103100008140801C8240064806E00838072805D820
:103110008140801C82400348101801607047000005
:1031200000800140009001400121072801D8054A94
:1031300003E00838072804D8034A136881408B430A
:10314000136070470084014000940140012107286A
:1031500001D8054A03E00838072804D8034A136851
:1031600081400B431360704700840140009401408C
:1031700010B50720FDF7EEFC10BD00B5FEF706FC0C
:1031800000BD00B5FEF70EFC00BD00B5FEF716FC55
:1031900000BD000010B5FDF7FFFE0249886000F099
:1031A00003F810BD0C00002005480449816101218D
:1031B000C16101694908490001617047A55A0000D1
:1031C0000020024008B500236A4613700123FFF770
:1031D0009BFE6A46107808BD70B514465C43CB1858
:1031E00082185B1E521E9BB292B2049DFEF778FBC2
:1031F000A1B22846FEF758F970BD000086B0FEF770
:10320000B7FCFFF7CCFAFFF7BBFC25211620FFF730
:10321000DBFB27211720FFF7D7FB21211420FFF725
:10322000D3FB22211520FFF7CFFB06210720FFF754
:10323000CBFBFEF7C1F90020FEF7A6F8FEF7DCF99C
:103240007F2300211A460846FEF74AFBFDF7E6FBFE
:103250005348FEF7C3F91F25ED0240212B461422E7
:103260000846FEF70EF87D27BF013846FFF76FFBD3
:103270000124640321464B48FEF72EF94A48FFF724
:1032800066FB21464948FEF727F93846FFF75FFB02
:1032900021464748FEF720F93846FFF758FB00243F
:1032A0006846048204A8802300901A4621462046DE
:1032B000FFF792FF3846FFF74AFB57236D2227217D
:1032C0001420FEF70DFB3B493B48FEF7D1F86D2378
:1032D0000A211A460846FEF703FB384E38483146A5
:1032E000FEF716F93846FFF732FB00F059F9384679
:1032F000FFF72DFBE1277F02032239460020FEF76E
:103300006BFD032239460120FEF766FD09210820E6
:10331000FFF75AFB0B210920FFF756FB0D210A206E
:10332000FFF752FB0A213C23642208460095FDF773
:1033300081FF3F21234849013C221423009202913E
:1033400003900194642219461846FDF7E9FF3046C0
:10335000FEF7F6FB1C48FFF763FA1C4D32212E687E
:103360003046FCF7C5FE002901D1FEF763FC64215D
:103370003046FCF7BDFE0C0001D1FDF713FE002C1A
:1033800001D1FEF74FFCC8213046FCF7B1FE0C001E
:1033900001D1FEF7CBFC002CE0D1FEF703FCDDE70A
:1033A000FFFF0000F4DD0300102700003458010087
:1033B000F45D020074220000C0350000204E0000C1
:1033C000F45D040010840000600000201000002064
:1033D0000348016904221143016130BF70470000B6
:1033E00000ED00E010B50D210A20FFF7EDFA0448CA
:1033F000016840229143016002480068C0B210BDDC
:10340000008401400081014072B60020704762B61E
:103410007047F8B50446C068FCF7EFFE054629463C
:103420002069FCF799FE2061E169FDF721F901D2DD
:10343000E0692061A1692069FDF710F901D2A06956
:10344000206128466169FCF7D8FEA2680146104653
:10345000FCF7DBFE074621696068FCF7D6FE0646EE
:1034600029462068FCF7D1FE3146FCF775FE394647
:10347000FCF772FE65610646E169FDF7F9F800D2D6
:10348000E669A1693046FDF7E9F800D2A669304641
:10349000F8BD0000154C2046FDF73EFA802101439F
:1034A0002046FDF73FFA114D8C3D2846FDF734FAD2
:1034B000012108430446FFF7DBFD21462846FDF7BE
:1034C00031FA2C1F2046FDF727FAFFF7D1FD3421F2
:1034D0002046FDF727FAFFF7CBFD044804493038B2
:1034E000FDF720FAFFF774FFFEE7000090000240AE
:1034F00010270000F8B5274F0446642819D352233B
:103500002D2223211620FEF7EBF90120FEF7BCFA4D
:103510005223452223212E20FEF7E2F90020FEF758
:10352000B3FA52235D2223214620FEF7D9F9002069
:103530002BE03878642809D152235D2223211620FC
:10354000FEF7CEF914491548FEF706FA0A2120467F
:10355000FCF7CEFD0D00064610D152233722232161
:103560002020FEF7BDF93046FEF78EFA472357229A
:1035700028215020FEF7B4F9FEF7BAFA52234F2261
:1035800023213820FEF7ACF92846FEF77DFA3C707F
:10359000F8BD00005A000020701A000034580000E6
:1035A00010B56D230A211A460846FEF799F902491B
:1035B0000248FEF7D1F910BD204E0000F45D040072
:1035C00000C500E700E700E700E700E700E700E7E5
:1035D00000E700E700E700E700E700E700E700E7B3
:1035E00000E700E700E700E700E700E700E700E7A3
:1035F00000E700E700E700E700E700E700E700E793
:1036000000E700E700E700E700E700E700E700E782
:1036100000E700E700E700E700E700E700E700E772
:1036200000E700E700E700E700E700E700E700E762
:1036300000E700E700E700E700E700E700E700E752
:1036400000E700E700E700E700E700E700E700E742
:1036500000E700E700E700E700E700E700E700E732
:1036600000E700E700E700E70000000000000000BE
:10367000000000001CD9051D051D051D051D051DAB
:10368000051D051D051D051D051D051D051D051D2A
:10369000051D051D051D051D051D051D051D051D1A
:1036A000051D051D051D051D051D051D051D051D0A
:1036B000051D051D051D051D051D051D051D051DFA
:1036C000051D051D051D051D051D051D051D051DEA
:1036D000051D051D051D051D051D051D051D051DDA
:1036E000051D051D051D051D051D051D051D051DCA
:1036F000051D051D051D051D051D051D051D051DBA
:10370000051D051D051D051D051D051D051D051DA9
:10371000051D051D053D051D051D051D00000000BD
:1037200000000000000000001CD9051D126E124DA3
:10373000124D124D124D124D124D124D124D124D91
:10374000124D124D124D124D124D124D124D124D81
:10375000124D124D124D124D124D124D124D124D71
:10376000124D124D124D124D124D124D124D124D61
:10377000124D124D124D124D124D124D124D124D51
:10378000124D124D124D124D124D124D124D124D41
:10379000124D124D124D124D124D124D124D124D31
:1037A000124D124D124D124D124D124D124D124D21
:1037B000124D124D124D124D124D124D124D124D11
:1037C000124D124D124D124D124D124D051C051D7C
:1037D0000000000000000000000000001CD9051DD2
:1037E00000220000000000000000000000000000B7
:1037F00000000000000000000000000000000000C9
:1038000000000000000000000000000000000000B8
:1038100000000000000000000000000000000000A8
:103820000000000000000000000000000000000098
:103830000000000000000000000000000000000088
:103840000000000000000000000000000000000078
:103850000000000000000000000000000000000068
:103860000000000000000000000000000000000058
:103870000000000000000000000000000000000048
:10388000051C051D000000000000000000000000F5
:103890001CD9051D002200000000000000000000EF
:1038A0000000000000000000000000000000000018
:1038B0000000000000000000000000000000000008
:1038C00000000000000000000000000000000000F8
:1038D00000000000000000000000000000000000E8
:1038E00000000000000000000000000000000000D8
:1038F00000000000000000000000000000000000C8
:1039000000000000000000000000000000000000B7
:1039100000000000000000000000000000000000A7
:103920000000000000000000000000000000000097
:1039300000000000051C051D000000000000000044
:10394000000000001CD9051D00220000000000003E
:103950000000000000000000000000000000000067
:103960000000000000000000000000000000000057
:103970000000000000000000000000000000000047
:103980000000000000000000000000000000000037
:103990000000000000000000000000000000000027
:1039A0000000000000000000000000000000000017
:1039B0000000000000000000000000000000000007
:1039C00000000000000000000000000000000000F7
:1039D00000000000000000000000000000000000E7
:1039E0000000000000000000051C051D0000000094
:1039F00000000000000000001CD9051D002200008E
:103A000000000000000000000000000000000000B6
:103A100000000000000000000000000000000000A6
:103A20000000000000000000000000000000000096
:103A30000000000000000000000000000000000086
:103A40000000000000000000000000000000000076
:103A50000000000000000000000000000000000066
:103A60000000000000000000000000000000000056
:103A70000000000000000000000000000000000046
:103A80000000000000000000000000000000000036
:103A9000000000000000000000000000051C051DE3
:103AA0000000000000000000000000001CD9051DFF
:103AB00000220000000000000000000000000000E4
:103AC00000000000000000000000000000000000F6
:103AD00000000000000000000000000000000000E6
:103AE00000000000000000000000000000000000D6
:103AF00000000000000000000000000000000000C6
:103B000000000000000000000000000000000000B5
:103B100000000000000000000000000000000000A5
:103B20000000000000000000000000000000000095
:103B30000000000000000000000000000000000085
:103B40000000000000000000000000000000000075
:103B5000051C051D00000000000000000000000022
:103B60001CD9051D0022000000000000000000001C
:103B70000000000000000000000000000000000045
:103B80000000000000000000000000000000000035
:103B90000000000000000000000000000000000025
:103BA0000000000000000000000000000000000015
:103BB0000000000000000000000000000000000005
:103BC00000000000000000000000000000000000F5
:103BD00000000000000000000000000000000000E5
:103BE00000000000000000000000000000000000D5
:103BF00000000000000000000000000000000000C5
:103C000000000000051C051D000000000000000071
:103C1000000000001CD9051D00220000000000006B
:103C20000000000000000000000000000000000094
:103C30000000000000000000000000000000000084
:103C40000000000000000000000000000000000074
:103C50000000000000000000000000000000000064
:103C60000000000000000000000000000000000054
:103C70000000000000000000000000000000000044
:103C80000000000000000000000000000000000034
:103C90000000000000000000000000000000000024
:103CA0000000000000000000000000000000000014
:103CB0000000000000000000051C051D00000000C1
:103CC00000000000000000001CD9051D00220000BB
:103CD00000000000000000000000000000000000E4
:103CE00000000000000000000000000000000000D4
:103CF00000000000000000000000000000000000C4
:103D000000000000000000000000000000000000B3
:103D100000000000000000000000000000000000A3
:103D20000000000000000000000000000000000093
:103D30000000000000000000000000000000000083
:103D40000000000000000000000000000000000073
:103D50000000000000000000000000000000000063
:103D6000000000000000000000000000051C051D10
:103D70000000000000000000000000001CD9051D2C
:103D80000022000000000000000000000000000011
:103D90000000000000000000000000000000000023
:103DA0000000000000000000000000000000000013
:103DB0000000000000000000000000000000000003
:103DC00000000000000000000000000000000000F3
:103DD00000000000000000000000000000000000E3
:103DE00000000000000000000000000000000000D3
:103DF00000000000000000000000000000000000C3
:103E000000000000000000000000000000000000B2
:103E100000000000000000000000000000000000A2
:103E2000051C051D0000000000000000000000004F
:103E30001CD9051D00220000000000000000000049
:103E40000000000000000000000000000000000072
:103E50000000000000000000000000000000000062
:103E60000000000000000000000000000000000052
:103E70000000000000000000000000000000000042
:103E80000000000000000000000000000000000032
:103E90000000000000000000000000000000000022
:103EA0000000000000000000000000000000000012
:103EB0000000000000000000000000000000000002
:103EC00000000000000000000000000000000000F2
:103ED00000000000051C051D00000000000000009F
:103EE000000000001CD9051D002200000000000099
:103EF00000000000000000000000000000000000C2
:103F000000000000000000000000000000000000B1
:103F100000000000000000000000000000000000A1
:103F20000000000000000000000000000000000091
:103F30000000000000000000000000000000000081
:103F40000000000000000000000000000000000071
:103F50000000000000000000000000000000000061
:103F60000000000000000000000000000000000051
:103F70000000000000000000000000000000000041
:103F80000000000000000000051C051D1CD91CD904
:103F90001CD91CD91CD900001CD9051D0022000009
:103FA0000000000000000000000000000000000011
:103FB0000000000000000000000000000000000001
:103FC00000000000000000000000000000000000F1
:103FD00000000000000000000000000000000000E1
:103FE00000000000000000000000000000000000D1
:103FF00000000000000000000000000000000000C1
:1040000000000000000000000000000000000000B0
:1040100000000000000000000000000000000000A0
:104020000000000000000000000000000000000090
:10403000000000000000000000000000051C051D3D
:10404000053D051D051D051C051D00001CD9051D90
:10405000002200000000000000000000000000003E
:104060000000000000000000000000000000000050
:104070000000000000000000000000000000000040
:104080000000000000000000000000000000000030
:104090000000000000000000000000000000000020
:1040A0000000000000000000000000000000000010
:1040B0000000000000000000000000000000000000
:1040C00000000000000000000000000000000000F0
:1040D00000000000000000000000000000000000E0
:1040E00000000000000000000000000000000000D0
:1040F000051C051D051D051D051D051D051D0000D3
:104100001CD9051D00220000000000000000000076
:10411000000000000000000000000000000000009F
:10412000000000000000000000000000000000008F
:10413000000000000000000000000000000000007F
:10414000000000000000000000000000000000006F
:10415000000000000000000000000000000000005F
:10416000000000000000000000000000000000004F
:10417000000000000000000000000000000000003F
:10418000000000000000000000000000000000002F
:10419000000000000000000000000000000000001F
:1041A00000000000051C051D051D051D051D051D44
:1041B000051D00001CD9051D0022000000000000A4
:1041C00000000000000000000000000000000000EF
:1041D00000000000000000000000000000000000DF
:1041E00000000000000000000000000000000000CF
:1041F00000000000000000000000000000000000BF
:1042000000000000000000000000000000000000AE
:10421000000000000000000000000000000000009E
:10422000000000000000000000000000000000008E
:10423000000000000000000000000000000000007E
:10424000000000000000000000000000000000006E
:104250000000000000000000051C051D051D051DD7
:10426000051D051D051D00001CD9051D00220000AF
:10427000000000000000000000000000000000003E
:10428000000000000000000000000000000000002E
:10429000000000000000000000000000000000001E
:1042A000000000000000000000000000000000000E
:1042B00000000000000000000000000000000000FE
:1042C00000000000000000000000000000000000EE
:1042D00000000000000000000000000000000000DE
:1042E00000000000000000000000000000000000CE
:1042F00000000000000000000000000000000000BE
:10430000000000000000000000000000051C051D6A
:10431000051D051D051D051D051D00001CD9051DDC
:10432000002200000000000000000000000000006B
:10433000000000000000000000000000000000007D
:10434000000000000000000000000000000000006D
:10435000000000000000000000000000000000005D
:10436000000000000000000000000000000000004D
:10437000000000000000000000000000000000003D
:10438000000000000000000000000000000000002D
:10439000000000000000000000000000000000001D
:1043A000000000000000000000000000000000000D
:1043B00000000000000000000000000000000000FD
:1043C000051C051D051D051D051D051D051D000000
:1043D0001CD9051D002200000000000000000000A4
:1043E00000000000000000000000000000000000CD
:1043F00000000000000000000000000000000000BD
:1044000000000000000000000000000000000000AC
:10441000000000000000000000000000000000009C
:10442000000000000000000000000000000000008C
:10443000000000000000000000000000000000007C
:10444000000000000000000000000000000000006C
:10445000000000000000000000000000000000005C
:10446000000000000000000000000000000000004C
:1044700000000000051C051D051D051D051D051D71
:10448000051D00001CD9051D0022000000000000D1
:10449000000000000000000000000000000000001C
:1044A000000000000000000000000000000000000C
:1044B00000000000000000000000000000000000FC
:1044C00000000000000000000000000000000000EC
:1044D00000000000000000000000000000000000DC
:1044E00000000000000000000000000000000000CC
:1044F00000000000000000000000000000000000BC
:1045000000000000000000000000000000000000AB
:10451000000000000000000000000000000000009B
:104520000000000000000000051C051D051D051D04
:10453000051D051D051D00001CD9051D00220000DC
:10454000000000000000000000000000000000006B
:10455000000000000000000000000000000000005B
:10456000000000000000000000000000000000004B
:10457000000000000000000000000000000000003B
:10458000000000000000000000000000000000002B
:10459000000000000000000000000000000000001B
:1045A000000000000000000000000000000000000B
:1045B00000000000000000000000000000000000FB
:1045C00000000000000000000000000000000000EB
:1045D000000000000000000000000000051C051D98
:1045E000051D051D051D051D051D00001CD9051D0A
:1045F0000022000000000000000000000000000099
:1046000000000000000000000000000000000000AA
:10461000000000000000000000000000000000009A
:10462000000000000000000000000000000000008A
:10463000000000000000000000000000000000007A
:10464000000000000000000000000000000000006A
:10465000000000000000000000000000000000005A
:10466000000000000000000000000000000000004A
:10467000000000000000000000000000000000003A
:10468000000000000000000000000000000000002A
:10469000051C051D051D051D051D051D051D00002D
:1046A0001CD9051D002200000000000000000000D1
:1046B00000000000000000000000000000000000FA
:1046C00000000000000000000000000000000000EA
:1046D00000000000000000000000000000000000DA
:1046E00000000000000000000000000000000000CA
:1046F00000000000000000000000000000000000BA
:1047000000000000000000000000000000000000A9
:104710000000000000000000000000000000000099
:104720000000000000000000000000000000000089
:104730000000000000000000000000000000000079
:1047400000000000051C051D051D051D051D051D9E
:10475000051D00001CD9051D0022000000000000FE
:104760000000000000000000000000000000000049
:104770000000000000000000000000000000000039
:104780000000000000000000000000000000000029
:104790000000000000000000000000000000000019
:1047A0000000000000000000000000000000000009
:1047B00000000000000000000000000000000000F9
:1047C00000000000000000000000000000000000E9
:1047D00000000000000000000000000000000000D9
:1047E00000000000000000000000000000000000C9
:1047F0000000000000000000051C051D051D051D32
:10480000051D051D051D00001CD9051D0022000009
:104810000000000000000000000000000000000098
:104820000000000000000000000000000000000088
:104830000000000000000000000000000000000078
:104840000000000000000000000000000000000068
:104850000000000000000000000000000000000058
:104860000000000000000000000000000000000048
:104870000000000000000000000000000000000038
:104880000000000000000000000000000000000028
:104890000000000000000000000000000000000018
:1048A000000000000000000000000000051C051DC5
:1048B000051D051D051D051D051D00001CD9051D37
:1048C00000220000000000000000000000000000C6
:1048D00000000000000000000000000000000000D8
:1048E00000000000000000000000000000000000C8
:1048F00000000000000000000000000000000000B8
:1049000000000000000000000000000000000000A7
:104910000000000000000000000000000000000097
:104920000000000000000000000000000000000087
:104930000000000000000000000000000000000077
:104940000000000000000000000000000000000067
:104950000000000000000000000000000000000057
:10496000051C051D051D051D051D051D051D00005A
:104970001CD9051D002200000000000000000000FE
:104980000000000000000000000000000000000027
:104990000000000000000000000000000000000017
:1049A0000000000000000000000000000000000007
:1049B00000000000000000000000000000000000F7
:1049C00000000000000000000000000000000000E7
:1049D00000000000000000000000000000000000D7
:1049E00000000000000000000000000000000000C7
:1049F00000000000000000000000000000000000B7
:104A000000000000000000000000000000000000A6
:104A100000000000051C051D051D051D051D051DCB
:104A2000051D00001CD9051D00220000000000002B
:104A30000000000000000000000000000000000076
:104A40000000000000000000000000000000000066
:104A50000000000000000000000000000000000056
:104A60000000000000000000000000000000000046
:104A70000000000000000000000000000000000036
:104A80000000000000000000000000000000000026
:104A90000000000000000000000000000000000016
:104AA0000000000000000000000000000000000006
:104AB00000000000000000000000000000000000F6
:104AC0000000000000000000051C051D051D051D5F
:104AD000051D051D051D00001CD9051D0022000037
:104AE00000000000000000000000000000000000C6
:104AF00000000000000000000000000000000000B6
:104B000000000000000000000000000000000000A5
:104B10000000000000000000000000000000000095
:104B20000000000000000000000000000000000085
:104B30000000000000000000000000000000000075
:104B40000000000000000000000000000000000065
:104B50000000000000000000000000000000000055
:104B60000000000000000000000000000000000045
:104B7000000000000000000000000000051C051DF2
:104B8000051D051D051D051D051D00001CD9051D64
:104B900000220000000000000000000000000000F3
:104BA0000000000000000000000000000000000005
:104BB00000000000000000000000000000000000F5
:104BC00000000000000000000000000000000000E5
:104BD00000000000000000000000000000000000D5
:104BE00000000000000000000000000000000000C5
:104BF00000000000000000000000000000000000B5
:104C000000000000000000000000000000000000A4
:104C10000000000000000000000000000000000094
:104C20000000000000000000000000000000000084
:104C3000051C051D051D051D051D051D051D000087
:104C40001CD9051D0022000000000000000000002B
:104C50000000000000000000000000000000000054
:104C60000000000000000000000000000000000044
:104C70000000000000000000000000000000000034
:104C80000000000000000000000000000000000024
:104C90000000000000000000000000000000000014
:104CA0000000000000000000000000000000000004
:104CB00000000000000000000000000000000000F4
:104CC00000000000000000000000000000000000E4
:104CD00000000000000000000000000000000000D4
:104CE00000000000051C051D051D051D051D051DF9
:104CF000051D00001CD9051D002200000000000059
:104D000000000000000000000000000000000000A3
:104D10000000000000000000000000000000000093
:104D20000000000000000000000000000000000083
:104D30000000000000000000000000000000000073
:104D40000000000000000000000000000000000063
:104D50000000000000000000000000000000000053
:104D60000000000000000000000000000000000043
:104D70000000000000000000000000000000000033
:104D80000000000000000000000000000000000023
:104D90000000000000000000051C051D14FB14FBB2
:104DA00014FB14FB14FB00001CD9051D002200009D
:104DB00000000000000000000000000000000000F3
:104DC00000000000000000000000000000000000E3
:104DD00000000000000000000000000000000000D3
:104DE00000000000000000000000000000000000C3
:104DF00000000000000000000000000000000000B3
:104E000000000000000000000000000000000000A2
:104E10000000000000000000000000000000000092
:104E20000000000000000000000000000000000082
:104E30000000000000000000000000000000000072
:104E4000000000000000000000000000051C051D1F
:104E50000000000000000000000000001CD9051D3B
:104E60000022000000000000000000000000000020
:104E70000000000000000000000000000000000032
:104E80000000000000000000000000000000000022
:104E90000000000000000000000000000000000012
:104EA0000000000000000000000000000000000002
:104EB00000000000000000000000000000000000F2
:104EC00000000000000000000000000000000000E2
:104ED00000000000000000000000000000000000D2
:104EE00000000000000000000000000000000000C2
:104EF00000000000000000000000000000000000B2
:104F0000051C051D0000000000000000000000005E
:104F10001CD9051D00220000000000000000000058
:104F20000000000000000000000000000000000081
:104F30000000000000000000000000000000000071
:104F40000000000000000000000000000000000061
:104F50000000000000000000000000000000000051
:104F60000000000000000000000000000000000041
:104F70000000000000000000000000000000000031
:104F80000000000000000000000000000000000021
:104F90000000000000000000000000000000000011
:104FA0000000000000000000000000000000000001
:104FB00000000000051C051D0000000000000000AE
:104FC000000000001CD9051D0022000000000000A8
:104FD00000000000000000000000000000000000D1
:104FE00000000000000000000000000000000000C1
:104FF00000000000000000000000000000000000B1
:1050000000000000000000000000000000000000A0
:105010000000000000000000000000000000000090
:105020000000000000000000000000000000000080
:105030000000000000000000000000000000000070
:105040000000000000000000000000000000000060
:105050000000000000000000000000000000000050
:105060000000000000000000051C051D00000000FD
:1050700000000000000000001CD9051D00220000F7
:105080000000000000000000000000000000000020
:105090000000000000000000000000000000000010
:1050A0000000000000000000000000000000000000
:1050B00000000000000000000000000000000000F0
:1050C00000000000000000000000000000000000E0
:1050D00000000000000000000000000000000000D0
:1050E00000000000000000000000000000000000C0
:1050F00000000000000000000000000000000000B0
:10510000000000000000000000000000000000009F
:10511000000000000000000000000000051C051D4C
:105120000000000000000000000000001CD9051D68
:10513000002200000000000000000000000000004D
:10514000000000000000000000000000000000005F
:10515000000000000000000000000000000000004F
:10516000000000000000000000000000000000003F
:10517000000000000000000000000000000000002F
:10518000000000000000000000000000000000001F
:10519000000000000000000000000000000000000F
:1051A00000000000000000000000000000000000FF
:1051B00000000000000000000000000000000000EF
:1051C00000000000000000000000000000000000DF
:1051D000051C051D0000000000000000000000008C
:1051E0001CD9051D00220000000000000000000086
:1051F00000000000000000000000000000000000AF
:10520000000000000000000000000000000000009E
:10521000000000000000000000000000000000008E
:10522000000000000000000000000000000000007E
:10523000000000000000000000000000000000006E
:10524000000000000000000000000000000000005E
:10525000000000000000000000000000000000004E
:10526000000000000000000000000000000000003E
:10527000000000000000000000000000000000002E
:1052800000000000051C051D0000000000000000DB
:10529000000000001CD9051D0022000000000000D5
:1052A00000000000000000000000000000000000FE
:1052B00000000000000000000000000000000000EE
:1052C00000000000000000000000000000000000DE
:1052D00000000000000000000000000000000000CE
:1052E00000000000000000000000000000000000BE
:1052F00000000000000000000000000000000000AE
:10530000000000000000000000000000000000009D
:10531000000000000000000000000000000000008D
:10532000000000000000000000000000000000007D
:105330000000000000000000051C051D000000002A
:1053400000000000000000001CD9051D0022000024
:10535000000000000000000000000000000000004D
:10536000000000000000000000000000000000003D
:10537000000000000000000000000000000000002D
:10538000000000000000000000000000000000001D
:10539000000000000000000000000000000000000D
:1053A00000000000000000000000000000000000FD
:1053B00000000000000000000000000000000000ED
:1053C00000000000000000000000000000000000DD
:1053D00000000000000000000000000000000000CD
:1053E000000000000000000000000000051C051D7A
:1053F0000000000000000000000000001CD9051D96
:10540000002200000000000000000000000000007A
:10541000000000000000000000000000000000008C
:10542000000000000000000000000000000000007C
:10543000000000000000000000000000000000006C
:10544000000000000000000000000000000000005C
:10545000000000000000000000000000000000004C
:10546000000000000000000000000000000000003C
:10547000000000000000000000000000000000002C
:10548000000000000000000000000000000000001C
:10549000000000000000000000000000000000000C
:1054A000051C051D000000000000000000000000B9
:1054B0001CD9051D002200000000000000000000B3
:1054C00000000000000000000000000000000000DC
:1054D00000000000000000000000000000000000CC
:1054E00000000000000000000000000000000000BC
:1054F00000000000000000000000000000000000AC
:10550000000000000000000000000000000000009B
:10551000000000000000000000000000000000008B
:10552000000000000000000000000000000000007B
:10553000000000000000000000000000000000006B
:10554000000000000000000000000000000000005B
:1055500000000000051C051D000000000000000008
:10556000000000001CD9051D002200000000000002
:10557000000000000000000000000000000000002B
:10558000000000000000000000000000000000001B
:10559000000000000000000000000000000000000B
:1055A00000000000000000000000000000000000FB
:1055B00000000000000000000000000000000000EB
:1055C00000000000000000000000000000000000DB
:1055D00000000000000000000000000000000000CB
:1055E00000000000000000000000000000000000BB
:1055F00000000000000000000000000000000000AB
:105600000000000000000000051C051D0000000057
:1056100000000000000000001CD9051D051C0D1C29
:105620000D1C0D1C0D1C0D1C0D1C0D1C0D1C0D1C32
:105630000D1C0D1C0D1C0D1C0D1C0D1C0D1C0D1C22
:105640000D1C0D1C0D1C0D1C0D1C0D1C0D1C0D1C12
:105650000D1C0D1C0D1C0D1C0D1C0D1C0D1C0D1C02
:105660000D1C0D1C0D1C0D1C0D1C0D1C0D1C0D1CF2
:105670000D1C0D1C0D1C0D1C0D1C0D1C0D1C0D1CE2
:105680000D1C0D1C0D1C0D1C0D1C0D1C0D1C0D1CD2
:105690000D1C0D1C0D1C0D1C0D1C0D1C0D1C0D1CC2
:1056A0000D1C0D1C0D1C0D1C0D1C0D1C0D1C0D1CB2
:1056B0000D1C0D1C0D1C0D1C0D1C0D1C051D051DB0
:1056C0000000000000000000000000001CD9051DC3
:1056D000051D051D051D051D051D051D051D051DBA
:1056E000051D051D051D051D051D051D051D051DAA
:1056F000051D051D051D051D051D051D051D051D9A
:10570000051D051D051D051D051D051D051D051D89
:10571000051D051D051D051D051D051D051D051D79
:10572000051D051D051D051D051D051D051D051D69
:10573000051D051D051D051D051D051D051D051D59
:10574000051D051D051D051D051D051D051D051D49
:10575000051D051D051D051D051D051D051D051D39
:10576000051D051D051D051D051D051D051D051D29
:10577000051D051D000000000000000000000000E5
:105780000000000000000000000000000000000019
:105790000000000000000000000000000000000009
:1057A00000000000000000000000000000000000F9
:1057B00000000000000000000000000000000000E9
:10D8300000000000F7BEF7BEF7BEF7BEF7BEF7BEAA
:10D84000F7BEF7BEF7BEF7BEF7BEF7BEF7BEF7BE30
:10D85000F7BEF7BEF7BEF7BEF7BEF7BEF7BEF7BE20
:10D86000F7BEF7BEF7BEF7BEF7BEF7BEF7BEF7BE10
:10D87000F7BEF7BEF7BEF7BEF7BEF7BEF7BEF7BE00
:10D88000F7DEF7DEF7BEF7BEF7BEF7BEF7BEF7BEB0
:10D89000F7BEF7BEF7BEF7BEF7BEF7BEF7BEF7BEE0
:10D8A000F7BEEF9EEF9EEF9EEF9EEF9EEF9EEF9EE8
:10D8B000EF9EF7BEEFBEEF9EEFBEEF9EF7BEF7BE48
:10D8C000F7BEF7BEF7BFF7BEF7BEF7BEF7BEF7BEAF
:10D8D000F7BEF7BEF7BEF7BEF7BEF7BEF7BEF7BEA0
:10D8E000F7BEF7BEF7BEF7BEF7BEF7BEF7BEF7BE90
:10D8F000F7BEF7BEF7BEF7BEF7BEF7BEF7BEF7BE80
:10D90000F7BEF7BEF7BEF7BEF7BEF7BEF7BEF7BE6F
:10D91000F7BEF7BEF7BEF7BEF7BEF7BEF7BEF7BE5F
:10D92000F7BEF7BEF7BEF7BEF7BEF7BEF7BEF7BE4F
:10D93000F7BEF7BEF7BEF7BEF7BEF7BEF7BEF7BE3F
:10D94000F7BEF7BEF7BEF7BEF7BEF7BEF7BEF7BE2F
:10D95000F7BEF7BEF7BEF7BEF7BEF7BEF7BEF7BE1F
:10D96000F7BEF7BEF7BEF7BEF7BEF7BEF7BEF7BE0F
:10D97000F7BEF7BEF7BEF7BEF7BEF7BEF7BEF7BEFF
:10D98000F7BEF7BEF7BEF7BEF7BEF7BEF7BEF7BEEF
:10D99000F7BEF7BEF7BEF7BFEFBEEF9EEFBEEF9E3E
:10D9A000EF9EEF9EE79EEF9EE79EE77FE79FE79F54
:10D9B000E79EE79FE77FE79FE79FEF9EEF9EEF9E43
:10D9C000EF9EEF9EEF9EF7BEF79EF7BFF7BFF7BE45
:10D9D000F7BEF7BEF7BEF7BEF7BEF7BEF7BEF7BE9F
:10D9E000F7BEF7BEF7BEF7BEF7BEF7BEF7BEF7BE8F
:10D9F000F7BEF7BEF7BEF7BEF7BEF7BEF7BEF7BE7F
:10DA0000F7BEF7BEF7BEF7BEF7BEF7BEF7BEF7BE6E
:10DA1000F7BEF7BEF7BEF7BEF7BEF7BEF7BEF7BE5E
:10DA2000F7BEF7BEF7BEF7BEF7BEF7BEF7BEF7BE4E
:10DA3000F7BEF7BEF7BEF7BEF7BEF7BEF7BEF7BE3E
:10DA4000F7BEF7BEF7BEF7BEF7BEF7BEF7BEF7BE2E
:10DA5000F7BEF7BEF7BEF7BEF7BEF7BEF7BEF7BE1E
:10DA6000F7BEF7BEF7BEF7BEF7BFF7BEF7BEF7BE0D
:10DA7000F7BEF7BEF7BEF7BEF7BEF7BEF7BEF7BEFE
:10DA8000F7BEF7BEF7BFF7BEF7BEF7BEF7BEF7BFEC
:10DA9000F79EEF9EEF9EEF9EE79EE79EE77EDF7F7D
:10DAA000DF7FDF7FDF7FD75FD75FD75FD75ED75E50
:10DAB000D75FD75ED75FDF5EDF5EDF5EDF7EDF7E54
:10DAC000E77EE79EE79EEF9EEF9EEFBEEFBEF7BFBD
:10DAD000F7BFF7BEF7BEF7BEF7BEF7BEF7BEF7BE9D
:10DAE000F7BEF7BEF7BEF7BEF7BEF7BEF7BEF7BE8E
:10DAF000F7BEF7BEF7BEF7BEF7BEF7BEF7BEF7BE7E
:10DB0000F7BEF7BEF7BEF7BEF7BEF7BEF7BEF7BE6D
:10DB1000F7BEF7BEF7BEF7BEF7BEF7BEF7BEF7BE5D
:10DB2000F7BEF7BEF7BEF7BEF7BEF7BEF7BEF7BE4D
:10DB3000F7BEF7BEF7BEF7BEF7BEF7BEF7BEF7BE3D
:10DB4000F7BEF7BEF7BEF7BEF7BEF7BEF7BEF7BE2D
