:020000040000FA
:10000000FC0F0020D500000089180000011400003A
:10001000DD000000DF000000E10000000000000043
:100020000000000000000000000000008719000030
:10003000E5000000000000007D19000079000020AC
:10004000EB000000EB000000091B0000451B000056
:1000500083000020DD190000E5190000EB0000001E
:10006000EB000000EB000000DD1B0000EB000000D7
:10007000EB0000005109000059090000EB000000EE
:100080007F190000092A0000EB000000110A00009F
:10009000EB000000EB000000EB000000EB000000B4
:1000A000EB000000EB000000EB000000EB000000A4
:1000B000130A0000EB00000049090000D10900000C
:1000C0000348854600F016FC004800475D2A000002
:1000D000FC0F002005480047FEE7FEE7FEE7FEE7CD
:1000E000FEE7FEE7FEE7FEE7FEE7FEE7C1000000F1
:1000F00030B50B46014600202022012409E00D46C0
:10010000D5409D4205D31D469540491B2546954047
:1001100040191546521E002DF1DC30BD70B500248B
:100120002546002801DA01244042002901DA012590
:100130004942FFF7DDFFAC4200D04042002C00D026
:10014000494270BD0321001D401E037812021A436C
:10015000491EF9D510467047F8B502464A40D40FFB
:1001600042004B0052085B089A4202D202460846FF
:1001700011464A0023D0C30D4A00DDB2120EAD1A5B
:10018000202D35DA49020126490AF6058A19002C84
:1001900000D0524220214F1B1146B9402A4110186D
:1001A000C20D9A4221D0002C17D0012D08DCDA05AF
:1001B000801AD20F8019D207DBB200F0CFFAF8BD57
:1001C000DA05801A012340001B06C01880185A4225
:1001D0008018CA0F1043490007E04908C2071143BD
:1001E000DA05801A80194008801800F0AFFAF8BDCF
:1001F00061000122511A001BF7E70122D20751408A
:10020000AAE70122D2075040A6E7024670B54A404D
:10021000D30FDB0740002DD04A002AD0010E140E68
:10022000000212020919400A520A8418E501044624
:100230005443000A120A2E045043A4194219200CF8
:10024000C543AA18120C0125AD03521C5219120401
:100250007F39240400D0521C104301D44000491EB1
:10026000C2B20C06C0092018401C4008802A02D0E7
:1002700003E0002070BD40084000002900DA0020A3
:10028000184370BDF0B507460846584087B0C00F08
:10029000049048000E46590040084908BC1A88419D
:1002A00005D2384631461E4617460B4602465800D0
:1002B000400810434CD0300D039040055900400DCC
:1002C000490D0590401A0290402872DA1803012166
:1002D000000B09050843019004980092002805D0FE
:1002E00001995242002088410092019002984021D9
:1002F0000A1A0199009800F0F5F905460C466B467C
:1003000007CB00F010FAC0197141039A0E0D0023BB
:10031000D71756401A467A40164344D0049A002A0A
:100320002DD0029A012A039A15DC1205C01A9141B8
:1003300001263605001C7141D20F059ED20700939D
:10034000019202962A46234600F04EFA07B0F0BD0D
:1003500038463146FAE71605224A0F46B218C01A47
:10036000B74101210905001C4F4100187F4111468A
:1003700018187941E20F10436D19644113E0E20748
:100380006D0815436408C2071443039A0126120539
:10039000C01A91413605001C7141CE074008304318
:1003A0004908C01851412A46234600F010FACDE70B
:1003B000FFE7049801224000C117121A00238B4165
:1003C00004983146C417381AA141EEE730B401242D
:1003D000E407634030BC55E730B40124E4076140D2
:1003E00030BC4FE70000E0FFF0B51FB488B00B99B8
:1003F0000998002448400999C00F4900490809910B
:10040000C0070B990090490049080B910999089879
:10041000A64608431CD00B990A98084318D009989F
:1004200001244000420D4800410D099824050003B5
:10043000000B204309900B980003000B20430B9006
:1004400050181C494018002201901446104605E03F
:10045000002001460DB0F0BD032801DA034600E09C
:1004600003239C46C11A0AAE0AE05F0008ADED5BAB
:100470004F00F75B7D430027AA187C41491C5B1E97
:100480006145F2DD410004AB5A522104120C0A43CB
:10049000240C401C0828DFDB01980290009970466C
:1004A00001910090059B049A0799069800F09CF929
:1004B000D0E700000DFCFFFFF0B50C465C4085B0B6
:1004C000E40FE40703944C000026640859009446A6
:1004D000490802460296224321D062460A431ED0B2
:1004E0006200570D4A000E032303550D01240246F6
:1004F0002C492405781B1B0B360B4018234326433D
:10050000614600901C46501AB44103D30098401C29
:10051000009002E0921800985B41002803DA002066
:10052000014605B0F0BD00200121090507468646B9
:1005300011E064461D46141BB54106D36546521BA7
:10054000B341744607430C43A646CD07400849080B
:10055000284392185B4105460D43EAD110461843E3
:1005600013D06046194650407140084306D060469B
:10057000101AB34106D20122002306E00022012313
:10058000DB0702E00122D2435310009874460105B4
:10059000381C6141029C039D0019694100F017F964
:1005A000BFE70000FD03000010B5002296231146AE
:1005B00000F0D4F810BD00000EB5C217C10F5040B6
:1005C000CA0740180021054B0293019200910A4688
:1005D0000B4600F009F903B000BD00003304000031
:1005E000C20F410040020123400ADB05D207090E79
:1005F000C0187F2901DA00207047962903DC962372
:10060000591AC84001E096398840002AF4D0404287
:100610007047000070B5CD0F4A0009030123090B94
:100620001B0519430B4BED070024520D9A4201DACA
:10063000002070BD074B34339A4203DC9A1A00F055
:1006400061F802E00449511888402C43F1D040423F
:1006500070BD0000FF030000CDFBFFFF0122D207A9
:10066000002800DB101A002900DB511A8142704774
:100670000122D207002800DB101A002900DB511AE2
:1006800088427047F0B51FB40646002082B0054688
:100690004024019100901BE0019922460F4630460C
:1006A00000F030F8049A059B801A994110D3104647
:1006B0001946224600F016F8361A8F410197224655
:1006C00001200021009F00F00DF838184D410090E6
:1006D0002046641E0028DFDC019B00982946324634
:1006E00007B0F0BD10B5202A04DB0146203A914046
:1006F000002010BD914020239C1A0346E34019437B
:10070000904010BD10B5202A04DB0846203AD040A6
:10071000002110BD0B46D340D0402024A21A9140A6
:100720000843194610BD10B5202A06DBCB17084632
:10073000203A1041C1170B4306E00B461341D0404D
:100740002024A21A91400843194610BD002904DA5A
:10075000401C490001D140084000704770B400249B
:10076000050C05D11024000402D1002921D0112448
:10077000050E01D100020834050F01D10001241D2E
:10078000850F01D18000A41C002801DB4000641CFF
:10079000002908D020252E1B0D46F540A14000D091
:1007A00001212943084301061B1B000ADB1D02D55A
:1007B000002070BC7047DB05181880180029F8DA93
:1007C000401C4900F5D170BC40084000704710B58E
:1007D000002B08DA0024401C614192185B411A4347
:1007E00001D14008400010BDF0B51FB482B00546ED
:1007F0000C0003D0084601F011FA02E001F00EFAF5
:1008000020300246009021462846FFF76BFF049BEC
:10081000059A04460F4618431143084314D018465E
:1008200010431BD0009840210A1A18460599FFF77B
:1008300069FF05460E46009A05990498FFF752FF96
:10084000084305D0012004E02046394607B0F0BD3A
:100850000020C11705430E432C43374300990E98DF
:100860006305401A7905E40A00220C43FD0A0A30A8
:1008700002D500200146E9E70105101969410C9CE9
:100880000D9D00196941FFF7A2FFDFE74A00090348
:100890000123090B1B0519430A4B10B5520D9A424F
:1008A00002DA0020014610BD064B34339A4203DCC5
:1008B0009A1AFFF727FF10BD034BD218FFF712FF5C
:1008C00010BD0000FF030000CDFBFFFF10B50029A5
:1008D00004DB0124E40740428C412146002B04DB69
:1008E0001C460123DB075242A341994200D19042AA
:1008F00010BD0000064C0125064E05E0E36807CC5C
:100900002B430C3C98471034B442F7D3FFF7DCFB81
:10091000F41D0300241E030003B40148019001BD2F
:10092000F900002003B40148019001BDFD00002042
:1009300003B40148019001BD9100002003B40148B7
:10094000019001BD1501002010B501F0FFFE10BDA2
:1009500010B500F0CDFC10BD7047000070B51B4E07
:100960003046FFF7D9FF01252843044602F026F858
:1009700021463046FFF7D6FF144E083E3046FFF7BB
:10098000CBFF2843044602F019F821463046FFF712
:10099000C9FF0E4E361D3046FFF7BEFFAD0228439D
:1009A000044602F00BF821463046FFF7BBFF074E26
:1009B0000C363046FFF7B0FF2843044601F0FEFF37
:1009C00021463046FFF7AEFF70BD00000C0002402C
:1009D0007047000008B50D4801684022114300919E
:1009E0000160416912031143009141610099521065
:1009F000114300914161042001F0F9FF002104201E
:100A000001F0FDFF042000F04DFF08BD0060004034
:100A1000704770477CB50026444C05460196009609
:100A200020680121C903084320600120A840012259
:100A3000014612041043206021602060082D02D07E
:100A4000092D02D004E03A4801E0812040022060F4
:100A50000A2001F06DFD60683649009012E00198AF
:100A6000421C019288420DD920680090014632A0B4
:100A700001F0C4F860680090014639A001F0BEF8AA
:100A8000FF207CBD6068C002E9D528490120000331
:100A9000403101962B0001F0D8F80A060B151A1FF9
:100AA000242F34394111E0680090014637A003E05B
:100AB00020690090014640A001F0A0F8266000984F
:100AC00080B27CBD60690090014646A0F4E7A06951
:100AD000009001464EA0EFE7E0690090014657A064
:100AE000EAE7216801432160142001F021FD206A1A
:100AF000009001465CA0DFE7606A0090014665A0B7
:100B0000DAE7A06A009001466DA0D5E722680243AB
:100B1000226088690090014673A0CDE722680243F5
:100B20002260C869009001467AA0C5E700600140D4
:100B300000010100B80B00000D0A2068775F6770A4
:100B40006164632D3E6374726C204144435F454E83
:100B50002D2D2D206269743132203D202564000046
:100B60000D0A2068775F67706164632D3E7374615E
:100B70007475732047504144435F454F432D2D2DDD
:100B8000206269743136203D202564000D0A204121
:100B900044432047504144435F4348414E5F302027
:100BA0002D2D2D20646174615F6368302064617451
:100BB00061203D20256400000D0A20414443204768
:100BC000504144435F4348414E5F31202D2D2D203D
:100BD000646174615F6368312064617461203D20E9
:100BE000256400000D0A20414443204750414443FE
:100BF0005F4348414E5F32202D2D2D20646174618A
:100C00005F6368322064617461203D2025640000C8
:100C10000D0A204144432047504144435F4348412B
:100C20004E5F33202D2D2D20646174615F63683326
:100C30002064617461203D20256400000D0A20417C
:100C400044432047504144435F4348414E5F342072
:100C50002D2D2D20646174615F636834206461749C
:100C600061203D20256400000D0A204144432047B7
:100C7000504144435F4348414E5F35202D2D2D2088
:100C8000646174615F6368352064617461203D2034
:100C9000256400000D0A204144432047504144434D
:100CA0005F4348414E5F36202D2D2D2064617461D5
:100CB0005F6368362064617461203D202564000014
:100CC0000D0A204144432047504144435F4348417B
:100CD0004E5F37202D2D2D20646174615F6368376E
:100CE000203D2025640000000D0A20414443204798
:100CF000504144435F4348414E5F38202D2D2D2005
:100D0000646174615F6368382064617461203D20B0
:100D1000256400000D0A20414443204750414443CC
:100D20005F4348414E5F39202D2D2D206461746151
:100D30005F6368392064617461203D202564000090
:100D4000F8B51C4615460E46074601F083FF0146DE
:100D5000064802694269009246608760C560069A4B
:100D600014430460084601F078FFF8BD00600040BD
:100D7000F8B506460F463048FFF7BAF94407C508EC
:100D8000640F39462D48FFF7B3F90A21FFF7B0F990
:100D9000002780220123002E18D0012E2BD0022EF6
:100DA00048D127484760C6681643C660EEB2066061
:100DB0002D042D0E4560E6076508F60F3419E40092
:100DC0002C19113484621E4C403428E01D484760C1
:100DD000C6681643C660EEB206602D042D0E45604F
:100DE000E6076508F60F3419E4002C191134846203
:100DF000144C403413E014484760C6681643C6607C
:100E0000EEB206602D042D0E4560E6076508F60F6C
:100E10003419E4002C19113484620B4C4034E56819
:100E20002D092D010D43E560C1689143C160072183
:100E300081604360F8BD00008096980000E1F505F0
:100E400000400040001000400030004002490860AF
:100E500048694006FCD57047001000400148806991
:100E60007047000000E000E038B50025214C204824
:100E7000009520602068A114084320600A2001F03A
:100E800057FB1D4906E00098421C0092884201D998
:100E9000002038BD6068C002F5D51420009501F02F
:100EA00047FB206A256080B27D21C9004843134971
:100EB000FFF71EF9FFF780FB114A124BFFF794FA78
:100EC000FFF7A8FB044601460FA000F097FE194863
:100ED000844202DD18A000F091FE1E48844205DD28
:100EE0001D49012008701DA000F088FEA0B238BD89
:100EF0002080010000600140B80B0000FF0F0000DF
:100F00006666666666661A400D0A6E4765745F56C9
:100F10006261745F566F6C74616765206164635FC2
:100F2000636F6E766572745F5F5F32203D2025646B
:100F300000000000ED0E00004261747465727920BB
:100F40005061636B20566F6C74616765203E20337F
:100F50002E385600941100000C00002055534220FA
:100F6000355620686173206265656E20706C756708
:100F700067656420696E0000F8B50746002A13D043
:100F8000002B11D0B81886B2C81885B20C4609E0FB
:100F900006982346009032461946384600F005F878
:100FA000641CA4B2AC42F3D9F8BDFFB585B0059876
:100FB0000E46151A00209C1BC043002D01DB0121A9
:100FC00000E001460391002C00DB01200290002D7F
:100FD00000DA6D42002C00DA644268000190600083
:100FE0000090A5421ADD441B002713E031460E9AFB
:100FF000059800F02FF8002C04DB0198241A0298C1
:10100000301886B20098039924180598401880B2C9
:101010007F1C0590AF42E9DD09B0F0BD0198051BCA
:10102000002713E031460E9A059800F013F8002DC2
:1010300006DB009803992D1A0598401880B2059098
:1010400001982D180298301886B27F1CA742E9DD5E
:10105000E2E7000010B514464A1C93B2421C92B25B
:1010600000F0BFFB01221146104601F095FC034839
:1010700001494160046010BD9B0F010000B00140B8
:10108000FFB5064681B0801885B202980A9CC01848
:10109000029B87B200942A4619463046FFF785FF27
:1010A0003B462A46194630460094FFF77EFF3246FB
:1010B0003B46009410460299FFF777FF2A463B46CD
:1010C000009410460299FFF770FF05B0F0BDFFB520
:1010D0000F4600255000032185B0081A1E4614460D
:1010E000019041E000960599381949198AB2039197
:1010F00083B281B20598401B029080B2FFF755FF82
:101100000399381B8AB283B281B20298009680B2EA
:10111000FFF74BFF00960599781909198AB20391D8
:1011200083B281B20598001B029080B2FFF73DFFA9
:101130000399781B8AB283B281B20298009680B27A
:10114000FFF733FF0198002804DAA9000818801D72
:10115000019007E0281B8100019808180A30641EDE
:10116000A4B201906D1CADB2A542BBD3A5422DD156
:1011700000960599381949198AB2029183B281B251
:101180000598401B019080B2FFF70FFF0299381BB2
:101190008AB283B281B20198009680B2FFF705FF50
:1011A000009605987919001982B2019005988BB2C2
:1011B000041B89B2A0B2FFF7F8FE0198791B8BB22D
:1011C00082B2009689B2A0B2FFF7EFFE09B0F0BD7F
:1011D000FFB583B00C9C0F981D461646642C00D9B1
:1011E00064240090681E83B2771E0190BAB20499FD
:1011F0000398FFF7C1FE2046361F70436421FEF7B7
:101200008DFF0204120C0BD00E98009004986D1FF5
:10121000801C81B20398ABB2801C80B2FFF7ACFE99
:101220000D9800900198BAB283B204990398FFF721
:1012300027FF07B0F0BD000010B5002101220028F3
:101240000DD001280AD10D480161C2600F21416013
:101250000B49416041680BA000F0D0FC10BD16485E
:1012600001610161C260C260054A103A4260044AED
:10127000303A4260C160416810A0EDE700D0014003
:10128000BB0F010048575F5350495F315F496E699A
:101290007469616C697365205852375F5350495FB8
:1012A00043544C206877705F737069312D3E43540E
:1012B000524F4C3D2025780000B0014048575F5305
:1012C00050495F305F496E697469616C697365206C
:1012D0005852375F5350495F43544C206877705FD2
:1012E000737069302D3E4354524F4C3D2025780099
:1012F00010B50021084A094806E0146843681C70CC
:101300005B1C491C89B2436093685B0502D5038866
:101310009942F2D310BD000000B001401800002037
:1013200038B5144601220D461146104601F034FB33
:1013300008480749416002210091002322462946BE
:10134000FFF7FEFC7D20C000FFF7F2FA38BD000079
:101350008B0F010000B0014038B5144601220D4644
:101360001146104601F018FB084807494160032167
:101370000091042322462946FFF7E2FC7D20C000AD
:10138000FFF7D6FA38BD00009B0F010000B0014006
:1013900038B5144601220D461146104601F0FCFAFC
:1013A0000848074941600221009108232246294646
:1013B000FFF7C6FC7D20C000FFF7BAFA38BD000079
:1013C000AB0F010000B0014038B5144601220D46B4
:1013D0001146104601F0E0FA084807494160022131
:1013E0000091002322462946FFF7AAFC7D20C00079
:1013F000FFF79EFA38BD00008B0F010000B00140DE
:10140000FEE7000010B50F210B2001F0B1F90448F0
:10141000016880229143016002480068C0B210BD9B
:10142000008401400082014010B51D21122001F00E
:101430009FF9044801684022914301600248006816
:10144000C0B210BD008401400091014010B51521CB
:101450000E2001F08DF913210D2001F089F91121E1
:101460000C2001F085F90221012001F077FA012119
:10147000084601F073FA0021012001F06FFA10BD57
:1014800010B5012204461146104601F085FA0348C2
:1014900001494160046010BD9B0F010000B0014094
:1014A00010B5044C2046FFF737FA00212046FFF71D
:1014B00039FA10BD2800024010B5074C2046FFF74E
:1014C0002BFA03210902884309218901014320469F
:1014D000FFF728FA10BD00002800024031B50124B2
:1014E0007F230021A4031A46084600F07AF9224619
:1014F00069460020FFF730FF38BD10B5FFF7A6FFA3
:1015000000F054F9782001F0FEF8FF2000F094F983
:10151000A52000F081F93E2000F08EF9082000F0AF
:101520007BF93A2000F088F9652000F075F98220F7
:1015300000F082F9002000F06FF9982000F07CF9AB
:10154000002000F069F9632000F076F90F2000F028
:1015500063F9642000F070F90F2000F05DF9B42009
:1015600000F06AF9342000F057F9B52000F064F972
:10157000302000F051F9832000F05EF9032000F0E4
:101580004BF9862000F058F9042000F045F9872037
:1015900000F052F9162000F03FF9882000F04CF9D5
:1015A000282000F039F9892000F046F92F2000F0BA
:1015B00033F9932000F040F9632000F02DF99620D4
:1015C00000F03AF9812000F027F9C32000F034F947
:1015D000112000F021F9E62000F02EF9002000F0A3
:1015E0001BF9992000F028F9012000F015F944209A
:1015F00000F022F9002000F00FF9702000F01CF933
:10160000022000F009F9712000F016F90E2000F018
:1016100003F9722000F010F90A2000F0FDF87320A1
:1016200000F00AF9122000F0F7F8742000F004F935
:10163000192000F0F1F8752000F0FEF81D2000F0F0
:10164000EBF8762000F0F8F8462000F0E5F8772077
:1016500000F0F2F80B2000F0DFF8782000F0ECF852
:101660000E2000F0D9F8792000F0E6F83D2000F0D7
:10167000D3F87A2000F0E0F8052000F0CDF87B20C8
:1016800000F0DAF8072000F0C7F87C2000F0D4F86A
:10169000122000F0C1F87D2000F0CEF80B2000F001
:1016A000BBF87E2000F0C8F80B2000F0B5F87F20D2
:1016B00000F0C2F8082000F0AFF8A02000F0BCF85D
:1016C0001E2000F0A9F8A12000F0B6F83F2000F09D
:1016D000A3F8A22000F0B0F80A2000F09DF8A320A3
:1016E00000F0AAF80D2000F097F8A42000F0A4F86C
:1016F000082000F091F8A52000F09EF8232000F0CB
:101700008BF8A62000F098F83D2000F085F8A7207F
:1017100000F092F8042000F07FF8A82000F08CF888
:10172000092000F079F8A92000F086F8302000F0B8
:1017300073F8AA2000F080F80A2000F06DF8AB20C2
:1017400000F07AF80E2000F067F8AC2000F074F892
:101750000E2000F061F8AD2000F06EF8072000F0D8
:101760005BF8AE2000F068F82D2000F055F8AF20AF
:1017700000F062F8102000F04FF8FF2000F05CF855
:10178000002000F049F8112000F056F8962000F0F3
:10179000BAFF362000F050F8082000F03DF829206C
:1017A00000F04AF80A2000F0AEFF10BD10B501218C
:1017B0000022084601F0F0F8642000F0A4FF0022A7
:1017C0001146012001F0E8F8FF20F53000F09BFF02
:1017D00001210022084601F0DFF8322000F093FFDB
:1017E00010BDF8B504461D4616460F462A2000F0E7
:1017F00023F82046FFF744FE3046FFF741FE2B203A
:1018000000F01AF83846FFF73BFE2846FFF738FE8F
:101810002C2000F011F8F8BD10B501220446114645
:10182000104601F0B9F8034801494160046010BD59
:101830008B0F010000B0014010B5044601220021C9
:10184000104601F0A9F8034801494160046010BD49
:101850008B0F010000B0014038B501220C4605464F
:101860001146104601F098F80648054941600221EA
:101870000091002322462946FFF762FA38BD000096
:101880008B0F010000B0014070470000002805DB0D
:10189000C106C90E01208840014908607047000058
:1018A00080E200E0002805DBC106C90E0120884067
:1018B000014908607047000000E100E08307FF2253
:1018C000DB0E9A400907090E994000280BDA000741
:1018D000000F0838830808489B001818C369934311
:1018E0000B43C3617047830804489B001B181868AA
:1018F000904308431860704700ED00E000E400E00A
:1019000070B50020FFF708F80420FFF705F808205D
:10191000FFF702F80C20FEF7FFFF1020FEF7FCFF98
:101920002020FEF7F9FF2420FEF7F6FF2820FEF71F
:10193000F3FF2C20FEF7F0FF3020FEF7EDFF0C4EFA
:101940003046FEF7E9FF0B4D10206C68044321463A
:101950003046FEF7E7FF361F30466C60FEF7DCFFCF
:10196000054C30462146FEF7DDFF2C6070BD0000BF
:1019700024000240000000209D78869D704710B52D
:1019800000F0D2FE10BD7047094910B5401E8842D4
:1019900001D9012010BD074C60610021481EFFF7EE
:1019A0008DFF0020A06107202061002010BD0000F5
:1019B000FFFFFF0000E000E010B5FFF7A1FF00F01F
:1019C000CDFE1F2001F013F800211F2001F017F8B1
:1019D0001F2001F010F8FEF7B1FF10BD10B500F0A8
:1019E0008BF810BD10B500F0A7FF10BD10B5024870
:1019F00000F004FE10BD00002C00002070B5FFF7C1
:101A000001FDC009C00115D17F2300211A460846F7
:101A1000FFF7E7FE174C01252078ED0300281FD0C3
:101A200015A000F0EBF82A461B490020FFF7CCFC7C
:101A300000202070FFF7F8FC4021084207D1FFF793
:101A40002FFD00F08DFDFEF789FF01F049F901F04F
:101A5000EFF80146402802D110A000F0CFF870BD89
:101A60001DA000F0CBF82A4622490020FFF7ACFC6D
:101A70000120DEE7260000200D0A204B3237204BE4
:101A8000455920507265737320446F776E2041670B
:101A900061696E200D0A200060AD00000D0A202152
:101AA0002121216D695F746F755F6465746563746E
:101AB0002D2D2D6770696F5F61362048494748209A
:101AC000212121206770696F5F73746174757320C1
:101AD0003D202578000000000D0A204B3237204BB6
:101AE000455920507265737320446F776E200D0A3C
:101AF00020000000602D010008B50248C068009079
:101B000008BD00000010014010B500F001F810BD44
:101B100008B50B4881680907090FCA070FD10229C8
:101B20000CD0042907D0062908D14169C9B20A0797
:101B300001D5890702D401786A461170806808BD12
:101B40000010004010B500F001F810BD08B50B48BA
:101B500081680907090FCA070FD102290CD004298F
:101B600007D0062908D14169C9B20A0701D58907FA
:101B700002D401786A461170806808BD00300040C8
:101B8000F8B5FF23013300261A43104F0125002822
:101B900018D0012818D0022813D10D4C666065605A
:101BA0006660E2606762226926612361FF23033376
:101BB0002361920602D5FF2223322261FFF7D8F873
:101BC0006560F8BD034CE9E7034CE7E7010200005C
:101BD000004000400010004000300040054804492B
:101BE0000160054A0121D1600021016070470000B9
:101BF00051E5CC1A004C0140004001400FB410B533
:101C000003A9044B044A029800F0F6F810BC08BC83
:101C100004B018471B270000280000202021020CD8
:101C200001D010211046020A01D0104608390209DD
:101C300001D01046091F820801D01046891E4208B3
:101C400001D0881E7047081A704730B47446641E6D
:101C50002578641CAB4200D21D46635D5B00E3182F
:101C600030BC184702E008C8121F08C1002AFAD188
:101C700070477047002001E001C1121F002AFBD10C
:101C800070470000F0B51FB486B00998089A030D9C
:101C90000021024314D05148514A181850430514EA
:101CA0001198012810981AD0281A401C00264D4F70
:101CB0004D49009601910490002812DA444211E047
:101CC0001198012449A3012801D11098C143069815
:101CD000119A84600360C26041600BB0F0BD404265
:101CE000E4E70446210500203F4A001C51410391CE
:101CF000029012E0E00707D032463B460199009877
:101D0000FEF772FB0191009032463B4610461946A1
:101D1000FEF76AFB06460F466410002CEAD10498D1
:101D2000039B0028029A0999089806DAFEF75CFBE3
:101D3000019B009AFEF758FB05E0FEF7BDFB019BF7
:101D4000009AFEF7B9FB04460E460022284BFEF728
:101D5000BDFD03D80020C043014607E00022254B0B
:101D600020463146FEF78EFAFEF790FD102409E07A
:101D7000002C0ADB0A220023FEF784FC079B30328A
:101D80001A55641E02460A43F2D11122641C079BB5
:101D9000121B1C19119B012B03D0012308430ED1E8
:101DA0000AE0084304D0112010900020119077E73A
:101DB0001098151A6D1E0BE01098824202DD002368
:101DC0006D1C03E0824201DA00236D1E002BEED071
:101DD000069811998260C16030C07EE701FCFFFF68
:101DE000104D0000000014400000F03F30000000E3
:101DF0000000F0430000E03FFFB597B00646002525
:101E000018E2252877D100242746FD49049400E0F4
:101E10000443761C32780120203A90400842F7D1E2
:101E200030782A280ED0022230780146303909292C
:101E300016D804990A235943303940181443761CA4
:101E40000490F1E7189802C804911890002904DA68
:101E50000120400304434842049002200443761CBE
:101E600030782E2814D1042004437078761C2A2858
:101E700009D11898761C80C8189009E00A214F43B0
:101E8000303FC719761C3078014630390929F5D919
:101E900030786C2810D006DC4C281AD068280ED078
:101EA0006A2817D104E0742813D07A2812D110E0E0
:101EB0000120400504430CE00121090501E0032154
:101EC00009050C437178814203D1012000052418D3
:101ED000761C761C3078119066280BD013DC5828BD
:101EE0007DD009DC00287BD04528F6D04628F4D0E8
:101EF00047281AD1A5E118E0632835D0642870D0AE
:101F0000652812D19DE170286CD008DC6728F1D0DB
:101F100069287BD06E280DD06F2806D1BAE07328CF
:101F20002ED0752871D0782859D01A9A19999047CF
:101F30006D1C7EE16002400F022809D003280DD0FD
:101F40000428189801680DD00D60001D189070E1EC
:101F50001898EA1701680D604A60F6E7189801685A
:101F60000D80F2E70D70F0E718986A46017811725B
:101F7000001D18900020507202A80090012005E07A
:101F8000189802C8189000200091C04361070DD531
:101F9000002101E00199491C0191B94212DA814204
:101FA000F8DB009A515C0029F4D10BE0002101E03C
:101FB0000199491C01918142FADB019A0099895CDF
:101FC0000029F5D1019904981A9B471A21463846F1
:101FD000199A00F097FA0199401945180BE04FE063
:101FE0002CE113E04EE0009800990078491C009124
:101FF0001A9A199990470198401E0190401CF2D1FD
:10200000214638461A9B199A10E137E00A20002130
:10201000009001916002410F022907D0189A01CA6D
:102020001892C2179446032908D00AE01898C01DD8
:10203000C108C90005C91891944607E000B2C2174B
:102040009446042902D140B2C1178C460022614651
:10205000944506DA0A460021404291418C462D21E2
:1020600002E0210504D52B216A461173012103E00A
:10207000E10701D02021F7E7029155E00A200AE0AC
:10208000102008E01020009000210420044301915A
:10209000082703E008200021019100906002410F11
:1020A000022907D0189A01CA1892002294460329DF
:1020B00008D008E01898C01DC108C90005C91891CA
:1020C000944603E080B2042900D1C0B200210291FD
:1020D000210729D51199702906D0009A1021019B5A
:1020E0004A401A4305D00EE040216A46117301218F
:1020F00008E06146014306D030216A461173119908
:10210000517302210291009A0821019B4A401A430F
:102110000AD16146014301D1610705D530216A46E4
:10212000117301217F1E02911199582904D035A104
:102130000E910DA90D910DE037A1F9E76146019BC4
:10214000009AFEF79FFA0E9B8C469B5C0D9A521EDE
:102150000D92137061460143F0D10D9805A9081A3C
:1021600020300190600703D501200004844300E083
:1021700001270198874201DD381A00E0002001990B
:1021800000904118029809180498401A0490E0033E
:1021900006D421461A9B199A049800F0B3F9451900
:1021A000002706E003A81A9AC05D199990476D1C94
:1021B0007F1C02988742F5DBE0030CD521461A9B71
:1021C000199A049800F09EF9451904E01A9A3020F3
:1021D000199990476D1C0099481E00900029F5DC64
:1021E00008E00D980D990078491C0D911A9A1999DB
:1021F00090476D1C0199481E01900029F1DC63E1B4
:1022000009280100303132333435363738396162CC
:102210006364656600000000303132333435363790
:1022200038394142434445460000000000F05AF965
:102230004519761C3078002800D0E2E528461BB00E
:10224000F0BD600700D406271898C01DC108C9005A
:1022500048680A680831C30FDB071891190001D0DC
:102260009CA108E0210501D59BA104E0E10701D074
:102270009AA100E09AA1430011985B08109165288B
:102280000CD006DC452809D046281DD0472841D16E
:1022900041E0662818D067283CD13CE00021112F8E
:1022A00001DB112000E0781C0191009008A911A821
:1022B000FFF7E8FC139905910021119A15927F1CF4
:1022C00012980197009150E00120C007039001206F
:1022D000019008A9009711A8FFF7D4FC139A14994C
:1022E00005920022119B009212981593059A019273
:1022F000002901D0104602E0791C40180190381ADC
:1023000001D5019804E04042401E0090781C0190E5
:10231000C01B029043E0012F00DA01270021112F9A
:1023200001DD112000E038460191009008A911A8B4
:10233000FFF7A8FC13990591119A002112981592A4
:102340000091019721070CD40599B94201DB01994D
:1023500000E00191012904DD159A491E515C3029E4
:1023600006D0B84201DA011D05DA0121029115E01B
:102370000199491EEDE7002805DC009941180091FC
:102380000199091A03E0019A411C914200DD019173
:102390000099401A401C02900120C00703902007BA
:1023A00006D402990198814202DB0020C0430290CA
:1023B00000206946C87707AF012103980337C90792
:1023C000884224D0022011902B20129003980028DC
:1023D0000CDA404203902D20129007E00A21039866
:1023E000FDF786FE30317F1E039039701199481E2B
:1023F00011900029F2DC03980028EFD1791E129881
:1024000008703078202108404530BF1E387006A87B
:10241000C01BC01D039010980078002800D0012038
:10242000019941180298C0170918039809180498CF
:10243000401A401E0490E00306D421461A9B199AC4
:10244000049800F05FF8451910980078002803D030
:102450001A9A199990476D1CE00324D521461A9BBE
:10246000199A049800F04EF845191CE000980028CD
:1024700007DB00990598884203DD1598405C19999F
:1024800001E0199930201A9A904700986D1C401C61
:1024900000900298401E0290002804D11A9A2E2023
:1024A000199990476D1C0199481E01900029DDDCA7
:1024B00005E038781A9A7F1C199990476D1C03998A
:1024C000481E03900029F4DC21461A9B199A0498AF
:1024D000ACE600002D0000002B00000020000000F2
:1024E00000000000F8B5044600251E461746880483
:1024F00004D405E039462020B0476D1C641EF9D590
:102500002846F8BDFFB50446002581B01E46C80325
:1025100001D5302700E02027880404D505E038469F
:102520000399B0476D1C641EF9D5284605B0F0BD6F
:1025300008B50021009102E0009A521C0092401E52
:10254000FAD2009108BD10B51E2000F050FA00210B
:102550001E2000F054FA1E2000F04DFA10BD0000BD
:1025600070B514491448FEF7DDF913480021001D29
:10257000FEF7D8F9134C114D11492046FEF7D2F958
:102580002946251D2846FEF7CDF9261F0121304694
:10259000FEF7C8F930BF0A4920461031FEF7C2F9EC
:1025A00000212846FEF7BEF901213046FEF7BAF9B0
:1025B00030BF70BD85788E602000024001020000AF
:1025C00040200040200001400021017041807D2218
:1025D0008180D200C2803F2212068260044AC2601B
:1025E0008161044AC161026101620349416270472D
:1025F000CDCCCC3D0AD7233C00007A44F8B5044644
:10260000FEF732FC608000F0EDF9A08022782746CA
:102610007D25002602210837ED001300FFF715FB8A
:102620000504151E395153006088284A904201D292
:10263000012044E0264A904202D22170254802E05F
:102640000320207024486061F8BD2448E08062883F
:102650001E488242F8D321701E4817E0FDF7A4FF00
:102660000146384600F0FBFAFDF7BAFF281AA842E7
:1026700001DD284602E0002800DA0020E0806188C1
:1026800013488142E0D3032020701348A6616061A3
:10269000F8BD6088FDF788FF0146384600F0DFFA94
:1026A000FDF79EFF281AA84201DD284602E0002817
:1026B00000DA0020E080A0883228E9D204202070CF
:1026C000F8BDE580F8BD2670F8BD0000B80B00002D
:1026D000681000000000FA4300408345B603000084
:1026E00002200021401EFDD20220491C6E2901D289
:1026F000801EF7E770470101002001E000BF401C89
:102700008842FBD3704710B50446002302E0FFF770
:10271000E7FF5B1CA342FAD310BD00B50246C0B26E
:10272000FEF794FB104600BD10B5074C2046FEF79F
:10273000F3F8102102460A400843102A03D101464B
:102740002046FEF7EFF810BD3C20004010B50121F7
:102750000148FEF7E7F810BD0800024008B503483D
:102760000169202211430091016108BD0000014070
:1027700010B501246B4AE4050300FFF766FA190E51
:10278000202B2B2B2B33393F464D545B62697077DE
:102790007E858C939AA9BBCB2B000123002907D0FF
:1027A000012917D1506818435060106888438BE0A6
:1027B00010681843106050684008400086E002200E
:1027C000022908D0032905D15168014351601168DD
:1027D0008143116010BD116801431160516881434C
:1027E000516010BD40200429F5D00529ECD010BD62
:1027F00080200629EFD00729E6D010BDFF20013048
:102800000829E8D00929DFD010BD012040020A299B
:10281000E1D00B29D8D010BD012080020C29DAD0DC
:102820000D29D1D010BD0120C0020E29D3D00F290F
:10283000CAD010BD012000031029CCD01129C3D06B
:1028400010BD012040031229C5D01329BCD010BDF2
:10285000012080031429BED01529B5D010BD012058
:10286000C0031629B7D01729AED010BD012000042F
:102870001829B0D01929A7D010BD012040041A2969
:10288000A9D01B29A0D010BD012080041C29A2D0F2
:102890001D2999D010BD0120C0041E299BD01F29DD
:1028A00092D010BD01200005202994D021298BD081
:1028B00010BD222928D02329FAD1506801214905C9
:1028C0000843506010688843106010BD506010BD10
:1028D00001239B05242907D02529F8D150681843E6
:1028E000506010689843EFE7106818431060506814
:1028F0009843EBE7262907D02729E8D150682043E1
:1029000050601068A043DFE71068204310605068F3
:10291000A043DBE701200006282987D0292987D09A
:1029200010BD000000030440024800210160416026
:10293000816070470003044008B5064801684A1CDE
:102940000260C82901DD002101600348C0680090D1
:1029500008BD0000200000200020014030B50C4BD5
:102960000C4C002802D0012802D003E01A6800E0D5
:102970002268D2B201258D40E9B20A43002802D074
:10298000012802D002E01A6000E02260002030BD81
:10299000008401400094014091400123921C934027
:1029A000002805D0012802D102481818016070479C
:1029B0000148FAE7009001400080014038B500244A
:1029C000074D009404E00098401C0090642804D84F
:1029D0002846FDF7A1FFC003F5D4009438BD0000E0
:1029E0000800024010B50720FEF714F810BD00B52E
:1029F000FEF74CFF00BD00B5FEF754FF00BD00B56B
:102A0000FEF75CFF00BD000010B5FEF727FA024993
:102A1000886000F003F810BD0C0000200548044950
:102A200081610121C1610169490849000161704763
:102A3000A55A00000020024070B514465C43CB1834
:102A400082185B1E521E9BB292B2049DFEF7C9FE15
:102A5000A2B229460020FEF77FFC70BD86B0FEF7CB
:102A6000ABFFFFF770FDFFF75FFF25211620FFF793
:102A70007FFE27211720FFF77BFE21211420FFF77F
:102A800077FE22211520FFF773FE06210720FFF7AE
:102A90006FFEFEF711FD0020FEF7CEFBFEF72DFDC9
:102AA0007F2300211A460846FEF79BFEFDF792FFA2
:102AB0004E48FEF713FD1F25ED0240212B46142240
:102AC0000846FEF704FB7D27BF013846FFF713FEDB
:102AD00001246403224646490020FEF759FC45487C
:102AE000FFF709FE224644490020FEF751FC384614
:102AF000FFF701FE224641490020FEF749FC384617
:102B0000FFF7F9FD00246846048204A880230090A2
:102B10001A4621462046FFF78FFF3846FFF7EBFDA8
:102B200057236D2227211420FEF75BFE344A3549D6
:102B30000020FEF7F5FB6D230A211A460846FEF732
:102B400050FE314E314932460020FEF73DFC3846FA
:102B5000FFF7D1FD00F0F4F8E1277F0203223946A8
:102B60000020FFF70DF8032239460120FFF708F88F
:102B700009210820FFF7FCFD0B210920FFF7F8FDD4
:102B80000D210A20FFF7F4FD0A213C2364220846A8
:102B90000095FEF775FA3F211D4849013C22142398
:102BA0000092029103900194642219461846FEF7A0
:102BB0000FFB3046FEF7E8FE1648FFF705FD164D01
:102BC00032212C682046FDF793FA002901D1FEF747
:102BD00015FF64212046FDF78BFA0C0001D1FEF7AA
:102BE00043F9002CECD1FEF701FFE9E7FFFF0000FD
:102BF000602D00001027000060AD0100602D020074
:102C00007422000080FB0200204E000060AD020034
:102C1000108400002C0000201000002003480169EF
:102C200004221143016130BF7047000000ED00E055
:102C300010B50D210A20FFF79BFD044801684022D2
:102C40009143016002480068C0B210BD0084014099
:102C50000081014072B60020704762B67047F8B537
:102C60000446C068FDF7C9FA054629462069FDF704
:102C700073FA2061E169FDF7FBFC01D2E069206194
:102C8000A1692069FDF7EAFC01D2A069206128460C
:102C90006169FDF7B2FAA26801461046FDF7B5FA80
:102CA000074621696068FDF7B0FA064629462068A4
:102CB000FDF7ABFA3146FDF74FFA3946FDF74CFA0E
:102CC00065610646E169FDF7D3FC00D2E669A169BA
:102CD0003046FDF7C3FC00D2A6693046F8BD0000BF
:102CE000154C2046FDF718FE802101432046FDF7D4
:102CF00019FE114D8C3D2846FDF70EFE01210843BB
:102D00000446FFF75BFE21462846FDF70BFE2C1F0D
:102D10002046FDF701FEFFF751FE34212046FDF766
:102D200001FEFFF74BFE044804493038FDF7FAFD79
:102D3000FFF774FFFEE7000090000240102700003C
:102D400010B56D230A211A460846FEF74AFD0249CE
:102D50000248FEF781FD10BD204E000060AD02006C
:102D600002E002E002E002E002E002E002E002E053
:102D700002E002E002E002E002E002E002E002E043
:102D800002E002E002E002E002E002E002E002E033
:102D900002E002E002E002E002E002E002E002E023
:102FE00002E002E002E002E002E002E802E002E0C9
:102FF00002E001E002E802E002E002E002E002E0BA
:1030000002E002E002E002E002E002E002E002E0B0
:1030100002E002E002E002E002E002E002E002E0A0
:1030200002E002E002E002E002E002E002E002E090
:1030300002E002E002E002E002E002E002E002E080
:1030400002E002E002E002E002E002E002E002E070
:1030500002E002E002E002E002E002E002E002E060
:1030600002E002E002E002E002E002E002E002E050
:1030700002E002E002E002E002E002E002E002E040
:1030800002E002E002E002E002E002E002E002E030
:1030900002E002E002E002E002E002E002E002E020
:1030A00002E002E002E002E002E002E002E002E010
:1030B00002E002E002E002E002E002E002E002E000
:1030C00002E002E002E002E002E002E002E002E0F0
:1030D00002E002E002E002E002E002E022E802E0B8
:1030E00002E002E002E002E802E001E021E802E0A2
:1030F00022E042E002E002E002E002E002E002E060
:1031000002E002E002E002E002E002E002E002E0AF
:1031100002E002E002E002E002E002E002E002E09F
:1031200002E002E002E002E002E002E002E002E08F
:1031300002E002E002E002E002E002E002E002E07F
:1031400002E002E002E002E002E002E002E002E06F
:1031500002E002E002E002E002E002E002E002E05F
:1031600002E002E002E002E002E002E002E002E04F
:1031700002E002E002E002E002E002E002E002E03F
:1031800002E002E002E002E002E002E002E002E02F
:1031900002E002E002E002E002E002E002E002E01F
:1031A00002E002E002E002E002E002E002E002E00F
:1031B00002E002E002E002E002E002E002E002E0FF
:1031C00002E002E002E002E002E002E002E002E0EF
:1031D00002E002E002E002E022E002E001E001E0C1
:1031E00002E021E002E002E802E001E061D822E032
:1031F00081E0A3E902E021E002E002E002E002E077
:1032000002E002E002E002E002E002E002E002E0AE
:1032100002E002E002E002E002E002E002E002E09E
:1032200002E002E002E002E002E002E002E002E08E
:1032300002E002E002E002E002E002E002E002E07E
:1032400002E002E002E002E002E002E002E002E06E
:1032500002E002E002E002E002E002E002E002E05E
:1032600002E002E002E002E002E002E002E002E04E
:1032700002E002E002E002E002E002E002E002E03E
:1032800002E002E002E002E002E002E002E002E02E
:1032900002E002E002E002E002E002E002E002E01E
:1032A00002E002E002E002E002E002E002E002E00E
:1032B00002E002E002E002E002E002E002E002E0FE
:1032C00002E002E002E002E002E002E002E002E0EE
:1032D00002E002E002E002E002E002E022E001E0BF
:1032E00022E021E002E021E021E002E041DA61D8C1
:1032F00001E125FC02E021E002E002E002E002E060
:1033000002E002E002E002E002E002E002E002E0AD
:1033100002E002E002E002E002E002E002E002E09D
:1033200002E002E002E002E002E002E002E002E08D
:1033300002E002E002E002E002E002E002E002E07D
:1033400002E002E002E002E002E002E002E002E06D
:1033500002E002E002E002E002E002E002E002E05D
:1033600002E002E002E002E002E002E002E002E04D
:1033700002E002E002E002E002E002E002E002E03D
:1033800002E002E002E002E002E002E002E002E02D
:1033900002E002E002E002E002E002E002E002E01D
:1033A00002E002E002E002E002E002E002E002E00D
:1033B00002E002E002E002E002E002E002E002E0FD
:1033C00002E002E002E002E002E002E002E002E0ED
:1033D00002E002E002E002E001E002E082D822E046
:1033E00001D9A4E941D860D860D041D863FD01DAA1
:1033F000E0D824FD02E801E002E002E002E002E0A1
:1034000002E002E002E002E002E002E002E002E0AC
:1034100002E002E002E002E002E002E002E002E09C
:1034200002E002E002E002E002E002E002E002E08C
:1034300002E002E002E002E002E002E002E002E07C
:1034400002E002E002E002E002E002E002E002E06C
:1034500002E002E002E002E002E002E002E002E05C
:1034600002E002E002E002E002E002E002E002E04C
:1034700002E002E002E002E002E002E002E002E03C
:1034800002E002E002E002E002E002E002E002E02C
:1034900002E002E002E002E002E002E002E002E01C
:1034A00002E002E002E002E002E002E002E002E00C
:1034B00002E002E002E002E002E002E002E002E0FC
:1034C00002E002E002E002E002E002E002E002E0EC
:1034D00002E002E002E002E002E002E0A1D823E81C
:1034E000E5F464F3C1D982EBC0D1E0D0C2FE03F5AC
:1034F000C0D842FD02E802E002E002E002E002E899
:1035000002E002E002E002E002E002E002E002E0AB
:1035100002E002E002E002E002E002E002E002E09B
:1035200002E002E002E002E002E002E002E002E08B
:1035300002E002E002E002E002E002E002E002E07B
:1035400002E002E002E002E002E002E002E002E06B
:1035500002E002E002E002E002E002E002E002E05B
:1035600002E002E002E002E002E002E002E002E04B
:1035700002E002E002E002E002E002E002E002E03B
:1035800002E002E002E002E002E002E002E002E02B
:1035900002E002E002E002E002E002E002E002E01B
:1035A00002E002E002E002E002E002E002E002E00B
:1035B00002E002E002E002E002E002E002E002E0FB
:1035C00002E002E002E002E002E002E002E002E0EB
:1035D00002E002E002E002E002E002E041E002E09C
:1035E00084FDC1D9E3FD83FE42F5A2ECC1FEC2FE1B
:1035F000C0D802F502E021E002E002E002E001E0D2
:1036000002E002E002E002E002E002E002E002E0AA
:1036100002E002E002E002E002E002E002E002E09A
:1036200002E002E002E002E002E002E002E002E08A
:1036300002E002E002E002E002E002E002E002E07A
:1036400002E002E002E002E002E002E002E002E06A
:1036500002E002E002E002E002E002E002E002E05A
:1036600002E002E002E002E002E002E002E002E04A
:1036700002E002E002E002E002E002E002E002E03A
:1036800002E002E002E002E002E002E002E002E02A
:1036900002E002E002E001E002E002E002E001E01C
:1036A00002E002E002E002E002E002E002E002E00A
:1036B00002E002E002E002E002E002E002E002E0FA
:1036C00002E002E002E002E002E002E002E002E0EA
:1036D00002E002E002E002E001E002E001E021E0BD
:1036E00042E381D801FF83FEC1FEE1FEE1FE00FF5F
:1036F00020D122F522D841D002E002E002E002E02F
:1037000002E002E002E002E002E002E002E002E0A9
:1037100002E002E002E002E002E002E002E002E099
:1037200002E002E002E002E002E002E002E002E089
:1037300002E002E002E002E002E002E002E002E079
:1037400002E002E002E002E002E002E002E002E069
:1037500002E002E002E002E002E002E002E002E059
:1037600002E002E002E002E002E002E002E002E049
:1037700002E002E002E002E002E002E002E002E039
:1037800002E002E002E002E002E002E002E002E029
:1037900001E002E001E001E002E002E002E001E01D
:1037A00002E002E002E002E002E002E002E002E009
:1037B00002E002E002E002E002E002E002E002E0F9
:1037C00002E002E002E002E002E002E002E002E0E9
:1037D00002E002E002E002E002E802E022E001E0B2
:1037E00020D101E0C1FEE2F400FF00F700FF00FF7E
:1037F000A3EC82FE00D1A1DA21E061D802E002E070
:1038000002E002E002E002E002E002E002E002E0A8
:1038100002E002E002E002E002E002E002E002E098
:1038200002E002E002E002E002E002E002E002E088
:1038300002E002E002E002E002E002E002E002E078
:1038400002E002E002E002E002E002E002E002E068
:1038500002E002E002E002E002E002E002E002E058
:1038600002E002E002E002E002E002E002E002E048
:1038700002E002E002E002E002E002E002E002E038
:1038800002E002E002E002E002E002E002E002E028
:1038900021D802E082D8C2E002E802E002E022E0A1
:1038A00002E002E002E002E002E002E002E002E008
:1038B00002E002E002E002E002E002E002E002E0F8
:1038C00002E002E002E002E002E002E002E002E0E8
:1038D00002E002E002E002E002E002E001E002E0D9
:1038E000A1D021E0C1FE01E4E0FE00FF00FF01FFE6
:1038F000C2FE01FF03FD43FE22D903EB02E042E0DA
:1039000002E002E002E002E002E002E002E002E0A7
:1039100002E002E002E002E002E002E002E002E097
:1039200002E002E002E002E002E002E002E002E087
:1039300002E002E002E002E002E002E002E002E077
:1039400002E002E002E002E002E002E002E002E067
:1039500002E002E002E002E002E002E002E002E057
:1039600002E002E002E002E002E002E002E002E047
:1039700002E002E002E002E002E002E002E002E037
:1039800002E002E002E002E002E002E002E002E027
:1039900081D802E0A2D9C4EA02E842E002E002E0F3
:1039A00002E002E002E002E002E002E002E002E007
:1039B00002E002E002E002E002E002E002E002E0F7
:1039C00002E002E002E002E002E002E002E002E0E7
:1039D00002E002E002E002E001E002E021E021E09A
:1039E00021DA61D8E1FEA2F500FF00FFE0FE00FF52
:1039F000C2FEC1FE44FD43FEC3E1C5EB02E062E04E
:103A000002E002E002E002E002E002E002E002E0A6
:103A100002E002E002E002E002E002E002E002E096
:103A200002E002E002E002E002E002E002E002E086
:103A300002E002E002E002E002E002E002E002E076
:103A400002E002E002E002E002E002E002E002E066
:103A500002E002E002E002E002E002E002E002E056
:103A600002E002E002E002E002E002E002E002E046
:103A700002E002E002E002E002E002E002E002E036
:103A800002E002E002E002E002E002E002E002E026
:103A900040D901E062EBE4F422E081D802E002E0E8
:103AA00002E002E002E002E002E002E002E002E006
:103AB00002E002E002E002E002E002E002E002E0F6
:103AC00002E002E002E002E002E002E002E002E0E6
:103AD00002E002E002E002E001E002E041D822E080
:103AE000E3F481D9E2FEC2FEE0FEE1FEE2FEE0FE8A
:103AF00061E362F540D920DA21D8A1D802E022E0C2
:103B000002E002E002E002E002E002E002E002E0A5
:103B100002E002E002E002E002E002E002E002E095
:103B200002E002E002E002E002E002E002E002E085
:103B300002E002E002E002E002E002E002E002E075
:103B400002E002E002E002E002E002E002E002E065
:103B500002E002E002E002E002E002E002E002E055
:103B600002E002E002E002E002E002E002E002E045
:103B700002E002E002E002E002E002E002E002E035
:103B800002E002E002E002E002E002E001E002E81E
:103B900061DA41D802FD44FE02E001D902E002E010
:103BA00002E002E002E002E002E002E002E002E005
:103BB00002E002E002E002E002E002E002E002E0F5
:103BC00002E002E002E002E002E002E002E002E0E5
:103BD00002E002E002E002E021E002E001D922E09E
:103BE00044FE24F4A2F522FE81FE61F5C2FEE1FE50
:103BF000A0D841DB21E041E002E022E002E002E067
:103C000002E002E002E002E002E002E002E002E0A4
:103C100002E002E002E002E002E002E002E002E094
:103C200002E002E002E002E002E002E002E002E084
:103C300002E002E002E002E002E002E002E002E074
:103C400002E002E002E002E002E002E002E002E064
:103C500002E002E002E002E002E002E002E002E054
:103C600002E002E002E002E002E002E002E002E044
:103C700002E002E002E002E002E002E002E002E034
:103C800002E002E002E002E002E001E002E002E025
:103C9000E2EB80D022FEE3FE21D821DA02E002E846
:103CA00002E002E002E002E002E002E002E002E004
:103CB00002E002E002E002E002E002E002E002E0F4
:103CC00002E002E002E002E002E002E002E002E0E4
:103CD00002E002E002E002E021E002E0E3E941D894
:103CE00062E3A4F360D941DA62E460D183FEC3FEEB
:103CF00041E081E202E002E002E002E002E002E0F4
:103D000002E002E002E002E002E002E002E002E0A3
:103D100002E002E002E002E002E002E002E002E093
:103D200002E002E002E002E002E002E002E002E083
:103D300002E002E002E002E002E002E002E002E073
:103D400002E002E002E002E002E002E002E002E063
:103D500002E002E002E002E002E002E002E002E053
:103D600002E002E002E002E002E002E002E002E043
:103D700002E002E002E002E002E002E002E002E033
:103D800002E002E002E002E002E002E022E002E003
:103D900062FD40D9A1FEE1FE61D8C2EB02E002E083
:103DA00002E002E002E002E002E001E002E002E004
:103DB00002E002E002E002E002E002E002E002E0F3
:103DC00002E002E002E002E002E002E002E002E0E3
:103DD00002E002E002E002E002E002E082D822E03B
:103DE00061D8A1D821E041D8E0D141D864FE84FD5A
:103DF00021E021DA02E002E002E002E002E002E07B
:103E000002E002E002E002E002E002E002E002E0A2
:103E100002E002E002E002E002E002E002E002E092
:103E200002E002E002E002E002E002E002E002E082
:103E300002E002E002E002E002E002E002E002E072
:103E400002E002E002E002E002E002E002E002E062
:103E500002E002E002E002E002E002E002E002E052
:103E600002E002E002E002E002E002E002E002E042
:103E700002E002E002E002E002E002E002E002E032
:103E800002E002E002E002E002E002E021D802E00B
:103E900062FE80E2C1FE01FF01D943F502E002E0CB
:103EA00002E002E002E002E002E002E002E002E002
:103EB00002E002E002E002E002E002E002E002E0F2
:103EC00002E002E002E002E002E002E002E002E0E2
:103ED00002E002E002E002E002E002E021E001E0B4
:103EE00022E022E022E002E080D002E084FD02E352
:103EF00021E0C1D902E002E002E002E002E002E0DB
:103F000002E002E002E002E002E002E002E002E0A1
:103F100002E002E002E002E002E002E002E002E091
:103F200002E002E002E002E002E002E002E002E081
:103F300002E002E002E002E002E002E002E002E071
:103F400002E002E002E002E002E002E002E002E061
:103F500002E002E002E002E002E002E002E002E051
:103F600002E002E002E002E002E002E002E002E041
:103F700002E002E002E002E002E002E002E002E031
:103F800002E002E002E002E002E802E080D822E083
:103F9000C1FE22F401FF00FF41E223FE02E021D82E
:103FA00002E002E002E002E002E002E002E002E001
:103FB00002E002E002E002E002E002E002E002E0F1
:103FC00002E002E002E002E002E002E002E002E0E1
:103FD00002E002E002E002E002E802E002E001E0CA
:103FE00002E002E002E822E021D802E065F3E1D835
:103FF00022E042E102E002E002E002E002E002E050
:1040000002E002E002E002E002E002E002E002E0A0
:1040100002E002E002E002E002E002E002E002E090
:1040200002E002E002E002E002E002E002E002E080
:1040300002E002E002E002E002E002E002E002E070
:1040400002E002E002E002E002E002E002E002E060
:1040500002E002E002E002E002E002E002E002E050
:1040600002E002E002E002E002E002E002E002E040
:1040700002E002E002E002E002E002E002E002E030
:1040800002E002E002E002E002E001E060D921D8B3
:10409000E1FE62FDE0FE00FFC2EBA2FE22E0A1D83D
:1040A00002E002E002E802E002E002E002E002E0F8
:1040B00002E002E002E002E002E002E002E002E0F0
:1040C00002E002E002E002E002E002E002E002E0E0
:1040D00002E002E002E002E002E002E002E002E8C8
:1040E00002E001E002E001E001E002E0C2D822E0EB
:1040F00022E082D802E002E002E002E002E002E018
:1041000002E002E002E002E002E002E002E002E09F
:1041100002E002E002E002E002E001E002E002E090
:1041200002E002E002E002E002E002E002E002E07F
:1041300002E002E002E002E002E002E002E002E06F
:1041400002E002E002E002E002E002E002E002E05F
:1041500002E002E002E002E002E002E002E002E04F
:1041600002E002E002E002E002E002E002E002E03F
:1041700002E002E002E002E002E002E002E002E02F
:1041800002E002E002E002E022E002E0E1E240D8E8
:10419000E0FE42FE00F700FF42F5E1FE22E061D9B9
:1041A00002E801E022E002E002E001E002E002E0D9
:1041B00002E002E002E002E002E002E002E002E0EF
:1041C00002E002E002E002E002E002E002E002E0DF
:1041D00002E002E002E002E002E002E002E002E0CF
:1041E00002E002E002E002E002E002E002E002E0BF
:1041F00002E022E002E002E002E002E002E002E08F
:1042000001E002E042E041E001E021E002E021E0E3
:1042100002E002E002E002E002E022E002E001E06F
:1042200002E002E802E002E002E002E002E002E076
:1042300002E002E002E002E002E002E002E002E06E
:1042400002E002E002E002E002E002E002E002E05E
:1042500002E002E002E002E002E002E002E002E04E
:1042600002E002E002E002E002E002E002E002E03E
:1042700002E002E002E002E002E002E002E002E02E
:1042800002E002E001E002E002E002E042ECC1D81C
:10429000E0FEC1FE00FF00FF43FEE0FE41D861DA10
:1042A00001E001E002E002E002E002E002E002E000
:1042B00002E002E002E002E002E002E002E002E0EE
:1042C00002E002E002E002E002E002E002E002E0DE
:1042D00002E002E002E002E002E002E002E002E0CE
:1042E00002E002E002E002E002E002E002E002E0BE
:1042F00002E002E002E002E002E002E001E002E0AF
:1043000001E002E0A2E161E041D841D901E022E010
:1043100022E021E002E001E002E022E003E822E006
:1043200002E002E002E002E002E002E002E002E07D
:1043300002E002E002E002E002E002E002E002E06D
:1043400002E002E002E002E002E002E002E002E05D
:1043500002E002E002E002E002E002E002E002E04D
:1043600002E002E002E002E002E002E002E002E03D
:1043700002E002E002E002E002E002E002E002E02D
:1043800002E002E001E002E021E002E0A2FD81D1D2
:1043900000FFE0FE00FFE0FEC2FE00FFA0D801EC3F
:1043A00022E002E002E002E002E002E002E002E0DD
:1043B00002E002E002E002E002E002E002E002E0ED
:1043C00002E002E002E002E002E002E002E002E0DD
:1043D00002E002E002E002E002E002E002E002E0CD
:1043E00002E002E002E002E002E002E002E002E0BD
:1043F00002E002E002E002E002E002E001E001E0AF
:1044000022E002E043EB61D860D103F402E041D83E
:1044100022E022E021D981D822E002E102E802E094
:1044200002E002E002E002E002E002E002E002E07C
:1044300002E002E002E002E002E002E002E002E06C
:1044400002E002E002E002E002E002E002E002E05C
:1044500002E002E002E002E002E002E002E002E04C
:1044600002E002E002E002E002E002E002E002E03C
:1044700002E002E002E002E002E002E002E002E02C
:1044800002E002E002E002E041D802E082FEE1E266
:1044900000FF00FF00FFE0FEE1FE00FF60D983FDAA
:1044A00001E002E002E002E002E002E002E002E0FD
:1044B00002E002E002E002E002E002E002E002E0EC
:1044C00002E002E002E002E002E002E002E002E0DC
:1044D00002E002E002E002E002E002E002E002E0CC
:1044E00002E002E002E002E002E002E002E002E0BC
:1044F00002E002E002E002E002E002E002E002E0AC
:1045000001D802E0E2E261D8A2F424FE61D880D1B1
:1045100060D981D865FC21E341E003EA01E022E0B3
:1045200002E002E002E002E002E002E002E002E07B
:1045300002E002E002E002E002E002E002E002E06B
:1045400002E002E002E002E002E002E002E002E05B
:1045500002E002E002E002E002E002E002E002E04B
:1045600002E002E002E002E002E002E002E002E03B
:1045700002E002E002E002E002E002E002E002E02B
:1045800002E002E002E002E0C0D802E0E2FE82F4D3
:1045900000FF00FF00FF01FF00FF00FFC1E262FE1D
:1045A00001E021D802E002E002E002E002E002E0E5
:1045B00002E002E002E002E002E002E002E002E0EB
:1045C00002E002E002E002E002E002E002E002E0DB
:1045D00002E002E002E002E002E002E002E002E0CB
:1045E00002E002E002E002E002E002E002E002E0BB
:1045F00002E002E002E002E002E002E002E002E0AB
:1046000022E002E062E221D8A2FE42FE80D203F55F
:1046100022F542EBC4F463FE21D8E0D002E022E8A8
:1046200002E002E002E002E002E002E002E002E07A
:1046300002E002E002E002E002E002E002E002E06A
:1046400002E002E002E002E002E002E002E002E05A
:1046500002E002E002E002E002E002E002E002E04A
:1046600002E002E002E002E002E002E002E002E03A
:1046700002E002E002E002E002E002E002E002E02A
:1046800002E002E002E002E080D921D8E1FEC2FDB2
:1046900000FF00FF00FFE0FE00FFE0FE63ECA1FE74
:1046A00001E0A0D002E002E002E002E002E002E06D
:1046B00002E002E002E002E002E002E002E002E0EA
:1046C00002E002E002E002E002E002E002E002E0DA
:1046D00002E002E002E002E002E002E002E002E0CA
:1046E00002E002E002E002E002E002E002E002E0BA
:1046F00002E002E002E002E002E002E002E002E0AA
:1047000002E002E0A1D901E0E1FEE2FD22F6C2FEF4
:10471000C2FE82FEA1E243FE22E041D802E002E0B6
:1047200002E002E002E002E002E002E002E002E079
:1047300002E002E002E002E002E002E002E002E069
:1047400002E002E002E002E002E002E002E002E059
:1047500002E002E002E002E002E002E002E002E049
:1047600002E002E002E002E002E002E001E002E03A
:1047700002E002E002E002E002E002E002E002E029
:1047800002E002E002E002E022E361D001FF62FE0B
:1047900000FFE0FE00FF00FF00FF00FF82F5E1FEEA
:1047A00021E080D902E002E002E002E002E002E063
:1047B00002E002E002E002E002E002E002E002E0E9
:1047C00002E001E002E002E002E001E002E002E0DB
:1047D00002E002E002E002E002E002E002E002E0C9
:1047E00002E002E002E002E002E002E002E002E0B9
:1047F00002E002E002E002E002E002E002E002E0A9
:1048000021E001E000D261D8E0FEC2F501F701FF2E
:10481000E2FEC1FE20D9E2F402E021D801E002E884
:1048200002E002E002E002E002E002E002E002E078
:1048300002E002E002E002E002E002E002E002E068
:1048400002E002E002E002E002E002E002E002E058
:1048500002E002E002E002E002E002E002E002E048
:1048600002E002E001E022E021E001D802E022E0E3
:1048700002E002E021E021E021E021E021E021E06E
:1048800021D821E040D821D8C3F4E0D0E0FEC1FE19
:1048900000FF00FF00FF00FF00FF00FF82FE00FF9F
:1048A00081D801E322E021D821E002E001E021E00B
:1048B00022E001E001D822E022E021E022E002E053
:1048C00021E022D822E021D822E802E002E001E043
:1048D00002E002E002E002E002E002E002E002E0C8
:1048E00002E002E002E002E002E002E002E002E0B8
:1048F00002E002E002E002E002E002E022E002E088
:1049000001D941D802EDA1DAE0FEA1FEE0FE00FFF0
:10491000C1FE01FF80D880DB23E822D801E002E05D
:1049200002E001E002E002E002E002E002E002E078
:1049300002E002E002E002E002E002E002E002E067
:1049400002E002E002E002E002E002E002E002E057
:1049500002E002E002E002E002E002E002E002E047
:1049600002E002E081D041D820D100D120D120D175
:1049700040D120D180D960D9C0D980D9E0D9E0D93F
:1049800000DA00DA60DA20DA02FE40DBE0FEE1FE67
:1049900000FF00FF00FF00FF00FF00FFC1FE00FF5F
:1049A000A1DA01ED20DA40E2E0E100DAC0D9E0D995
:1049B000A0D9A0D960D980D940D160D100D120D16F
:1049C000C0D0E0C822E081D002E002E002E002E0D4
:1049D00002E002E002E002E002E002E002E002E0C7
:1049E00002E002E002E002E002E002E002E002E0B7
:1049F00002E002E002E002E002E002E0A1D822E0F0
:104A000083F421DAE2FE23FEE0FEE1FE00FF00FF78
:104A100001FF00FFE1D922F521E041D802E022E0C8
:104A200002E002E002E002E002E002E002E002E076
:104A300002E002E002E002E002E002E002E002E066
:104A400002E002E002E002E002E002E002E002E056
:104A500002E002E002E002E002E002E002E002E046
:104A600021E002E045F3C2E0A4FD25FDC4FDC4FD44
:104A7000E3FDE3FD03FEE3FD02FE02FE22FE02FE75
:104A800042FE42FE62FE42FEC1FEA2FEE0FEE1FEEA
:104A900000FFE0FE00FF00FF00FF00FFE0FE00FF60
:104AA00062FEE1FE61FE42FE42FE42FE22FE42FE48
:104AB00002FE02FEE3FD02FEC4FDE3FDC4FDC3FDF4
:104AC00086FC84FD42D844EA02E002E002E001E80C
:104AD00002E002E002E002E002E002E002E002E0C6
:104AE00002E002E002E002E002E002E002E002E0B6
:104AF00002E002E002E002E002E002E0E4E942E07B
:104B000064FD65F4A2FE03FEE1FEC2FE00FF01FFAC
:104B100001FF01FF03F5C2FE61D8C1D902E022E026
:104B200002E001E002E002E002E002E002E002E076
:104B300002E002E002E002E002E002E002E002E065
:104B400002E002E002E002E002E002E002E002E055
:104B500002E002E002E002E002E002E002E002E045
:104B600001E002E020D921D843FEC2EBE1FEC2FE03
:104B7000E1FEE1FEE0FEE0FEE0FEE0FE00FFE0FE22
:104B800000FF00FFE1FE00FFE0FE01FF00FF00FF6D
:104B900000FF20FF00FF00FF00FF00FF00FF00FFFD
:104BA00000FF00FF00FF01FFE0FEE0FEE0FE00FF6F
:104BB000E0FEE0FEE0FEE0FEE1FEE1FEA3FEE1FE3F
:104BC000A2E263FD22E0A0D002E002E002E002E8FF
:104BD00002E002E002E002E002E002E002E002E0C5
:104BE00002E002E002E002E002E002E002E002E0B5
:104BF00002E002E002E002E002E002E060D822E02F
:104C0000A1D9E1D801DB61E2A2FE82E4E1FEE1FE8E
:104C100083FEA2FE83FEC3FE81E1C4F422E842E0EB
:104C200002E002E002E002E002E002E002E002E074
:104C300002E002E002E002E002E002E002E002E064
:104C400002E002E002E002E002E002E002E002E054
:104C500002E002E002E002E002E002E002E002E044
:104C600022E002E021D802E0E1E2C1D8C1FEA3FDCA
:104C700000FF00FF00FF00FF00FF00FF00FF00FF3C
:104C800000FF00FF00FF00FF01FFE0FE00FF00FF4C
:104C900000FF00FF00FF00FF00FF00FF00FF00FF1C
:104CA00000FF00FFE0FE00FF00FF00FF00FF00FF2D
:104CB00000FF00FF00FF00FFE1FE00FFA3FC82FEFB
:104CC00061D8E0D902E022E002E002E802E002E07E
:104CD00002E002E002E002E002E002E002E002E0C4
:104CE00002E002E002E002E002E002E002E002E0B4
:104CF00002E002E002E002E002E002E002E002E0A4
:104D000021D801E081D822E003FEC0D162FE01FF7C
:104D100061DAA1E382EBE1E2E4F203F422E0C2E033
:104D200002E002E002E002E002E002E002E002E073
:104D300002E002E002E002E002E002E002E002E063
:104D400002E002E002E002E002E002E002E002E053
:104D500002E002E002E002E002E002E002E002E043
:104D600002E002E002E002E080D822E0E3F401DAAF
:104D7000E1FE82FE00FF01FFE0FEE0FEE0FEE0FE5D
:104D800000FF00FF00FF00FF00FF00FF00FF00FF2B
:104D900000FF00FF00FF00FF00FF00FFE0FE00FF3C
:104DA00000FF00FF00FF00FF00FF00FF00FF00FF0B
:104DB000E0FEE0FEE0FE01FF22FEE1FE21D9E3EB92
:104DC00002E041D802E002E002E002E002E002E09C
:104DD00002E002E002E002E002E002E002E002E0C3
:104DE00002E002E002E002E002E002E002E002E0B3
:104DF00002E002E002E002E002E002E002E002E0A3
:104E000002E001E022E002E043FDE0D002F5C2FE54
:104E100061D820D180D861D881D880D802E021E043
:104E200002E002E002E002E002E002E002E002E072
:104E300002E002E002E002E002E002E002E002E062
:104E400002E002E002E002E002E002E002E002E052
:104E500002E002E002E002E002E002E002E002E042
:104E600002E002E002E002E001E002E860D961D87D
:104E700043FE02EC00FFE1FE00FF00FF00FF00FF29
:104E8000E0FEE0FE00FF00FF00FF00FF00FF00FF6C
:104E900000FF00FF00FF00FF00FF00FF00FF00FF1A
:104EA00000FF00FF00FF00FF00FF00FFE0FE00FF2B
:104EB00000FF00FFC2FEE1FEE1DAA2F521E0C0D86A
:104EC00002E002E002E002E002E002E002E002E0D2
:104ED00002E002E002E002E002E002E002E002E0C2
:104EE00002E002E002E002E002E002E002E002E0B2
:104EF00002E002E002E002E002E002E002E002E0A2
:104F000002E001E002E002E062F4A0D881DA24FECF
:104F100002E061D821E021E001E001E002E002E0EE
:104F200002E002E002E002E002E002E002E002E071
:104F300002E002E002E002E002E002E002E002E061
:104F400002E002E002E002E002E002E002E002E051
:104F500002E002E002E002E002E002E002E002E041
:104F600002E002E002E002E002E802E821D802E00A
:104F7000E1E2E0D0C1FEC3FDE0FEE0FE00FFE0FEA6
:104F800000FF00FFE0FEE0FE00FF00FF00FF00FF6B
:104F900000FF00FF00FF00FF00FF00FF00FF00FF19
:104FA00000FF00FF00FF00FF00FF00FF00FF00FF09
:104FB000C1FE00FFC2F482FE81D8E0D102E021E010
:104FC00002E001E002E002E002E002E002E002E0D2
:104FD00002E002E002E002E002E002E002E002E0C1
:104FE00002E002E002E002E002E002E002E002E0B1
:104FF00002E002E002E002E002E002E002E002E0A1
:1050000002E001E002E002E042EB61D801D964F481
:1050100002E022E002E022E002E002E002E002E040
:1050200002E002E002E002E002E002E002E002E070
:1050300002E002E002E002E002E002E002E002E060
:1050400002E002E002E002E002E002E002E002E050
:1050500002E002E002E002E002E002E002E002E040
:1050600002E802E002E002E002E001E002E002E029
:1050700081D802E023F520DA00FFA2FEE0FEE0FE88
:1050800000FF00FF00FF00FF00FF00FF00FF00FF28
:1050900000FF00FF00FF00FF00FF00FF00FF00FF18
:1050A00000FF00FF00FF00FF00FF00FF00FFE0FE29
:1050B00023FEE1FE41D1C2EB01E061D802E002E053
:1050C00002E001E002E002E002E002E002E002E0D1
:1050D00002E002E002E002E002E002E002E002E0C0
:1050E00002E002E002E002E002E002E002E002E0B0
:1050F00002E002E002E002E002E002E002E002E0A0
:1051000001E001E002E802E0C2E141E041D803E24F
:1051100002E022E002E002E002E002E002E002E05F
:1051200002E002E002E002E002E002E002E002E06F
:1051300002E002E002E002E002E002E002E002E05F
:1051400002E002E002E002E002E002E002E002E04F
:1051500002E002E002E002E002E002E002E002E03F
:1051600002E002E002E001E002E002E002E002E030
:1051700021E002E081D161D843FE02ECE0FEE1FED5
:10518000E0FE00FF00FF00FF00FF00FF00FF00FF48
:1051900000FF00FF00FF00FF00FF00FF00FF00FF17
:1051A00000FF00FFE0FE00FF00FFE0FEC2FEE0FEA9
:1051B000E2DAA3FD41D8E1D002E822E002E002E019
:1051C00002E002E002E002E002E002E002E002E0CF
:1051D00002E002E002E002E002E002E002E002E0BF
:1051E00002E002E002E002E002E002E002E002E0AF
:1051F00002E002E002E002E002E002E002E002E09F
:1052000002E002E002E802E062E022E001D882E08F
:1052100002E822E002E002E802E002E002E002E04E
:1052200002E002E002E002E002E002E002E002E06E
:1052300002E002E002E002E002E002E002E002E05E
:1052400002E002E002E002E002E002E002E002E04E
:1052500002E002E002E002E002E002E002E002E03E
:1052600001E002E002E802E002E002E002E002E027
:1052700002E002E021D822E001E300D9E1FEC3FD13
:10528000E1FE01FF00FF00FF00FF00FF00FF00FF45
:1052900000FF00FF00FF00FF00FF00FFE0FE00FF37
:1052A00000FF00FFE0FEE0FEE1FEE0FEE3F4A2FE10
:1052B00081D800DA02E021E002E002E002E022E030
:1052C00002E002E002E002E002E002E002E002E0CE
:1052D00002E002E002E002E002E002E002E002E0BE
:1052E00002E002E002E002E002E002E002E002E0AE
:1052F00002E002E002E002E002E002E002E002E09E
:1053000001E002E002E002E002E002E002E021E06F
:1053100001E002E002E002E002E002E002E002E07E
:1053200002E002E002E002E002E002E002E002E06D
:1053300002E002E002E002E002E002E002E002E05D
:1053400002E002E002E002E002E002E002E002E04D
:1053500002E002E002E002E002E002E002E002E03D
:1053600002E002E002E002E002E002E002E002E02D
:1053700002E002E002E002E080D021E003F562DA20
:1053800001FFA2FE00FF00FF00FF00FF00FF00FF83
:1053900000FF00FF00FF00FF00FF00FFE0FE00FF36
:1053A00000FF00FF00FF00FF22FEE1FE61D922ECBA
:1053B00022E041D802E002E002E002E002E002E086
:1053C00002E002E002E002E002E002E002E002E0CD
:1053D00002E002E002E002E002E002E002E002E0BD
:1053E00002E002E002E002E002E002E002E002E0AD
:1053F00002E002E002E002E002E002E002E002E09D
:1054000002E002E002E002E002E002E002E002E08C
:1054100002E002E002E002E002E002E002E002E07C
:1054200002E002E002E002E002E002E002E002E06C
:1054300002E002E002E002E002E002E002E002E05C
:1054400002E002E002E002E002E002E002E002E04C
:1054500002E002E002E002E002E002E002E002E03C
:1054600002E002E002E002E002E002E002E002E02C
:1054700002E002E002E002E022E022E080D141D836
:10548000A2F662EC00FFE1FE00FF00FF00FF00FF5C
:1054900000FF00FF00FF00FF00FF00FF00FF00FF14
:1054A000E0FE00FFE0FE00FF02E3E2FD22D8E0D8CC
:1054B00002E802E002E021E002E002E002E002E0B5
:1054C00002E002E002E002E002E002E002E002E0CC
:1054D00002E002E002E002E002E002E002E002E0BC
:1054E00002E002E002E002E002E002E002E002E0AC
:1054F00002E002E002E002E002E002E002E002E09C
:1055000002E002E002E002E002E002E002E002E08B
:1055100002E002E002E002E002E002E002E002E07B
:1055200002E002E002E002E002E002E002E002E06B
:1055300002E002E002E002E002E002E002E002E05B
:1055400002E002E002E002E002E002E002E002E04B
:1055500002E002E002E002E002E002E002E002E03B
:1055600002E002E002E002E002E002E002E002E02B
:1055700002E002E002E002E002E002E060D822E89D
:1055800002FEE0D100FFE1FE00FF00FF00FF00FF90
:1055900000FF00FF00FF00FF00FF00FFE0FEE0FE55
:1055A000E0FE00FFC0FE00FFE0D0C1EC02E042E000
:1055B00002E802E802E001E002E002E002E002E0CC
:1055C00002E002E002E002E002E002E002E002E0CB
:1055D00002E002E002E002E002E002E002E002E0BB
:1055E00002E002E002E002E002E002E002E002E0AB
:1055F00002E002E002E002E002E002E002E002E09B
:1056000002E002E002E002E002E002E002E002E08A
:1056100002E002E002E002E002E002E002E002E07A
:1056200002E002E002E002E002E002E002E002E06A
:1056300002E002E002E002E002E002E002E002E05A
:1056400002E002E002E002E002E002E002E002E04A
:1056500002E002E002E002E002E002E002E002E03A
:1056600002E002E002E002E002E002E002E002E02A
:1056700002E002E002E002E002E002E061D801E0C4
:1056800062FE61DA00FF00FF00FF00FF00FFE0FEA6
:1056900000FF00FF00FF00FF00FF00FF00FF00FF12
:1056A000E0FE00FF01FF00FF00D143FD02E001E04A
:1056B00002E001E002E022E002E002E002E002E0BB
:1056C00002E002E002E002E002E002E002E002E0CA
:1056D00002E002E002E002E002E002E002E002E0BA
:1056E00002E002E002E002E002E002E002E002E0AA
:1056F00002E002E002E002E002E002E002E002E09A
:1057000002E002E002E002E002E002E002E002E089
:1057100002E002E002E002E002E002E002E002E079
:1057200002E002E002E002E002E002E002E002E069
:1057300002E002E002E002E002E002E002E002E059
:1057400002E002E002E002E002E002E002E002E049
:1057500002E002E002E002E002E002E002E002E039
:1057600002E002E002E002E002E002E002E002E029
:1057700002E002E002E002E002E002E0A1D802E082
:10578000E2FE02EC00FF00FF00FF00FF00FF00FF51
:1057900000FF00FF00FF00FF00FF00FF00FF00FF11
:1057A00000FF00FFE0F600FF01E223FE02E022E03E
:1057B00002E022E802E002E002E002E002E002E0B1
:1057C00002E002E002E002E002E002E002E002E0C9
:1057D00002E002E002E002E002E002E002E002E0B9
:1057E00002E002E002E002E002E002E002E002E0A9
:1057F00002E002E002E002E002E002E002E002E099
:1058000002E002E002E002E002E002E002E002E088
:1058100002E002E002E002E002E002E002E002E078
:1058200002E002E002E002E002E002E002E002E068
:1058300002E002E002E002E002E002E002E002E058
:1058400002E002E002E002E002E002E002E002E048
:1058500002E002E002E002E002E002E002E002E038
:1058600002E002E002E002E002E002E002E002E028
:1058700002E002E002E002E002E002E020D921E0E2
:10588000E1FE63FD00FF00FFE0FE00FF00FF00FF00
:1058900000FF00FF00FF00FF00FF00FF00FF00FF10
:1058A000E0FE00FF00FFE0FEC2EBA2FE02E061D8D6
:1058B00002E002E002E002E002E002E002E002E0D8
:1058C00002E002E002E002E002E002E002E002E0C8
:1058D00002E002E002E002E002E002E002E002E0B8
:1058E00002E002E002E002E002E002E002E002E0A8
:1058F00002E002E002E002E002E002E002E002E098
:1059000002E002E002E002E002E002E002E001E088
:1059100002E002E002E002E002E002E002E002E077
:1059200002E002E002E002E002E002E002E002E067
:1059300002E002E002E002E002E002E002E002E057
:1059400002E002E002E002E002E002E002E002E047
:1059500002E002E002E002E002E002E002E002E037
:1059600002E002E002E002E002E002E002E002E027
:1059700002E002E002E002E002E002E021E241D8BF
:10598000E1FE42FE00FF00FFE0FEE0FEE0FEE0FE82
:10599000E0FEE0FE00FF00FF00FF00FF00FFE0FE72
:1059A000E0FE00FF00FF00FF02F5E1FE22E0E0D094
:1059B00002E002E002E002E002E002E002E002E0D7
:1059C00002E002E002E002E002E002E002E002E0C7
:1059D00002E002E002E002E002E002E002E002E0B7
:1059E00002E002E002E002E002E002E002E002E0A7
:1059F00002E002E002E002E002E002E002E002E097
:105A000002E002E002E002E002E002E002E002E086
:105A100002E802E002E002E002E002E002E002E06E
:105A200002E002E002E002E002E002E002E002E066
:105A300002E002E002E002E002E002E002E002E056
:105A400002E002E002E002E002E002E002E002E046
:105A500002E002E002E002E002E002E002E002E036
:105A600002E002E002E002E002E002E002E002E026
:105A700002E002E002E002E002E002E0A2EB61D01C
:105A800000FFA2FEE0FE00FF00FF00FF00FF00FF9E
:105A9000E1FE00FF01FFE0F600FF01FF00FF00FF55
:105AA00000FF00FF00FF00FFE2FDE0FE22E0E1D981
:105AB00002E002E002E002E002E002E002E002E0D6
:105AC00002E002E002E002E002E002E002E002E0C6
:105AD00002E002E002E002E002E002E002E002E0B6
:105AE00002E002E002E002E002E002E002E002E0A6
:105AF00002E002E002E002E002E002E002E002E096
:105B000002E002E002E002E022E002E041E002E026
:105B100001E022E002E002E002E002E002E002E056
:105B200002E002E002E002E002E002E002E002E065
:105B300002E002E002E002E002E002E002E002E055
:105B400002E002E002E002E002E002E002E002E045
:105B500002E002E002E002E002E002E002E002E035
:105B600002E002E002E002E002E002E002E002E025
:105B700002E002E002E002E002E002E002F5E0D032
:105B800000FFC1FE00FF00FFE0FE00FFE0FE00FF9F
:105B9000E1FEE1FEC1FEC1FE00FFC1FE00FF00FF0D
:105BA00000FF00FF00FF00FF81FE00FF61D821EB36
:105BB00002E002E002E001E002E002E002E002E0D6
:105BC00002E002E002E002E002E002E002E002E0C5
:105BD00002E002E002E002E002E002E002E002E0B5
:105BE00002E002E002E002E002E002E002E002E0A5
:105BF00002E002E002E002E002E002E001E002E096
:105C000002E002E002E002E002E002E042E142D80B
:105C100001E062E002E802E002E002E002E002E00D
:105C200002E002E802E002E002E002E002E002E05C
:105C300002E002E002E002E002E002E002E002E054
:105C400002E002E002E002E002E002E002E002E044
:105C500002E002E002E002E002E002E002E002E034
:105C600002E002E002E002E002E002E002E002E024
:105C700002E002E002E002E021D802E002FEE0D908
:105C800000FFE1FE00FF00FFE0FEE0FEE0FE00FF9F
:105C9000C2FDC2FE62ECE1E3E1FE43FE00FF00FF55
:105CA00000FF00FF00FF00FFE1FE00FFC1D862F42B
:105CB00002E822E002E002E002E002E002E002E0AC
:105CC00002E002E002E002E002E002E002E002E0C4
:105CD00002E002E002E002E002E002E002E002E0B4
:105CE00002E002E002E002E002E002E002E002E0A4
:105CF00002E002E002E002E002E002E002E002E094
:105D000002E002E002E002E022E002E084F362E16D
:105D100021E0C1D802E802E002E002E002E002E095
