:020000040000FA
:10000000FC0F0020D50000008519000045150000F8
:10001000DD000000DF000000E10000000000000043
:10002000000000000000000000000000831A000033
:10003000E500000000000000791A0000A100002087
:10004000EB000000EB0000005D1D0000991D0000AA
:10005000AB000020911B0000991B0000EB0000008A
:10006000EB000000EB000000311E0000EB00000080
:10007000EB0000005109000059090000EB000000EE
:100080007B1A000089310000EB0000001F0B00000C
:10009000EB000000EB000000EB000000EB000000B4
:1000A000EB000000EB000000EB000000EB000000A4
:1000B000210B0000EB00000049090000190A0000B4
:1000C0000348854600F016FC00480047F131000067
:1000D000FC0F002005480047FEE7FEE7FEE7FEE7CD
:1000E000FEE7FEE7FEE7FEE7FEE7FEE7C1000000F1
:1000F00030B50B46014600202022012409E00D46C0
:10010000D5409D4205D31D469540491B2546954047
:1001100040191546521E002DF1DC30BD70B500248B
:100120002546002801DA01244042002901DA012590
:100130004942FFF7DDFFAC4200D04042002C00D026
:10014000494270BD0321001D401E037812021A436C
:10015000491EF9D510467047F8B502464A40D40FFB
:1001600042004B0052085B089A4202D202460846FF
:1001700011464A0023D0C30D4A00DDB2120EAD1A5B
:10018000202D35DA49020126490AF6058A19002C84
:1001900000D0524220214F1B1146B9402A4110186D
:1001A000C20D9A4221D0002C17D0012D08DCDA05AF
:1001B000801AD20F8019D207DBB200F0CFFAF8BD57
:1001C000DA05801A012340001B06C01880185A4225
:1001D0008018CA0F1043490007E04908C2071143BD
:1001E000DA05801A80194008801800F0AFFAF8BDCF
:1001F00061000122511A001BF7E70122D20751408A
:10020000AAE70122D2075040A6E7024670B54A404D
:10021000D30FDB0740002DD04A002AD0010E140E68
:10022000000212020919400A520A8418E501044624
:100230005443000A120A2E045043A4194219200CF8
:10024000C543AA18120C0125AD03521C5219120401
:100250007F39240400D0521C104301D44000491EB1
:10026000C2B20C06C0092018401C4008802A02D0E7
:1002700003E0002070BD40084000002900DA0020A3
:10028000184370BDF0B507460846584087B0C00F08
:10029000049048000E46590040084908BC1A88419D
:1002A00005D2384631461E4617460B4602465800D0
:1002B000400810434CD0300D039040055900400DCC
:1002C000490D0590401A0290402872DA1803012166
:1002D000000B09050843019004980092002805D0FE
:1002E00001995242002088410092019002984021D9
:1002F0000A1A0199009800F0F5F905460C466B467C
:1003000007CB00F010FAC0197141039A0E0D0023BB
:10031000D71756401A467A40164344D0049A002A0A
:100320002DD0029A012A039A15DC1205C01A9141B8
:1003300001263605001C7141D20F059ED20700939D
:10034000019202962A46234600F04EFA07B0F0BD0D
:1003500038463146FAE71605224A0F46B218C01A47
:10036000B74101210905001C4F4100187F4111468A
:1003700018187941E20F10436D19644113E0E20748
:100380006D0815436408C2071443039A0126120539
:10039000C01A91413605001C7141CE074008304318
:1003A0004908C01851412A46234600F010FACDE70B
:1003B000FFE7049801224000C117121A00238B4165
:1003C00004983146C417381AA141EEE730B401242D
:1003D000E407634030BC55E730B40124E4076140D2
:1003E00030BC4FE70000E0FFF0B51FB488B00B99B8
:1003F0000998002448400999C00F4900490809910B
:10040000C0070B990090490049080B910999089879
:10041000A64608431CD00B990A98084318D009989F
:1004200001244000420D4800410D099824050003B5
:10043000000B204309900B980003000B20430B9006
:1004400050181C494018002201901446104605E03F
:10045000002001460DB0F0BD032801DA034600E09C
:1004600003239C46C11A0AAE0AE05F0008ADED5BAB
:100470004F00F75B7D430027AA187C41491C5B1E97
:100480006145F2DD410004AB5A522104120C0A43CB
:10049000240C401C0828DFDB01980290009970466C
:1004A00001910090059B049A0799069800F09CF929
:1004B000D0E700000DFCFFFFF0B50C465C4085B0B6
:1004C000E40FE40703944C000026640859009446A6
:1004D000490802460296224321D062460A431ED0B2
:1004E0006200570D4A000E032303550D01240246F6
:1004F0002C492405781B1B0B360B4018234326433D
:10050000614600901C46501AB44103D30098401C29
:10051000009002E0921800985B41002803DA002066
:10052000014605B0F0BD00200121090507468646B9
:1005300011E064461D46141BB54106D36546521BA7
:10054000B341744607430C43A646CD07400849080B
:10055000284392185B4105460D43EAD110461843E3
:1005600013D06046194650407140084306D060469B
:10057000101AB34106D20122002306E00022012313
:10058000DB0702E00122D2435310009874460105B4
:10059000381C6141029C039D0019694100F017F964
:1005A000BFE70000FD03000010B5002296231146AE
:1005B00000F0D4F810BD00000EB5C217C10F5040B6
:1005C000CA0740180021054B0293019200910A4688
:1005D0000B4600F009F903B000BD00003304000031
:1005E000C20F410040020123400ADB05D207090E79
:1005F000C0187F2901DA00207047962903DC962372
:10060000591AC84001E096398840002AF4D0404287
:100610007047000070B5CD0F4A0009030123090B94
:100620001B0519430B4BED070024520D9A4201DACA
:10063000002070BD074B34339A4203DC9A1A00F055
:1006400061F802E00449511888402C43F1D040423F
:1006500070BD0000FF030000CDFBFFFF0122D207A9
:10066000002800DB101A002900DB511A8142704774
:100670000122D207002800DB101A002900DB511AE2
:1006800088427047F0B51FB40646002082B0054688
:100690004024019100901BE0019922460F4630460C
:1006A00000F030F8049A059B801A994110D3104647
:1006B0001946224600F016F8361A8F410197224655
:1006C00001200021009F00F00DF838184D410090E6
:1006D0002046641E0028DFDC019B00982946324634
:1006E00007B0F0BD10B5202A04DB0146203A914046
:1006F000002010BD914020239C1A0346E34019437B
:10070000904010BD10B5202A04DB0846203AD040A6
:10071000002110BD0B46D340D0402024A21A9140A6
:100720000843194610BD10B5202A06DBCB17084632
:10073000203A1041C1170B4306E00B461341D0404D
:100740002024A21A91400843194610BD002904DA5A
:10075000401C490001D140084000704770B400249B
:10076000050C05D11024000402D1002921D0112448
:10077000050E01D100020834050F01D10001241D2E
:10078000850F01D18000A41C002801DB4000641CFF
:10079000002908D020252E1B0D46F540A14000D091
:1007A00001212943084301061B1B000ADB1D02D55A
:1007B000002070BC7047DB05181880180029F8DA93
:1007C000401C4900F5D170BC40084000704710B58E
:1007D000002B08DA0024401C614192185B411A4347
:1007E00001D14008400010BDF0B51FB482B00546ED
:1007F0000C0003D0084601F03BFB02E001F038FB9F
:1008000020300246009021462846FFF76BFF049BEC
:10081000059A04460F4618431143084314D018465E
:1008200010431BD0009840210A1A18460599FFF77B
:1008300069FF05460E46009A05990498FFF752FF96
:10084000084305D0012004E02046394607B0F0BD3A
:100850000020C11705430E432C43374300990E98DF
:100860006305401A7905E40A00220C43FD0A0A30A8
:1008700002D500200146E9E70105101969410C9CE9
:100880000D9D00196941FFF7A2FFDFE74A00090348
:100890000123090B1B0519430A4B10B5520D9A424F
:1008A00002DA0020014610BD064B34339A4203DCC5
:1008B0009A1AFFF727FF10BD034BD218FFF712FF5C
:1008C00010BD0000FF030000CDFBFFFF10B50029A5
:1008D00004DB0124E40740428C412146002B04DB69
:1008E0001C460123DB075242A341994200D19042AA
:1008F00010BD0000064C0125064E05E0E36807CC5C
:100900002B430C3C98471034B442F7D3FFF7DCFB81
:1009100098AC0400C8AC040003B40148019001BDC8
:10092000FD00002003B40148019001BD0101002039
:1009300003B40148019001BDB900002003B401488F
:10094000019001BD1901002010B502F025F810BD7D
:1009500010B500F073FD10BD7047000070B51B4E60
:100960003046FFF7D9FF01252843044602F07AFB01
:1009700021463046FFF7D6FF144E083E3046FFF7BB
:10098000CBFF2843044602F06DFB21463046FFF7BB
:10099000C9FF0E4E361D3046FFF7BEFFAD0228439D
:1009A000044602F05FFB21463046FFF7BBFF074ECF
:1009B0000C363046FFF7B0FF2843044602F052FBE6
:1009C00021463046FFF7AEFF70BD00000C0002402C
:1009D00010B51921102001F0F1FF04480168102220
:1009E0009143016002480068C0B210BD009401400C
:1009F0004090014010B51B21112001F0DFFF044899
:100A0000016820229143016002480068C0B210BD15
:100A100000940140809001407047000008B50D48E7
:100A200001684022114300910160416912031143A2
:100A300000914161009952101143009141610420DD
:100A400002F095FB0021042002F099FB042000F045
:100A5000A7FF08BD0060004000B50A4602F02EFB6B
:100A6000107000BD00B5012902D002F057FB00BD97
:100A700002F066FB00BD00B5012902D002F006FBC2
:100A800000BD02F033FB00BDF8B584461046069F5A
:100A9000079E18433ED0002A01DA554200E0154671
:100AA000002B01DA584200E01846002A03DB002B35
:100AB00005DD01240AE0002B05DB022406E0002A04
:100AC00003DC002B01DA032400E00424002D03D012
:100AD000A84203DD2D2002E0002000E05A20012C76
:100AE00006D0022C17D0032C17D0FF246934201A0B
:100AF000B84201DBB04205DDB7420BDDB84201DA96
:100B0000B04207DCC81881B26046801880B2089AEB
:100B100000F078FBF8BDB424E9E7B430E8E77047AB
:100B200070470A4600B501461046FFF79BFF00BD1F
:100B300000B50349FFF790FF0148007800BD0000B1
:100B4000180000200A4600B501461046FFF793FF43
:100B500000BD00007CB50026434C0546019600967A
:100B600020680121C903084320600120A840012218
:100B7000014612041043206021602060082D02D03D
:100B8000092D02D004E0394801E0812040022060B4
:100B90000A2001F0F7FD60683549009012E00198E5
:100BA000421C019288420DD920680090014631A074
:100BB00001F04EF960680090014638A001F048F954
:100BC000FF207CBD6068C002E9D5012000030196CA
:100BD0002B0001F064F90A060B151A1F242F343973
:100BE0004111A0680090014637A003E0A068009082
:100BF000014640A001F02CF92660009880B27CBD2F
:100C0000A0680090014646A0F4E7A0680090014665
:100C10004EA0EFE7A0680090014657A0EAE72168E0
:100C200001432160142001F0ADFDA0680090014651
:100C30005CA0DFE7A0680090014665A0DAE7A06845
:100C4000009001466DA0D5E7216801432160A068AE
:100C50000090014673A0CDE7216801432160A068A0
:100C6000009001467AA0C5E7006001400001010044
:100C7000B80B00000D0A2068775F67706164632D10
:100C80003E6374726C204144435F454E2D2D2D20F0
:100C90006269743132203D20256400000D0A20680D
:100CA000775F67706164632D3E7374617475732040
:100CB00047504144435F454F432D2D2D20626974B9
:100CC0003136203D202564000D0A20414443204751
:100CD000504144435F4348414E5F30202D2D2D202D
:100CE000646174615F6368302064617461203D20D9
:100CF000256400000D0A20414443204750414443ED
:100D00005F4348414E5F31202D2D2D206461746179
:100D10005F6368312064617461203D2025640000B8
:100D20000D0A204144432047504144435F4348411A
:100D30004E5F32202D2D2D20646174615F63683217
:100D40002064617461203D20256400000D0A20416B
:100D500044432047504144435F4348414E5F332062
:100D60002D2D2D20646174615F636833206461748C
:100D700061203D20256400000D0A204144432047A6
:100D8000504144435F4348414E5F34202D2D2D2078
:100D9000646174615F6368342064617461203D2024
:100DA000256400000D0A204144432047504144433C
:100DB0005F4348414E5F35202D2D2D2064617461C5
:100DC0005F6368352064617461203D202564000004
:100DD0000D0A204144432047504144435F4348416A
:100DE0004E5F36202D2D2D20646174615F6368365F
:100DF0002064617461203D20256400000D0A2041BB
:100E000044432047504144435F4348414E5F3720AD
:100E10002D2D2D20646174615F636837203D20258E
:100E2000640000000D0A20414443204750414443E0
:100E30005F4348414E5F38202D2D2D206461746141
:100E40005F6368382064617461203D202564000080
:100E50000D0A204144432047504144435F434841E9
:100E60004E5F39202D2D2D20646174615F636839D8
:100E70002064617461203D2025640000F8B51C46A3
:100E800015460E46074602F0B9FA01460548466087
:100E90008760C560069A14430460084602F0B1FA00
:100EA000F8BD000000600040F8B506460F46304827
:100EB000FFF71EF94407C508640F39462D48FFF7B0
:100EC00017F90A21FFF714F9002780220123002EC9
:100ED00018D0012E2BD0022E48D127484760C66873
:100EE0001643C660EEB206602D042D0E4560E6077F
:100EF0006508F60F3419E4002C19113484621E4C75
:100F0000403428E01D484760C6681643C660EEB20C
:100F100006602D042D0E4560E6076508F60F3419AE
:100F2000E4002C1911348462144C403413E014484A
:100F30004760C6681643C660EEB206602D042D0EEB
:100F40004560E6076508F60F3419E4002C191134E2
:100F500084620B4C4034E5682D092D010D43E5609A
:100F6000C1689143C160072181604360F8BD000002
:100F70008096980000E1F505004000400010004018
:100F8000003000400249086048694006FCD57047BF
:100F900000100040014880697047000000E000E058
:100FA00038B500221E491D480092086008688B145D
:100FB000184308601B4B06E00098441C00949842BC
:100FC00001D9002038BD4868C002F5D50092886874
:100FD0000A6080B27D21C90048431349FFF788F8B1
:100FE000FFF7EAFA114A124BFFF7FEF9FFF712FB7F
:100FF000044601460FA000F02BFF1948844202DD91
:1010000018A000F025FF1E48844205DD1D4901207F
:1010100008701DA000F01CFFA0B238BD20800100A8
:1010200000600140B80B0000FF0F000066666666B6
:1010300066661A400D0A6E4765745F566261745F9A
:10104000566F6C74616765206164635F636F6E7671
:101050006572745F5F5F32203D20256400000000F0
:10106000ED0E000042617474657279205061636B0B
:1010700020566F6C74616765203E20332E38560011
:10108000941100000C000020555342203556206872
:101090006173206265656E20706C7567676564209A
:1010A000696E0000FFB589B0002550000321139E32
:1010B000081A1C46129F049206905DE003460094B5
:1010C0002A46019702960A990998FFF7DDFC0296D5
:1010D00000946A420197049B07920A990998FFF7C6
:1010E000D3FC0498009443420593019702962A4644
:1010F0000A990998FFF7C8FC009402960197059B8E
:10110000079A0A990998FFF7BFFC00942B460197AC
:101110000296049A0A990998FFF7B6FC00942B46A8
:1011200001970296059A0A990998FFF7ADFC029675
:1011300000940197079B049A0A990998FFF7A4FC69
:10114000009402960197079B059A0A990998FFF760
:101150009BFC0698002804DAA9000818801D069058
:1011600009E00498281A8100069808180A300690A9
:101170000498401E04906D1C049885429EDD0DB0BD
:10118000F0BDF8B50746002A13D0002B11D0B818CF
:1011900086B2C81885B20C4609E00698234600902E
:1011A00032461946384600F005F8641CA4B2AC4239
:1011B000F3D9F8BDF8B51E4617460D460446B142B0
:1011C0000ED1BC4209D91446074606E029462046FE
:1011D000069A00F017F8641CA4B2BC42F6D9F8BD18
:1011E0009442FCD1B54209D91D460E4606E0294677
:1011F0002046069A00F006F86D1CADB2B542F6D94D
:10120000F8BD000010B514464A1C93B2421C92B2BD
:1012100000F064FB01221146104601F011FF034863
:1012200001494160046010BD9B0F010000B0014006
:10123000FFB5064681B0801885B202980A9CC01896
:10124000029B87B200942A4619463046FFF7B2FF48
:101250003B462A46194630460094FFF7ABFF32461C
:101260003B46009410460299FFF7A4FF2A463B46EE
:10127000009410460299FFF79DFF05B0F0BDFFB541
:1012800000255000032183B01F4614460E1A41E08A
:1012900003990498491900198AB2029183B281B264
:1012A00003980097401B019080B2FFF783FF0498DA
:1012B0000299001B8AB283B281B20198009780B272
:1012C000FFF778FF03990498091940198AB202912F
:1012D00083B281B203980097001B019080B2FFF7A0
:1012E00069FF04980299401B8AB283B281B20198C7
:1012F000009780B2FFF75EFF002E03DAA800861980
:10130000B61D05E0281B8000641E8619A4B20A36AB
:101310006D1CADB2A542BBD907B0F0BDFFB583B01F
:101320000C9C0F981D461646642C00D9642400902E
:10133000681E83B2771E0190BAB204990398FFF732
:1013400020FF2046361F70436421FEF7E7FE0204AB
:10135000120C0BD00E98009004986D1F801C81B267
:101360000398ABB2801C80B2FFF70BFF0D98009082
:101370000198BAB283B204990398FFF759FF07B0F6
:10138000F0BD000010B50021012200280DD0012879
:101390000AD10D480161C2600F2141600B494160D3
:1013A00041680BA000F054FD10BD164801610161B9
:1013B000C260C260054A103A4260044A303A426054
:1013C000C160416810A0EDE700D00140BB0F0100F3
:1013D00048575F5350495F315F496E697469616C6A
:1013E000697365205852375F5350495F43544C200E
:1013F0006877705F737069312D3E4354524F4C3D96
:101400002025780000B0014048575F5350495F30B5
:101410005F496E697469616C697365205852375F02
:101420005350495F43544C206877705F7370693044
:101430002D3E4354524F4C3D2025780010B50021DD
:10144000084A094806E0146843681C705B1C491C84
:1014500089B2436093685B0502D503889942F2D351
:1014600010BD000000B001401C00002038B5012272
:101470000C4605461146104601F0E2FD08480749B2
:10148000416002210091002322462946FFF7F6FC25
:101490007D20C000FFF74CFA38BD00008B0F010023
:1014A00000B0014038B501220C46054611461046F1
:1014B00001F0C6FD0648054941600321009104235F
:1014C00022462946FFF7DAFC38BD00009B0F0100D9
:1014D00000B0014038B501220C46054611461046C1
:1014E00001F0AEFD08480749416002210091082340
:1014F00022462946FFF7C2FC7D20C000FFF718FAFC
:1015000038BD0000AB0F010000B0014038B501222A
:101510000C4605461146104601F092FD0848074961
:10152000416002210091002322462946FFF7A6FCD4
:101530007D20C000FFF7FCF938BD00008B0F0100D3
:1015400000B00140FEE710B515210E2001F036FA7B
:1015500013210D2001F032FA11210C2001F02EFA96
:101560000221012001F04EFD0121084601F04AFD53
:101570000021012001F046FD10BD000010B5012240
:1015800004461146104601F05BFD034801494160E5
:10159000046010BD9B0F010000B0014010B5044C69
:1015A0002046FFF7B9F900212046FFF7BBF910BD2F
:1015B0002800024010B5074C2046FFF7ADF9032183
:1015C000090288430921890101432046FFF7AAF94E
:1015D00010BD00002800024031B501247F23002106
:1015E000A4031A46084600F079F921466846FFF739
:1015F00059FF38BD10B5FFF7A6FF00F054F9782069
:1016000001F0A7F9FF2000F095F9A52000F082F97C
:101610003E2000F08FF9082000F07CF93A2000F01D
:1016200089F9652000F076F9822000F083F9002026
:1016300000F070F9982000F07DF9002000F06AF9C0
:10164000632000F077F90F2000F064F9642000F0C7
:1016500071F90F2000F05EF9B42000F06BF934202E
:1016600000F058F9B52000F065F9302000F052F98B
:10167000832000F05FF9032000F04CF9862000F091
:1016800059F9042000F046F9872000F053F916209C
:1016900000F040F9882000F04DF9282000F03AF9D8
:1016A000892000F047F92F2000F034F9932000F052
:1016B00041F9632000F02EF9962000F03BF98120DB
:1016C00000F028F9C32000F035F9112000F022F9CC
:1016D000E62000F02FF9002000F01CF9992000F01E
:1016E00029F9012000F016F9442000F023F9002028
:1016F00000F010F9702000F01DF9022000F00AF946
:10170000712000F017F90E2000F004F9722000F0AB
:1017100011F90A2000F0FEF8732000F00BF91220F6
:1017200000F0F8F8742000F005F9192000F0F2F844
:10173000752000F0FFF81D2000F0ECF8762000F096
:10174000F9F8462000F0E6F8772000F0F3F80B20D7
:1017500000F0E0F8782000F0EDF80E2000F0DAF864
:10176000792000F0E7F83D2000F0D4F87A2000F06E
:10177000E1F8052000F0CEF87B2000F0DBF8072030
:1017800000F0C8F87C2000F0D5F8122000F0C2F874
:101790007D2000F0CFF80B2000F0BCF87E2000F098
:1017A000C9F80B2000F0B6F87F2000F0C3F808203D
:1017B00000F0B0F8A02000F0BDF81E2000F0AAF85C
:1017C000A12000F0B7F83F2000F0A4F8A22000F01C
:1017D000B1F80A2000F09EF8A32000F0ABF80D202D
:1017E00000F098F8A42000F0A5F8082000F092F886
:1017F000A52000F09FF8232000F08CF8A62000F030
:1018000099F83D2000F086F8A72000F093F8042016
:1018100000F080F8A82000F08DF8092000F07AF898
:10182000A92000F087F8302000F074F8AA2000F01A
:1018300081F80A2000F06EF8AB2000F07BF80E2053
:1018400000F068F8AC2000F075F80E2000F062F8A7
:10185000AD2000F06FF8072000F05CF8AE2000F03B
:1018600069F82D2000F056F8AF2000F063F8102042
:1018700000F050F8FF2000F05DF8002000F04AF87A
:10188000112000F057F8962001F063F8362000F0A0
:1018900051F8082000F03EF8292000F04BF80A200B
:1018A00001F057F810BD10B501210022084601F0E3
:1018B000C7FB642001F04DF800221146012001F021
:1018C000BFFBFF20F53001F044F80121002208465B
:1018D00001F0B6FB322001F03CF810BDF8B504462B
:1018E0001D4616460F462A2000F024F82046FFF732
:1018F00045FE3046FFF742FE2B2000F01BF838462D
:10190000FFF73CFE2846FFF739FE2C2000F012F8C6
:10191000F8BD000010B5012204461146104601F042
:101920008FFB034801494160046010BD8B0F01002B
:1019300000B0014010B5044601220021104601F01C
:101940007FFB034801494160046010BD8B0F01001B
:1019500000B0014038B501220C460546114610463C
:1019600001F06EFB06480549416002210091002309
:1019700022462946FFF782FA38BD00008B0F01008E
:1019800000B0014070470000002805DBC106C90E09
:1019900001208840014908607047000080E200E0B3
:1019A000002805DBC106C90E0120884001490860F6
:1019B0007047000000E100E08307FF22DB0E9A4041
:1019C0000907090E994000280BDA0007000F0838B4
:1019D000830808489B001818C36993430B43C361ED
:1019E0007047830804489B001B18186890430843FD
:1019F0001860704700ED00E000E400E070B50020E2
:101A0000FEF78AFF0420FEF787FF0820FEF784FF19
:101A10000C20FEF781FF1020FEF77EFF2020FEF74E
:101A20007BFF2420FEF778FF2820FEF775FF2C208F
:101A3000FEF772FF3020FEF76FFF0C4E3046FEF7C8
:101A40006BFF0B4D10206C68044321463046FEF7B7
:101A500069FF361F30466C60FEF75EFF054C30466E
:101A60002146FEF75FFF2C6070BD0000240002409D
:101A7000000000209D78869D704710B500F07AFF29
:101A800010BD7047F0B5002490218DB04843164D2D
:101A90000C9061000C9A6118002056188021C20831
:101AA000B218AB5C47077F0F0A46FA40134207D0D3
:101AB000072743006A46D754E0279A18577005E075
:101AC000002247006B46DA55FB185A70401CC0B222
:101AD0001828E4D330216846FFF73CFF641CE4B2C9
:101AE000302CD6D30DB0F0BD28D80100F0B50025BC
:101AF00085B080272E466C460F490020495D3A4646
:101B0000C240114206D007234200A354E023121919
:101B1000537003E04200A65412195670401CC0B224
:101B20000828ECD310216846FFF714FF6D1CEDB2B6
:101B3000202DE1D305B0F0BDC8DD0100094910B585
:101B4000401E884201D9012010BD074C6061002170
:101B5000481EFFF731FF0020A06107202061002010
:101B600010BD0000FFFFFF0000E000E010B5FFF730
:101B700045FF00F019FF1F2001F0F9FA00211F2096
:101B800001F0FDFA1F2001F0F6FAFEF7D7FE10BDB6
:101B900010B500F0DBF810BD10B500F0F3FF10BD7C
:101BA00010B50124E403202802D000280CD015E051
:101BB0000FA000F04DF97F2300211A460846FFF7D9
:101BC0008DFE2146144807E07F2300211A4608466F
:101BD000FFF784FE21461148FFF798FC01F090F8CA
:101BE00000F0E2FF01F0BAF801F0D0F810BD0000FB
:101BF0000D0A2075736220696E73657274202D2D35
:101C00002D2D206368617267696E67202D2D2D2D43
:101C10002D20200D0A00000028D80000E8DD01007A
:101C200010B5024800F014FE10BD00006000002056
:101C300070B5FEF7CDFE1021084214D17F2300219C
:101C40001A460846FFF74AFE164C01252078ED0398
:101C500000281ED014A000F0FBF829461A48FFF710
:101C600055FC00202070FEF7C5FE2021084207D158
:101C7000FFF794FC00F09EFDFEF770FE01F004FCFF
:101C800001F0AAFB0146402802D110A000F0E0F8C4
:101C900070BD1DA000F0DCF829462248FFF736FC95
:101CA0000120DFE7590000200D0A204B3237204B7E
:101CB000455920507265737320446F776E204167D9
:101CC00061696E200D0A2000E8DD02000D0A202166
:101CD0002121216D695F746F755F6465746563743C
:101CE0002D2D2D6770696F5F613620484947482068
:101CF000212121206770696F5F737461747573208F
:101D00003D202578000000000D0A204B3237204B83
:101D1000455920507265737320446F776E200D0A09
:101D200020000000E85D03001CB55A2001F0DCFB38
:101D30000549FF20963001910090782187233222B7
:101D40000846FFF7AFF91CBDFFFF000008B50248C9
:101D5000C068009008BD00000010014010B500F000
:101D600001F810BD08B50B4881680907090FCA07BB
:101D70000FD102290CD0042907D0062908D14169C6
:101D8000C9B20A0701D5890702D401786A461170E1
:101D9000806808BD0010004010B500F001F810BDCB
:101DA00008B50B4881680907090FCA070FD1022936
:101DB0000CD0042907D0062908D14169C9B20A0705
:101DC00001D5890702D401786A461170806808BD80
:101DD00000300040F8B5FF23013300261A43104FAE
:101DE0000125002818D0012818D0022813D10D4C45
:101DF000666065606660E2606762226926612361F1
:101E0000FF2303332361920602D5FF22233222618E
:101E1000FFF74AF86560F8BD034CE9E7034CE7E7D4
:101E2000010200000040004000100040003000406F
:101E3000054804490160054A0121D1600021016083
:101E40007047000051E5CC1A004C014000400140B1
:101E50000FB410B503A9044B044A029800F0F6F839
:101E600010BC08BC04B01847672900005C000020C3
:101E70002021020C01D010211046020A01D0104688
:101E80000839020901D01046091F820801D0104606
:101E9000891E420801D0881E7047081A704730B466
:101EA0007446641E2578641CAB4200D21D46635DF7
:101EB0005B00E31830BC184702E008C8121F08C1D5
:101EC000002AFAD170477047002001E001C1121FBB
:101ED000002AFBD170470000F0B51FB486B0099806
:101EE000089A030D0021024314D05148514A181892
:101EF000504305141198012810981AD0281A401C34
:101F000000264D4F4D49009601910490002812DAA9
:101F1000444211E01198012449A3012801D11098ED
:101F2000C1430698119A84600360C26041600BB09F
:101F3000F0BD4042E4E70446210500203F4A001C72
:101F400051410391029012E0E00707D032463B4630
:101F500001990098FEF748FA0191009032463B46FD
:101F600010461946FEF740FA06460F466410002C4C
:101F7000EAD10498039B0028029A0999089806DA86
:101F8000FEF732FA019B009AFEF72EFA05E0FEF703
:101F900093FA019B009AFEF78FFA04460E46002240
:101FA000284BFEF793FC03D80020C043014607E00E
:101FB0000022254B20463146FEF764F9FEF766FC09
:101FC000102409E0002C0ADB0A220023FEF75AFB4A
:101FD000079B30321A55641E02460A43F2D1112281
:101FE000641C079B121B1C19119B012B03D001239E
:101FF00008430ED10AE0084304D0112010900020BD
:10200000119077E71098151A6D1E0BE01098824218
:1020100002DD00236D1C03E0824201DA00236D1E05
:10202000002BEED0069811998260C16030C07EE727
:1020300001FCFFFF104D0000000014400000F03FC5
:10204000300000000000F0430000E03FFFB597B013
:102050000646002518E2252877D100242746FD49A9
:10206000049400E00443761C32780120203A90402A
:102070000842F7D130782A280ED002223078014663
:102080003039092916D804990A23594330394018A0
:102090001443761C0490F1E7189802C80491189034
:1020A000002904DA0120400304434842049002203E
:1020B0000443761C30782E2814D104200443707811
:1020C000761C2A2809D11898761C80C8189009E037
:1020D0000A214F43303FC719761C3078014630390A
:1020E0000929F5D930786C2810D006DC4C281AD094
:1020F00068280ED06A2817D104E0742813D07A28F3
:1021000012D110E00120400504430CE00121090533
:1021100001E0032109050C437178814203D10120BC
:1021200000052418761C761C3078119066280BD098
:1021300013DC58287DD009DC00287BD04528F6D058
:102140004628F4D047281AD1A5E118E0632835D0F5
:10215000642870D0652812D19DE170286CD008DC0D
:102160006728F1D069287BD06E280DD06F2806D162
:10217000BAE073282ED0752871D0782859D01A9AD1
:10218000199990476D1C7EE16002400F022809D02A
:1021900003280DD00428189801680DD00D60001D8B
:1021A000189070E11898EA1701680D604A60F6E728
:1021B000189801680D80F2E70D70F0E718986A46EC
:1021C00001781172001D18900020507202A8009032
:1021D000012005E0189802C8189000200091C04323
:1021E00061070DD5002101E00199491C0191B94217
:1021F00012DA8142F8DB009A515C0029F4D10BE03D
:10220000002101E00199491C01918142FADB019A08
:102210000099895C0029F5D1019904981A9B471A05
:1022200021463846199A00F097FA01994019451845
:102230000BE04FE02CE113E04EE0009800990078AD
:10224000491C00911A9A199990470198401E0190D3
:10225000401CF2D1214638461A9B199A10E137E00A
:102260000A200021009001916002410F022907D04D
:10227000189A01CA1892C2179446032908D00AE096
:102280001898C01DC108C90005C91891944607E0F7
:1022900000B2C2179446042902D140B2C1178C463D
:1022A00000226146944506DA0A46002140429141E7
:1022B0008C462D2102E0210504D52B216A4611739D
:1022C000012103E0E10701D02021F7E7029155E069
:1022D0000A200AE0102008E01020009000210420CD
:1022E00004430191082703E0082000210191009098
:1022F0006002410F022907D0189A01CA18920022E1
:102300009446032908D008E01898C01DC108C900E8
:1023100005C91891944603E080B2042900D1C0B2E7
:1023200000210291210729D51199702906D0009A20
:102330001021019B4A401A4305D00EE040216A4615
:102340001173012108E06146014306D030216A463D
:1023500011731199517302210291009A0821019B76
:102360004A401A430AD16146014301D1610705D5AC
:1023700030216A46117301217F1E0291119958295B
:1023800004D035A10E910DA90D910DE037A1F9E70B
:102390006146019B009AFEF775F90E9B8C469B5C8B
:1023A0000D9A521E0D92137061460143F0D10D98A3
:1023B00005A9081A20300190600703D50120000408
:1023C000844300E001270198874201DD381A00E0CC
:1023D0000020019900904118029809180498401AA9
:1023E0000490E00306D421461A9B199A049800F041
:1023F000B3F94519002706E003A81A9AC05D199998
:1024000090476D1C7F1C02988742F5DBE0030CD5DA
:1024100021461A9B199A049800F09EF9451904E088
:102420001A9A3020199990476D1C0099481E009007
:102430000029F5DC08E00D980D990078491C0D91F4
:102440001A9A199990476D1C0199481E019000290C
:10245000F1DC63E10928010030313233343536379D
:1024600038396162636465660000000030313233E0
:102470003435363738394142434445460000000080
:1024800000F05AF94519761C3078002800D0E2E5B2
:1024900028461BB0F0BD600700D406271898C01D61
:1024A000C108C90048680A680831C30FDB071891E2
:1024B000190001D09CA108E0210501D59BA104E0F1
:1024C000E10701D09AA100E09AA1430011985B08AE
:1024D000109165280CD006DC452809D046281DD06F
:1024E000472841D141E0662818D067283CD13CE01C
:1024F0000021112F01DB112000E0781C01910090D8
:1025000008A911A8FFF7E8FC139905910021119A79
:1025100015927F1C12980197009150E00120C0078E
:1025200003900120019008A9009711A8FFF7D4FC9F
:10253000139A149905920022119B009212981593F8
:10254000059A0192002901D0104602E0791C40183A
:102550000190381A01D5019804E04042401E0090D5
:10256000781C0190C01B029043E0012F00DA012784
:102570000021112F01DD112000E03846019100906B
:1025800008A911A8FFF7A8FC13990591119A002139
:10259000129815920091019721070CD40599B94220
:1025A00001DB019900E00191012904DD159A491E22
:1025B000515C302906D0B84201DA011D05DA01214B
:1025C000029115E00199491EEDE7002805DC00990C
:1025D000411800910199091A03E0019A411C9142A6
:1025E00000DD01910099401A401C02900120C007B3
:1025F0000390200706D402990198814202DB002053
:10260000C043029000206946C87707AF01210398B4
:102610000337C907884224D0022011902B20129042
:10262000039800280CDA404203902D20129007E016
:102630000A210398FDF75CFD30317F1E039039704D
:102640001199481E11900029F2DC03980028EFD15F
:10265000791E129808703078202108404530BF1E3E
:10266000387006A8C01BC01D039010980078002881
:1026700000D00120019941180298C0170918039849
:1026800009180498401A401E0490E00306D421461D
:102690001A9B199A049800F05FF845191098007871
:1026A000002803D01A9A199990476D1CE00324D58D
:1026B00021461A9B199A049800F04EF845191CE01F
:1026C0000098002807DB00990598884203DD1598DB
:1026D000405C199901E0199930201A9A90470098A6
:1026E0006D1C401C00900298401E0290002804D1EE
:1026F0001A9A2E20199990476D1C0199481E019035
:102700000029DDDC05E038781A9A7F1C199990477A
:102710006D1C0399481E03900029F4DC21461A9B86
:10272000199A0498ACE600002D0000002B00000070
:102730002000000000000000F8B5044600251E46F9
:102740001746880404D405E039462020B0476D1CA4
:10275000641EF9D52846F8BDFFB50446002581B0B2
:102760001E46C80301D5302700E02027880404D581
:1027700005E038460399B0476D1C641EF9D528461C
:1027800005B0F0BD08B50021009102E0009A521C8E
:102790000092401EFAD2009108BD10B51E2000F034
:1027A000E6FC00211E2000F0EAFC1E2000F0E3FC05
:1027B00010BD000070B514491448FEF7B3F8134873
:1027C0000021001DFEF7AEF8134C114D11492046B3
:1027D000FEF7A8F82946251D2846FEF7A3F8261F70
:1027E00001213046FEF79EF830BF0A4920461031DD
:1027F000FEF798F800212846FEF794F801213046AC
:10280000FEF790F830BF70BD85788E6020000240E2
:102810000102000040200040200001400021017022
:10282000418081806422C2803F2212068260054A74
:10283000C2608161044AC16102610162034941626F
:1028400070470000CDCCCC3D0AD7233C00007A4431
:10285000F8B50446FEF7A4FB608000F083FCA0807E
:102860002278274600250221083764261300FFF747
:1028700016FB0504151E395153006088274A904203
:1028800001D2012044E0264A904202D2217025481C
:1028900002E00320207024486061F8BD5F20E080E2
:1028A00062881E488242F8D321701E4817E0FDF767
:1028B0007BFE0146384600F0A6FDFDF791FE301A7A
:1028C000642801DD642002E0002800DA0020E080B6
:1028D000618813488142E0D3032020701248A5612B
:1028E0006061F8BD6088FDF75FFE0146384600F084
:1028F0008AFDFDF775FE301A642801DD642002E0D0
:10290000002800DA0020E080A0883228E9D20420E4
:102910002070F8BDE680F8BD2570F8BDB80B00004A
:10292000681000000000FA430040834502200021A7
:10293000401EFDD20220491C6E2901D2801EF7E7FD
:1029400070470101002001E000BF401C8842FBD31A
:10295000704710B50446002302E0FFF7E7FF5B1C59
:10296000A342FAD310BD00B50246C0B2FEF70AFB7F
:10297000104600BD10B5074C2046FDF7CDFF1021D5
:1029800002460A400843102A03D101462046FDF7BB
:10299000C9FF10BD3C20004010B501210148FDF7E2
:1029A000C1FF10BD0800024008B50348016920229C
:1029B00011430091016108BD0000014010B50124E0
:1029C0006B4AE4050300FFF76AFA190E202B2B2B44
:1029D0002B33393F464D545B626970777E858C930B
:1029E0009AA9BBCB2B000123002907D0012917D1BD
:1029F000506818435060106888438BE01068184393
:102A0000106050684008400086E00220022908D08B
:102A1000032905D151680143516011688143116058
:102A200010BD11680143116051688143516010BDB0
:102A300040200429F5D00529ECD010BD80200629BE
:102A4000EFD00729E6D010BDFF2001300829E8D0DB
:102A50000929DFD010BD012040020A29E1D00B294D
:102A6000D8D010BD012080020C29DAD00D29D1D098
:102A700010BD0120C0020E29D3D00F29CAD010BD2D
:102A8000012000031029CCD01129C3D010BD012092
:102A900040031229C5D01329BCD010BD01208003EA
:102AA0001429BED01529B5D010BD0120C0031629A8
:102AB000B7D01729AED010BD012000041829B0D01E
:102AC0001929A7D010BD012040041A29A9D01B291B
:102AD000A0D010BD012080041C29A2D01D2999D0AE
:102AE00010BD0120C0041E299BD01F2992D010BD0B
:102AF00001200005202994D021298BD010BD222946
:102B000028D02329FAD15068012149050843506093
:102B100010688843106010BD506010BD01239B05F4
:102B2000242907D02529F8D150681843506010682F
:102B30009843EFE710681843106050689843EBE73C
:102B4000262907D02729E8D1506820435060106813
:102B5000A043DFE71068204310605068A043DBE724
:102B600001200006282987D0292987D010BD000020
:102B70000003044002480021016041608160704709
:102B80000003044008B5064801684A1C0260C829D1
:102B900001DD002101600348C068009008BD00000D
:102BA000240000200020014010B53321EA2000F06D
:102BB00003FB044601460EA0FFF74AF96007400FE9
:102BC0000300FFF76CF907130507090B0D0F13003E
:102BD00012A008E019A006E020A004E027A002E06F
:102BE0002EA000E035A0FFF733F910BD3BA0FAE7B7
:102BF0000D0A206765745F6368675F766275735F4F
:102C0000766F6C7461676520207265675F697078A4
:102C100073203D202578200D0A0000000D0A206752
:102C200065745F6368675F766275735F766F6C74F7
:102C3000616765203576200D0A0000000D0A2067C7
:102C400065745F6368675F766275735F766F6C74D7
:102C5000616765203776200D0A0000000D0A2067A5
:102C600065745F6368675F766275735F766F6C74B7
:102C7000616765203976200D0A0000000D0A206783
:102C800065745F6368675F766275735F766F6C7497
:102C900061676520313276200D0A00000D0A206739
:102CA00065745F6368675F766275735F766F6C7477
:102CB00061676520313576200D0A00000D0A206716
:102CC00065745F6368675F766275735F766F6C7457
:102CD00061676520323076200D0A00000D0A2067FA
:102CE00065745F6368675F766275735F766F6C7437
:102CF00061676520756E6B6E6F77200D0A000000AE
:102D000010B53121EA2000F057FA13490C7901235C
:102D10000022002C11D0040708D54878401CC0B20E
:102D20004870052801D94A700A7110BD4A704006E2
:102D300001D54B7310BD4A7310BD800608D5487885
:102D4000401CC0B248700328F6D94A700B7110BD00
:102D50004A70087A10BD00002800002010B55021EC
:102D6000EA2000F029FA04465121EA2000F024FA72
:102D7000000204492043486149690348FFF768F8A5
:102D800010BD00002800002054AC040010B55221F2
:102D9000EA2000F011FA04465321EA2000F00CFA70
:102DA000000204492043886189690348FFF750F80D
:102DB00010BD00002800002008AC0400F3B50E464A
:102DC000002481B004212046FDF7ABFE002301273B
:102DD0006425640005210120FDF7B4FE2846009516
:102DE000401E0090FCD10420FDF7A2FE002800D078
:102DF0003C4305210020FDF7A5FE28460095401E16
:102E00000090FCD15B1C082BE3DB04210120FDF7C3
:102E100088FE002E02D00421012001E004210020C0
:102E2000FDF790FE05210120FDF78CFE2846009558
:102E3000401E0090FCD10521FDF784FE04210120F5
:102E4000FDF780FE01980470FEBDF8B50724322717
:102E50000646642505210020FDF774FE28460095EE
:102E6000401E0090FCD1072C03D104210120FDF766
:102E700058FE28460095401E0090FCD13046E040A8
:102E8000C007C00F0421FDF75DFE38460097401EC5
:102E90000090FCD105210120FDF754FE2846009545
:102EA000401E0090FCD1641E072CD3D90521FDF7EC
:102EB00049FE28460095401E0090FCD10421FDF7F4
:102EC00030FE38460097401E0090FCD105210120BD
:102ED000FDF738FE28460095401E0090FCD10420E6
:102EE000FDF726FE034605210020FDF72BFE2946AF
:102EF0000095491E0091FCD11846F8BDFCB5164658
:102F00000F46044600F026F8E0B2FFF79EFF642566
:102F100028460195401E0190FCD13846FFF795FFE9
:102F200028460195401E0190FCD100F013F8641C66
:102F3000E0B2FFF78AFF28460195401E0190FCD1C0
:102F400001216846FFF73AFF68460078307000F0CC
:102F50002FF8FCBD08B504210120FDF7E2FD302368
:102F600018460093401E0090FCD104210120FDF77B
:102F7000E9FD18460093401E0090FCD10521012078
:102F8000FDF7E0FD18460093401E0090FCD104219F
:102F9000FDF7D8FD18460093401E0090FCD1052196
:102FA000FDF7D0FD40200090401E0090FCD108BDF0
:102FB00008B505210020FDF7C5FD64200090401EE6
:102FC0000090FCD104210120FDF7ABFD042100207D
:102FD000FDF7B8FD40200090401E0090FCD1052177
:102FE0000120FDF7AFFD30200090401E0090FCD185
:102FF00004210120FDF7A6FD68200090401E0090EE
:10300000FCD108BD30B50C4B0C4C002802D0012877
:1030100002D003E01A6800E02268D2B201258D4098
:10302000E9B20A43002802D0012802D002E01A6067
:1030300000E02260002030BD008401400094014087
:1030400091400123921C9340002805D0012802D111
:1030500002481818016070470148FAE700900140E3
:103060000080014038B50024074D009404E000982A
:10307000401C0090642804D82846FDF74DFCC0038E
:10308000F5D4009438BD0000080002400021012260
:10309000072804D88140801C8240064806E0083892
:1030A000072805D88140801C824003481018016021
:1030B0007047000000800140009001400121072876
:1030C00003D8801C8140074805E00838072806D847
:1030D000801C8140044808180068C0B27047FF2077
:1030E00070470000008001400090014001210A4625
:1030F000072804D88140801C8240064806E0083832
:10310000072805D88140801C8240034810180160C0
:103110007047000000800140009001400121072815
:1031200001D8054A03E00838072804D8034A136881
:1031300081408B431360704700840140009401403C
:103140000121072801D8054A03E00838072804D8D8
:10315000034A136881400B431360704700840140A9
:103160000094014010B50720FDF7F4FC10BD00B538
:10317000FEF70AFC00BD00B5FEF712FC00BD00B56D
:10318000FEF71AFC00BD000010B5FDF703FF024971
:10319000886000F003F810BD0C00002005480449C9
:1031A00081610121C16101694908490001617047DC
:1031B000A55A00000020024008B500236A4613709B
:1031C0000123FFF79BFE6A46107808BD70B51446D0
:1031D0005C43CB1882185B1E521E9BB292B2049DB8
:1031E000FEF77CFBA1B22846FEF75CF970BD00003B
:1031F00086B0FEF7BBFCFFF7D0FAFFF7BBFC25213A
:103200001620FFF7DBFB27211720FFF7D7FB212133
:103210001420FFF7D3FB22211520FFF7CFFB062157
:103220000720FFF7CBFBFEF7C5F90020FEF7AAF851
:10323000FEF7E0F97F2300211A460846FEF74EFB11
:10324000FDF7ECFB5348FEF7C7F91F25ED024021BF
:103250002B4614220846FEF712F87D27BF01384698
:10326000FFF76FFB0124640321464B48FEF732F958
:103270004A48FFF766FB21464948FEF72BF93846D6
:10328000FFF75FFB21464748FEF724F93846FFF772
:1032900058FB00246846048204A8802300901A4644
:1032A00021462046FFF792FF3846FFF74AFB572397
:1032B0006D2227211420FEF711FB3B493B48FEF706
:1032C000D5F86D230A211A460846FEF707FB384E4B
:1032D00038483146FEF71AF93846FFF732FB00F05E
:1032E00059F93846FFF72DFBE1277F0203223946C3
:1032F0000020FEF76FFD032239460120FEF76AFD2C
:1033000009210820FFF75AFB0B210920FFF756FB84
:103310000D210A20FFF752FB0A213C2364220846B4
:103320000095FDF785FF3F21234849013C221423E6
:103330000092029103900194642219461846FDF709
:10334000EDFF3046FEF7FAFB1C48FFF767FA1C4D0D
:1033500032212E683046FCF7CBFE002901D1FEF762
:1033600067FC64213046FCF7C3FE0C0001D1FDF779
:1033700017FE002C01D1FEF753FCC8213046FCF7A4
:10338000B7FE0C0001D1FEF7CFFC002CE0D1FEF718
:1033900007FCDDE7FFFF0000E8DD03001027000069
:1033A00028580100E85D020074220000B4350000D6
:1033B000204E0000E85D0400108400006000002042
:1033C000100000200348016904221143016130BF4D
:1033D0007047000000ED00E010B50D210A20FFF756
:1033E000EDFA0448016840229143016002480068F8
:1033F000C0B210BD008401400081014072B60020BF
:10340000704762B67047F8B50446C068FCF7F5FE31
:10341000054629462069FCF79FFE2061E169FDF71A
:1034200027F901D2E0692061A1692069FDF716F949
:1034300001D2A069206128466169FCF7DEFEA2681E
:1034400001461046FCF7E1FE074621696068FCF77B
:10345000DCFE064629462068FCF7D7FE3146FCF71D
:103460007BFE3946FCF778FE65610646E169FDF7AB
:10347000FFF800D2E669A1693046FDF7EFF800D207
:10348000A6693046F8BD0000154C2046FDF744FA09
:10349000802101432046FDF745FA114D8C3D284619
:1034A000FDF73AFA012108430446FFF7DBFD214608
:1034B0002846FDF737FA2C1F2046FDF72DFAFFF7B7
:1034C000D1FD34212046FDF72DFAFFF7CBFD04484E
:1034D00004493038FDF726FAFFF774FFFEE70000D5
:1034E0009000024010270000F8B5274F04466428DA
:1034F00019D352232D2223211620FEF7EFF90120A4
:10350000FEF7C0FA5223452223212E20FEF7E6F9CA
:103510000020FEF7B7FA52235D2223214620FEF752
:10352000DDF900202BE03878642809D152235D2290
:1035300023211620FEF7D2F914491548FEF70AFA9E
:103540000A212046FCF7D4FD0D00064610D1522377
:10355000372223212020FEF7C1F93046FEF792FAE8
:103560004723572228215020FEF7B8F9FEF7BEFA6C
:1035700052234F2223213820FEF7B0F92846FEF7C8
:1035800081FA3C70F8BD00005A000020701A00005B
:103590002858000010B56D230A211A460846FEF788
:1035A0009DF902490248FEF7D5F910BD204E0000F2
:1035B000E85D040000C500E700E700E700E700E77A
:1035C00000E700E700E700E700E700E700E700E7C3
:1035D00000E700E700E700E700E700E700E700E7B3
:1035E00000E700E700E700E700E700E700E700E7A3
:1035F00000E700E700E700E700E700E700E700E793
:1036000000E700E700E700E700E700E700E700E782
:1036100000E700E700E700E700E700E700E700E772
:1036200000E700E700E700E700E700E700E700E762
:1036300000E700E700E700E700E700E700E700E752
:1036400000E700E700E700E700E700E700E700E742
:1036500000E700E700E700E700E700E70000000000
:1036600000000000000000001CD9051D051D051DFF
:10367000051D051D051D051D051D051D051D051D3A
:10368000051D051D051D051D051D051D051D051D2A
:10369000051D051D051D051D051D051D051D051D1A
:1036A000051D051D051D051D051D051D051D051D0A
:1036B000051D051D051D051D051D051D051D051DFA
:1036C000051D051D051D051D051D051D051D051DEA
:1036D000051D051D051D051D051D051D051D051DDA
:1036E000051D051D051D051D051D051D051D051DCA
:1036F000051D051D051D051D051D051D051D051DBA
:10370000051D051D051D051D053D051D051D051D89
:103710000000000000000000000000001CD9051D92
:10372000126E124D124D124D124D124D124D124D80
:10373000124D124D124D124D124D124D124D124D91
:10374000124D124D124D124D124D124D124D124D81
:10375000124D124D124D124D124D124D124D124D71
:10376000124D124D124D124D124D124D124D124D61
:10377000124D124D124D124D124D124D124D124D51
:10378000124D124D124D124D124D124D124D124D41
:10379000124D124D124D124D124D124D124D124D31
:1037A000124D124D124D124D124D124D124D124D21
:1037B000124D124D124D124D124D124D124D124D11
:1037C000051C051D000000000000000000000000B6
:1037D0001CD9051D002200000000000000000000B0
:1037E00000000000000000000000000000000000D9
:1037F00000000000000000000000000000000000C9
:1038000000000000000000000000000000000000B8
:1038100000000000000000000000000000000000A8
:103820000000000000000000000000000000000098
:103830000000000000000000000000000000000088
:103840000000000000000000000000000000000078
:103850000000000000000000000000000000000068
:103860000000000000000000000000000000000058
:1038700000000000051C051D000000000000000005
:10388000000000001CD9051D0022000000000000FF
:103890000000000000000000000000000000000028
:1038A0000000000000000000000000000000000018
:1038B0000000000000000000000000000000000008
:1038C00000000000000000000000000000000000F8
:1038D00000000000000000000000000000000000E8
:1038E00000000000000000000000000000000000D8
:1038F00000000000000000000000000000000000C8
:1039000000000000000000000000000000000000B7
:1039100000000000000000000000000000000000A7
:103920000000000000000000051C051D0000000054
:1039300000000000000000001CD9051D002200004E
:103940000000000000000000000000000000000077
:103950000000000000000000000000000000000067
:103960000000000000000000000000000000000057
:103970000000000000000000000000000000000047
:103980000000000000000000000000000000000037
:103990000000000000000000000000000000000027
:1039A0000000000000000000000000000000000017
:1039B0000000000000000000000000000000000007
:1039C00000000000000000000000000000000000F7
:1039D000000000000000000000000000051C051DA4
:1039E0000000000000000000000000001CD9051DC0
:1039F00000220000000000000000000000000000A5
:103A000000000000000000000000000000000000B6
:103A100000000000000000000000000000000000A6
:103A20000000000000000000000000000000000096
:103A30000000000000000000000000000000000086
:103A40000000000000000000000000000000000076
:103A50000000000000000000000000000000000066
:103A60000000000000000000000000000000000056
:103A70000000000000000000000000000000000046
:103A80000000000000000000000000000000000036
:103A9000051C051D000000000000000000000000E3
:103AA0001CD9051D002200000000000000000000DD
:103AB0000000000000000000000000000000000006
:103AC00000000000000000000000000000000000F6
:103AD00000000000000000000000000000000000E6
:103AE00000000000000000000000000000000000D6
:103AF00000000000000000000000000000000000C6
:103B000000000000000000000000000000000000B5
:103B100000000000000000000000000000000000A5
:103B20000000000000000000000000000000000095
:103B30000000000000000000000000000000000085
:103B400000000000051C051D000000000000000032
:103B5000000000001CD9051D00220000000000002C
:103B60000000000000000000000000000000000055
:103B70000000000000000000000000000000000045
:103B80000000000000000000000000000000000035
:103B90000000000000000000000000000000000025
:103BA0000000000000000000000000000000000015
:103BB0000000000000000000000000000000000005
:103BC00000000000000000000000000000000000F5
:103BD00000000000000000000000000000000000E5
:103BE00000000000000000000000000000000000D5
:103BF0000000000000000000051C051D0000000082
:103C000000000000000000001CD9051D002200007B
:103C100000000000000000000000000000000000A4
:103C20000000000000000000000000000000000094
:103C30000000000000000000000000000000000084
:103C40000000000000000000000000000000000074
:103C50000000000000000000000000000000000064
:103C60000000000000000000000000000000000054
:103C70000000000000000000000000000000000044
:103C80000000000000000000000000000000000034
:103C90000000000000000000000000000000000024
:103CA000000000000000000000000000051C051DD1
:103CB0000000000000000000000000001CD9051DED
:103CC00000220000000000000000000000000000D2
:103CD00000000000000000000000000000000000E4
:103CE00000000000000000000000000000000000D4
:103CF00000000000000000000000000000000000C4
:103D000000000000000000000000000000000000B3
:103D100000000000000000000000000000000000A3
:103D20000000000000000000000000000000000093
:103D30000000000000000000000000000000000083
:103D40000000000000000000000000000000000073
:103D50000000000000000000000000000000000063
:103D6000051C051D00000000000000000000000010
:103D70001CD9051D0022000000000000000000000A
:103D80000000000000000000000000000000000033
:103D90000000000000000000000000000000000023
:103DA0000000000000000000000000000000000013
:103DB0000000000000000000000000000000000003
:103DC00000000000000000000000000000000000F3
:103DD00000000000000000000000000000000000E3
:103DE00000000000000000000000000000000000D3
:103DF00000000000000000000000000000000000C3
:103E000000000000000000000000000000000000B2
:103E100000000000051C051D00000000000000005F
:103E2000000000001CD9051D002200000000000059
:103E30000000000000000000000000000000000082
:103E40000000000000000000000000000000000072
:103E50000000000000000000000000000000000062
:103E60000000000000000000000000000000000052
:103E70000000000000000000000000000000000042
:103E80000000000000000000000000000000000032
:103E90000000000000000000000000000000000022
:103EA0000000000000000000000000000000000012
:103EB0000000000000000000000000000000000002
:103EC0000000000000000000051C051D00000000AF
:103ED00000000000000000001CD9051D00220000A9
:103EE00000000000000000000000000000000000D2
:103EF00000000000000000000000000000000000C2
:103F000000000000000000000000000000000000B1
:103F100000000000000000000000000000000000A1
:103F20000000000000000000000000000000000091
:103F30000000000000000000000000000000000081
:103F40000000000000000000000000000000000071
:103F50000000000000000000000000000000000061
:103F60000000000000000000000000000000000051
:103F7000000000000000000000000000051C051DFE
:103F80001CD91CD91CD91CD91CD900001CD9051D51
:103F900000220000000000000000000000000000FF
:103FA0000000000000000000000000000000000011
:103FB0000000000000000000000000000000000001
:103FC00000000000000000000000000000000000F1
:103FD00000000000000000000000000000000000E1
:103FE00000000000000000000000000000000000D1
:103FF00000000000000000000000000000000000C1
:1040000000000000000000000000000000000000B0
:1040100000000000000000000000000000000000A0
:104020000000000000000000000000000000000090
:10403000051C051D053D051D051D051C051D000074
:104040001CD9051D00220000000000000000000037
:104050000000000000000000000000000000000060
:104060000000000000000000000000000000000050
:104070000000000000000000000000000000000040
:104080000000000000000000000000000000000030
:104090000000000000000000000000000000000020
:1040A0000000000000000000000000000000000010
:1040B0000000000000000000000000000000000000
:1040C00000000000000000000000000000000000F0
:1040D00000000000000000000000000000000000E0
:1040E00000000000051C051D051D051D051D051D05
:1040F000051D00001CD9051D002200000000000065
:1041000000000000000000000000000000000000AF
:10411000000000000000000000000000000000009F
:10412000000000000000000000000000000000008F
:10413000000000000000000000000000000000007F
:10414000000000000000000000000000000000006F
:10415000000000000000000000000000000000005F
:10416000000000000000000000000000000000004F
:10417000000000000000000000000000000000003F
:10418000000000000000000000000000000000002F
:104190000000000000000000051C051D051D051D98
:1041A000051D051D051D00001CD9051D0022000070
:1041B00000000000000000000000000000000000FF
:1041C00000000000000000000000000000000000EF
:1041D00000000000000000000000000000000000DF
:1041E00000000000000000000000000000000000CF
:1041F00000000000000000000000000000000000BF
:1042000000000000000000000000000000000000AE
:10421000000000000000000000000000000000009E
:10422000000000000000000000000000000000008E
:10423000000000000000000000000000000000007E
:10424000000000000000000000000000051C051D2B
:10425000051D051D051D051D051D00001CD9051D9D
:10426000002200000000000000000000000000002C
:10427000000000000000000000000000000000003E
:10428000000000000000000000000000000000002E
:10429000000000000000000000000000000000001E
:1042A000000000000000000000000000000000000E
:1042B00000000000000000000000000000000000FE
:1042C00000000000000000000000000000000000EE
:1042D00000000000000000000000000000000000DE
:1042E00000000000000000000000000000000000CE
:1042F00000000000000000000000000000000000BE
:10430000051C051D051D051D051D051D051D0000C0
:104310001CD9051D00220000000000000000000064
:10432000000000000000000000000000000000008D
:10433000000000000000000000000000000000007D
:10434000000000000000000000000000000000006D
:10435000000000000000000000000000000000005D
:10436000000000000000000000000000000000004D
:10437000000000000000000000000000000000003D
:10438000000000000000000000000000000000002D
:10439000000000000000000000000000000000001D
:1043A000000000000000000000000000000000000D
:1043B00000000000051C051D051D051D051D051D32
:1043C000051D00001CD9051D002200000000000092
:1043D00000000000000000000000000000000000DD
:1043E00000000000000000000000000000000000CD
:1043F00000000000000000000000000000000000BD
:1044000000000000000000000000000000000000AC
:10441000000000000000000000000000000000009C
:10442000000000000000000000000000000000008C
:10443000000000000000000000000000000000007C
:10444000000000000000000000000000000000006C
:10445000000000000000000000000000000000005C
:104460000000000000000000051C051D051D051DC5
:10447000051D051D051D00001CD9051D002200009D
:10448000000000000000000000000000000000002C
:10449000000000000000000000000000000000001C
:1044A000000000000000000000000000000000000C
:1044B00000000000000000000000000000000000FC
:1044C00000000000000000000000000000000000EC
:1044D00000000000000000000000000000000000DC
:1044E00000000000000000000000000000000000CC
:1044F00000000000000000000000000000000000BC
:1045000000000000000000000000000000000000AB
:10451000000000000000000000000000051C051D58
:10452000051D051D051D051D051D00001CD9051DCA
:104530000022000000000000000000000000000059
:10454000000000000000000000000000000000006B
:10455000000000000000000000000000000000005B
:10456000000000000000000000000000000000004B
:10457000000000000000000000000000000000003B
:10458000000000000000000000000000000000002B
:10459000000000000000000000000000000000001B
:1045A000000000000000000000000000000000000B
:1045B00000000000000000000000000000000000FB
:1045C00000000000000000000000000000000000EB
:1045D000051C051D051D051D051D051D051D0000EE
:1045E0001CD9051D00220000000000000000000092
:1045F00000000000000000000000000000000000BB
:1046000000000000000000000000000000000000AA
:10461000000000000000000000000000000000009A
:10462000000000000000000000000000000000008A
:10463000000000000000000000000000000000007A
:10464000000000000000000000000000000000006A
:10465000000000000000000000000000000000005A
:10466000000000000000000000000000000000004A
:10467000000000000000000000000000000000003A
:1046800000000000051C051D051D051D051D051D5F
:10469000051D00001CD9051D0022000000000000BF
:1046A000000000000000000000000000000000000A
:1046B00000000000000000000000000000000000FA
:1046C00000000000000000000000000000000000EA
:1046D00000000000000000000000000000000000DA
:1046E00000000000000000000000000000000000CA
:1046F00000000000000000000000000000000000BA
:1047000000000000000000000000000000000000A9
:104710000000000000000000000000000000000099
:104720000000000000000000000000000000000089
:104730000000000000000000051C051D051D051DF2
:10474000051D051D051D00001CD9051D00220000CA
:104750000000000000000000000000000000000059
:104760000000000000000000000000000000000049
:104770000000000000000000000000000000000039
:104780000000000000000000000000000000000029
:104790000000000000000000000000000000000019
:1047A0000000000000000000000000000000000009
:1047B00000000000000000000000000000000000F9
:1047C00000000000000000000000000000000000E9
:1047D00000000000000000000000000000000000D9
:1047E000000000000000000000000000051C051D86
:1047F000051D051D051D051D051D00001CD9051DF8
:104800000022000000000000000000000000000086
:104810000000000000000000000000000000000098
:104820000000000000000000000000000000000088
:104830000000000000000000000000000000000078
:104840000000000000000000000000000000000068
:104850000000000000000000000000000000000058
:104860000000000000000000000000000000000048
:104870000000000000000000000000000000000038
:104880000000000000000000000000000000000028
:104890000000000000000000000000000000000018
:1048A000051C051D051D051D051D051D051D00001B
:1048B0001CD9051D002200000000000000000000BF
:1048C00000000000000000000000000000000000E8
:1048D00000000000000000000000000000000000D8
:1048E00000000000000000000000000000000000C8
:1048F00000000000000000000000000000000000B8
:1049000000000000000000000000000000000000A7
:104910000000000000000000000000000000000097
:104920000000000000000000000000000000000087
:104930000000000000000000000000000000000077
:104940000000000000000000000000000000000067
:1049500000000000051C051D051D051D051D051D8C
:10496000051D00001CD9051D0022000000000000EC
:104970000000000000000000000000000000000037
:104980000000000000000000000000000000000027
:104990000000000000000000000000000000000017
:1049A0000000000000000000000000000000000007
:1049B00000000000000000000000000000000000F7
:1049C00000000000000000000000000000000000E7
:1049D00000000000000000000000000000000000D7
:1049E00000000000000000000000000000000000C7
:1049F00000000000000000000000000000000000B7
:104A00000000000000000000051C051D051D051D1F
:104A1000051D051D051D00001CD9051D00220000F7
:104A20000000000000000000000000000000000086
:104A30000000000000000000000000000000000076
:104A40000000000000000000000000000000000066
:104A50000000000000000000000000000000000056
:104A60000000000000000000000000000000000046
:104A70000000000000000000000000000000000036
:104A80000000000000000000000000000000000026
:104A90000000000000000000000000000000000016
:104AA0000000000000000000000000000000000006
:104AB000000000000000000000000000051C051DB3
:104AC000051D051D051D051D051D00001CD9051D25
:104AD00000220000000000000000000000000000B4
:104AE00000000000000000000000000000000000C6
:104AF00000000000000000000000000000000000B6
:104B000000000000000000000000000000000000A5
:104B10000000000000000000000000000000000095
:104B20000000000000000000000000000000000085
:104B30000000000000000000000000000000000075
:104B40000000000000000000000000000000000065
:104B50000000000000000000000000000000000055
:104B60000000000000000000000000000000000045
:104B7000051C051D051D051D051D051D051D000048
:104B80001CD9051D002200000000000000000000EC
:104B90000000000000000000000000000000000015
:104BA0000000000000000000000000000000000005
:104BB00000000000000000000000000000000000F5
:104BC00000000000000000000000000000000000E5
:104BD00000000000000000000000000000000000D5
:104BE00000000000000000000000000000000000C5
:104BF00000000000000000000000000000000000B5
:104C000000000000000000000000000000000000A4
:104C10000000000000000000000000000000000094
:104C200000000000051C051D051D051D051D051DB9
:104C3000051D00001CD9051D002200000000000019
:104C40000000000000000000000000000000000064
:104C50000000000000000000000000000000000054
:104C60000000000000000000000000000000000044
:104C70000000000000000000000000000000000034
:104C80000000000000000000000000000000000024
:104C90000000000000000000000000000000000014
:104CA0000000000000000000000000000000000004
:104CB00000000000000000000000000000000000F4
:104CC00000000000000000000000000000000000E4
:104CD0000000000000000000051C051D051D051D4D
:104CE000051D051D051D00001CD9051D0022000025
:104CF00000000000000000000000000000000000B4
:104D000000000000000000000000000000000000A3
:104D10000000000000000000000000000000000093
:104D20000000000000000000000000000000000083
:104D30000000000000000000000000000000000073
:104D40000000000000000000000000000000000063
:104D50000000000000000000000000000000000053
:104D60000000000000000000000000000000000043
:104D70000000000000000000000000000000000033
:104D8000000000000000000000000000051C051DE0
:104D900014FB14FB14FB14FB14FB00001CD9051DB1
:104DA00000220000000000000000000000000000E1
:104DB00000000000000000000000000000000000F3
:104DC00000000000000000000000000000000000E3
:104DD00000000000000000000000000000000000D3
:104DE00000000000000000000000000000000000C3
:104DF00000000000000000000000000000000000B3
:104E000000000000000000000000000000000000A2
:104E10000000000000000000000000000000000092
:104E20000000000000000000000000000000000082
:104E30000000000000000000000000000000000072
:104E4000051C051D0000000000000000000000001F
:104E50001CD9051D00220000000000000000000019
:104E60000000000000000000000000000000000042
:104E70000000000000000000000000000000000032
:104E80000000000000000000000000000000000022
:104E90000000000000000000000000000000000012
:104EA0000000000000000000000000000000000002
:104EB00000000000000000000000000000000000F2
:104EC00000000000000000000000000000000000E2
:104ED00000000000000000000000000000000000D2
:104EE00000000000000000000000000000000000C2
:104EF00000000000051C051D00000000000000006F
:104F0000000000001CD9051D002200000000000068
:104F10000000000000000000000000000000000091
:104F20000000000000000000000000000000000081
:104F30000000000000000000000000000000000071
:104F40000000000000000000000000000000000061
:104F50000000000000000000000000000000000051
:104F60000000000000000000000000000000000041
:104F70000000000000000000000000000000000031
:104F80000000000000000000000000000000000021
:104F90000000000000000000000000000000000011
:104FA0000000000000000000051C051D00000000BE
:104FB00000000000000000001CD9051D00220000B8
:104FC00000000000000000000000000000000000E1
:104FD00000000000000000000000000000000000D1
:104FE00000000000000000000000000000000000C1
:104FF00000000000000000000000000000000000B1
:1050000000000000000000000000000000000000A0
:105010000000000000000000000000000000000090
:105020000000000000000000000000000000000080
:105030000000000000000000000000000000000070
:105040000000000000000000000000000000000060
:10505000000000000000000000000000051C051D0D
:105060000000000000000000000000001CD9051D29
:10507000002200000000000000000000000000000E
:105080000000000000000000000000000000000020
:105090000000000000000000000000000000000010
:1050A0000000000000000000000000000000000000
:1050B00000000000000000000000000000000000F0
:1050C00000000000000000000000000000000000E0
:1050D00000000000000000000000000000000000D0
:1050E00000000000000000000000000000000000C0
:1050F00000000000000000000000000000000000B0
:10510000000000000000000000000000000000009F
:10511000051C051D0000000000000000000000004C
:105120001CD9051D00220000000000000000000046
:10513000000000000000000000000000000000006F
:10514000000000000000000000000000000000005F
:10515000000000000000000000000000000000004F
:10516000000000000000000000000000000000003F
:10517000000000000000000000000000000000002F
:10518000000000000000000000000000000000001F
:10519000000000000000000000000000000000000F
:1051A00000000000000000000000000000000000FF
:1051B00000000000000000000000000000000000EF
:1051C00000000000051C051D00000000000000009C
:1051D000000000001CD9051D002200000000000096
:1051E00000000000000000000000000000000000BF
:1051F00000000000000000000000000000000000AF
:10520000000000000000000000000000000000009E
:10521000000000000000000000000000000000008E
:10522000000000000000000000000000000000007E
:10523000000000000000000000000000000000006E
:10524000000000000000000000000000000000005E
:10525000000000000000000000000000000000004E
:10526000000000000000000000000000000000003E
:105270000000000000000000051C051D00000000EB
:1052800000000000000000001CD9051D00220000E5
:10529000000000000000000000000000000000000E
:1052A00000000000000000000000000000000000FE
:1052B00000000000000000000000000000000000EE
:1052C00000000000000000000000000000000000DE
:1052D00000000000000000000000000000000000CE
:1052E00000000000000000000000000000000000BE
:1052F00000000000000000000000000000000000AE
:10530000000000000000000000000000000000009D
:10531000000000000000000000000000000000008D
:10532000000000000000000000000000051C051D3A
:105330000000000000000000000000001CD9051D56
:10534000002200000000000000000000000000003B
:10535000000000000000000000000000000000004D
:10536000000000000000000000000000000000003D
:10537000000000000000000000000000000000002D
:10538000000000000000000000000000000000001D
:10539000000000000000000000000000000000000D
:1053A00000000000000000000000000000000000FD
:1053B00000000000000000000000000000000000ED
:1053C00000000000000000000000000000000000DD
:1053D00000000000000000000000000000000000CD
:1053E000051C051D0000000000000000000000007A
:1053F0001CD9051D00220000000000000000000074
:10540000000000000000000000000000000000009C
:10541000000000000000000000000000000000008C
:10542000000000000000000000000000000000007C
:10543000000000000000000000000000000000006C
:10544000000000000000000000000000000000005C
:10545000000000000000000000000000000000004C
:10546000000000000000000000000000000000003C
:10547000000000000000000000000000000000002C
:10548000000000000000000000000000000000001C
:1054900000000000051C051D0000000000000000C9
:1054A000000000001CD9051D0022000000000000C3
:1054B00000000000000000000000000000000000EC
:1054C00000000000000000000000000000000000DC
:1054D00000000000000000000000000000000000CC
:1054E00000000000000000000000000000000000BC
:1054F00000000000000000000000000000000000AC
:10550000000000000000000000000000000000009B
:10551000000000000000000000000000000000008B
:10552000000000000000000000000000000000007B
:10553000000000000000000000000000000000006B
:105540000000000000000000051C051D0000000018
:1055500000000000000000001CD9051D0022000012
:10556000000000000000000000000000000000003B
:10557000000000000000000000000000000000002B
:10558000000000000000000000000000000000001B
:10559000000000000000000000000000000000000B
:1055A00000000000000000000000000000000000FB
:1055B00000000000000000000000000000000000EB
:1055C00000000000000000000000000000000000DB
:1055D00000000000000000000000000000000000CB
:1055E00000000000000000000000000000000000BB
:1055F000000000000000000000000000051C051D68
:105600000000000000000000000000001CD9051D83
:10561000051C0D1C0D1C0D1C0D1C0D1C0D1C0D1C4A
:105620000D1C0D1C0D1C0D1C0D1C0D1C0D1C0D1C32
:105630000D1C0D1C0D1C0D1C0D1C0D1C0D1C0D1C22
:105640000D1C0D1C0D1C0D1C0D1C0D1C0D1C0D1C12
:105650000D1C0D1C0D1C0D1C0D1C0D1C0D1C0D1C02
:105660000D1C0D1C0D1C0D1C0D1C0D1C0D1C0D1CF2
:105670000D1C0D1C0D1C0D1C0D1C0D1C0D1C0D1CE2
:105680000D1C0D1C0D1C0D1C0D1C0D1C0D1C0D1CD2
:105690000D1C0D1C0D1C0D1C0D1C0D1C0D1C0D1CC2
:1056A0000D1C0D1C0D1C0D1C0D1C0D1C0D1C0D1CB2
:1056B000051D051D000000000000000000000000A6
:1056C0001CD9051D051D051D051D051D051D051DF7
:1056D000051D051D051D051D051D051D051D051DBA
:1056E000051D051D051D051D051D051D051D051DAA
:1056F000051D051D051D051D051D051D051D051D9A
:10570000051D051D051D051D051D051D051D051D89
:10571000051D051D051D051D051D051D051D051D79
:10572000051D051D051D051D051D051D051D051D69
:10573000051D051D051D051D051D051D051D051D59
:10574000051D051D051D051D051D051D051D051D49
:10575000051D051D051D051D051D051D051D051D39
:10576000051D051D051D051D0000000000000000B1
:105770000000000000000000000000000000000029
:105780000000000000000000000000000000000019
:105790000000000000000000000000000000000009
:1057A00000000000000000000000000000000000F9
:10D820000000000000000000F7BEF7BEF7BEF7BE24
:10D83000F7BEF7BEF7BEF7BEF7BEF7BEF7BEF7BE40
:10D84000F7BEF7BEF7BEF7BEF7BEF7BEF7BEF7BE30
:10D85000F7BEF7BEF7BEF7BEF7BEF7BEF7BEF7BE20
:10D86000F7BEF7BEF7BEF7BEF7BEF7BEF7BEF7BE10
:10D87000F7BEF7BEF7DEF7DEF7BEF7BEF7BEF7BEC0
:10D88000F7BEF7BEF7BEF7BEF7BEF7BEF7BEF7BEF0
:10D89000F7BEF7BEF7BEEF9EEF9EEF9EEF9EEF9EA8
:10D8A000EF9EEF9EEF9EF7BEEFBEEF9EEFBEEF9EA8
:10D8B000F7BEF7BEF7BEF7BEF7BFF7BEF7BEF7BEBF
:10D8C000F7BEF7BEF7BEF7BEF7BEF7BEF7BEF7BEB0
:10D8D000F7BEF7BEF7BEF7BEF7BEF7BEF7BEF7BEA0
:10D8E000F7BEF7BEF7BEF7BEF7BEF7BEF7BEF7BE90
:10D8F000F7BEF7BEF7BEF7BEF7BEF7BEF7BEF7BE80
:10D90000F7BEF7BEF7BEF7BEF7BEF7BEF7BEF7BE6F
:10D91000F7BEF7BEF7BEF7BEF7BEF7BEF7BEF7BE5F
:10D92000F7BEF7BEF7BEF7BEF7BEF7BEF7BEF7BE4F
:10D93000F7BEF7BEF7BEF7BEF7BEF7BEF7BEF7BE3F
:10D94000F7BEF7BEF7BEF7BEF7BEF7BEF7BEF7BE2F
:10D95000F7BEF7BEF7BEF7BEF7BEF7BEF7BEF7BE1F
:10D96000F7BEF7BEF7BEF7BEF7BEF7BEF7BEF7BE0F
:10D97000F7BEF7BEF7BEF7BEF7BEF7BEF7BEF7BEFF
:10D98000F7BEF7BEF7BEF7BEF7BEF7BFEFBEEF9E1E
:10D99000EFBEEF9EEF9EEF9EE79EEF9EE79EE77F36
:10D9A000E79FE79FE79EE79FE77FE79FE79FEF9E61
:10D9B000EF9EEF9EEF9EEF9EEF9EF7BEF79EF7BFA6
:10D9C000F7BFF7BEF7BEF7BEF7BEF7BEF7BEF7BEAE
:10D9D000F7BEF7BEF7BEF7BEF7BEF7BEF7BEF7BE9F
:10D9E000F7BEF7BEF7BEF7BEF7BEF7BEF7BEF7BE8F
:10D9F000F7BEF7BEF7BEF7BEF7BEF7BEF7BEF7BE7F
:10DA0000F7BEF7BEF7BEF7BEF7BEF7BEF7BEF7BE6E
:10DA1000F7BEF7BEF7BEF7BEF7BEF7BEF7BEF7BE5E
:10DA2000F7BEF7BEF7BEF7BEF7BEF7BEF7BEF7BE4E
:10DA3000F7BEF7BEF7BEF7BEF7BEF7BEF7BEF7BE3E
:10DA4000F7BEF7BEF7BEF7BEF7BEF7BEF7BEF7BE2E
:10DA5000F7BEF7BEF7BEF7BEF7BEF7BEF7BFF7BE1D
:10DA6000F7BEF7BEF7BEF7BEF7BEF7BEF7BEF7BE0E
:10DA7000F7BEF7BEF7BEF7BEF7BFF7BEF7BEF7BEFD
:10DA8000F7BEF7BFF79EEF9EEF9EEF9EE79EE79EE5
:10DA9000E77EDF7FDF7FDF7FDF7FD75FD75FD75F07
:10DAA000D75ED75ED75FD75ED75FDF5EDF5EDF5EB4
:10DAB000DF7EDF7EE77EE79EE79EEF9EEF9EEFBE76
:10DAC000EFBEF7BFF7BFF7BEF7BEF7BEF7BEF7BEB4
:10DAD000F7BEF7BEF7BEF7BEF7BEF7BEF7BEF7BE9E
:10DAE000F7BEF7BEF7BEF7BEF7BEF7BEF7BEF7BE8E
:10DAF000F7BEF7BEF7BEF7BEF7BEF7BEF7BEF7BE7E
:10DB0000F7BEF7BEF7BEF7BEF7BEF7BEF7BEF7BE6D
:10DB1000F7BEF7BEF7BEF7BEF7BEF7BEF7BEF7BE5D
:10DB2000F7BEF7BEF7BEF7BEF7BEF7BEF7BEF7BE4D
:10DB3000F7BEF7BEF7BEF7BEF7BEF7BEF7BEF7BE3D
:10DB4000F7BEF7BEF7BEF7BEF7BEF7BEF7BEF7BE2D
