:020000040000FA
:10000000FC0F0020D5000000D9000000DB0000003C
:10001000DD000000DF000000E10000000000000043
:10002000000000000000000000000000E3000000ED
:10003000E500000000000000E7000000850000204F
:10004000EB000000EB000000410E00007D0E000000
:100050008F000020210E0000290E0000490500003D
:10006000EB000000EB000000150F0000EB000000AB
:10007000EB0000000505000007050000EB00000094
:10008000C50D0000EB000000EB0000004B05000078
:10009000EB000000EB000000EB000000EB000000B4
:1000A000EB000000EB000000EB000000EB000000A4
:1000B0004D050000EB000000FD04000009050000F4
:1000C0000348854600F0F0F900480047F5130000AA
:1000D000FC0F002005480047FEE7FEE7FEE7FEE7CD
:1000E000FEE7FEE7FEE7FEE7FEE7FEE7C1000000F1
:1000F00030B50B46014600202022012409E00D46C0
:10010000D5409D4205D31D469540491B2546954047
:1001100040191546521E002DF1DC30BD0321001D93
:10012000401E037812021A43491EF9D51046704743
:10013000F8B502464A40D40F42004B0052085B0813
:100140009A4202D20246084611464A0023D0C30D05
:100150004A00DDB2120EAD1A202D35DA4902012611
:10016000490AF6058A19002C00D0524220214F1B63
:100170001146B9402A411018C20D9A4221D0002CD4
:1001800017D0012D08DCDA05801AD20F8019D207AA
:10019000DBB200F0F0F8F8BDDA05801A0123400068
:1001A0001B06C01880185A428018CA0F1043490015
:1001B00007E04908C2071143DA05801A8019400890
:1001C000801800F0D0F8F8BD61000122511A001B20
:1001D000F7E70122D2075140AAE70122D207504097
:1001E000A6E70000F0B51FB488B00B990998002469
:1001F00048400999C00F490049080991C0070B9967
:100200000090490049080B9109990898A6460843AF
:100210001CD00B990A98084318D009980124400073
:10022000420D4800410D099824050003000B2043AE
:1002300009900B980003000B20430B9050181C49A9
:100240004018002201901446104605E000200146A7
:100250000DB0F0BD032801DA034600E003239C46FD
:10026000C11A0AAE0AE05F0008ADED5B4F00F75B14
:100270007D430027AA187C41491C5B1E6145F2DDC5
:10028000410004AB5A522104120C0A43240C401CB6
:100290000828DFDB019802900099704601910090D8
:1002A000059B049A0799069800F0ABF8D0E7000088
:1002B0000DFCFFFF0EB5C217C10F5040CA07401812
:1002C0000021054B0293019200910A460B4600F073
:1002D00098F803B000BD00003304000070B5CD0FE6
:1002E0004A0009030123090B1B0519430B4BED07BA
:1002F0000024520D9A4201DA002070BD074B3433BE
:100300009A4203DC9A1A00F01DF802E004495118E1
:1003100088402C43F1D0404270BD0000FF03000034
:10032000CDFBFFFF10B5202A04DB0146203A9140A7
:10033000002010BD914020239C1A0346E34019433E
:10034000904010BD10B5202A04DB0846203AD0406A
:10035000002110BD0B46D340D0402024A21A91406A
:100360000843194610BD002904DA401C490001D198
:1003700040084000704770B40024050C05D11024DB
:10038000000402D1002921D01124050E01D1000260
:100390000834050F01D10001241D850F01D1800013
:1003A000A41C002801DB4000641C002908D0202583
:1003B0002E1B0D46F540A14000D0012129430843E2
:1003C00001061B1B000ADB1D02D5002070BC704714
:1003D000DB05181880180029F8DA401C4900F5D10F
:1003E00070BC40084000704710B5002B08DA0024AC
:1003F000401C614192185B411A4301D14008400002
:1004000010BDF0B51FB482B005460C0003D00846FD
:1004100000F090FD02E000F08DFD203002460090DB
:1004200021462846FFF77EFF049B059A04460F46A7
:1004300018431143084314D0184610431BD00098AA
:1004400040210A1A18460599FFF77CFF05460E461B
:10045000009A05990498FFF765FF084305D001202D
:1004600004E02046394607B0F0BD0020C11705431F
:100470000E432C43374300990E986305401A7905C3
:10048000E40A00220C43FD0A0A3002D5002001468E
:10049000E9E70105101969410C9C0D9D001969419E
:1004A000FFF7A2FFDFE70000064C0125064E05E03E
:1004B000E36807CC2B430C3C98471034B442F7D385
:1004C000FFF702FE48E3010068E3010003B40148BE
:1004D000019001BD9D00002003B40148019001BDC1
:1004E0000501002003B40148019001BD090100206D
:1004F00003B40148019001BD2101002010B500F0B6
:10050000FDFD10BD704770477047000008B50D48ED
:1005100001684022114300910160416912031143B7
:1005200000914161009952101143009141610420F2
:1005300000F042FF0021042000F046FF042000F0FC
:10054000D5FB08BD00600040704770477047000051
:10055000FEB50026394C0746019600962068012119
:10056000C9030843206001252846B84001462A04F3
:100570001043206021602060082F02D0092F02D094
:1005800004E02F4801E08120400220602D4800F067
:100590000AFD60682C49009009E00198421C019214
:1005A000884204D9206860680090FF20FEBD606822
:1005B000C002F2D501202149000302114031019609
:1005C0003B0000F0CEFC0A06091115191D272B2F40
:1005D000350D0095E06802E002200090206900904F
:1005E0002660009880B2FEBD042000906069F6E7A6
:1005F00008200090A069F2E710200090E069EEE783
:1006000020210091216801432160104800F0CBFCBB
:10061000206AE4E740200090606AE0E780200090D4
:10062000A06ADCE700922268024322608869D6E76C
:100630000092226802432260C869D0E7006001404E
:100640000001010000002041B80B00000000A041A3
:10065000F8B51C4615460E46074600F05FFF0146FA
:10066000064802694269009246608760C560069A42
:1006700014430460084600F054FFF8BD00600040D9
:10068000F8B506460F463048FFF732FD4407C50867
:10069000640F39462D48FFF72BFD0A21FFF728FD8F
:1006A000002780220123002E18D0012E2BD0022EED
:1006B00048D127484760C6681643C660EEB2066058
:1006C0002D042D0E4560E6076508F60F3419E40089
:1006D0002C19113484621E4C403428E01D484760B8
:1006E000C6681643C660EEB206602D042D0E456046
:1006F000E6076508F60F3419E4002C1911348462FA
:10070000144C403413E014484760C6681643C66072
:10071000EEB206602D042D0E4560E6076508F60F63
:100720003419E4002C19113484620B4C4034E56810
:100730002D092D010D43E560C1689143C16007217A
:1007400081604360F8BD00008096980000E1F505E7
:1007500000400040001000400030004038B5002547
:10076000174C1648009520602068A11408432060AB
:10077000144800F018FC144906E00098421C00924E
:10078000884201D9002038BD6068C002F5D50F4805
:10079000009500F008FC206A256080B27D21C90028
:1007A00048430B49FFF7A4FCFFF784FD094A0A4BB5
:1007B000FFF718FDFFF792FD80B238BD20800100E1
:1007C0000060014000002041B80B00000000A04183
:1007D000FF0F00006666666666661A40F8B500227E
:1007E00019491A4B01240F25194E00280DD0012854
:1007F0000AD1184841608160C3608168C168009176
:100800000261C46045604660F8BD134841604160C4
:100810000D4FDF3787608160C360C3608168816886
:10082000C168C168009102610261C460C460456032
:1008300045600749103941604660416004493039DC
:100840004160C260F8BD00007856000079350000B4
:10085000BB0F010000D0014000B0014038B5144684
:1008600001220D461146104600F094FD0848074944
:10087000416003210091042322462946FFF7E8FE48
:100880007D20C000FFF722FE38BD00009B0F010055
:1008900000B0014038B5144601220D4611461046FD
:1008A00000F078FD084807494160022100910823C3
:1008B00022462946FFF7CCFE7D20C000FFF706FE4A
:1008C00038BD0000AB0F010000B0014038B5144640
:1008D00001220D461146104600F05CFD084807490C
:1008E000416002210091002322462946FFF7B0FE15
:1008F0007D20C000FFF7EAFD38BD00008B0F01002E
:1009000000B0014010B515210E2000F009FC1321A4
:100910000D2000F005FC11210C2000F001FC02214B
:10092000012000F019FD0121084600F015FD00210D
:10093000012000F011FD10BD10B501220446114642
:10094000104600F027FD034801494160046010BDD6
:100950009B0F010000B0014010B5054C2046FFF789
:10096000BBFD0D21890101432046FFF7BBFD10BDF2
:100970002800024010B5FFF7C5FF00F054F97820B9
:1009800000F09FFBFF2000F095F9A52000F082F910
:100990003E2000F08FF9082000F07CF93A2000F0AA
:1009A00089F9652000F076F9822000F083F90020B3
:1009B00000F070F9982000F07DF9002000F06AF94D
:1009C000632000F077F90F2000F064F9642000F054
:1009D00071F90F2000F05EF9B42000F06BF93420BB
:1009E00000F058F9B52000F065F9302000F052F918
:1009F000832000F05FF9032000F04CF9862000F01E
:100A000059F9042000F046F9872000F053F9162028
:100A100000F040F9882000F04DF9282000F03AF964
:100A2000892000F047F92F2000F034F9932000F0DE
:100A300041F9632000F02EF9962000F03BF9812067
:100A400000F028F9C32000F035F9112000F022F958
:100A5000E62000F02FF9002000F01CF9992000F0AA
:100A600029F9012000F016F9442000F023F90020B4
:100A700000F010F9702000F01DF9022000F00AF9D2
:100A8000712000F017F90E2000F004F9722000F038
:100A900011F90A2000F0FEF8732000F00BF9122083
:100AA00000F0F8F8742000F005F9192000F0F2F8D1
:100AB000752000F0FFF81D2000F0ECF8762000F023
:100AC000F9F8462000F0E6F8772000F0F3F80B2064
:100AD00000F0E0F8782000F0EDF80E2000F0DAF8F1
:100AE000792000F0E7F83D2000F0D4F87A2000F0FB
:100AF000E1F8052000F0CEF87B2000F0DBF80720BD
:100B000000F0C8F87C2000F0D5F8122000F0C2F800
:100B10007D2000F0CFF80B2000F0BCF87E2000F024
:100B2000C9F80B2000F0B6F87F2000F0C3F80820C9
:100B300000F0B0F8A02000F0BDF81E2000F0AAF8E8
:100B4000A12000F0B7F83F2000F0A4F8A22000F0A8
:100B5000B1F80A2000F09EF8A32000F0ABF80D20B9
:100B600000F098F8A42000F0A5F8082000F092F812
:100B7000A52000F09FF8232000F08CF8A62000F0BC
:100B800099F83D2000F086F8A72000F093F80420A3
:100B900000F080F8A82000F08DF8092000F07AF825
:100BA000A92000F087F8302000F074F8AA2000F0A7
:100BB00081F80A2000F06EF8AB2000F07BF80E20E0
:100BC00000F068F8AC2000F075F80E2000F062F834
:100BD000AD2000F06FF8072000F05CF8AE2000F0C8
:100BE00069F82D2000F056F8AF2000F063F81020CF
:100BF00000F050F8FF2000F05DF8002000F04AF807
:100C0000112000F057F8962000F05BFA362000F033
:100C100051F8082000F03EF8292000F04BF80A2097
:100C200000F04FFA10BD10B501210022084600F077
:100C3000B1FB642000F045FA00221146012000F0CB
:100C4000A9FBFF20F53000F03CFA01210022084604
:100C500000F0A0FB322000F034FA10BDF8B50446D5
:100C60001D4616460F462A2000F024F82046FFF7BE
:100C700063FE3046FFF760FE2B2000F01BF838467D
:100C8000FFF75AFE2846FFF757FE2C2000F012F817
:100C9000F8BD000010B5012204461146104600F0D0
:100CA00079FB034801494160046010BD8B0F0100CE
:100CB00000B0014010B5044601220021104600F0AA
:100CC00069FB034801494160046010BD8B0F0100BE
:100CD00000B00140002805DBC106C90E0120884094
:100CE000014908607047000080E200E0002805DB51
:100CF000C106C90E01208840014908607047000004
:100D000000E100E08307FF22DB0E9A400907090E8D
:100D1000994000280BDA0007000F083883080848BC
:100D20009B001818C36993430B43C3617047830842
:100D300004489B001B1818689043084318607047CC
:100D400000ED00E000E400E070B50020FFF7C4FB18
:100D50000420FFF7C1FB0820FFF7BEFB0C20FFF7C4
:100D6000BBFB1020FFF7B8FB2020FFF7B5FB2420CA
:100D7000FFF7B2FB2820FFF7AFFB2C20FFF7ACFBFF
:100D80003020FFF7A9FB0C4E3046FFF7A5FB0B4DBB
:100D900010206C68044321463046FFF7A3FB361F42
:100DA00030466C60FFF798FB054C30462146FFF754
:100DB00099FB2C6070BD0000240002400000002060
:100DC0009D78869D10B500F087F910BD094910B5D2
:100DD000401E884201D9012010BD074C60610021EE
:100DE000481EFFF78FFF0020A06107202061002030
:100DF00010BD0000FFFFFF0000E000E010B5FFF7AE
:100E0000A3FF00F083F91F2000F0D6FA00211F2075
:100E100000F0DAFA1F2000F0D3FAFFF769FB10BDEB
:100E200010B500F005F810BD10B500F083FA10BD44
:100E300008B50248C068009008BD000000100140DD
:100E400010B500F001F810BD08B50B48816809071E
:100E5000090FCA070FD102290CD0042907D006298F
:100E600008D14169C9B20A0701D5890702D40178BE
:100E70006A461170806808BD0010004010B500F08F
:100E800001F810BD08B50B4881680907090FCA07AA
:100E90000FD102290CD0042907D0062908D14169B5
:100EA000C9B20A0701D5890702D401786A461170D0
:100EB000806808BD00300040F8B5FF2301330026EC
:100EC0001A43104F0125002818D0012818D00228F5
:100ED00013D10D4C666065606660E26067622269EE
:100EE00026612361FF2303332361920602D5FF228B
:100EF00023322261FFF7C4FB6560F8BD034CE9E7CC
:100F0000034CE7E7010200000040004000100040F1
:100F100000300040054804490160054A0121D160C4
:100F2000002101607047000051E5CC1A004C0140DF
:100F3000004001402021020C01D010211046020A7D
:100F400001D010460839020901D01046091F820855
:100F500001D01046891E420801D0881E7047081A29
:100F6000704730B47446641E2578641CAB4200D2CE
:100F70001D46635D5B00E31830BC184702E008C8FB
:100F8000121F08C1002AFAD170477047002001E003
:100F900001C1121F002AFBD1704710B50720FFF7CF
:100FA000D7FA002010BDF8B500247F25ED05009488
:100FB00002E00099491C009106462946FFF709F90D
:100FC0007100090EF5D10094F8BD10B50420FFF7AB
:100FD000BFFA002010BD10B51E2000F0EDF9002171
:100FE0001E2000F0F1F91E2000F0EAF910BD00000B
:100FF000F8B526480078002846D0254C00252078F2
:10100000002804D02570E570257100F06DF9A078F6
:10101000401CC0B2A0700A2801D9A57001E00028C8
:1010200032D1FFF7BAFF6081FFF7CFFF2081A1899E
:10103000081881B2A181E0896289801880B2E081BC
:101040006278521CD2B26270072A1DD3C90865703B
:10105000C008104AA181E081914213D3E7780123AF
:101060000D4A002F07D02179491CC9B221711428DB
:1010700005D9257106E0914204D9E37002E06429A4
:1010800000D96371A581E581F8BD00000C00002046
:101090001A000020620A0000350E00000220002124
:1010A000401EFDD20220491C6E2901D2801EF7E7A6
:1010B00070470101002001E000BF401C8842FBD3C3
:1010C000704710B50446002302E0FFF7E7FF5B1C02
:1010D000A342FAD310BD000010B5074C2046FFF71D
:1010E000FBF9102102460A400843102A03D10146A9
:1010F0002046FFF7F7F910BD3C20004010B5012154
:101100000148FFF7EFF910BD0800024008B5034899
:101110000169202211430091016108BD00000140D6
:1011200010B501246B4AE4050300FFF71AFF190EFE
:10113000202B2B2B2B33393F464D545B6269707744
:101140007E858C939AA9BBCB2B000123002907D065
:10115000012917D1506818435060106888438BE00C
:1011600010681843106050684008400086E0022074
:10117000022908D0032905D1516801435160116843
:101180008143116010BD11680143116051688143B2
:10119000516010BD40200429F5D00529ECD010BDC8
:1011A00080200629EFD00729E6D010BDFF200130AE
:1011B0000829E8D00929DFD010BD012040020A2902
:1011C000E1D00B29D8D010BD012080020C29DAD043
:1011D0000D29D1D010BD0120C0020E29D3D00F2976
:1011E000CAD010BD012000031029CCD01129C3D0D2
:1011F00010BD012040031229C5D01329BCD010BD59
:10120000012080031429BED01529B5D010BD0120BE
:10121000C0031629B7D01729AED010BD0120000495
:101220001829B0D01929A7D010BD012040041A29CF
:10123000A9D01B29A0D010BD012080041C29A2D058
:101240001D2999D010BD0120C0041E299BD01F2943
:1012500092D010BD01200005202994D021298BD0E7
:1012600010BD222928D02329FAD15068012149052F
:101270000843506010688843106010BD506010BD76
:1012800001239B05242907D02529F8D1506818434C
:10129000506010689843EFE710681843106050687A
:1012A0009843EBE7262907D02729E8D15068204347
:1012B00050601068A043DFE710682043106050685A
:1012C000A043DBE701200006282987D0292987D001
:1012D00010BD00000003044002480021016041608D
:1012E00081607047000304400C480B4941600C4A80
:1012F0008260C26101630B49C1600B4A02610262F4
:1013000041630A4941610A4A826141628163002165
:1013100001600846704700007FFFF0FF005000406A
:101320003FFF00FFF0FFF7FFAFFF6FFF0D00100062
:101330000A00200008B5064801684A1C0260C82956
:1013400001DD002101600348C068009008BD000075
:10135000140000200020014030B50C4B0C4C00283C
:1013600002D0012802D003E01A6800E02268D2B25D
:1013700001258D40E9B20A43002802D0012802D09D
:1013800002E01A6000E02260002030BD00840140CD
:101390000094014091400123921C9340002805D005
:1013A000012802D102481818016070470148FAE785
:1013B000009001400080014000B5FFF78BFC00BDAC
:1013C00000B5FFF793FC00BD00B5FFF79BFC00BD27
:1013D00070B514465C43CB1882185B1E521E9BB23C
:1013E00092B2049DFFF73AFCA2B229460020FFF713
:1013F00035FA70BD1CB5FFF701FDFFF7ECFDFFF7F7
:10140000ABFAFFF769FF21211420FFF789FE2521A0
:101410001620FFF785FE27211720FFF781FE2221E6
:101420001520FFF77DFE06210720FFF779FE00203B
:10143000FFF7D4F9FFF79EFA7F2300211A460846EA
:10144000FFF70CFCFFF762F80124640322462C49E5
:101450000020FFF71FFA2B48FFF72BFE22462A49F0
:101460000020FFF717FA7D25AD012846FFF721FE82
:10147000224626490020FFF70DFA2846FFF719FEFD
:1014800000206946888001A88023002100901A4628
:101490000846FFF79DFF2846FFF70BFE6D230A2144
:1014A0001A460846FFF7DAFB194C1A492246002073
:1014B000FFF70CFA2846FFF7FCFDE1256D02032239
:1014C00029460020FFF7F8FC032229460120FFF7F8
:1014D000F3FC09210820FFF723FE0B210920FFF769
:1014E0001FFE0D210A20FFF71BFE0B49012008708B
:1014F0002046FFF76BFCFFF731F9FFF779FDFAE7BC
:10150000281500001027000028950000281501006C
:10151000204E0000289501002F00002072B6002008
:10152000704762B67047000002E002E002E002E0AD
:1015300002E002E002E002E002E002E002E002E09B
:1015400002E002E002E002E002E002E002E002E08B
:1015500002E002E002E002E002E002E002E002E07B
:1015600002E002E002E002E002E002E002E002E06B
:1017B00002E002E802E002E002E001E002E802E00A
:1017C00002E002E002E002E002E002E002E002E009
:1017D00002E002E002E002E002E002E002E002E0F9
:1017E00002E002E002E002E002E002E002E002E0E9
:1017F00002E002E002E002E002E002E002E002E0D9
:1018000002E002E002E002E002E002E002E002E0C8
:1018100002E002E002E002E002E002E002E002E0B8
:1018200002E002E002E002E002E002E002E002E0A8
:1018300002E002E002E002E002E002E002E002E098
:1018400002E002E002E002E002E002E002E002E088
:1018500002E002E002E002E002E002E002E002E078
:1018600002E002E002E002E002E002E002E002E068
:1018700002E002E002E002E002E002E002E002E058
:1018800002E002E002E002E002E002E002E002E048
:1018900002E002E002E002E002E002E002E002E038
:1018A00002E002E022E802E002E002E002E002E8F8
:1018B00002E001E021E802E022E042E002E002E092
:1018C00002E002E002E002E002E002E002E002E008
:1018D00002E002E002E002E002E002E002E002E0F8
:1018E00002E002E002E002E002E002E002E002E0E8
:1018F00002E002E002E002E002E002E002E002E0D8
:1019000002E002E002E002E002E002E002E002E0C7
:1019100002E002E002E002E002E002E002E002E0B7
:1019200002E002E002E002E002E002E002E002E0A7
:1019300002E002E002E002E002E002E002E002E097
:1019400002E002E002E002E002E002E002E002E087
:1019500002E002E002E002E002E002E002E002E077
:1019600002E002E002E002E002E002E002E002E067
:1019700002E002E002E002E002E002E002E002E057
:1019800002E002E002E002E002E002E002E002E047
:1019900002E002E002E002E002E002E002E002E037
:1019A00022E002E001E001E002E021E002E002E8E2
:1019B00002E001E061D822E081E0A3E902E021E059
:1019C00002E002E002E002E002E002E002E002E007
:1019D00002E002E002E002E002E002E002E002E0F7
:1019E00002E002E002E002E002E002E002E002E0E7
:1019F00002E002E002E002E002E002E002E002E0D7
:101A000002E002E002E002E002E002E002E002E0C6
:101A100002E002E002E002E002E002E002E002E0B6
:101A200002E002E002E002E002E002E002E002E0A6
:101A300002E002E002E002E002E002E002E002E096
:101A400002E002E002E002E002E002E002E002E086
:101A500002E002E002E002E002E002E002E002E076
:101A600002E002E002E002E002E002E002E002E066
:101A700002E002E002E002E002E002E002E002E056
:101A800002E002E002E002E002E002E002E002E046
:101A900002E002E002E002E002E002E002E002E036
:101AA00002E002E022E001E022E021E002E021E0A9
:101AB00021E002E041DA61D801E125FC02E021E009
:101AC00002E002E002E002E002E002E002E002E006
:101AD00002E002E002E002E002E002E002E002E0F6
:101AE00002E002E002E002E002E002E002E002E0E6
:101AF00002E002E002E002E002E002E002E002E0D6
:101B000002E002E002E002E002E002E002E002E0C5
:101B100002E002E002E002E002E002E002E002E0B5
:101B200002E002E002E002E002E002E002E002E0A5
:101B300002E002E002E002E002E002E002E002E095
:101B400002E002E002E002E002E002E002E002E085
:101B500002E002E002E002E002E002E002E002E075
:101B600002E002E002E002E002E002E002E002E065
:101B700002E002E002E002E002E002E002E002E055
:101B800002E002E002E002E002E002E002E002E045
:101B900002E002E002E002E002E002E002E002E035
:101BA00001E002E082D822E001D9A4E941D860D85E
:101BB00060D041D863FD01DAE0D824FD02E801E0FD
:101BC00002E002E002E002E002E002E002E002E005
:101BD00002E002E002E002E002E002E002E002E0F5
:101BE00002E002E002E002E002E002E002E002E0E5
:101BF00002E002E002E002E002E002E002E002E0D5
:101C000002E002E002E002E002E002E002E002E0C4
:101C100002E002E002E002E002E002E002E002E0B4
:101C200002E002E002E002E002E002E002E002E0A4
:101C300002E002E002E002E002E002E002E002E094
:101C400002E002E002E002E002E002E002E002E084
:101C500002E002E002E002E002E002E002E002E074
:101C600002E002E002E002E002E002E002E002E064
:101C700002E002E002E002E002E002E002E002E054
:101C800002E002E002E002E002E002E002E002E044
:101C900002E002E002E002E002E002E002E002E034
:101CA00002E002E0A1D823E8E5F464F3C1D982EBB5
:101CB000C0D1E0D0C2FE03F5C0D842FD02E802E088
:101CC00002E002E002E002E802E002E002E002E0FC
:101CD00002E002E002E002E002E002E002E002E0F4
:101CE00002E002E002E002E002E002E002E002E0E4
:101CF00002E002E002E002E002E002E002E002E0D4
:101D000002E002E002E002E002E002E002E002E0C3
:101D100002E002E002E002E002E002E002E002E0B3
:101D200002E002E002E002E002E002E002E002E0A3
:101D300002E002E002E002E002E002E002E002E093
:101D400002E002E002E002E002E002E002E002E083
:101D500002E002E002E002E002E002E002E002E073
:101D600002E002E002E002E002E002E002E002E063
:101D700002E002E002E002E002E002E002E002E053
:101D800002E002E002E002E002E002E002E002E043
:101D900002E002E002E002E002E002E002E002E033
:101DA00002E002E041E002E084FDC1D9E3FD83FEF0
:101DB00042F5A2ECC1FEC2FEC0D802F502E021E06D
:101DC00002E002E002E001E002E002E002E002E004
:101DD00002E002E002E002E002E002E002E002E0F3
:101DE00002E002E002E002E002E002E002E002E0E3
:101DF00002E002E002E002E002E002E002E002E0D3
:101E000002E002E002E002E002E002E002E002E0C2
:101E100002E002E002E002E002E002E002E002E0B2
:101E200002E002E002E002E002E002E002E002E0A2
:101E300002E002E002E002E002E002E002E002E092
:101E400002E002E002E002E002E002E002E002E082
:101E500002E002E002E002E002E002E002E001E073
:101E600002E002E002E001E002E002E002E002E063
:101E700002E002E002E002E002E002E002E002E052
:101E800002E002E002E002E002E002E002E002E042
:101E900002E002E002E002E002E002E002E002E032
:101EA00001E002E001E021E042E381D801FF83FE8E
:101EB000C1FEE1FEE1FE00FF20D122F522D841D093
:101EC00002E002E002E002E002E002E002E002E002
:101ED00002E002E002E002E002E002E002E002E0F2
:101EE00002E002E002E002E002E002E002E002E0E2
:101EF00002E002E002E002E002E002E002E002E0D2
:101F000002E002E002E002E002E002E002E002E0C1
:101F100002E002E002E002E002E002E002E002E0B1
:101F200002E002E002E002E002E002E002E002E0A1
:101F300002E002E002E002E002E002E002E002E091
:101F400002E002E002E002E002E002E002E002E081
:101F500002E002E002E002E001E002E001E001E074
:101F600002E002E002E001E002E002E002E002E062
:101F700002E002E002E002E002E002E002E002E051
:101F800002E002E002E002E002E002E002E002E041
:101F900002E002E002E002E002E002E002E002E031
:101FA00002E802E022E001E020D101E0C1FEE2F41B
:101FB00000FF00F700FF00FFA3EC82FE00D1A1DAD2
:101FC00021E061D802E002E002E002E002E002E08B
:101FD00002E002E002E002E002E002E002E002E0F1
:101FE00002E002E002E002E002E002E002E002E0E1
:101FF00002E002E002E002E002E002E002E002E0D1
:1020000002E002E002E002E002E002E002E002E0C0
:1020100002E002E002E002E002E002E002E002E0B0
:1020200002E002E002E002E002E002E002E002E0A0
:1020300002E002E002E002E002E002E002E002E090
:1020400002E002E002E002E002E002E002E002E080
:1020500002E002E002E002E021D802E082D8C2E021
:1020600002E802E002E022E002E002E002E002E038
:1020700002E002E002E002E002E002E002E002E050
:1020800002E002E002E002E002E002E002E002E040
:1020900002E002E002E002E002E002E002E002E030
:1020A00002E002E001E002E0A1D021E0C1FE01E493
:1020B000E0FE00FF00FF01FFC2FE01FF03FD43FE43
:1020C00022D903EB02E042E002E002E002E002E09B
:1020D00002E002E002E002E002E002E002E002E0F0
:1020E00002E002E002E002E002E002E002E002E0E0
:1020F00002E002E002E002E002E002E002E002E0D0
:1021000002E002E002E002E002E002E002E002E0BF
:1021100002E002E002E002E002E002E002E002E0AF
:1021200002E002E002E002E002E002E002E002E09F
:1021300002E002E002E002E002E002E002E002E08F
:1021400002E002E002E002E002E002E002E002E07F
:1021500002E002E002E002E081D802E0A2D9C4EA93
:1021600002E842E002E002E002E002E002E002E017
:1021700002E002E002E002E002E002E002E002E04F
:1021800002E002E002E002E002E002E002E002E03F
:1021900002E002E002E002E002E002E002E002E02F
:1021A00001E002E021E021E021DA61D8E1FEA2F5C0
:1021B00000FF00FFE0FE00FFC2FEC1FE44FD43FE43
:1021C000C3E1C5EB02E062E002E002E002E002E00F
:1021D00002E002E002E002E002E002E002E002E0EF
:1021E00002E002E002E002E002E002E002E002E0DF
:1021F00002E002E002E002E002E002E002E002E0CF
:1022000002E002E002E002E002E002E002E002E0BE
:1022100002E002E002E002E002E002E002E002E0AE
:1022200002E002E002E002E002E002E002E002E09E
:1022300002E002E002E002E002E002E002E002E08E
:1022400002E002E002E002E002E002E002E002E07E
:1022500002E002E002E002E040D901E062EBE4F4D7
:1022600022E081D802E002E002E002E002E002E0C7
:1022700002E002E002E002E002E002E002E002E04E
:1022800002E002E002E002E002E002E002E002E03E
:1022900002E002E002E002E002E002E002E002E02E
:1022A00001E002E041D822E0E3F481D9E2FEC2FE7F
:1022B000E0FEE1FEE2FEE0FE61E362F540D920DAF5
:1022C00021D8A1D802E022E002E002E002E002E030
:1022D00002E002E002E002E002E002E002E002E0EE
:1022E00002E002E002E002E002E002E002E002E0DE
:1022F00002E002E002E002E002E002E002E002E0CE
:1023000002E002E002E002E002E002E002E002E0BD
:1023100002E002E002E002E002E002E002E002E0AD
:1023200002E002E002E002E002E002E002E002E09D
:1023300002E002E002E002E002E002E002E002E08D
:1023400002E002E002E002E002E002E002E002E07D
:1023500002E002E001E002E861DA41D802FD44FE59
:1023600002E001D902E002E002E002E002E002E065
:1023700002E002E002E002E002E002E002E002E04D
:1023800002E002E002E002E002E002E002E002E03D
:1023900002E002E002E002E002E002E002E002E02D
:1023A00021E002E001D922E044FE24F4A2F522FE5D
:1023B00081FE61F5C2FEE1FEA0D841DB21E041E0F3
:1023C00002E022E002E002E002E002E002E002E0DD
:1023D00002E002E002E002E002E002E002E002E0ED
:1023E00002E002E002E002E002E002E002E002E0DD
:1023F00002E002E002E002E002E002E002E002E0CD
:1024000002E002E002E002E002E002E002E002E0BC
:1024100002E002E002E002E002E002E002E002E0AC
:1024200002E002E002E002E002E002E002E002E09C
:1024300002E002E002E002E002E002E002E002E08C
:1024400002E002E002E002E002E002E002E002E07C
:1024500002E001E002E002E0E2EB80D022FEE3FED7
:1024600021D821DA02E002E802E002E002E002E024
:1024700002E002E002E002E002E002E002E002E04C
:1024800002E002E002E002E002E002E002E002E03C
:1024900002E002E002E002E002E002E002E002E02C
:1024A00021E002E0E3E941D862E3A4F360D941DA34
:1024B00062E460D183FEC3FE41E081E202E002E01B
:1024C00002E002E002E002E002E002E002E002E0FC
:1024D00002E002E002E002E002E002E002E002E0EC
:1024E00002E002E002E002E002E002E002E002E0DC
:1024F00002E002E002E002E002E002E002E002E0CC
:1025000002E002E002E002E002E002E002E002E0BB
:1025100002E002E002E002E002E002E002E002E0AB
:1025200002E002E002E002E002E002E002E002E09B
:1025300002E002E002E002E002E002E002E002E08B
:1025400002E002E002E002E002E002E002E002E07B
:1025500002E002E022E002E062FD40D9A1FEE1FEDD
:1025600061D8C2EB02E002E002E002E002E002E039
:1025700002E001E002E002E002E002E002E002E04C
:1025800002E002E002E002E002E002E002E002E03B
:1025900002E002E002E002E002E002E002E002E02B
:1025A00002E002E082D822E061D8A1D821E041D83F
:1025B000E0D141D864FE84FD21E021DA02E002E0AE
:1025C00002E002E002E002E002E002E002E002E0FB
:1025D00002E002E002E002E002E002E002E002E0EB
:1025E00002E002E002E002E002E002E002E002E0DB
:1025F00002E002E002E002E002E002E002E002E0CB
:1026000002E002E002E002E002E002E002E002E0BA
:1026100002E002E002E002E002E002E002E002E0AA
:1026200002E002E002E002E002E002E002E002E09A
:1026300002E002E002E002E002E002E002E002E08A
:1026400002E002E002E002E002E002E002E002E07A
:1026500002E002E021D802E062FE80E2C1FE01FF5A
:1026600001D943F502E002E002E002E002E002E00C
:1026700002E002E002E002E002E002E002E002E04A
:1026800002E002E002E002E002E002E002E002E03A
:1026900002E002E002E002E002E002E002E002E02A
:1026A00002E002E021E001E022E022E022E002E09C
:1026B00080D002E084FD02E321E0C1D902E002E023
:1026C00002E002E002E002E002E002E002E002E0FA
:1026D00002E002E002E002E002E002E002E002E0EA
:1026E00002E002E002E002E002E002E002E002E0DA
:1026F00002E002E002E002E002E002E002E002E0CA
:1027000002E002E002E002E002E002E002E002E0B9
:1027100002E002E002E002E002E002E002E002E0A9
:1027200002E002E002E002E002E002E002E002E099
:1027300002E002E002E002E002E002E002E002E089
:1027400002E002E002E002E002E002E002E002E079
:1027500002E802E080D822E0C1FE22F401FF00FF7F
:1027600041E223FE02E021D802E002E002E002E0C2
:1027700002E002E002E002E002E002E002E002E049
:1027800002E002E002E002E002E002E002E002E039
:1027900002E002E002E002E002E002E002E002E029
:1027A00002E802E002E001E002E002E002E822E0EA
:1027B00021D802E065F3E1D822E042E102E002E044
:1027C00002E002E002E002E002E002E002E002E0F9
:1027D00002E002E002E002E002E002E002E002E0E9
:1027E00002E002E002E002E002E002E002E002E0D9
:1027F00002E002E002E002E002E002E002E002E0C9
:1028000002E002E002E002E002E002E002E002E0B8
:1028100002E002E002E002E002E002E002E002E0A8
:1028200002E002E002E002E002E002E002E002E098
:1028300002E002E002E002E002E002E002E002E088
:1028400002E002E002E002E002E002E002E002E078
:1028500002E001E060D921D8E1FE62FDE0FE00FF68
:10286000C2EBA2FE22E0A1D802E002E002E802E010
:1028700002E002E002E002E002E002E002E002E048
:1028800002E002E002E002E002E002E002E002E038
:1028900002E002E002E002E002E002E002E002E028
:1028A00002E002E002E002E802E001E002E001E012
:1028B00001E002E0C2D822E022E082D802E002E099
:1028C00002E002E002E002E002E002E002E002E0F8
:1028D00002E002E002E002E002E002E002E002E0E8
:1028E00002E001E002E002E002E002E002E002E0D9
:1028F00002E002E002E002E002E002E002E002E0C8
:1029000002E002E002E002E002E002E002E002E0B7
:1029100002E002E002E002E002E002E002E002E0A7
:1029200002E002E002E002E002E002E002E002E097
:1029300002E002E002E002E002E002E002E002E087
:1029400002E002E002E002E002E002E002E002E077
:1029500022E002E0E1E240D8E0FE42FE00F700FFA4
:1029600042F5E1FE22E061D902E801E022E002E066
:1029700002E001E002E002E002E002E002E002E048
:1029800002E002E002E002E002E002E002E002E037
:1029900002E002E002E002E002E002E002E002E027
:1029A00002E002E002E002E002E002E002E002E017
:1029B00002E002E002E002E002E022E002E002E0E7
:1029C00002E002E002E002E001E002E042E041E079
:1029D00001E021E002E021E002E002E002E002E0AA
:1029E00002E022E002E001E002E002E802E002E0B0
:1029F00002E002E002E002E002E002E002E002E0C7
:102A000002E002E002E002E002E002E002E002E0B6
:102A100002E002E002E002E002E002E002E002E0A6
:102A200002E002E002E002E002E002E002E002E096
:102A300002E002E002E002E002E002E002E002E086
:102A400002E002E002E002E002E002E001E002E077
:102A500002E002E042ECC1D8E0FEC1FE00FF00FF50
:102A600043FEE0FE41D861DA01E001E002E002E06D
:102A700002E002E002E002E002E002E002E002E046
:102A800002E002E002E002E002E002E002E002E036
:102A900002E002E002E002E002E002E002E002E026
:102AA00002E002E002E002E002E002E002E002E016
:102AB00002E002E002E002E002E002E002E002E006
:102AC00002E002E001E002E001E002E0A2E161E0F8
:102AD00041D841D901E022E022E021E002E001E01A
:102AE00002E022E003E822E002E002E002E002E08D
:102AF00002E002E002E002E002E002E002E002E0C6
:102B000002E002E002E002E002E002E002E002E0B5
:102B100002E002E002E002E002E002E002E002E0A5
:102B200002E002E002E002E002E002E002E002E095
:102B300002E002E002E002E002E002E002E002E085
:102B400002E002E002E002E002E002E001E002E076
:102B500021E002E0A2FD81D100FFE0FE00FFE0FEE7
:102B6000C2FE00FFA0D801EC22E002E002E002E099
:102B700002E002E002E002E002E002E002E002E045
:102B800002E002E002E002E002E002E002E002E035
:102B900002E002E002E002E002E002E002E002E025
:102BA00002E002E002E002E002E002E002E002E015
:102BB00002E002E002E002E002E002E002E002E005
:102BC00002E002E001E001E022E002E043EB61D834
:102BD00060D103F402E041D822E022E021D981D87B
:102BE00022E002E102E802E002E002E002E002E0AC
:102BF00002E002E002E002E002E002E002E002E0C5
:102C000002E002E002E002E002E002E002E002E0B4
:102C100002E002E002E002E002E002E002E002E0A4
:102C200002E002E002E002E002E002E002E002E094
:102C300002E002E002E002E002E002E002E002E084
:102C400002E002E002E002E002E002E002E002E074
:102C500041D802E082FEE1E200FF00FF00FFE0FE5B
:102C6000E1FE00FF60D983FD01E002E002E002E046
:102C700002E002E002E002E002E002E002E002E044
:102C800002E002E002E002E002E002E002E002E034
:102C900002E002E002E002E002E002E002E002E024
:102CA00002E002E002E002E002E002E002E002E014
:102CB00002E002E002E002E002E002E002E002E004
:102CC00002E002E002E002E001D802E0E2E261D8C4
:102CD000A2F424FE61D880D160D981D865FC21E3BB
:102CE00041E003EA01E022E002E002E002E002E06B
:102CF00002E002E002E002E002E002E002E002E0C4
:102D000002E002E002E002E002E002E002E002E0B3
:102D100002E002E002E002E002E002E002E002E0A3
:102D200002E002E002E002E002E002E002E002E093
:102D300002E002E002E002E002E002E002E002E083
:102D400002E002E002E002E002E002E002E002E073
:102D5000C0D802E0E2FE82F400FF00FF00FF01FFA6
:102D600000FF00FFC1E262FE01E021D802E002E0C4
:102D700002E002E002E002E002E002E002E002E043
:102D800002E002E002E002E002E002E002E002E033
:102D900002E002E002E002E002E002E002E002E023
:102DA00002E002E002E002E002E002E002E002E013
:102DB00002E002E002E002E002E002E002E002E003
:102DC00002E002E002E002E022E002E062E221D85A
:102DD000A2FE42FE80D203F522F542EBC4F463FE6C
:102DE00021D8E0D002E022E802E002E002E002E0C6
:102DF00002E002E002E002E002E002E002E002E0C3
:102E000002E002E002E002E002E002E002E002E0B2
:102E100002E002E002E002E002E002E002E002E0A2
:102E200002E002E002E002E002E002E002E002E092
:102E300002E002E002E002E002E002E002E002E082
:102E400002E002E002E002E002E002E002E002E072
:102E500080D921D8E1FEC2FD00FF00FF00FFE0FEA7
:102E600000FFE0FE63ECA1FE01E0A0D002E002E082
:102E700002E002E002E002E002E002E002E002E042
:102E800002E002E002E002E002E002E002E002E032
:102E900002E002E002E002E002E002E002E002E022
:102EA00002E002E002E002E002E002E002E002E012
:102EB00002E002E002E002E002E002E002E002E002
:102EC00002E002E002E002E002E002E0A1D901E05B
:102ED000E1FEE2FD22F6C2FEC2FE82FEA1E243FE58
:102EE00022E041D802E002E002E002E002E002E07B
:102EF00002E002E002E002E002E002E002E002E0C2
:102F000002E002E002E002E002E002E002E002E0B1
:102F100002E002E002E002E002E002E002E002E0A1
:102F200002E002E002E002E002E002E002E002E091
:102F300002E002E001E002E002E002E002E002E082
:102F400002E002E002E002E002E002E002E002E071
:102F500022E361D001FF62FE00FFE0FE00FF00FF00
:102F600000FF00FF82F5E1FE21E080D902E002E0EF
:102F700002E002E002E002E002E002E002E002E041
:102F800002E002E002E002E002E001E002E002E032
:102F900002E001E002E002E002E002E002E002E022
:102FA00002E002E002E002E002E002E002E002E011
:102FB00002E002E002E002E002E002E002E002E001
:102FC00002E002E002E002E021E001E000D261D88C
:102FD000E0FEC2F501F701FFE2FEC1FE20D9E2F4F6
:102FE00002E021D801E002E802E002E002E002E0B3
:102FF00002E002E002E002E002E002E002E002E0C1
:1030000002E002E002E002E002E002E002E002E0B0
:1030100002E002E002E002E002E002E002E002E0A0
:1030200002E002E002E002E002E002E001E022E071
:1030300021E001D802E022E002E002E021E021E00C
:1030400021E021E021E021E021D821E040D821D871
:10305000C3F4E0D0E0FEC1FE00FF00FF00FF00FF70
:1030600000FF00FF82FE00FF81D801E322E021D8AB
:1030700021E002E001E021E022E001E001D822E0CD
:1030800022E021E022E002E021E022D822E021D863
:1030900022E802E002E001E002E002E002E002E0F9
:1030A00002E002E002E002E002E002E002E002E010
:1030B00002E002E002E002E002E002E002E002E000
:1030C00002E002E022E002E001D941D802EDA1DAFB
:1030D000E0FEA1FEE0FE00FFC1FE01FF80D880DB24
:1030E00023E822D801E002E002E001E002E002E091
:1030F00002E002E002E002E002E002E002E002E0C0
:1031000002E002E002E002E002E002E002E002E0AF
:1031100002E002E002E002E002E002E002E002E09F
:1031200002E002E002E002E002E002E081D041D8E9
:1031300020D100D120D120D140D120D180D960D957
:10314000C0D980D9E0D9E0D900DA00DA60DA20DA33
:1031500002FE40DBE0FEE1FE00FF00FF00FF00FF9B
:1031600000FF00FFC1FE00FFA1DA01ED20DA40E21E
:10317000E0E100DAC0D9E0D9A0D9A0D960D980D9DE
:1031800040D160D100D120D1C0D0E0C822E081D0B0
:1031900002E002E002E002E002E002E002E002E01F
:1031A00002E002E002E002E002E002E002E002E00F
:1031B00002E002E002E002E002E002E002E002E0FF
:1031C00002E002E0A1D822E083F421DAE2FE23FE4D
:1031D000E0FEE1FE00FF00FF01FF00FFE1D922F564
:1031E00021E041D802E022E002E002E002E002E059
:1031F00002E002E002E002E002E002E002E002E0BF
:1032000002E002E002E002E002E002E002E002E0AE
:1032100002E002E002E002E002E002E002E002E09E
:1032200002E002E002E002E021E002E045F3C2E059
:10323000A4FD25FDC4FDC4FDE3FDE3FD03FEE3FDA8
:1032400002FE02FE22FE02FE42FE42FE62FE42FE3E
:10325000C1FEA2FEE0FEE1FE00FFE0FE00FF00FF77
:1032600000FF00FFE0FE00FF62FEE1FE61FE42FEA5
:1032700042FE42FE22FE42FE02FE02FEE3FD02FE8E
:10328000C4FDE3FDC4FDC3FD86FC84FD42D844EAD1
:1032900002E002E002E001E802E002E002E002E017
:1032A00002E002E002E002E002E002E002E002E00E
:1032B00002E002E002E002E002E002E002E002E0FE
:1032C00002E002E0E4E942E064FD65F4A2FE03FEF0
:1032D000E1FEC2FE00FF01FF01FF01FF03F5C2FE98
:1032E00061D8C1D902E022E002E001E002E002E0A0
:1032F00002E002E002E002E002E002E002E002E0BE
:1033000002E002E002E002E002E002E002E002E0AD
:1033100002E002E002E002E002E002E002E002E09D
:1033200002E002E002E002E001E002E020D921D860
:1033300043FEC2EBE1FEC2FEE1FEE1FEE0FEE0FE86
:10334000E0FEE0FE00FFE0FE00FF00FFE1FE00FF08
:10335000E0FE01FF00FF00FF00FF20FF00FF00FF75
:1033600000FF00FF00FF00FF00FF00FF00FF01FF64
:10337000E0FEE0FEE0FE00FFE0FEE0FEE0FEE0FE3C
:10338000E1FEE1FEA3FEE1FEA2E263FD22E0A0D0A9
:1033900002E002E002E002E802E002E002E002E015
:1033A00002E002E002E002E002E002E002E002E00D
:1033B00002E002E002E002E002E002E002E002E0FD
:1033C00002E002E060D822E0A1D9E1D801DB61E2AD
:1033D000A2FE82E4E1FEE1FE83FEA2FE83FEC3FEC6
:1033E00081E1C4F422E842E002E002E002E002E00F
:1033F00002E002E002E002E002E002E002E002E0BD
:1034000002E002E002E002E002E002E002E002E0AC
:1034100002E002E002E002E002E002E002E002E09C
:1034200002E002E002E002E022E002E021D802E055
:10343000E1E2C1D8C1FEA3FD00FF00FF00FF00FFD5
:1034400000FF00FF00FF00FF00FF00FF00FF00FF84
:1034500001FFE0FE00FF00FF00FF00FF00FF00FF94
:1034600000FF00FF00FF00FF00FF00FFE0FE00FF85
:1034700000FF00FF00FF00FF00FF00FF00FF00FF54
:10348000E1FE00FFA3FC82FE61D8E0D902E022E069
:1034900002E002E802E002E002E002E002E002E014
:1034A00002E002E002E002E002E002E002E002E00C
:1034B00002E002E002E002E002E002E002E002E0FC
:1034C00002E002E002E002E021D801E081D822E03F
:1034D00003FEC0D162FE01FF61DAA1E382EBE1E20B
:1034E000E4F203F422E0C2E002E002E002E002E0E3
:1034F00002E002E002E002E002E002E002E002E0BC
:1035000002E002E002E002E002E002E002E002E0AB
:1035100002E002E002E002E002E002E002E002E09B
:1035200002E002E002E002E002E002E002E002E08B
:1035300080D822E0E3F401DAE1FE82FE00FF01FF21
:10354000E0FEE0FEE0FEE0FE00FF00FF00FF00FF07
:1035500000FF00FF00FF00FF00FF00FF00FF00FF73
:1035600000FF00FFE0FE00FF00FF00FF00FF00FF84
:1035700000FF00FF00FF00FFE0FEE0FEE0FE01FFB5
:1035800022FEE1FE21D9E3EB02E041D802E002E0B5
:1035900002E002E002E002E002E002E002E002E01B
:1035A00002E002E002E002E002E002E002E002E00B
:1035B00002E002E002E002E002E002E002E002E0FB
:1035C00002E002E002E002E002E001E022E002E0CC
:1035D00043FDE0D002F5C2FE61D820D180D861D889
:1035E00081D880D802E021E002E002E002E002E0BF
:1035F00002E002E002E002E002E002E002E002E0BB
:1036000002E002E002E002E002E002E002E002E0AA
:1036100002E002E002E002E002E002E002E002E09A
:1036200002E002E002E002E002E002E002E002E08A
:1036300001E002E860D961D843FE02EC00FFE1FE40
:1036400000FF00FF00FF00FFE0FEE0FE00FF00FFC4
:1036500000FF00FF00FF00FF00FF00FF00FF00FF72
:1036600000FF00FF00FF00FF00FF00FF00FF00FF62
:1036700000FF00FFE0FE00FF00FF00FFC2FEE1FED2
:10368000E1DAA2F521E0C0D802E002E002E002E0C7
:1036900002E002E002E002E002E002E002E002E01A
:1036A00002E002E002E002E002E002E002E002E00A
:1036B00002E002E002E002E002E002E002E002E0FA
:1036C00002E002E002E002E002E001E002E002E0EB
:1036D00062F4A0D881DA24FE02E061D821E021E082
:1036E00001E001E002E002E002E002E002E002E0CC
:1036F00002E002E002E002E002E002E002E002E0BA
:1037000002E002E002E002E002E002E002E002E0A9
:1037100002E002E002E002E002E002E002E002E099
:1037200002E002E002E002E002E002E002E002E089
:1037300002E802E821D802E0E1E2E0D0C1FEC3FDE8
:10374000E0FEE0FE00FFE0FE00FF00FFE0FEE0FE26
:1037500000FF00FF00FF00FF00FF00FF00FF00FF71
:1037600000FF00FF00FF00FF00FF00FF00FF00FF61
:1037700000FF00FF00FF00FFC1FE00FFC2F482FE59
:1037800081D8E0D102E021E002E001E002E002E0C5
:1037900002E002E002E002E002E002E002E002E019
:1037A00002E002E002E002E002E002E002E002E009
:1037B00002E002E002E002E002E002E002E002E0F9
:1037C00002E002E002E002E002E001E002E002E0EA
:1037D00042EB61D801D964F402E022E002E022E089
:1037E00002E002E002E002E002E002E002E002E0C9
:1037F00002E002E002E002E002E002E002E002E0B9
:1038000002E002E002E002E002E002E002E002E0A8
:1038100002E002E002E002E002E002E002E002E098
:1038200002E002E002E002E002E802E002E002E080
:1038300002E001E002E002E081D802E023F520DAB4
:1038400000FFA2FEE0FEE0FE00FF00FF00FF00FF21
:1038500000FF00FF00FF00FF00FF00FF00FF00FF70
:1038600000FF00FF00FF00FF00FF00FF00FF00FF60
:1038700000FF00FF00FFE0FE23FEE1FE41D1C2EBAE
:1038800001E061D802E002E002E001E002E002E0D3
:1038900002E002E002E002E002E002E002E002E018
:1038A00002E002E002E002E002E002E002E002E008
:1038B00002E002E002E002E002E002E002E002E0F8
:1038C00002E002E002E002E001E001E002E802E0E2
:1038D000C2E141E041D803E202E022E002E002E07E
:1038E00002E002E002E002E002E002E002E002E0C8
:1038F00002E002E002E002E002E002E002E002E0B8
:1039000002E002E002E002E002E002E002E002E0A7
:1039100002E002E002E002E002E002E002E002E097
:1039200002E002E002E002E002E002E002E001E088
:1039300002E002E002E002E021E002E081D161D891
:1039400043FE02ECE0FEE1FEE0FE00FF00FF00FFB0
:1039500000FF00FF00FF00FF00FF00FF00FF00FF6F
:1039600000FF00FF00FF00FF00FF00FFE0FE00FF80
:1039700000FFE0FEC2FEE0FEE2DAA3FD41D8E1D0A6
:1039800002E822E002E002E002E002E002E002E0FF
:1039900002E002E002E002E002E002E002E002E017
:1039A00002E002E002E002E002E002E002E002E007
:1039B00002E002E002E002E002E002E002E002E0F7
:1039C00002E002E002E002E002E002E002E802E0DF
:1039D00062E022E001D882E002E822E002E002E8B0
:1039E00002E002E002E002E002E002E002E002E0C7
:1039F00002E002E002E002E002E002E002E002E0B7
:103A000002E002E002E002E002E002E002E002E0A6
:103A100002E002E002E002E002E002E002E002E096
:103A200002E002E002E002E001E002E002E802E07F
:103A300002E002E002E002E002E002E021D822E03F
:103A400001E300D9E1FEC3FDE1FE01FF00FF00FF3D
:103A500000FF00FF00FF00FF00FF00FF00FF00FF6E
:103A600000FF00FFE0FE00FF00FF00FFE0FEE0FEC1
:103A7000E1FEE0FEE3F4A2FE81D800DA02E021E0FC
:103A800002E002E002E022E002E002E002E002E006
:103A900002E002E002E002E002E002E002E002E016
:103AA00002E002E002E002E002E002E002E002E006
:103AB00002E002E002E002E002E002E002E002E0F6
:103AC00002E002E002E002E001E002E002E002E0E7
:103AD00002E002E002E021E001E002E002E002E0B8
:103AE00002E002E002E002E002E002E002E002E0C6
:103AF00002E002E002E002E002E002E002E002E0B6
:103B000002E002E002E002E002E002E002E002E0A5
:103B100002E002E002E002E002E002E002E002E095
:103B200002E002E002E002E002E002E002E002E085
:103B300002E002E002E002E002E002E002E002E075
:103B400080D021E003F562DA01FFA2FE00FF00FF52
:103B500000FF00FF00FF00FF00FF00FF00FF00FF6D
:103B600000FF00FFE0FE00FF00FF00FF00FF00FF7E
:103B700022FEE1FE61D922EC22E041D802E002E01F
:103B800002E002E002E002E002E002E002E002E025
:103B900002E002E002E002E002E002E002E002E015
:103BA00002E002E002E002E002E002E002E002E005
:103BB00002E002E002E002E002E002E002E002E0F5
:103BC00002E002E002E002E002E002E002E002E0E5
:103BD00002E002E002E002E002E002E002E002E0D5
:103BE00002E002E002E002E002E002E002E002E0C5
:103BF00002E002E002E002E002E002E002E002E0B5
:103C000002E002E002E002E002E002E002E002E0A4
:103C100002E002E002E002E002E002E002E002E094
:103C200002E002E002E002E002E002E002E002E084
:103C300002E002E002E002E002E002E002E002E074
:103C400022E022E080D141D8A2F662EC00FFE1FE42
:103C500000FF00FF00FF00FF00FF00FF00FF00FF6C
:103C600000FF00FF00FF00FFE0FE00FFE0FE00FF9E
:103C700002E3E2FD22D8E0D802E802E002E021E01F
:103C800002E002E002E002E002E002E002E002E024
:103C900002E002E002E002E002E002E002E002E014
:103CA00002E002E002E002E002E002E002E002E004
:103CB00002E002E002E002E002E002E002E002E0F4
:103CC00002E002E002E002E002E002E002E002E0E4
:103CD00002E002E002E002E002E002E002E002E0D4
:103CE00002E002E002E002E002E002E002E002E0C4
:103CF00002E002E002E002E002E002E002E002E0B4
:103D000002E002E002E002E002E002E002E002E0A3
:103D100002E002E002E002E002E002E002E002E093
:103D200002E002E002E002E002E002E002E002E083
:103D300002E002E002E002E002E002E002E002E073
:103D400002E002E060D822E802FEE0D100FFE1FEDE
:103D500000FF00FF00FF00FF00FF00FF00FF00FF6B
:103D600000FF00FFE0FEE0FEE0FE00FFC0FE00FFFF
:103D7000E0D0C1EC02E042E002E802E802E001E04B
:103D800002E002E002E002E002E002E002E002E023
:103D900002E002E002E002E002E002E002E002E013
:103DA00002E002E002E002E002E002E002E002E003
:103DB00002E002E002E002E002E002E002E002E0F3
:103DC00002E002E002E002E002E002E002E002E0E3
:103DD00002E002E002E002E002E002E002E002E0D3
:103DE00002E002E002E002E002E002E002E002E0C3
:103DF00002E002E002E002E002E002E002E002E0B3
:103E000002E002E002E002E002E002E002E002E0A2
:103E100002E002E002E002E002E002E002E002E092
:103E200002E002E002E002E002E002E002E002E082
:103E300002E002E002E002E002E002E002E002E072
:103E400002E002E061D801E062FE61DA00FF00FFFB
:103E500000FF00FF00FFE0FE00FF00FF00FF00FF8B
:103E600000FF00FF00FF00FFE0FE00FF01FF00FF7A
:103E700000D143FD02E001E002E001E002E022E0C7
:103E800002E002E002E002E002E002E002E002E022
:103E900002E002E002E002E002E002E002E002E012
:103EA00002E002E002E002E002E002E002E002E002
:103EB00002E002E002E002E002E002E002E002E0F2
:103EC00002E002E002E002E002E002E002E002E0E2
:103ED00002E002E002E002E002E002E002E002E0D2
:103EE00002E002E002E002E002E002E002E002E0C2
:103EF00002E002E002E002E002E002E002E002E0B2
:103F000002E002E002E002E002E002E002E002E0A1
:103F100002E002E002E002E002E002E002E002E091
:103F200002E002E002E002E002E002E002E002E081
:103F300002E002E002E002E002E002E002E002E071
:103F400002E002E0A1D802E0E2FE02EC00FF00FF86
:103F500000FF00FF00FF00FF00FF00FF00FF00FF69
:103F600000FF00FF00FF00FF00FF00FFE0F600FF82
:103F700001E223FE02E022E002E022E802E002E0A9
:103F800002E002E002E002E002E002E002E002E021
:103F900002E002E002E002E002E002E002E002E011
:103FA00002E002E002E002E002E002E002E002E001
:103FB00002E002E002E002E002E002E002E002E0F1
:103FC00002E002E002E002E002E002E002E002E0E1
:103FD00002E002E002E002E002E002E002E002E0D1
:103FE00002E002E002E002E002E002E002E002E0C1
:103FF00002E002E002E002E002E002E002E002E0B1
:1040000002E002E002E002E002E002E002E002E0A0
:1040100002E002E002E002E002E002E002E002E090
:1040200002E002E002E002E002E002E002E002E080
:1040300002E002E002E002E002E002E002E002E070
:1040400002E002E020D921E0E1FE63FD00FF00FF75
:10405000E0FE00FF00FF00FF00FF00FF00FF00FF89
:1040600000FF00FF00FF00FFE0FE00FF00FFE0FE9A
:10407000C2EBA2FE02E061D802E002E002E002E050
:1040800002E002E002E002E002E002E002E002E020
:1040900002E002E002E002E002E002E002E002E010
:1040A00002E002E002E002E002E002E002E002E000
:1040B00002E002E002E002E002E002E002E002E0F0
:1040C00002E002E002E002E002E002E002E002E0E0
:1040D00002E002E002E001E002E002E002E002E0D1
:1040E00002E002E002E002E002E002E002E002E0C0
:1040F00002E002E002E002E002E002E002E002E0B0
:1041000002E002E002E002E002E002E002E002E09F
:1041100002E002E002E002E002E002E002E002E08F
:1041200002E002E002E002E002E002E002E002E07F
:1041300002E002E002E002E002E002E002E002E06F
:1041400002E002E021E241D8E1FE42FE00FF00FF72
:10415000E0FEE0FEE0FEE0FEE0FEE0FE00FF00FF2D
:1041600000FF00FF00FFE0FEE0FE00FF00FF00FF99
:1041700002F5E1FE22E0E0D002E002E002E002E02F
:1041800002E002E002E002E002E002E002E002E01F
:1041900002E002E002E002E002E002E002E002E00F
:1041A00002E002E002E002E002E002E002E002E0FF
:1041B00002E002E002E002E002E002E002E002E0EF
:1041C00002E002E002E002E002E002E002E002E0DF
:1041D00002E002E002E002E002E802E002E002E0C7
:1041E00002E002E002E002E002E002E002E002E0BF
:1041F00002E002E002E002E002E002E002E002E0AF
:1042000002E002E002E002E002E002E002E002E09E
:1042100002E002E002E002E002E002E002E002E08E
:1042200002E002E002E002E002E002E002E002E07E
:1042300002E002E002E002E002E002E002E002E06E
:1042400002E002E0A2EB61D000FFA2FEE0FE00FF70
:1042500000FF00FF00FF00FFE1FE00FF01FFE0F6AE
:1042600000FF01FF00FF00FF00FF00FF00FF00FF55
:10427000E2FDE0FE22E0E1D902E002E002E002E03D
:1042800002E002E002E002E002E002E002E002E01E
:1042900002E002E002E002E002E002E002E002E00E
:1042A00002E002E002E002E002E002E002E002E0FE
:1042B00002E002E002E002E002E002E002E002E0EE
:1042C00002E002E002E002E002E002E002E002E0DE
:1042D00022E002E041E002E001E022E002E002E050
:1042E00002E002E002E002E002E002E002E002E0BE
:1042F00002E002E002E002E002E002E002E002E0AE
:1043000002E002E002E002E002E002E002E002E09D
:1043100002E002E002E002E002E002E002E002E08D
:1043200002E002E002E002E002E002E002E002E07D
:1043300002E002E002E002E002E002E002E002E06D
:1043400002E002E002F5E0D000FFC1FE00FF00FF46
:10435000E0FE00FFE0FE00FFE1FEE1FEC1FEC1FE67
:1043600000FFC1FE00FF00FF00FF00FF00FF00FF95
:1043700081FE00FF61D821EB02E002E002E001E0F3
:1043800002E002E002E002E002E002E002E002E01D
:1043900002E002E002E002E002E002E002E002E00D
:1043A00002E002E002E002E002E002E002E002E0FD
:1043B00002E002E002E002E002E002E002E002E0ED
:1043C00002E002E001E002E002E002E002E002E0DE
:1043D00002E002E042E142D801E062E002E802E0ED
:1043E00002E002E002E002E002E002E802E002E0B5
:1043F00002E002E002E002E002E002E002E002E0AD
:1044000002E002E002E002E002E002E002E002E09C
:1044100002E002E002E002E002E002E002E002E08C
:1044200002E002E002E002E002E002E002E002E07C
:1044300002E002E002E002E002E002E002E002E06C
:1044400021D802E002FEE0D900FFE1FE00FF00FFFC
:10445000E0FEE0FEE0FE00FFC2FDC2FE62ECE1E332
:10446000E1FE43FE00FF00FF00FF00FF00FF00FF32
:10447000E1FE00FFC1D862F402E822E002E002E0BF
:1044800002E002E002E002E002E002E002E002E01C
:1044900002E002E002E002E002E002E002E002E00C
:1044A00002E002E002E002E002E002E002E002E0FC
:1044B00002E002E002E002E002E002E002E002E0EC
:1044C00002E002E002E002E002E002E002E002E0DC
:1044D00022E002E084F362E121E0C1D802E802E0D8
:1044E00002E002E002E002E002E002E802E002E0B4
:1044F00002E002E002E002E002E002E002E002E0AC
:1045000002E002E002E002E002E002E002E002E09B
:1045100002E002E002E002E002E002E002E002E08B
:1045200002E002E002E002E002E002E002E002E07B
:1045300002E002E002E002E002E002E002E002E06B
:1045400040D802E082FE21E300FFE0FE00FF00FF12
:1045500000FFE0FE83FEE1FE01DAA2ECE1D080D0B4
:10456000A3F502E301FFC2FE00FF00FF00FF00FF12
:10457000E1FE00FF80D9A2FD02E822E002E002E0B5
:1045800002E002E002E002E002E002E002E002E01B
:1045900002E002E002E002E002E002E002E002E00B
:1045A00002E002E002E002E002E002E002E002E0FB
:1045B00002E002E002E002E002E002E002E002E0EB
:1045C00002E002E002E002E802E002E002E002E0D3
:1045D00040D802E085FDE2E221E0E0D902E002E01D
:1045E00002E002E002E002E002E002E002E002E0BB
:1045F00002E002E002E002E002E002E002E002E0AB
:1046000002E002E002E002E002E002E002E002E09A
:1046100002E002E002E002E002E002E002E002E08A
:1046200002E002E002E002E002E002E002E002E07A
:1046300002E002E002E002E002E002E002E002E06A
:10464000C0D802E0C1FE61EC00FF00FF00FF00FFE8
:10465000C1FE00FF62E3E3FD42D841D121E021D851
:10466000E1D981D862FE82F400FFE1FE00FF00FF85
:10467000E0FE00FF81E283FE01E041E002E022E093
:1046800002E002E002E002E002E002E002E002E01A
:1046900002E002E002E002E002E002E002E002E00A
:1046A00002E002E002E002E002E002E002E002E0FA
:1046B00002E002E002E002E002E002E002E002E0EA
:1046C00002E002E002E002E002E002E002E002E0DA
:1046D000E0D021E083FE62EC61D8A2EB02E001E0D1
:1046E00002E002E002E002E002E002E002E002E0BA
:1046F00002E002E002E002E002E002E002E002E0AA
:1047000002E002E002E002E002E002E002E002E099
:1047100002E002E002E002E002E002E002E002E089
:1047200002E002E002E002E002E002E002E002E079
:1047300002E002E002E002E001E002E002E002E06A
:1047400081D922E0E1FEA2FD00FF00FFE1FE01FFB2
:1047500003F5A2FEA1D841DA02E041E002E002E066
:1047600041D822E061EB00D1E1FEC2FDE0FEE0FEB7
:1047700001FF01FF02ECE2FE02E080D801E022E04E
:1047800002E002E002E002E002E002E002E002E019
:1047900002E002E002E002E002E002E002E002E009
:1047A00002E002E002E002E002E002E002E002E0F9
:1047B00002E002E002E002E002E002E002E002E0E9
:1047C00002E002E001E002E021D821E021D821D876
:1047D000C1D941D8E2FEA3FD01D1E3F421D821D80B
:1047E00021E021E002E002E002E002E802E002E073
:1047F00002E002E002E002E002E002E002E002E0A9
:1048000002E002E002E002E002E002E002E002E098
:1048100002E002E002E002E002E002E002E002E088
:1048200002E002E002E002E002E002E002E002E078
:1048300002E002E002E002E001E002E002E002E069
:1048400081E241D801FF83FEE0FE01FF23FEC1FEAD
:1048500061D9E2EB22E041D802E002E002E002E0AE
:1048600002E002E081D021D8E2F441DAE1FEA3FEC9
:1048700001FF01FF83F5E1F622E000D102E002E052
:1048800002E001E002E002E002E002E002E002E019
:1048900002E002E002E002E002E002E002E002E008
:1048A00002E002E002E002E002E002E002E002E0F8
:1048B00002E002E002E002E002E002E002E002E0E8
:1048C00002E002E061E002E001E282E121DA01E2DD
:1048D000E1E341DAE1FEA3FE21E302F6C1D901DA08
:1048E00081D9C1D941E022E102E001E002E002E029
:1048F00002E002E002E002E002E002E002E002E0A8
:1049000002E002E002E002E002E002E002E002E097
:1049100002E002E002E002E002E002E002E002E087
:1049200002E002E002E002E002E002E002E002E077
:1049300002E002E001E002E002E002E002E022E048
:1049400002EC81D8E0FEC1FE83FE01FF81DA43FD67
:1049500022E0C0D802E002E002E002E002E002E071
:1049600002E002E022E002E040D941D803FEA2EBDF
:10497000E0FEE1FE62FE00FF21D841DA01E002E044
:1049800002E002E002E002E002E002E002E002E017
:1049900002E002E002E002E002E002E002E002E007
:1049A00002E002E002E002E002E002E002E002E0F7
:1049B00002E002E002E002E002E002E002E002E0E7
:1049C00002E002E081D802E005FD84EA03FEE3FD97
:1049D00081F622FEE1FEE1FE41FE01FF02FE02FE43
:1049E000A5FCA3FD41D823E202E022E002E002E0C0
:1049F00002E002E002E002E002E002E002E002E0A7
:104A000002E002E002E002E002E002E002E002E096
:104A100002E002E002E002E002E002E002E002E086
:104A200002E002E002E002E002E002E002E002E076
:104A300002E002E002E002E002E003E002E002E065
:104A400083FD40D1C1FEE1FE22EC22FE61D880D17F
:104A500002E002E002E022E002E001E002E002E027
:104A600002E002E001E002E021D801E081DAA1D811
:104A7000A2FE23F5A1FE01FF60D802EC02E002E0F5
:104A800002E002E002E002E002E002E002E002E016
:104A900002E002E002E002E002E002E002E002E006
:104AA00002E002E002E002E002E002E002E002E0F6
:104AB00002E002E002E002E002E002E002E002E0E6
:104AC00002E002E022E002E0C2E2A1D8C2FE84FDE0
:104AD00000FFE1FEE0FE00FF01FF00FF83FEE2FEBB
:104AE00042E224F522E082D802E002E802E002E09D
:104AF00002E002E002E002E002E002E002E002E0A6
:104B000002E002E002E002E002E002E002E002E095
:104B100002E002E002E002E002E002E002E002E085
:104B200002E002E002E002E002E002E002E002E075
:104B300002E002E002E002E002E022E021D822E00E
:104B400023FE81DA83FDC2FEE1D801E301E042E009
:104B500002E022E002E802E002E002E002E002E01D
:104B600002E002E002E002E021E002E041D801D8E8
:104B700002EC81D9C2FE43FEE1D824F501E022E037
:104B800002E002E002E002E002E002E002E002E015
:104B900002E002E002E002E002E002E002E002E005
:104BA00002E002E002E002E002E002E002E002E0F5
:104BB00002E002E002E002E002E002E002E002E0E5
:104BC00002E002E002E002E081D041E0E2F421DA1A
:104BD00000FFA2FEE0FE00FF00FF01FF23EC82FECB
:104BE00041D8A1D902E022E002E003E802E002E0BD
:104BF00002E002E002E002E002E002E002E002E0A5
:104C000002E002E002E002E002E002E002E002E094
:104C100002E002E002E002E002E002E002E002E084
:104C200002E002E002E002E002E002E002E002E074
:104C300002E002E002E002E001E001E061D822E0EF
:104C400004FEC3EBC1D982F421E081D802E002E086
:104C500002E802E002E002E002E002E002E002E03C
:104C600002E002E002E002E002E002E002E802E824
:104C7000E1D841E083FDC1DA02E2A4FD01E021E0D8
:104C800002E002E002E002E002E002E002E002E014
:104C900002E002E002E002E002E002E002E002E004
:104CA00002E002E002E002E002E002E002E002E0F4
:104CB00002E002E002E002E002E002E002E002E0E4
:104CC00002E002E002E002E022E021D8E0D141D897
:104CD000E1FEA2F500FF00FFC2FEE0FE20D161E48C
:104CE00002E041E002E002E002E022E002E002E055
:104CF00002E002E002E002E002E002E002E002E0A4
:104D000002E002E002E002E002E002E002E002E093
:104D100002E002E002E002E002E002E002E002E083
:104D200002E002E002E002E002E002E002E002E073
:104D300002E002E002E002E001E001E0E1D822E866
:104D400023EBC5F342E000D101E002E802E002E01B
:104D500002E002E002E002E002E002E002E002E043
:104D600002E002E002E002E002E002E002E002E033
:104D700021E022E0C0D961D8A3EAE4F302E061E0D7
:104D800002E002E002E002E002E002E002E002E013
:104D900002E002E002E002E002E002E002E002E003
:104DA00002E002E002E002E002E002E002E002E0F3
:104DB00002E002E002E002E002E002E002E002E0E3
:104DC00002E002E002E802E002E002E0E0D921D8DD
:104DD000E1FEE2FDE0FEE0FE02FF01FFE0D0A2EC1A
:104DE00002E801E022E002E002E002E002E002E08C
:104DF00002E002E002E002E002E002E002E002E0A3
:104E000002E002E002E002E002E002E002E002E092
:104E100002E002E002E002E002E002E002E002E082
:104E200002E002E002E002E002E002E002E002E072
:104E300002E002E002E002E001E001E0A2E022E0A4
:104E400080D862E123E821D822E002E002E002E01B
:104E500002E002E002E002E002E002E002E002E042
:104E600002E002E002E002E002E002E002E002E032
:104E700002E002E041D822E023E1E2D802E021D8BA
:104E800002E002E002E002E002E002E002E002E012
:104E900002E002E002E002E002E002E002E002E002
:104EA00002E002E002E002E002E002E002E002E0F2
:104EB00002E002E002E002E002E002E002E002E0E2
:104EC00002E002E001E002E022E002E002E361D859
:104ED000E2FE63FEA1F542FEE2FE82FE80D9C3FD42
:104EE00002E022E002E002E802E001E002E002E08B
:104EF00002E002E002E002E002E002E002E002E0A2
:104F000002E002E002E002E002E002E002E002E091
:104F100002E002E002E002E002E002E002E002E081
:104F200002E002E002E002E002E002E002E002E071
:104F300002E002E002E002E002E002E022E002E041
:104F400002E022E002E002E002E002E002E002E031
:104F500002E002E002E002E002E002E002E002E041
:104F600002E002E002E002E002E002E002E002E031
:104F700002E002E022E001E022E022E002E001E0C3
:104F800002E002E002E002E002E002E002E002E011
:104F900002E002E002E002E002E002E002E002E001
:104FA00002E002E002E002E002E002E002E002E0F1
:104FB00002E002E002E002E002E002E002E002E0E1
:104FC00002E002E002E002E001E003E042ECC0D8CF
:104FD00043F584FEA0C9A1DA04FEC3E3A1E223FEE7
:104FE00002E041D802E822E802E002E002E002E04A
:104FF00002E002E002E002E002E002E002E002E0A1
:1050000002E002E002E002E002E002E002E002E090
:1050100002E002E002E002E002E002E002E002E080
:1050200002E002E002E002E002E002E002E002E070
:1050300002E002E002E002E002E002E001E002E859
:1050400002E002E002E802E002E002E802E002E040
:1050500002E002E002E002E002E002E002E002E040
:1050600002E002E002E002E002E002E002E002E030
:1050700002E002E001E002E801E001E002E002E813
:1050800002E002E002E002E002E002E002E002E010
:1050900002E002E002E002E002E002E002E002E000
:1050A00002E002E002E002E002E002E002E002E0F0
:1050B00002E002E002E002E002E002E002E002E0E0
:1050C00002E002E002E002E021E002E0C5FC61E172
:1050D00081D103EC21D861D881E2A1D0E4F3E4FCD2
:1050E00002E0A1D802E002E002E002E002E002E019
:1050F00002E002E002E002E002E002E002E002E0A0
:1051000002E002E002E002E002E002E002E002E08F
:1051100002E002E002E002E002E002E002E002E07F
:1051200002E002E002E002E002E002E002E002E06F
:1051300002E002E002E002E002E002E002E802E84F
:1051400002E001E002E022E002E002E002E002E030
:1051500002E002E002E002E002E002E002E002E03F
:1051600002E002E002E002E002E002E002E002E02F
:1051700002E002E002E002E002E002E002E002E01F
:1051800002E002E002E002E002E002E002E002E00F
:1051900002E002E002E002E002E002E002E002E0FF
:1051A00002E002E002E002E002E002E002E002E0EF
:1051B00002E002E002E002E002E002E002E002E0DF
:1051C00002E002E001E002E021E001E043EA22E146
:1051D00021D8E1E002E002E061D822E083EA61D96F
:1051E00022E081D802E002E002E001E002E002E019
:1051F00002E002E002E002E002E002E002E002E09F
:1052000002E002E002E002E002E002E002E002E08E
:1052100002E002E002E002E002E002E002E002E07E
:1052200002E002E002E002E002E002E002E002E06E
:1052300002E002E002E002E001E001E002E002E060
:1052400002E002E002E002E002E002E002E002E846
:1052500002E002E002E002E002E002E002E002E03E
:1052600002E002E002E002E002E002E002E002E02E
:1052700002E002E001E001E802E022E802E002E0F0
:1052800002E002E002E002E002E002E002E002E00E
:1052900002E002E002E002E002E002E002E002E0FE
:1052A00002E002E002E002E002E002E002E002E0EE
:1052B00002E002E002E002E002E002E002E002E0DE
:1052C00002E002E002E002E002E002E042E041E04F
:1052D00001E021E002E002E001E002E061E021D82B
:1052E00001E022E002E002E802E002E002E002E087
:1052F00002E002E002E002E002E002E002E002E09E
:1053000002E002E002E002E002E002E002E002E08D
:1053100002E002E002E002E002E002E002E002E07D
:1053200002E002E002E002E002E002E002E002E06D
:1053300002E002E002E002E002E002E002E002E05D
:1053400002E002E002E002E002E002E002E002E04D
:1053500002E002E002E002E002E002E002E002E03D
:1053600002E002E002E002E002E002E002E002E02D
:1053700002E002E002E002E002E002E002E002E01D
:1053800002E002E002E002E002E002E002E002E00D
:1053900002E002E002E002E002E002E002E002E0FD
:1053A00002E802E002E002E001E002E801E002E0DF
:1053B00002E801E001E002E002E002E001E003E8CF
:1053C00002E002E802E002E002E002E002E002E0C5
:1053D00002E002E002E002E002E002E002E002E0BD
:1053E00002E002E002E002E002E002E002E002E0AD
:1053F00002E002E002E002E002E002E002E002E09D
:1054000002E002E002E002E002E002E002E002E08C
:1054100002E002E002E002E002E002E002E002E07C
:1054200002E002E002E002E002E002E002E002E06C
:1054300002E002E002E002E002E002E002E002E05C
:1054400002E002E002E002E002E002E002E002E04C
:1054500002E002E002E002E002E002E002E002E03C
:1054600002E002E002E002E002E002E002E002E02C
:1054700002E002E002E002E002E002E002E002E01C
:1054800002E002E002E002E002E002E002E002E00C
:1054900002E002E002E002E002E002E002E002E0FC
:1054A00002E802E002E002E001E021E002E022E0A6
:1054B00002E002E002E022E022D822E002E003E083
:1054C00022E002E002E001E002E002E002E002E0AD
:1054D00002E002E002E002E002E002E002E002E0BC
:1054E00002E002E002E002E002E002E002E002E0AC
:1054F00002E002E002E002E002E002E002E002E09C
:1055000002E002E002E002E002E002E002E002E08B
:1055100002E002E002E002E002E002E002E002E07B
:1055200002E002E002E002E002E002E002E002E06B
:1055300002E002E002E002E002E002E002E002E05B
:1055400002E002E002E002E002E002E002E002E04B
:1055500002E002E002E002E002E002E002E002E03B
:1055600002E002E002E002E002E002E002E002E02B
:1055700002E002E002E002E002E002E002E002E01B
:1055800002E002E002E002E002E002E002E002E00B
:1055900002E002E002E002E002E002E002E002E0FB
:1055A00022E002E002E002E022E022E001E002E08C
:1055B00021E022E041D801E063E162D902E022D893
:1055C00002E002E802E001E002E002E002E002E0C4
:1055D00002E002E002E002E002E002E002E002E0BB
:1055E00002E002E002E002E002E002E002E002E0AB
:1055F00002E002E002E002E002E002E002E002E09B
:1056000002E002E002E002E002E002E002E002E08A
:1056100002E002E002E002E002E002E002E002E07A
:1056200002E002E002E002E002E002E002E002E06A
:1056300002E002E002E002E002E002E002E002E05A
:1056400002E002E002E002E002E002E002E002E04A
:1056500002E002E002E002E002E002E002E002E03A
:1056600002E002E002E002E002E002E002E002E02A
:1056700002E002E002E002E002E002E002E002E01A
:1056800002E002E002E002E002E002E002E002E00A
:1056900002E002E002E002E002E002E002E002E0FA
:1056A00002E002E021D821E061D882E022E021D8A6
:1056B00022E022E0A0D961D843EA44F401E021D8F5
:1056C00002E022E802E002E002E002E002E002E0A2
:1056D00002E002E002E002E002E002E002E002E0BA
:1056E00002E002E002E002E002E002E002E002E0AA
:1056F00002E002E002E002E002E002E002E002E09A
:1057000002E002E002E002E002E002E002E002E089
:1057100002E002E002E002E002E002E002E002E079
:1057200002E002E002E002E002E002E002E002E069
:1057300002E002E002E002E002E002E002E002E059
:1057400002E002E002E002E002E002E002E002E049
:1057500002E002E002E002E002E002E002E002E039
:1057600002E002E002E002E002E002E002E002E029
:1057700002E002E002E002E002E002E002E002E019
:1057800002E002E002E002E002E002E002E002E009
:1057900002E002E002E002E002E002E002E002E0F9
:1057A00002E002E062E022E003EB23EAA0D880D925
:1057B00042D822D8C3F480D900DA05FE22E021E0E5
:1057C00002E002E002E002E002E002E002E002E0C9
:1057D00002E002E002E002E002E002E002E002E0B9
:1057E00002E002E002E002E002E002E002E002E0A9
:1057F00002E002E002E002E002E002E002E002E099
:1058000002E002E002E002E002E002E002E002E088
:1058100002E002E002E002E002E002E002E002E078
:1058200002E002E002E002E002E002E002E002E068
:1058300002E002E002E002E002E002E002E002E058
:1058400002E002E002E002E002E002E002E002E048
:1058500002E002E002E002E002E002E002E002E038
:1058600002E002E002E002E002E002E002E002E028
:1058700002E002E002E002E002E002E002E002E018
:1058800002E002E002E002E002E002E002E002E008
:1058900002E002E002E002E002E002E002E002E0F8
:1058A00002E002E022E021E065FDC2D9E2EB63FD07
:1058B000E0C901D2A2FEC3F4A0D103FE22E822E097
:1058C00002E002E002E002E002E002E002E002E0C8
:1058D00002E002E002E002E002E002E002E002E0B8
:1058E00002E002E002E002E002E002E002E002E0A8
:1058F00002E002E002E002E002E002E002E002E098
:1059000002E002E002E002E002E002E002E002E087
:1059100002E002E002E002E002E002E002E002E077
:1059200002E002E002E002E002E002E002E002E067
:1059300002E002E002E002E002E002E002E002E057
:1059400002E002E002E002E002E002E002E002E047
:1059500002E002E002E002E002E002E002E002E037
:1059600002E002E002E002E002E002E002E002E027
:1059700002E002E002E002E002E002E002E002E017
:1059800002E002E002E002E002E002E002E002E007
:1059900002E002E002E002E002E002E002E002E0F7
:1059A00002E002E021E002E0C2EBA1D8A2FE82FE0A
:1059B000C2F5E3FDE1FEC1FE40D1A2FD02E821D81F
:1059C00002E002E002E002E002E002E002E002E0C7
:1059D00002E002E002E002E002E002E002E002E0B7
:1059E00002E002E002E002E002E002E002E002E0A7
:1059F00002E002E002E002E002E002E002E002E097
:105A000002E002E002E002E002E002E002E002E086
:105A100002E002E002E002E002E002E002E002E076
:105A200002E002E002E002E002E002E002E002E066
:105A300002E002E002E002E002E002E002E002E056
:105A400002E002E002E002E002E002E002E002E046
:105A500002E002E002E002E002E002E002E002E036
:105A600002E002E002E002E002E002E002E002E026
:105A700002E002E002E002E002E002E002E002E016
:105A800002E002E002E002E002E002E002E002E006
:105A900002E002E002E002E002E002E002E002E0F6
:105AA00002E002E001E002E0C0D942E0E1FEA3FD35
:105AB000E1FEE1FEE1FEE0FEA0D1A2FD22E060D029
:105AC00022E001E002E002E002E002E002E002E0A7
:105AD00002E002E002E002E002E002E002E002E0B6
:105AE00002E002E002E002E002E002E002E002E0A6
:105AF00002E002E002E002E002E002E002E002E096
:105B000002E002E002E002E002E002E002E002E085
:105B100002E002E002E002E002E002E002E002E075
:105B200002E002E002E002E002E002E002E002E065
:105B300002E002E002E002E002E002E002E002E055
:105B400002E002E002E002E002E002E002E002E045
:105B500002E002E002E002E002E002E002E002E035
:105B600002E002E002E002E002E002E002E002E025
:105B700002E002E002E002E002E002E002E002E015
:105B800002E002E002E002E002E002E002E002E005
:105B900002E002E002E002E002E002E002E002E0F5
:105BA00002E002E001E002E8A0D021D8A1FE01E479
:105BB00000FF00FFE1FE00FFE2F482FE01D9C1DA3E
:105BC00021E061D802E002E002E002E002E002E04F
:105BD00002E002E002E002E002E002E002E002E0B5
:105BE00002E002E002E002E002E002E002E002E0A5
:105BF00002E002E002E002E002E002E002E002E095
:105C000002E002E002E002E002E002E002E002E084
:105C100002E002E002E002E002E002E002E002E074
:105C200002E002E002E002E002E002E002E002E064
:105C300002E002E002E002E002E002E002E002E054
:105C400002E002E002E002E002E002E002E002E044
:105C500002E002E002E002E002E002E002E002E034
:105C600002E002E002E002E002E002E002E002E024
:105C700002E002E002E002E002E002E002E002E014
:105C800002E002E002E002E002E002E002E002E004
:105C900002E002E002E002E002E002E002E002E0F4
:105CA00002E002E002E002E8E0D042D8A2FE41ECCD
:105CB000E0F601FFE0FE20FFC1FE00FFE3FC43FE33
:105CC000E1D882E202E041E002E002E002E002E02C
:105CD00002E002E002E002E002E002E002E002E0B4
:105CE00002E002E002E002E002E002E002E002E0A4
:105CF00002E002E002E002E002E002E002E002E094
:105D000002E002E002E002E002E002E002E002E083
:105D100002E002E002E002E002E002E002E002E073
